{
    "createCodeSizeLimit" : {
        "_info" : {
            "comment" : "",
            "filling-rpc-server" : "evm version 1.14.4-unstable-3d8028a6-20240513",
            "filling-tool-version" : "retesteth-0.3.2-cancun+commit.2ab0208e.Linux.g++",
            "generatedTestHash" : "1d74415bb1236c48987308b67805b8482dedc5ab137bb478bde4eb808f831c96",
            "labels" : {
                "0" : "valid",
                "1" : "invalid"
            },
            "lllcversion" : "Version: 0.5.14-develop.2023.7.11+commit.c58ab2c6.mod.Linux.g++",
            "solidity" : "Version: 0.8.21+commit.d9974bed.Linux.g++",
            "source" : "src/GeneralStateTestsFiller/stCodeSizeLimit/createCodeSizeLimitFiller.yml",
            "sourceHash" : "1f1e58a329890102f43683a188617ef3879a7bbee71fbdc9f34e7e14ddae0094"
        },
        "env" : {
            "currentBaseFee" : "0x0a",
            "currentCoinbase" : "0x2adc25665018aa1fe0e6bc666dac8fc2697ff9ba",
            "currentDifficulty" : "0x020000",
            "currentExcessBlobGas" : "0x00",
            "currentGasLimit" : "0x01312d00000",
            "currentNumber" : "0x01",
            "currentRandom" : "0x0000000000000000000000000000000000000000000000000000000000020000",
            "currentTimestamp" : "0x03e8"
        },
        "post" : {
            "Cancun" : [
                {
                    "hash" : "0xdbf3a84088e828bd426e4eab8b79c964e7d7237887e6e08401f42f82fe139793",
                    "indexes" : {
                        "data" : 0,
                        "gas" : 0,
                        "value" : 0
                    },
                    "logs" : "0x1dcc4de8dec75d7aab85b567b6ccd41ad312451b948a7413f0a142fd40d49347",
                    "txbytes" : "0xf866800a83e4e1c094b94f5374fce5edbc8e2a8697c15331677e6ebf0b80866160006000f31ca06957879e5ca2ea859efc500f71fbaabb8633c3f0a5834b18fa3d2f7267d81058a0530f5410643685c2df91d3c0e3ddb122f8fe547d715a3097810353d84f7ca8d4",
                    "state": {
                        "0xb94f5374fce5edbc8e2a8697c15331677e6ebf0b": {
                            "balance": "0x00",
                            "nonce": "0x01",
                            "code": "0x60003560005236600080f06000556001805500000000000000000000000000000000000000000000000000000000000000000000",
                            "storage": {
                                "0": "0xf1ecf98489fa9ed60a664fc4998db699cfa39d40",
                                "1": "0x01"
                            }
                        }
                    }
                },
                {
                    "hash" : "0x98f1b0769f48959e540998e2b488326b85d39462c426c15d649c916a6654d874",
                    "indexes" : {
                        "data" : 1,
                        "gas" : 0,
                        "value" : 0
                    },
                    "logs" : "0x1dcc4de8dec75d7aab85b567b6ccd41ad312451b948a7413f0a142fd40d49347",
                    "txbytes" : "0xf866800a83e4e1c094b94f5374fce5edbc8e2a8697c15331677e6ebf0b80866160016000f31ca0390753f620ef37dbf531a3fcc72e9cd91ce82bb53c2dfd9e805518dc02edc9e5a0624951fb91c52d511a0bea95a84ece588511f2c5ec5608886ba6b06e94a6b375",
                    "state": {
                        "0xb94f5374fce5edbc8e2a8697c15331677e6ebf0b": {
                            "balance": "0x00",
                            "nonce": "0x01",
                            "code": "0x60003560005236600080f06000556001805500000000000000000000000000000000000000000000000000000000000000000000",
                            "storage": {   
                                "0": "0x00",
                                "1": "0x01"
                            }
                        }   
                    }
                }
            ]
        },
        "pre" : {
            "0xa94f5374fce5edbc8e2a8697c15331677e6ebf0b" : {
                "balance" : "0x0bebc200000",
                "code" : "0x",
                "nonce" : "0x00",
                "storage" : {
                }
            },
            "0xb94f5374fce5edbc8e2a8697c15331677e6ebf0b" : {
                "balance" : "0x00",
                "code" : "0x60003560005236600080f06000556001805500",
                "nonce" : "0x00",
                "storage" : {
                }
            }
        },
        "transaction" : {
            "data" : [
                "0x620800006000f3",
                "0x620800016000f3"
            ],
            "gasLimit" : [
                "0xe4e1c0000"
            ],
            "gasPrice" : "0x0a",
            "nonce" : "0x00",
            "secretKey" : "0x45a915e4d060149eb4365960e6a7a45f334393093061116b197e3240065ff2d8",
            "sender" : "0xa94f5374fce5edbc8e2a8697c15331677e6ebf0b",
            "to" : "0xb94f5374fce5edbc8e2a8697c15331677e6ebf0b",
            "value" : [
                "0x00"
            ]
        }
    }
}