{
    "src/GeneralStateTestsFiller/Pyspecs/cancun/eip4788_beacon_root/test_beacon_root_contract.py::test_no_beacon_root_contract_at_transition[fork_ShanghaiToCancunAtTime15k-blockchain_test-timestamp_15000]" : {
        "_info" : {
            "comment" : "`execution-spec-tests` generated test",
            "description" : "Test function documentation:\n\n    Tests the fork transition to cancun in the case where the beacon root pre-deploy was not\n    deployed in time for the fork.",
            "filling-rpc-server" : "ethereum-spec-evm 0.1.0 (Git commit: 0d5cdb0351ff34b8ef13c4c07d9fa19999c73f0b)",
            "filling-tool-version" : "retesteth-0.3.2-legacy+commit.3ee677f4.Linux.g++",
            "filling-transition-tool" : "ethereum-spec-evm-resolver 0.0.1",
            "fixture_format" : "blockchain_test",
            "generatedTestHash" : "58cd8d628d15305d729405b6f9ecdeb1cc56dc50a124e6f73142709063223100",
            "hash" : "0xc188bcbb53d168952d42adedf8deab174e4a2cf717aa6a4f179be7a170765c01",
            "lllcversion" : "Version: 0.5.14-develop.2024.11.5+commit.b2b86751.mod.Linux.g++",
            "solidity" : "Version: 0.8.24+commit.e11b9ed9.Linux.g++",
            "source" : "src/GeneralStateTestsFiller/Pyspecs/cancun/eip4788_beacon_root/test_beacon_root_contract.py",
            "sourceHash" : "b619a3c5c32e2eac80e944c1baf5824099f35730f95b36fbb157ba22f7096242",
            "url" : "https://github.com/ethereum/execution-spec-tests/blob/0d5cdb0351ff34b8ef13c4c07d9fa19999c73f0b/tests/tmp/tmptest_a142fc07_18bd_444a_8983_5411d97edbf9/test_beacon_root_contract.py#L579"
        },
        "blocks" : [
            {
                "blockHeader" : {
                    "baseFeePerGas" : "0x07",
                    "blobGasUsed" : "0x00",
                    "bloom" : "0x00000000000000000000000000000000000000000000000000000000000000000000000000000000000000000000000000000000000000000000000000000000000000000000000000000000000000000000000000000000000000000000000000000000000000000000000000000000000000000000000000000000000000000000000000000000000000000000000000000000000000000000000000000000000000000000000000000000000000000000000000000000000000000000000000000000000000000000000000000000000000000000000000000000000000000000000000000000000000000000000000000000000000000000000000000000",
                    "coinbase" : "0x2adc25665018aa1fe0e6bc666dac8fc2697ff9ba",
                    "difficulty" : "0x00",
                    "excessBlobGas" : "0x00",
                    "extraData" : "0x",
                    "gasLimit" : "0x016345785d8a0000",
                    "gasUsed" : "0xcd31",
                    "hash" : "0x69eb139342e205104a7db0fc28a5a4cc7afc4dc9026c927128fe65f78ab01c89",
                    "mixHash" : "0x0000000000000000000000000000000000000000000000000000000000000000",
                    "nonce" : "0x0000000000000000",
                    "number" : "0x01",
                    "parentBeaconBlockRoot" : "0x6c31fc15422ebad28aaf9089c306702f67540b53c7eea8b7d2941044b027100f",
                    "parentHash" : "0x22a371582972d7055d8662fdff29cd7b8699c62d32803fa679936fcf7ced8168",
                    "receiptTrie" : "0x037c6a35920271e48744434ea58c2e865d703f151d7bfea7a823cfc9b4232bbb",
                    "stateRoot" : "0xbdf48e0566a3b770f2808fa4286cda87063eadc399cf3c4060a41c8a1fe0ce77",
                    "timestamp" : "0x3a98",
                    "transactionsTrie" : "0x1124cb5edf02a0f283d7be8fa1a2906916fadfb7991412d233399433624c4910",
                    "uncleHash" : "0x1dcc4de8dec75d7aab85b567b6ccd41ad312451b948a7413f0a142fd40d49347",
                    "withdrawalsRoot" : "0x2aef4d3e6939af0b4bf4c0e7572a214eb7db9ba52937e1e82ad6c64b52d2e8bb"
                },
                "blocknumber" : "1",
                "rlp" : "0xf902fff9023ea022a371582972d7055d8662fdff29cd7b8699c62d32803fa679936fcf7ced8168a01dcc4de8dec75d7aab85b567b6ccd41ad312451b948a7413f0a142fd40d49347942adc25665018aa1fe0e6bc666dac8fc2697ff9baa0bdf48e0566a3b770f2808fa4286cda87063eadc399cf3c4060a41c8a1fe0ce77a01124cb5edf02a0f283d7be8fa1a2906916fadfb7991412d233399433624c4910a0037c6a35920271e48744434ea58c2e865d703f151d7bfea7a823cfc9b4232bbbb9010000000000000000000000000000000000000000000000000000000000000000000000000000000000000000000000000000000000000000000000000000000000000000000000000000000000000000000000000000000000000000000000000000000000000000000000000000000000000000000000000000000000000000000000000000000000000000000000000000000000000000000000000000000000000000000000000000000000000000000000000000000000000000000000000000000000000000000000000000000000000000000000000000000000000000000000000000000000000000000000000000000000000000000000000000000000800188016345785d8a000082cd31823a9880a0000000000000000000000000000000000000000000000000000000000000000088000000000000000007a02aef4d3e6939af0b4bf4c0e7572a214eb7db9ba52937e1e82ad6c64b52d2e8bb8080a06c31fc15422ebad28aaf9089c306702f67540b53c7eea8b7d2941044b027100ff888b88602f88301808007830f424094000000000000000000000000000000000000100080a00000000000000000000000000000000000000000000000000000000000003a98c080a035a9aa16fe32dff96fddf1494ea4ad97520df717a9dc57949a3adffe8c2bbed6a0163da6b9f4800e493c5b7ed7d81dcc93fdd7f656fa5e183eab7a41427a01f45ec0f2d8808094000f3df6d732807ef1319fb7b8bb8522d0beac0201d8010194fffffffffffffffffffffffffffffffffffffffe01",
                "transactions" : [
                    {
                        "accessList" : [
                        ],
                        "chainId" : "0x01",
                        "data" : "0x0000000000000000000000000000000000000000000000000000000000003a98",
                        "gasLimit" : "0x0f4240",
                        "maxFeePerGas" : "0x07",
                        "maxPriorityFeePerGas" : "0x00",
                        "nonce" : "0x00",
                        "r" : "0x35a9aa16fe32dff96fddf1494ea4ad97520df717a9dc57949a3adffe8c2bbed6",
                        "s" : "0x163da6b9f4800e493c5b7ed7d81dcc93fdd7f656fa5e183eab7a41427a01f45e",
                        "sender" : "0xa94f5374fce5edbc8e2a8697c15331677e6ebf0b",
                        "to" : "0x0000000000000000000000000000000000001000",
                        "type" : "0x02",
                        "v" : "0x00",
                        "value" : "0x00"
                    }
                ],
                "uncleHeaders" : [
                ],
                "withdrawals" : [
                    {
                        "address" : "0x000f3df6d732807ef1319fb7b8bb8522d0beac02",
                        "amount" : "0x01",
                        "index" : "0x00",
                        "validatorIndex" : "0x00"
                    },
                    {
                        "address" : "0xfffffffffffffffffffffffffffffffffffffffe",
                        "amount" : "0x01",
                        "index" : "0x01",
                        "validatorIndex" : "0x01"
                    }
                ]
            }
        ],
        "config" : {
            "blobSchedule" : {
                "Cancun" : {
                    "baseFeeUpdateFraction" : "0x32f0ed",
                    "max" : "0x06",
                    "target" : "0x03"
                }
            },
            "chainid" : "0x01",
            "network" : "ShanghaiToCancunAtTime15k"
        },
        "genesisBlockHeader" : {
            "baseFeePerGas" : "0x07",
            "bloom" : "0x00000000000000000000000000000000000000000000000000000000000000000000000000000000000000000000000000000000000000000000000000000000000000000000000000000000000000000000000000000000000000000000000000000000000000000000000000000000000000000000000000000000000000000000000000000000000000000000000000000000000000000000000000000000000000000000000000000000000000000000000000000000000000000000000000000000000000000000000000000000000000000000000000000000000000000000000000000000000000000000000000000000000000000000000000000000",
            "coinbase" : "0x0000000000000000000000000000000000000000",
            "difficulty" : "0x00",
            "extraData" : "0x00",
            "gasLimit" : "0x016345785d8a0000",
            "gasUsed" : "0x00",
            "hash" : "0x22a371582972d7055d8662fdff29cd7b8699c62d32803fa679936fcf7ced8168",
            "mixHash" : "0x0000000000000000000000000000000000000000000000000000000000000000",
            "nonce" : "0x0000000000000000",
            "number" : "0x00",
            "parentHash" : "0x0000000000000000000000000000000000000000000000000000000000000000",
            "receiptTrie" : "0x56e81f171bcc55a6ff8345e692c0f86e5b48e01b996cadc001622fb5e363b421",
            "stateRoot" : "0x38e939fe284779b30e049284bb87204a7b23972a683be2820136dc73a055e9b1",
            "timestamp" : "0x00",
            "transactionsTrie" : "0x56e81f171bcc55a6ff8345e692c0f86e5b48e01b996cadc001622fb5e363b421",
            "uncleHash" : "0x1dcc4de8dec75d7aab85b567b6ccd41ad312451b948a7413f0a142fd40d49347",
            "withdrawalsRoot" : "0x56e81f171bcc55a6ff8345e692c0f86e5b48e01b996cadc001622fb5e363b421"
        },
        "genesisRLP" : "0xf9021df90217a00000000000000000000000000000000000000000000000000000000000000000a01dcc4de8dec75d7aab85b567b6ccd41ad312451b948a7413f0a142fd40d49347940000000000000000000000000000000000000000a038e939fe284779b30e049284bb87204a7b23972a683be2820136dc73a055e9b1a056e81f171bcc55a6ff8345e692c0f86e5b48e01b996cadc001622fb5e363b421a056e81f171bcc55a6ff8345e692c0f86e5b48e01b996cadc001622fb5e363b421b9010000000000000000000000000000000000000000000000000000000000000000000000000000000000000000000000000000000000000000000000000000000000000000000000000000000000000000000000000000000000000000000000000000000000000000000000000000000000000000000000000000000000000000000000000000000000000000000000000000000000000000000000000000000000000000000000000000000000000000000000000000000000000000000000000000000000000000000000000000000000000000000000000000000000000000000000000000000000000000000000000000000000000000000000000000000000808088016345785d8a0000808000a0000000000000000000000000000000000000000000000000000000000000000088000000000000000007a056e81f171bcc55a6ff8345e692c0f86e5b48e01b996cadc001622fb5e363b421c0c0c0",
        "lastblockhash" : "0x69eb139342e205104a7db0fc28a5a4cc7afc4dc9026c927128fe65f78ab01c89",
        "network" : "ShanghaiToCancunAtTime15k",
        "postState" : {
            "0x0000000000000000000000000000000000001000" : {
                "balance" : "0x010000000000",
                "code" : "0x366000602037602060003660206000720f3df6d732807ef1319fb7b8bb8522d0beac02620186a0f16000556000516001553d6002553d600060003e600051600355",
                "nonce" : "0x01",
                "storage" : {
                    "0x00" : "0x01"
                }
            },
            "0x000f3df6d732807ef1319fb7b8bb8522d0beac02" : {
                "balance" : "0x3b9aca00",
                "code" : "0x",
                "nonce" : "0x00",
                "storage" : {
                }
            },
            "0xa94f5374fce5edbc8e2a8697c15331677e6ebf0b" : {
                "balance" : "0x3635c9adc5de9a63a9",
                "code" : "0x",
                "nonce" : "0x01",
                "storage" : {
                }
            },
            "0xfffffffffffffffffffffffffffffffffffffffe" : {
                "balance" : "0x3b9aca00",
                "code" : "0x",
                "nonce" : "0x00",
                "storage" : {
                }
            }
        },
        "pre" : {
            "0x0000000000000000000000000000000000001000" : {
                "balance" : "0x010000000000",
                "code" : "0x366000602037602060003660206000720f3df6d732807ef1319fb7b8bb8522d0beac02620186a0f16000556000516001553d6002553d600060003e600051600355",
                "nonce" : "0x01",
                "storage" : {
                }
            },
            "0xa94f5374fce5edbc8e2a8697c15331677e6ebf0b" : {
                "balance" : "0x3635c9adc5dea00000",
                "code" : "0x",
                "nonce" : "0x00",
                "storage" : {
                }
            }
        },
        "sealEngine" : "NoProof"
    }
}