{
    "src/GeneralStateTestsFiller/Pyspecs/cancun/eip1153_tstore/test_basic_tload.py::test_basic_tload_after_store[fork_Cancun-blockchain_test]" : {
        "_info" : {
            "comment" : "`execution-spec-tests` generated test",
            "description" : "Test function documentation:\n\n    Ported .json vectors.\n\n    (18_tloadAfterStoreFiller.yml)\n    tload from same slot after store returns 0",
            "filling-rpc-server" : "ethereum-spec-evm 0.1.0 (Git commit: 0d5cdb0351ff34b8ef13c4c07d9fa19999c73f0b)",
            "filling-tool-version" : "retesteth-0.3.2-legacy+commit.3ee677f4.Linux.g++",
            "filling-transition-tool" : "ethereum-spec-evm-resolver 0.0.1",
            "fixture_format" : "blockchain_test",
            "generatedTestHash" : "dadf66bd946ca3c50f0e0ea0bb7b3c6f87c7f668e22939f9e628fbe4d7e027dd",
            "hash" : "0xceec65095731a47f16248a5442d3ff75b35872a7371e06bc5e1e0820281e7b18",
            "lllcversion" : "Version: 0.5.14-develop.2024.11.5+commit.b2b86751.mod.Linux.g++",
            "solidity" : "Version: 0.8.24+commit.e11b9ed9.Linux.g++",
            "source" : "src/GeneralStateTestsFiller/Pyspecs/cancun/eip1153_tstore/test_basic_tload.py",
            "sourceHash" : "3b77e4f980362a05ad816702c57f7506ddb222c1261f28e5f0c64a80e4d1aebb",
            "url" : "https://github.com/ethereum/execution-spec-tests/blob/0d5cdb0351ff34b8ef13c4c07d9fa19999c73f0b/tests/tmp/tmptest_f81c7c36_b999_4f7b_a18f_487d86f10fee/test_basic_tload.py#L242"
        },
        "blocks" : [
            {
                "blockHeader" : {
                    "baseFeePerGas" : "0x07",
                    "blobGasUsed" : "0x00",
                    "bloom" : "0x00000000000000000000000000000000000000000000000000000000000000000000000000000000000000000000000000000000000000000000000000000000000000000000000000000000000000000000000000000000000000000000000000000000000000000000000000000000000000000000000000000000000000000000000000000000000000000000000000000000000000000000000000000000000000000000000000000000000000000000000000000000000000000000000000000000000000000000000000000000000000000000000000000000000000000000000000000000000000000000000000000000000000000000000000000000",
                    "coinbase" : "0x2adc25665018aa1fe0e6bc666dac8fc2697ff9ba",
                    "difficulty" : "0x00",
                    "excessBlobGas" : "0x00",
                    "extraData" : "0x00",
                    "gasLimit" : "0x016345785d8a0000",
                    "gasUsed" : "0xa9ff",
                    "hash" : "0x174012f4e22763ff5ba234e207ddf23db09b37270b7477073da8d3434e3c36ef",
                    "mixHash" : "0x0000000000000000000000000000000000000000000000000000000000000000",
                    "nonce" : "0x0000000000000000",
                    "number" : "0x01",
                    "parentBeaconBlockRoot" : "0x0000000000000000000000000000000000000000000000000000000000000000",
                    "parentHash" : "0x01bd339317b1bb03063a1fc8a0841dce431e61d7794062b7592b51bf38d1b056",
                    "receiptTrie" : "0x9310b6cb1f8ffff4c3487dd90187d2821ba5e64f275ceb859ff0835636df64ff",
                    "stateRoot" : "0x78c26acc420374d096abbe6a6f1f25854a7dc3e75260687fecb67e410edfd137",
                    "timestamp" : "0x03e8",
                    "transactionsTrie" : "0x9f804927394e1bb027ab6bf8ff6e762b16b7ff74520bcd0a49855a5bb9e8e1e3",
                    "uncleHash" : "0x1dcc4de8dec75d7aab85b567b6ccd41ad312451b948a7413f0a142fd40d49347",
                    "withdrawalsRoot" : "0x56e81f171bcc55a6ff8345e692c0f86e5b48e01b996cadc001622fb5e363b421"
                },
                "blocknumber" : "1",
                "rlp" : "0xf902a7f9023ea001bd339317b1bb03063a1fc8a0841dce431e61d7794062b7592b51bf38d1b056a01dcc4de8dec75d7aab85b567b6ccd41ad312451b948a7413f0a142fd40d49347942adc25665018aa1fe0e6bc666dac8fc2697ff9baa078c26acc420374d096abbe6a6f1f25854a7dc3e75260687fecb67e410edfd137a09f804927394e1bb027ab6bf8ff6e762b16b7ff74520bcd0a49855a5bb9e8e1e3a09310b6cb1f8ffff4c3487dd90187d2821ba5e64f275ceb859ff0835636df64ffb9010000000000000000000000000000000000000000000000000000000000000000000000000000000000000000000000000000000000000000000000000000000000000000000000000000000000000000000000000000000000000000000000000000000000000000000000000000000000000000000000000000000000000000000000000000000000000000000000000000000000000000000000000000000000000000000000000000000000000000000000000000000000000000000000000000000000000000000000000000000000000000000000000000000000000000000000000000000000000000000000000000000000000000000000000000000000800188016345785d8a000082a9ff8203e800a0000000000000000000000000000000000000000000000000000000000000000088000000000000000007a056e81f171bcc55a6ff8345e692c0f86e5b48e01b996cadc001622fb5e363b4218080a00000000000000000000000000000000000000000000000000000000000000000f862f860800a834c4b40940000000000000000000000000000000000001000808025a07efdff7ec6ddfbc04e90c94f5d44dd9933bf9215257a940fa439299794d8270da06b46d6e5e225d1977bca6e97f3f1c654e6adb48fc5c655ea8880aa68d45bfa56c0c0",
                "transactions" : [
                    {
                        "chainId" : "0x01",
                        "data" : "0x",
                        "gasLimit" : "0x4c4b40",
                        "gasPrice" : "0x0a",
                        "nonce" : "0x00",
                        "r" : "0x7efdff7ec6ddfbc04e90c94f5d44dd9933bf9215257a940fa439299794d8270d",
                        "s" : "0x6b46d6e5e225d1977bca6e97f3f1c654e6adb48fc5c655ea8880aa68d45bfa56",
                        "sender" : "0xa94f5374fce5edbc8e2a8697c15331677e6ebf0b",
                        "to" : "0x0000000000000000000000000000000000001000",
                        "type" : "0x00",
                        "v" : "0x25",
                        "value" : "0x00"
                    }
                ],
                "uncleHeaders" : [
                ],
                "withdrawals" : [
                ]
            }
        ],
        "config" : {
            "blobSchedule" : {
                "Cancun" : {
                    "baseFeeUpdateFraction" : "0x32f0ed",
                    "max" : "0x06",
                    "target" : "0x03"
                }
            },
            "chainid" : "0x01",
            "network" : "Cancun"
        },
        "genesisBlockHeader" : {
            "baseFeePerGas" : "0x07",
            "blobGasUsed" : "0x00",
            "bloom" : "0x00000000000000000000000000000000000000000000000000000000000000000000000000000000000000000000000000000000000000000000000000000000000000000000000000000000000000000000000000000000000000000000000000000000000000000000000000000000000000000000000000000000000000000000000000000000000000000000000000000000000000000000000000000000000000000000000000000000000000000000000000000000000000000000000000000000000000000000000000000000000000000000000000000000000000000000000000000000000000000000000000000000000000000000000000000000",
            "coinbase" : "0x0000000000000000000000000000000000000000",
            "difficulty" : "0x00",
            "excessBlobGas" : "0x00",
            "extraData" : "0x00",
            "gasLimit" : "0x016345785d8a0000",
            "gasUsed" : "0x00",
            "hash" : "0x01bd339317b1bb03063a1fc8a0841dce431e61d7794062b7592b51bf38d1b056",
            "mixHash" : "0x0000000000000000000000000000000000000000000000000000000000000000",
            "nonce" : "0x0000000000000000",
            "number" : "0x00",
            "parentBeaconBlockRoot" : "0x0000000000000000000000000000000000000000000000000000000000000000",
            "parentHash" : "0x0000000000000000000000000000000000000000000000000000000000000000",
            "receiptTrie" : "0x56e81f171bcc55a6ff8345e692c0f86e5b48e01b996cadc001622fb5e363b421",
            "stateRoot" : "0x0e981ea4d6265883ebcbaf07c239a79d6dcf9a00c553ae0b8ddc38a3ce6ffbc5",
            "timestamp" : "0x00",
            "transactionsTrie" : "0x56e81f171bcc55a6ff8345e692c0f86e5b48e01b996cadc001622fb5e363b421",
            "uncleHash" : "0x1dcc4de8dec75d7aab85b567b6ccd41ad312451b948a7413f0a142fd40d49347",
            "withdrawalsRoot" : "0x56e81f171bcc55a6ff8345e692c0f86e5b48e01b996cadc001622fb5e363b421"
        },
        "genesisRLP" : "0xf90240f9023aa00000000000000000000000000000000000000000000000000000000000000000a01dcc4de8dec75d7aab85b567b6ccd41ad312451b948a7413f0a142fd40d49347940000000000000000000000000000000000000000a00e981ea4d6265883ebcbaf07c239a79d6dcf9a00c553ae0b8ddc38a3ce6ffbc5a056e81f171bcc55a6ff8345e692c0f86e5b48e01b996cadc001622fb5e363b421a056e81f171bcc55a6ff8345e692c0f86e5b48e01b996cadc001622fb5e363b421b9010000000000000000000000000000000000000000000000000000000000000000000000000000000000000000000000000000000000000000000000000000000000000000000000000000000000000000000000000000000000000000000000000000000000000000000000000000000000000000000000000000000000000000000000000000000000000000000000000000000000000000000000000000000000000000000000000000000000000000000000000000000000000000000000000000000000000000000000000000000000000000000000000000000000000000000000000000000000000000000000000000000000000000000000000000000000808088016345785d8a0000808000a0000000000000000000000000000000000000000000000000000000000000000088000000000000000007a056e81f171bcc55a6ff8345e692c0f86e5b48e01b996cadc001622fb5e363b4218080a00000000000000000000000000000000000000000000000000000000000000000c0c0c0",
        "lastblockhash" : "0x174012f4e22763ff5ba234e207ddf23db09b37270b7477073da8d3434e3c36ef",
        "network" : "Cancun",
        "postState" : {
            "0x0000000000000000000000000000000000001000" : {
                "balance" : "0x00",
                "code" : "0x5b601660015560015c6001556001600255",
                "nonce" : "0x01",
                "storage" : {
                    "0x02" : "0x01"
                }
            },
            "0x000f3df6d732807ef1319fb7b8bb8522d0beac02" : {
                "balance" : "0x00",
                "code" : "0x3373fffffffffffffffffffffffffffffffffffffffe14604d57602036146024575f5ffd5b5f35801560495762001fff810690815414603c575f5ffd5b62001fff01545f5260205ff35b5f5ffd5b62001fff42064281555f359062001fff015500",
                "nonce" : "0x01",
                "storage" : {
                    "0x03e8" : "0x03e8"
                }
            },
            "0x2adc25665018aa1fe0e6bc666dac8fc2697ff9ba" : {
                "balance" : "0x01fdfd",
                "code" : "0x",
                "nonce" : "0x00",
                "storage" : {
                }
            },
            "0xa94f5374fce5edbc8e2a8697c15331677e6ebf0b" : {
                "balance" : "0x6124fee993b55c0a",
                "code" : "0x",
                "nonce" : "0x01",
                "storage" : {
                }
            }
        },
        "pre" : {
            "0x0000000000000000000000000000000000001000" : {
                "balance" : "0x00",
                "code" : "0x5b601660015560015c6001556001600255",
                "nonce" : "0x01",
                "storage" : {
                    "0x01" : "0xff"
                }
            },
            "0x000f3df6d732807ef1319fb7b8bb8522d0beac02" : {
                "balance" : "0x00",
                "code" : "0x3373fffffffffffffffffffffffffffffffffffffffe14604d57602036146024575f5ffd5b5f35801560495762001fff810690815414603c575f5ffd5b62001fff01545f5260205ff35b5f5ffd5b62001fff42064281555f359062001fff015500",
                "nonce" : "0x01",
                "storage" : {
                }
            },
            "0xa94f5374fce5edbc8e2a8697c15331677e6ebf0b" : {
                "balance" : "0x6124fee993bc0000",
                "code" : "0x",
                "nonce" : "0x00",
                "storage" : {
                }
            }
        },
        "sealEngine" : "NoProof"
    }
}