{
    "src/GeneralStateTestsFiller/Pyspecs/cancun/eip1153_tstore/test_tstorage_clear_after_tx.py::test_tstore_clear_after_tx[fork_Cancun-evm_code_type_LEGACY-blockchain_test]" : {
        "_info" : {
            "comment" : "`execution-spec-tests` generated test",
            "description" : "Test function documentation:\n\n    First SSTOREs the TLOAD value of key 1 in slot 1. Then, it TSTOREs 1 in slot 1.\n    The second tx will re-call the contract. The storage should stay empty,\n    because the transient storage is cleared after the transaction.",
            "filling-rpc-server" : "ethereum-spec-evm 0.1.0 (Git commit: 0d5cdb0351ff34b8ef13c4c07d9fa19999c73f0b)",
            "filling-tool-version" : "retesteth-0.3.2-legacy+commit.3ee677f4.Linux.g++",
            "filling-transition-tool" : "ethereum-spec-evm-resolver 0.0.1",
            "fixture_format" : "blockchain_test",
            "generatedTestHash" : "f2158268e6661a8011df4714adef2db2d5f968ccd4a6a7dc64588dcf03ddb888",
            "hash" : "0xc9f8aaf0f6da525e877ddf939595b07eb9bc0b4bdde495435a72c62d6534649d",
            "lllcversion" : "Version: 0.5.14-develop.2024.11.5+commit.b2b86751.mod.Linux.g++",
            "solidity" : "Version: 0.8.24+commit.e11b9ed9.Linux.g++",
            "source" : "src/GeneralStateTestsFiller/Pyspecs/cancun/eip1153_tstore/test_tstorage_clear_after_tx.py",
            "sourceHash" : "311389b85100dee14bc53dddb511f4cf36f52e1562bb0abef5919459302db30c",
            "url" : "https://github.com/ethereum/execution-spec-tests/blob/0d5cdb0351ff34b8ef13c4c07d9fa19999c73f0b/tests/tmp/tmptest_3e5434f8_aa16_4c60_8fe1_6c63878b511d/test_tstorage_clear_after_tx.py#L77"
        },
        "blocks" : [
            {
                "blockHeader" : {
                    "baseFeePerGas" : "0x07",
                    "blobGasUsed" : "0x00",
                    "bloom" : "0x00000000000000000000000000000000000000000000000000000000000000000000000000000000000000000000000000000000000000000000000000000000000000000000000000000000000000000000000000000000000000000000000000000000000000000000000000000000000000000000000000000000000000000000000000000000000000000000000000000000000000000000000000000000000000000000000000000000000000000000000000000000000000000000000000000000000000000000000000000000000000000000000000000000000000000000000000000000000000000000000000000000000000000000000000000000",
                    "coinbase" : "0x2adc25665018aa1fe0e6bc666dac8fc2697ff9ba",
                    "difficulty" : "0x00",
                    "excessBlobGas" : "0x00",
                    "extraData" : "0x",
                    "gasLimit" : "0x016345785d8a0000",
                    "gasUsed" : "0xb6e8",
                    "hash" : "0x696f18c4564e28b78b2937afae7c4cc6acecb73674ca4bd9deb3a171a5ecd64d",
                    "mixHash" : "0x0000000000000000000000000000000000000000000000000000000000000000",
                    "nonce" : "0x0000000000000000",
                    "number" : "0x01",
                    "parentBeaconBlockRoot" : "0x0000000000000000000000000000000000000000000000000000000000000000",
                    "parentHash" : "0x3edeb74ada578e63291e01b2ae929786abb1bc2e8ac64e594d8aa0d086155b4f",
                    "receiptTrie" : "0x8f668f8b9d0cafee86ca26ba619eda34bef9f00e8694ee97efa8d363bda58fe3",
                    "stateRoot" : "0xd053f945380f1420350858fafea979a4a25de167c8a0bacf67a1c52fa67d9e67",
                    "timestamp" : "0x0c",
                    "transactionsTrie" : "0x41e6ce12759ddca8b88159827c075f30ac81ab54c38ed8ad72357d9d16c30ee9",
                    "uncleHash" : "0x1dcc4de8dec75d7aab85b567b6ccd41ad312451b948a7413f0a142fd40d49347",
                    "withdrawalsRoot" : "0x56e81f171bcc55a6ff8345e692c0f86e5b48e01b996cadc001622fb5e363b421"
                },
                "blocknumber" : "1",
                "rlp" : "0xf90307f9023ca03edeb74ada578e63291e01b2ae929786abb1bc2e8ac64e594d8aa0d086155b4fa01dcc4de8dec75d7aab85b567b6ccd41ad312451b948a7413f0a142fd40d49347942adc25665018aa1fe0e6bc666dac8fc2697ff9baa0d053f945380f1420350858fafea979a4a25de167c8a0bacf67a1c52fa67d9e67a041e6ce12759ddca8b88159827c075f30ac81ab54c38ed8ad72357d9d16c30ee9a08f668f8b9d0cafee86ca26ba619eda34bef9f00e8694ee97efa8d363bda58fe3b9010000000000000000000000000000000000000000000000000000000000000000000000000000000000000000000000000000000000000000000000000000000000000000000000000000000000000000000000000000000000000000000000000000000000000000000000000000000000000000000000000000000000000000000000000000000000000000000000000000000000000000000000000000000000000000000000000000000000000000000000000000000000000000000000000000000000000000000000000000000000000000000000000000000000000000000000000000000000000000000000000000000000000000000000000000000000800188016345785d8a000082b6e80c80a0000000000000000000000000000000000000000000000000000000000000000088000000000000000007a056e81f171bcc55a6ff8345e692c0f86e5b48e01b996cadc001622fb5e363b4218080a00000000000000000000000000000000000000000000000000000000000000000f8c4f860800a830186a0940000000000000000000000000000000000001000808025a09069fab60fe5c8a970860130c49d2295646da4fff858330a1fd5d260cd01e562a07a31960780931801bb34d06f89f19a529357f833c6cfda63135440a743949717f860010a830186a0940000000000000000000000000000000000001000808025a08e391162d831d7e78676704c472db9217c54a0053a4767887ee635287d42d587a0269c0e5379d24815f204b3bbb3953c2b50b96fb3d9e71ab08aabf9d086406faac0c0",
                "transactions" : [
                    {
                        "chainId" : "0x01",
                        "data" : "0x",
                        "gasLimit" : "0x0186a0",
                        "gasPrice" : "0x0a",
                        "nonce" : "0x00",
                        "r" : "0x9069fab60fe5c8a970860130c49d2295646da4fff858330a1fd5d260cd01e562",
                        "s" : "0x7a31960780931801bb34d06f89f19a529357f833c6cfda63135440a743949717",
                        "sender" : "0xa94f5374fce5edbc8e2a8697c15331677e6ebf0b",
                        "to" : "0x0000000000000000000000000000000000001000",
                        "type" : "0x00",
                        "v" : "0x25",
                        "value" : "0x00"
                    },
                    {
                        "chainId" : "0x01",
                        "data" : "0x",
                        "gasLimit" : "0x0186a0",
                        "gasPrice" : "0x0a",
                        "nonce" : "0x01",
                        "r" : "0x8e391162d831d7e78676704c472db9217c54a0053a4767887ee635287d42d587",
                        "s" : "0x269c0e5379d24815f204b3bbb3953c2b50b96fb3d9e71ab08aabf9d086406faa",
                        "sender" : "0xa94f5374fce5edbc8e2a8697c15331677e6ebf0b",
                        "to" : "0x0000000000000000000000000000000000001000",
                        "type" : "0x00",
                        "v" : "0x25",
                        "value" : "0x00"
                    }
                ],
                "uncleHeaders" : [
                ],
                "withdrawals" : [
                ]
            }
        ],
        "config" : {
            "blobSchedule" : {
                "Cancun" : {
                    "baseFeeUpdateFraction" : "0x32f0ed",
                    "max" : "0x06",
                    "target" : "0x03"
                }
            },
            "chainid" : "0x01",
            "network" : "Cancun"
        },
        "genesisBlockHeader" : {
            "baseFeePerGas" : "0x07",
            "blobGasUsed" : "0x00",
            "bloom" : "0x00000000000000000000000000000000000000000000000000000000000000000000000000000000000000000000000000000000000000000000000000000000000000000000000000000000000000000000000000000000000000000000000000000000000000000000000000000000000000000000000000000000000000000000000000000000000000000000000000000000000000000000000000000000000000000000000000000000000000000000000000000000000000000000000000000000000000000000000000000000000000000000000000000000000000000000000000000000000000000000000000000000000000000000000000000000",
            "coinbase" : "0x0000000000000000000000000000000000000000",
            "difficulty" : "0x00",
            "excessBlobGas" : "0x00",
            "extraData" : "0x00",
            "gasLimit" : "0x016345785d8a0000",
            "gasUsed" : "0x00",
            "hash" : "0x3edeb74ada578e63291e01b2ae929786abb1bc2e8ac64e594d8aa0d086155b4f",
            "mixHash" : "0x0000000000000000000000000000000000000000000000000000000000000000",
            "nonce" : "0x0000000000000000",
            "number" : "0x00",
            "parentBeaconBlockRoot" : "0x0000000000000000000000000000000000000000000000000000000000000000",
            "parentHash" : "0x0000000000000000000000000000000000000000000000000000000000000000",
            "receiptTrie" : "0x56e81f171bcc55a6ff8345e692c0f86e5b48e01b996cadc001622fb5e363b421",
            "stateRoot" : "0x99b021f2dd044e9b49ba5805a0c86f1868cb9598178a32c8310081c9a94da9e7",
            "timestamp" : "0x00",
            "transactionsTrie" : "0x56e81f171bcc55a6ff8345e692c0f86e5b48e01b996cadc001622fb5e363b421",
            "uncleHash" : "0x1dcc4de8dec75d7aab85b567b6ccd41ad312451b948a7413f0a142fd40d49347",
            "withdrawalsRoot" : "0x56e81f171bcc55a6ff8345e692c0f86e5b48e01b996cadc001622fb5e363b421"
        },
        "genesisRLP" : "0xf90240f9023aa00000000000000000000000000000000000000000000000000000000000000000a01dcc4de8dec75d7aab85b567b6ccd41ad312451b948a7413f0a142fd40d49347940000000000000000000000000000000000000000a099b021f2dd044e9b49ba5805a0c86f1868cb9598178a32c8310081c9a94da9e7a056e81f171bcc55a6ff8345e692c0f86e5b48e01b996cadc001622fb5e363b421a056e81f171bcc55a6ff8345e692c0f86e5b48e01b996cadc001622fb5e363b421b9010000000000000000000000000000000000000000000000000000000000000000000000000000000000000000000000000000000000000000000000000000000000000000000000000000000000000000000000000000000000000000000000000000000000000000000000000000000000000000000000000000000000000000000000000000000000000000000000000000000000000000000000000000000000000000000000000000000000000000000000000000000000000000000000000000000000000000000000000000000000000000000000000000000000000000000000000000000000000000000000000000000000000000000000000000000000808088016345785d8a0000808000a0000000000000000000000000000000000000000000000000000000000000000088000000000000000007a056e81f171bcc55a6ff8345e692c0f86e5b48e01b996cadc001622fb5e363b4218080a00000000000000000000000000000000000000000000000000000000000000000c0c0c0",
        "lastblockhash" : "0x696f18c4564e28b78b2937afae7c4cc6acecb73674ca4bd9deb3a171a5ecd64d",
        "network" : "Cancun",
        "postState" : {
            "0x0000000000000000000000000000000000001000" : {
                "balance" : "0x00",
                "code" : "0x60015c600155600160015d",
                "nonce" : "0x01",
                "storage" : {
                }
            },
            "0x000f3df6d732807ef1319fb7b8bb8522d0beac02" : {
                "balance" : "0x00",
                "code" : "0x3373fffffffffffffffffffffffffffffffffffffffe14604d57602036146024575f5ffd5b5f35801560495762001fff810690815414603c575f5ffd5b62001fff01545f5260205ff35b5f5ffd5b62001fff42064281555f359062001fff015500",
                "nonce" : "0x01",
                "storage" : {
                    "0x0c" : "0x0c"
                }
            },
            "0x2adc25665018aa1fe0e6bc666dac8fc2697ff9ba" : {
                "balance" : "0x0224b8",
                "code" : "0x",
                "nonce" : "0x00",
                "storage" : {
                }
            },
            "0xa94f5374fce5edbc8e2a8697c15331677e6ebf0b" : {
                "balance" : "0x3635c9adc5de98daf0",
                "code" : "0x",
                "nonce" : "0x02",
                "storage" : {
                }
            }
        },
        "pre" : {
            "0x0000000000000000000000000000000000001000" : {
                "balance" : "0x00",
                "code" : "0x60015c600155600160015d",
                "nonce" : "0x01",
                "storage" : {
                }
            },
            "0x000f3df6d732807ef1319fb7b8bb8522d0beac02" : {
                "balance" : "0x00",
                "code" : "0x3373fffffffffffffffffffffffffffffffffffffffe14604d57602036146024575f5ffd5b5f35801560495762001fff810690815414603c575f5ffd5b62001fff01545f5260205ff35b5f5ffd5b62001fff42064281555f359062001fff015500",
                "nonce" : "0x01",
                "storage" : {
                }
            },
            "0xa94f5374fce5edbc8e2a8697c15331677e6ebf0b" : {
                "balance" : "0x3635c9adc5dea00000",
                "code" : "0x",
                "nonce" : "0x00",
                "storage" : {
                }
            }
        },
        "sealEngine" : "NoProof"
    }
}