{
    "src/GeneralStateTestsFiller/Pyspecs/cancun/eip4844_blobs/test_blobhash_opcode.py::test_blobhash_invalid_blob_index[fork_Cancun-blockchain_test-scenario_invalid_calls]" : {
        "_info" : {
            "comment" : "`execution-spec-tests` generated test",
            "description" : "Test function documentation:\n\n    Tests that the `BLOBHASH` opcode returns a zeroed `bytes32` value for invalid\n    indexes.\n\n    Includes cases where the index is negative (`index < 0`) or\n    exceeds the maximum number of `blob_versioned_hash` values stored:\n    (`index >= len(tx.message.blob_versioned_hashes)`).\n\n    It confirms that the returned value is a zeroed `bytes32` for each case.",
            "filling-rpc-server" : "ethereum-spec-evm 0.1.0 (Git commit: 0d5cdb0351ff34b8ef13c4c07d9fa19999c73f0b)",
            "filling-tool-version" : "retesteth-0.3.2-legacy+commit.3ee677f4.Linux.g++",
            "filling-transition-tool" : "ethereum-spec-evm-resolver 0.0.1",
            "fixture_format" : "blockchain_test",
            "generatedTestHash" : "f89532ede111a7f20f9b25b6b4c9a273880b32fcc43a63b861b10643fc608b98",
            "hash" : "0xf7b7d287dd762c54a79a7b3f7ef1490618e495cf508d05c1c0e98c50a47b8032",
            "lllcversion" : "Version: 0.5.14-develop.2024.11.5+commit.b2b86751.mod.Linux.g++",
            "solidity" : "Version: 0.8.24+commit.e11b9ed9.Linux.g++",
            "source" : "src/GeneralStateTestsFiller/Pyspecs/cancun/eip4844_blobs/test_blobhash_opcode.py",
            "sourceHash" : "fcb64fc17a63c561d9a2a12a8903899dfbdf7575c78a3e60ce9e4cfe5b6e26e2",
            "url" : "https://github.com/ethereum/execution-spec-tests/blob/0d5cdb0351ff34b8ef13c4c07d9fa19999c73f0b/tests/tmp/tmptest_976acf6d_de5f_4fd1_bc27_8d95296f3f98/test_blobhash_opcode.py#L175"
        },
        "blocks" : [
            {
                "blockHeader" : {
                    "baseFeePerGas" : "0x07",
                    "blobGasUsed" : "0x020000",
                    "bloom" : "0x00000000000000000000000000000000000000000000000000000000000000000000000000000000000000000000000000000000000000000000000000000000000000000000000000000000000000000000000000000000000000000000000000000000000000000000000000000000000000000000000000000000000000000000000000000000000000000000000000000000000000000000000000000000000000000000000000000000000000000000000000000000000000000000000000000000000000000000000000000000000000000000000000000000000000000000000000000000000000000000000000000000000000000000000000000000",
                    "coinbase" : "0x2adc25665018aa1fe0e6bc666dac8fc2697ff9ba",
                    "difficulty" : "0x00",
                    "excessBlobGas" : "0x00",
                    "extraData" : "0x",
                    "gasLimit" : "0x016345785d8a0000",
                    "gasUsed" : "0x035fda",
                    "hash" : "0x3a17f0c44f1e28e65112a2d80dbac46c2abb9a4704bd1de33d141c58f8561235",
                    "mixHash" : "0x0000000000000000000000000000000000000000000000000000000000000000",
                    "nonce" : "0x0000000000000000",
                    "number" : "0x01",
                    "parentBeaconBlockRoot" : "0x0000000000000000000000000000000000000000000000000000000000000000",
                    "parentHash" : "0xcb513b4087de77853596846e63bac58e4aa0ea53c71ab90f14f49499e55313cb",
                    "receiptTrie" : "0x0cc1fea050e3c1da8ee7cb330d9198fdc59c29586855161fbf5dbfb8a24d1c0d",
                    "stateRoot" : "0x80fe203451ce5c316d776c1f7bbcf4091e80eca9ba35418c29f223912ab7ae79",
                    "timestamp" : "0x0c",
                    "transactionsTrie" : "0x3a5678998d8b35345f924df8784ef9208817da511df7186cca2dd9459cb48634",
                    "uncleHash" : "0x1dcc4de8dec75d7aab85b567b6ccd41ad312451b948a7413f0a142fd40d49347",
                    "withdrawalsRoot" : "0x56e81f171bcc55a6ff8345e692c0f86e5b48e01b996cadc001622fb5e363b421"
                },
                "blocknumber" : "1",
                "rlp" : "0xf902f2f90240a0cb513b4087de77853596846e63bac58e4aa0ea53c71ab90f14f49499e55313cba01dcc4de8dec75d7aab85b567b6ccd41ad312451b948a7413f0a142fd40d49347942adc25665018aa1fe0e6bc666dac8fc2697ff9baa080fe203451ce5c316d776c1f7bbcf4091e80eca9ba35418c29f223912ab7ae79a03a5678998d8b35345f924df8784ef9208817da511df7186cca2dd9459cb48634a00cc1fea050e3c1da8ee7cb330d9198fdc59c29586855161fbf5dbfb8a24d1c0db9010000000000000000000000000000000000000000000000000000000000000000000000000000000000000000000000000000000000000000000000000000000000000000000000000000000000000000000000000000000000000000000000000000000000000000000000000000000000000000000000000000000000000000000000000000000000000000000000000000000000000000000000000000000000000000000000000000000000000000000000000000000000000000000000000000000000000000000000000000000000000000000000000000000000000000000000000000000000000000000000000000000000000000000000000000000000800188016345785d8a000083035fda0c80a0000000000000000000000000000000000000000000000000000000000000000088000000000000000007a056e81f171bcc55a6ff8345e692c0f86e5b48e01b996cadc001622fb5e363b4218302000080a00000000000000000000000000000000000000000000000000000000000000000f8abb8a903f8a601800a0a832dc6c094000000000000000000000000000000000000100080a00000000000000000000000000000000000000000000000000000000000000000c00ae1a001b8c5b09810b5fc07355d3da42e2c3a3e200c1d9a678491b7e8e256fc50cc4f80a0237cdc783536edf7d4ac436bb4f470df4d30fb8a08694efa3c58790d683ca60ca0552409cf735a6cda7d47ebf7a89ebd391ba2aae906fd744a857537340e1c69bec0c0",
                "transactions" : [
                    {
                        "accessList" : [
                        ],
                        "blobVersionedHashes" : [
                            "0x01b8c5b09810b5fc07355d3da42e2c3a3e200c1d9a678491b7e8e256fc50cc4f"
                        ],
                        "chainId" : "0x01",
                        "data" : "0x0000000000000000000000000000000000000000000000000000000000000000",
                        "gasLimit" : "0x2dc6c0",
                        "maxFeePerBlobGas" : "0x0a",
                        "maxFeePerGas" : "0x0a",
                        "maxPriorityFeePerGas" : "0x0a",
                        "nonce" : "0x00",
                        "r" : "0x237cdc783536edf7d4ac436bb4f470df4d30fb8a08694efa3c58790d683ca60c",
                        "s" : "0x552409cf735a6cda7d47ebf7a89ebd391ba2aae906fd744a857537340e1c69be",
                        "sender" : "0xa94f5374fce5edbc8e2a8697c15331677e6ebf0b",
                        "to" : "0x0000000000000000000000000000000000001000",
                        "type" : "0x03",
                        "v" : "0x00",
                        "value" : "0x00"
                    }
                ],
                "uncleHeaders" : [
                ],
                "withdrawals" : [
                ]
            },
            {
                "blockHeader" : {
                    "baseFeePerGas" : "0x07",
                    "blobGasUsed" : "0x040000",
                    "bloom" : "0x00000000000000000000000000000000000000000000000000000000000000000000000000000000000000000000000000000000000000000000000000000000000000000000000000000000000000000000000000000000000000000000000000000000000000000000000000000000000000000000000000000000000000000000000000000000000000000000000000000000000000000000000000000000000000000000000000000000000000000000000000000000000000000000000000000000000000000000000000000000000000000000000000000000000000000000000000000000000000000000000000000000000000000000000000000000",
                    "coinbase" : "0x2adc25665018aa1fe0e6bc666dac8fc2697ff9ba",
                    "difficulty" : "0x00",
                    "excessBlobGas" : "0x00",
                    "extraData" : "0x",
                    "gasLimit" : "0x016345785d8a0000",
                    "gasUsed" : "0x039e0a",
                    "hash" : "0x0a4ff4271952a10a837f478bb2ef307223e629a75b5aa64bc86ebbd5ebde3811",
                    "mixHash" : "0x0000000000000000000000000000000000000000000000000000000000000000",
                    "nonce" : "0x0000000000000000",
                    "number" : "0x02",
                    "parentBeaconBlockRoot" : "0x0000000000000000000000000000000000000000000000000000000000000000",
                    "parentHash" : "0x3a17f0c44f1e28e65112a2d80dbac46c2abb9a4704bd1de33d141c58f8561235",
                    "receiptTrie" : "0xcf1d33e61af0fcc40b10d2e5b5a696a4671c10bd3961e4b11fe7b85997dcb90b",
                    "stateRoot" : "0x9d2af454927ab7edad1510fc08fddec4471af904c6d7e4b413068474a1a3466d",
                    "timestamp" : "0x18",
                    "transactionsTrie" : "0x051728876260879e8d4f2b847d8c95f15294c9faaf05037d897755eb725ad395",
                    "uncleHash" : "0x1dcc4de8dec75d7aab85b567b6ccd41ad312451b948a7413f0a142fd40d49347",
                    "withdrawalsRoot" : "0x56e81f171bcc55a6ff8345e692c0f86e5b48e01b996cadc001622fb5e363b421"
                },
                "blocknumber" : "2",
                "rlp" : "0xf90314f90240a03a17f0c44f1e28e65112a2d80dbac46c2abb9a4704bd1de33d141c58f8561235a01dcc4de8dec75d7aab85b567b6ccd41ad312451b948a7413f0a142fd40d49347942adc25665018aa1fe0e6bc666dac8fc2697ff9baa09d2af454927ab7edad1510fc08fddec4471af904c6d7e4b413068474a1a3466da0051728876260879e8d4f2b847d8c95f15294c9faaf05037d897755eb725ad395a0cf1d33e61af0fcc40b10d2e5b5a696a4671c10bd3961e4b11fe7b85997dcb90bb9010000000000000000000000000000000000000000000000000000000000000000000000000000000000000000000000000000000000000000000000000000000000000000000000000000000000000000000000000000000000000000000000000000000000000000000000000000000000000000000000000000000000000000000000000000000000000000000000000000000000000000000000000000000000000000000000000000000000000000000000000000000000000000000000000000000000000000000000000000000000000000000000000000000000000000000000000000000000000000000000000000000000000000000000000000000000800288016345785d8a000083039e0a1880a0000000000000000000000000000000000000000000000000000000000000000088000000000000000007a056e81f171bcc55a6ff8345e692c0f86e5b48e01b996cadc001622fb5e363b4218304000080a00000000000000000000000000000000000000000000000000000000000000000f8cdb8cb03f8c801010a0a832dc6c094000000000000000000000000000000000000110080a00000000000000000000000000000000000000000000000000000000000000000c00af842a001b8c5b09810b5fc07355d3da42e2c3a3e200c1d9a678491b7e8e256fc50cc4fa0015b4c8cc4f86aa2d2cf9e9ce97fca704a11a6c20f6b1d6c00a6e15f6d60a6df80a0afe16787c4341fbaa5d864710d50c08e2a8169136b4bc73a6ff76a2f6fedeb99a032ea8f5a2c668c9c0fa18c2bd45c0cc09e4846093bd634c1377f87f17a560c52c0c0",
                "transactions" : [
                    {
                        "accessList" : [
                        ],
                        "blobVersionedHashes" : [
                            "0x01b8c5b09810b5fc07355d3da42e2c3a3e200c1d9a678491b7e8e256fc50cc4f",
                            "0x015b4c8cc4f86aa2d2cf9e9ce97fca704a11a6c20f6b1d6c00a6e15f6d60a6df"
                        ],
                        "chainId" : "0x01",
                        "data" : "0x0000000000000000000000000000000000000000000000000000000000000000",
                        "gasLimit" : "0x2dc6c0",
                        "maxFeePerBlobGas" : "0x0a",
                        "maxFeePerGas" : "0x0a",
                        "maxPriorityFeePerGas" : "0x0a",
                        "nonce" : "0x01",
                        "r" : "0xafe16787c4341fbaa5d864710d50c08e2a8169136b4bc73a6ff76a2f6fedeb99",
                        "s" : "0x32ea8f5a2c668c9c0fa18c2bd45c0cc09e4846093bd634c1377f87f17a560c52",
                        "sender" : "0xa94f5374fce5edbc8e2a8697c15331677e6ebf0b",
                        "to" : "0x0000000000000000000000000000000000001100",
                        "type" : "0x03",
                        "v" : "0x00",
                        "value" : "0x00"
                    }
                ],
                "uncleHeaders" : [
                ],
                "withdrawals" : [
                ]
            },
            {
                "blockHeader" : {
                    "baseFeePerGas" : "0x07",
                    "blobGasUsed" : "0x060000",
                    "bloom" : "0x00000000000000000000000000000000000000000000000000000000000000000000000000000000000000000000000000000000000000000000000000000000000000000000000000000000000000000000000000000000000000000000000000000000000000000000000000000000000000000000000000000000000000000000000000000000000000000000000000000000000000000000000000000000000000000000000000000000000000000000000000000000000000000000000000000000000000000000000000000000000000000000000000000000000000000000000000000000000000000000000000000000000000000000000000000000",
                    "coinbase" : "0x2adc25665018aa1fe0e6bc666dac8fc2697ff9ba",
                    "difficulty" : "0x00",
                    "excessBlobGas" : "0x00",
                    "extraData" : "0x",
                    "gasLimit" : "0x016345785d8a0000",
                    "gasUsed" : "0x03dc3a",
                    "hash" : "0xf233292ca9001298e6193f5ea74fc1622cb9989f6f40828b9a6e62c33cb490af",
                    "mixHash" : "0x0000000000000000000000000000000000000000000000000000000000000000",
                    "nonce" : "0x0000000000000000",
                    "number" : "0x03",
                    "parentBeaconBlockRoot" : "0x0000000000000000000000000000000000000000000000000000000000000000",
                    "parentHash" : "0x0a4ff4271952a10a837f478bb2ef307223e629a75b5aa64bc86ebbd5ebde3811",
                    "receiptTrie" : "0x416c3dc77a0ca2d34b65c57b4a7cf5d3ee9c507e7caf70405cc3a87277ff7a4c",
                    "stateRoot" : "0xbda9588e6603c07fe06ecbecc40b513c834d16f8af18277c4192cdc1b45cffa3",
                    "timestamp" : "0x24",
                    "transactionsTrie" : "0xa199ac288304eec0dd222ec6512150d4ec37a2f531a3d885213f32a8785a2c9e",
                    "uncleHash" : "0x1dcc4de8dec75d7aab85b567b6ccd41ad312451b948a7413f0a142fd40d49347",
                    "withdrawalsRoot" : "0x56e81f171bcc55a6ff8345e692c0f86e5b48e01b996cadc001622fb5e363b421"
                },
                "blocknumber" : "3",
                "rlp" : "0xf90335f90240a00a4ff4271952a10a837f478bb2ef307223e629a75b5aa64bc86ebbd5ebde3811a01dcc4de8dec75d7aab85b567b6ccd41ad312451b948a7413f0a142fd40d49347942adc25665018aa1fe0e6bc666dac8fc2697ff9baa0bda9588e6603c07fe06ecbecc40b513c834d16f8af18277c4192cdc1b45cffa3a0a199ac288304eec0dd222ec6512150d4ec37a2f531a3d885213f32a8785a2c9ea0416c3dc77a0ca2d34b65c57b4a7cf5d3ee9c507e7caf70405cc3a87277ff7a4cb9010000000000000000000000000000000000000000000000000000000000000000000000000000000000000000000000000000000000000000000000000000000000000000000000000000000000000000000000000000000000000000000000000000000000000000000000000000000000000000000000000000000000000000000000000000000000000000000000000000000000000000000000000000000000000000000000000000000000000000000000000000000000000000000000000000000000000000000000000000000000000000000000000000000000000000000000000000000000000000000000000000000000000000000000000000000000800388016345785d8a00008303dc3a2480a0000000000000000000000000000000000000000000000000000000000000000088000000000000000007a056e81f171bcc55a6ff8345e692c0f86e5b48e01b996cadc001622fb5e363b4218306000080a00000000000000000000000000000000000000000000000000000000000000000f8eeb8ec03f8e901020a0a832dc6c094000000000000000000000000000000000000120080a00000000000000000000000000000000000000000000000000000000000000000c00af863a001b8c5b09810b5fc07355d3da42e2c3a3e200c1d9a678491b7e8e256fc50cc4fa0015b4c8cc4f86aa2d2cf9e9ce97fca704a11a6c20f6b1d6c00a6e15f6d60a6dfa001878f80eaf10be1a6f618e6f8c071b10a6c14d9b89a3bf2a3f3cf2db6c5681d80a01fc505451c82564d9bf542c3bfc2410cab9d8e770e146fa77cb8ae161e4d03dea051a17de9acc9c8a5659b56ed3b4b3e4176d15aa3e742c8a12c64b1d127cd4b41c0c0",
                "transactions" : [
                    {
                        "accessList" : [
                        ],
                        "blobVersionedHashes" : [
                            "0x01b8c5b09810b5fc07355d3da42e2c3a3e200c1d9a678491b7e8e256fc50cc4f",
                            "0x015b4c8cc4f86aa2d2cf9e9ce97fca704a11a6c20f6b1d6c00a6e15f6d60a6df",
                            "0x01878f80eaf10be1a6f618e6f8c071b10a6c14d9b89a3bf2a3f3cf2db6c5681d"
                        ],
                        "chainId" : "0x01",
                        "data" : "0x0000000000000000000000000000000000000000000000000000000000000000",
                        "gasLimit" : "0x2dc6c0",
                        "maxFeePerBlobGas" : "0x0a",
                        "maxFeePerGas" : "0x0a",
                        "maxPriorityFeePerGas" : "0x0a",
                        "nonce" : "0x02",
                        "r" : "0x1fc505451c82564d9bf542c3bfc2410cab9d8e770e146fa77cb8ae161e4d03de",
                        "s" : "0x51a17de9acc9c8a5659b56ed3b4b3e4176d15aa3e742c8a12c64b1d127cd4b41",
                        "sender" : "0xa94f5374fce5edbc8e2a8697c15331677e6ebf0b",
                        "to" : "0x0000000000000000000000000000000000001200",
                        "type" : "0x03",
                        "v" : "0x00",
                        "value" : "0x00"
                    }
                ],
                "uncleHeaders" : [
                ],
                "withdrawals" : [
                ]
            },
            {
                "blockHeader" : {
                    "baseFeePerGas" : "0x07",
                    "blobGasUsed" : "0x080000",
                    "bloom" : "0x00000000000000000000000000000000000000000000000000000000000000000000000000000000000000000000000000000000000000000000000000000000000000000000000000000000000000000000000000000000000000000000000000000000000000000000000000000000000000000000000000000000000000000000000000000000000000000000000000000000000000000000000000000000000000000000000000000000000000000000000000000000000000000000000000000000000000000000000000000000000000000000000000000000000000000000000000000000000000000000000000000000000000000000000000000000",
                    "coinbase" : "0x2adc25665018aa1fe0e6bc666dac8fc2697ff9ba",
                    "difficulty" : "0x00",
                    "excessBlobGas" : "0x00",
                    "extraData" : "0x",
                    "gasLimit" : "0x016345785d8a0000",
                    "gasUsed" : "0x041a6a",
                    "hash" : "0x6b402228460b84c6952179de0198c6795f5cdaf592fe61e5452b9eb1c0ea478d",
                    "mixHash" : "0x0000000000000000000000000000000000000000000000000000000000000000",
                    "nonce" : "0x0000000000000000",
                    "number" : "0x04",
                    "parentBeaconBlockRoot" : "0x0000000000000000000000000000000000000000000000000000000000000000",
                    "parentHash" : "0xf233292ca9001298e6193f5ea74fc1622cb9989f6f40828b9a6e62c33cb490af",
                    "receiptTrie" : "0x762afe46147c470e691b5c57882d667dfb9d683b88b2064e9ece393b9c1d2060",
                    "stateRoot" : "0xc7d389c88eb4d388b3a8c33bd81cb4c13a7c9917d87e79ff98befd9027f35139",
                    "timestamp" : "0x30",
                    "transactionsTrie" : "0x1f96818f0f518e00911b9403914597ac7d34059ed36c6317f67a66b790513f0f",
                    "uncleHash" : "0x1dcc4de8dec75d7aab85b567b6ccd41ad312451b948a7413f0a142fd40d49347",
                    "withdrawalsRoot" : "0x56e81f171bcc55a6ff8345e692c0f86e5b48e01b996cadc001622fb5e363b421"
                },
                "blocknumber" : "4",
                "rlp" : "0xf90359f90240a0f233292ca9001298e6193f5ea74fc1622cb9989f6f40828b9a6e62c33cb490afa01dcc4de8dec75d7aab85b567b6ccd41ad312451b948a7413f0a142fd40d49347942adc25665018aa1fe0e6bc666dac8fc2697ff9baa0c7d389c88eb4d388b3a8c33bd81cb4c13a7c9917d87e79ff98befd9027f35139a01f96818f0f518e00911b9403914597ac7d34059ed36c6317f67a66b790513f0fa0762afe46147c470e691b5c57882d667dfb9d683b88b2064e9ece393b9c1d2060b9010000000000000000000000000000000000000000000000000000000000000000000000000000000000000000000000000000000000000000000000000000000000000000000000000000000000000000000000000000000000000000000000000000000000000000000000000000000000000000000000000000000000000000000000000000000000000000000000000000000000000000000000000000000000000000000000000000000000000000000000000000000000000000000000000000000000000000000000000000000000000000000000000000000000000000000000000000000000000000000000000000000000000000000000000000000000800488016345785d8a000083041a6a3080a0000000000000000000000000000000000000000000000000000000000000000088000000000000000007a056e81f171bcc55a6ff8345e692c0f86e5b48e01b996cadc001622fb5e363b4218308000080a00000000000000000000000000000000000000000000000000000000000000000f90111b9010e03f9010a01030a0a832dc6c094000000000000000000000000000000000000130080a00000000000000000000000000000000000000000000000000000000000000000c00af884a001b8c5b09810b5fc07355d3da42e2c3a3e200c1d9a678491b7e8e256fc50cc4fa0015b4c8cc4f86aa2d2cf9e9ce97fca704a11a6c20f6b1d6c00a6e15f6d60a6dfa001878f80eaf10be1a6f618e6f8c071b10a6c14d9b89a3bf2a3f3cf2db6c5681da0014eb72b108d562c639faeb6f8c6f366a28b0381c7d30431117ec8c7bb89f83401a0f10d1cb2cea537686cdc0ec68dfb67e8bb85961b2d83f93272577bc38c115a02a035a7f99d863ab5e2d374fe0be6d884e5da4e346d183131e25686215413722a83c0c0",
                "transactions" : [
                    {
                        "accessList" : [
                        ],
                        "blobVersionedHashes" : [
                            "0x01b8c5b09810b5fc07355d3da42e2c3a3e200c1d9a678491b7e8e256fc50cc4f",
                            "0x015b4c8cc4f86aa2d2cf9e9ce97fca704a11a6c20f6b1d6c00a6e15f6d60a6df",
                            "0x01878f80eaf10be1a6f618e6f8c071b10a6c14d9b89a3bf2a3f3cf2db6c5681d",
                            "0x014eb72b108d562c639faeb6f8c6f366a28b0381c7d30431117ec8c7bb89f834"
                        ],
                        "chainId" : "0x01",
                        "data" : "0x0000000000000000000000000000000000000000000000000000000000000000",
                        "gasLimit" : "0x2dc6c0",
                        "maxFeePerBlobGas" : "0x0a",
                        "maxFeePerGas" : "0x0a",
                        "maxPriorityFeePerGas" : "0x0a",
                        "nonce" : "0x03",
                        "r" : "0xf10d1cb2cea537686cdc0ec68dfb67e8bb85961b2d83f93272577bc38c115a02",
                        "s" : "0x35a7f99d863ab5e2d374fe0be6d884e5da4e346d183131e25686215413722a83",
                        "sender" : "0xa94f5374fce5edbc8e2a8697c15331677e6ebf0b",
                        "to" : "0x0000000000000000000000000000000000001300",
                        "type" : "0x03",
                        "v" : "0x01",
                        "value" : "0x00"
                    }
                ],
                "uncleHeaders" : [
                ],
                "withdrawals" : [
                ]
            },
            {
                "blockHeader" : {
                    "baseFeePerGas" : "0x07",
                    "blobGasUsed" : "0x0a0000",
                    "bloom" : "0x00000000000000000000000000000000000000000000000000000000000000000000000000000000000000000000000000000000000000000000000000000000000000000000000000000000000000000000000000000000000000000000000000000000000000000000000000000000000000000000000000000000000000000000000000000000000000000000000000000000000000000000000000000000000000000000000000000000000000000000000000000000000000000000000000000000000000000000000000000000000000000000000000000000000000000000000000000000000000000000000000000000000000000000000000000000",
                    "coinbase" : "0x2adc25665018aa1fe0e6bc666dac8fc2697ff9ba",
                    "difficulty" : "0x00",
                    "excessBlobGas" : "0x020000",
                    "extraData" : "0x",
                    "gasLimit" : "0x016345785d8a0000",
                    "gasUsed" : "0x04589a",
                    "hash" : "0x5035f53d85dd2aee55824a9bd96fa4fd9dec4df69bfdb6b1ed4b2221333f449e",
                    "mixHash" : "0x0000000000000000000000000000000000000000000000000000000000000000",
                    "nonce" : "0x0000000000000000",
                    "number" : "0x05",
                    "parentBeaconBlockRoot" : "0x0000000000000000000000000000000000000000000000000000000000000000",
                    "parentHash" : "0x6b402228460b84c6952179de0198c6795f5cdaf592fe61e5452b9eb1c0ea478d",
                    "receiptTrie" : "0x01d2aeb332eb19b17d12230fb3aee1ad8674f285ffa1f9e59527c8287f16e78a",
                    "stateRoot" : "0xeb21b3a5718317e7f3438d6b9c835fd735890707fcdaf701793567f8eaf71c85",
                    "timestamp" : "0x3c",
                    "transactionsTrie" : "0x9db477f482100d2aa3859c1b5b07d4c1a2148d38a4c00339130c11046fd531b6",
                    "uncleHash" : "0x1dcc4de8dec75d7aab85b567b6ccd41ad312451b948a7413f0a142fd40d49347",
                    "withdrawalsRoot" : "0x56e81f171bcc55a6ff8345e692c0f86e5b48e01b996cadc001622fb5e363b421"
                },
                "blocknumber" : "5",
                "rlp" : "0xf9037df90243a06b402228460b84c6952179de0198c6795f5cdaf592fe61e5452b9eb1c0ea478da01dcc4de8dec75d7aab85b567b6ccd41ad312451b948a7413f0a142fd40d49347942adc25665018aa1fe0e6bc666dac8fc2697ff9baa0eb21b3a5718317e7f3438d6b9c835fd735890707fcdaf701793567f8eaf71c85a09db477f482100d2aa3859c1b5b07d4c1a2148d38a4c00339130c11046fd531b6a001d2aeb332eb19b17d12230fb3aee1ad8674f285ffa1f9e59527c8287f16e78ab9010000000000000000000000000000000000000000000000000000000000000000000000000000000000000000000000000000000000000000000000000000000000000000000000000000000000000000000000000000000000000000000000000000000000000000000000000000000000000000000000000000000000000000000000000000000000000000000000000000000000000000000000000000000000000000000000000000000000000000000000000000000000000000000000000000000000000000000000000000000000000000000000000000000000000000000000000000000000000000000000000000000000000000000000000000000000800588016345785d8a00008304589a3c80a0000000000000000000000000000000000000000000000000000000000000000088000000000000000007a056e81f171bcc55a6ff8345e692c0f86e5b48e01b996cadc001622fb5e363b421830a000083020000a00000000000000000000000000000000000000000000000000000000000000000f90132b9012f03f9012b01040a0a832dc6c094000000000000000000000000000000000000140080a00000000000000000000000000000000000000000000000000000000000000000c00af8a5a001b8c5b09810b5fc07355d3da42e2c3a3e200c1d9a678491b7e8e256fc50cc4fa0015b4c8cc4f86aa2d2cf9e9ce97fca704a11a6c20f6b1d6c00a6e15f6d60a6dfa001878f80eaf10be1a6f618e6f8c071b10a6c14d9b89a3bf2a3f3cf2db6c5681da0014eb72b108d562c639faeb6f8c6f366a28b0381c7d30431117ec8c7bb89f834a001a9b2a6c3f3f0675b768d49b5f5dc5b5d988f88d55766247ba9e40b125f16bb01a0506bf899557ed68c42fc5fbbc54f46c505c8289906bca7c645f5943e32136936a0759ec4f089ff4bfc3d604cc15a8f43ebd53a7c4e1aa05a0c398fbd355b516d3fc0c0",
                "transactions" : [
                    {
                        "accessList" : [
                        ],
                        "blobVersionedHashes" : [
                            "0x01b8c5b09810b5fc07355d3da42e2c3a3e200c1d9a678491b7e8e256fc50cc4f",
                            "0x015b4c8cc4f86aa2d2cf9e9ce97fca704a11a6c20f6b1d6c00a6e15f6d60a6df",
                            "0x01878f80eaf10be1a6f618e6f8c071b10a6c14d9b89a3bf2a3f3cf2db6c5681d",
                            "0x014eb72b108d562c639faeb6f8c6f366a28b0381c7d30431117ec8c7bb89f834",
                            "0x01a9b2a6c3f3f0675b768d49b5f5dc5b5d988f88d55766247ba9e40b125f16bb"
                        ],
                        "chainId" : "0x01",
                        "data" : "0x0000000000000000000000000000000000000000000000000000000000000000",
                        "gasLimit" : "0x2dc6c0",
                        "maxFeePerBlobGas" : "0x0a",
                        "maxFeePerGas" : "0x0a",
                        "maxPriorityFeePerGas" : "0x0a",
                        "nonce" : "0x04",
                        "r" : "0x506bf899557ed68c42fc5fbbc54f46c505c8289906bca7c645f5943e32136936",
                        "s" : "0x759ec4f089ff4bfc3d604cc15a8f43ebd53a7c4e1aa05a0c398fbd355b516d3f",
                        "sender" : "0xa94f5374fce5edbc8e2a8697c15331677e6ebf0b",
                        "to" : "0x0000000000000000000000000000000000001400",
                        "type" : "0x03",
                        "v" : "0x01",
                        "value" : "0x00"
                    }
                ],
                "uncleHeaders" : [
                ],
                "withdrawals" : [
                ]
            }
        ],
        "config" : {
            "blobSchedule" : {
                "Cancun" : {
                    "baseFeeUpdateFraction" : "0x32f0ed",
                    "max" : "0x06",
                    "target" : "0x03"
                }
            },
            "chainid" : "0x01",
            "network" : "Cancun"
        },
        "genesisBlockHeader" : {
            "baseFeePerGas" : "0x07",
            "blobGasUsed" : "0x00",
            "bloom" : "0x00000000000000000000000000000000000000000000000000000000000000000000000000000000000000000000000000000000000000000000000000000000000000000000000000000000000000000000000000000000000000000000000000000000000000000000000000000000000000000000000000000000000000000000000000000000000000000000000000000000000000000000000000000000000000000000000000000000000000000000000000000000000000000000000000000000000000000000000000000000000000000000000000000000000000000000000000000000000000000000000000000000000000000000000000000000",
            "coinbase" : "0x0000000000000000000000000000000000000000",
            "difficulty" : "0x00",
            "excessBlobGas" : "0x00",
            "extraData" : "0x00",
            "gasLimit" : "0x016345785d8a0000",
            "gasUsed" : "0x00",
            "hash" : "0xcb513b4087de77853596846e63bac58e4aa0ea53c71ab90f14f49499e55313cb",
            "mixHash" : "0x0000000000000000000000000000000000000000000000000000000000000000",
            "nonce" : "0x0000000000000000",
            "number" : "0x00",
            "parentBeaconBlockRoot" : "0x0000000000000000000000000000000000000000000000000000000000000000",
            "parentHash" : "0x0000000000000000000000000000000000000000000000000000000000000000",
            "receiptTrie" : "0x56e81f171bcc55a6ff8345e692c0f86e5b48e01b996cadc001622fb5e363b421",
            "stateRoot" : "0x2b0233cb5b6647777594950a108ba42cd7c976410281262779e86abcdbade9cf",
            "timestamp" : "0x00",
            "transactionsTrie" : "0x56e81f171bcc55a6ff8345e692c0f86e5b48e01b996cadc001622fb5e363b421",
            "uncleHash" : "0x1dcc4de8dec75d7aab85b567b6ccd41ad312451b948a7413f0a142fd40d49347",
            "withdrawalsRoot" : "0x56e81f171bcc55a6ff8345e692c0f86e5b48e01b996cadc001622fb5e363b421"
        },
        "genesisRLP" : "0xf90240f9023aa00000000000000000000000000000000000000000000000000000000000000000a01dcc4de8dec75d7aab85b567b6ccd41ad312451b948a7413f0a142fd40d49347940000000000000000000000000000000000000000a02b0233cb5b6647777594950a108ba42cd7c976410281262779e86abcdbade9cfa056e81f171bcc55a6ff8345e692c0f86e5b48e01b996cadc001622fb5e363b421a056e81f171bcc55a6ff8345e692c0f86e5b48e01b996cadc001622fb5e363b421b9010000000000000000000000000000000000000000000000000000000000000000000000000000000000000000000000000000000000000000000000000000000000000000000000000000000000000000000000000000000000000000000000000000000000000000000000000000000000000000000000000000000000000000000000000000000000000000000000000000000000000000000000000000000000000000000000000000000000000000000000000000000000000000000000000000000000000000000000000000000000000000000000000000000000000000000000000000000000000000000000000000000000000000000000000000000000808088016345785d8a0000808000a0000000000000000000000000000000000000000000000000000000000000000088000000000000000007a056e81f171bcc55a6ff8345e692c0f86e5b48e01b996cadc001622fb5e363b4218080a00000000000000000000000000000000000000000000000000000000000000000c0c0c0",
        "lastblockhash" : "0x5035f53d85dd2aee55824a9bd96fa4fd9dec4df69bfdb6b1ed4b2221333f449e",
        "network" : "Cancun",
        "postState" : {
            "0x0000000000000000000000000000000000001000" : {
                "balance" : "0x00",
                "code" : "0x60017ffffffffffffffffffffffffffffffffffffffffffffffffffffffffffffffffb557ffffffffffffffffffffffffffffffffffffffffffffffffffffffffffffffffb497ffffffffffffffffffffffffffffffffffffffffffffffffffffffffffffffffb5560017ffffffffffffffffffffffffffffffffffffffffffffffffffffffffffffffffc557ffffffffffffffffffffffffffffffffffffffffffffffffffffffffffffffffc497ffffffffffffffffffffffffffffffffffffffffffffffffffffffffffffffffc5560017ffffffffffffffffffffffffffffffffffffffffffffffffffffffffffffffffd557ffffffffffffffffffffffffffffffffffffffffffffffffffffffffffffffffd497ffffffffffffffffffffffffffffffffffffffffffffffffffffffffffffffffd5560017ffffffffffffffffffffffffffffffffffffffffffffffffffffffffffffffffe557ffffffffffffffffffffffffffffffffffffffffffffffffffffffffffffffffe497ffffffffffffffffffffffffffffffffffffffffffffffffffffffffffffffffe5560017fffffffffffffffffffffffffffffffffffffffffffffffffffffffffffffffff557fffffffffffffffffffffffffffffffffffffffffffffffffffffffffffffffff497fffffffffffffffffffffffffffffffffffffffffffffffffffffffffffffffff5560004960005560014960015560024960025560034960035560044960045560054960055560016006556006496006556001600755600749600755600160085560084960085560016009556009496009556001600a55600a49600a55",
                "nonce" : "0x01",
                "storage" : {
                    "0x00" : "0x01b8c5b09810b5fc07355d3da42e2c3a3e200c1d9a678491b7e8e256fc50cc4f"
                }
            },
            "0x0000000000000000000000000000000000001100" : {
                "balance" : "0x00",
                "code" : "0x60017ffffffffffffffffffffffffffffffffffffffffffffffffffffffffffffffffb557ffffffffffffffffffffffffffffffffffffffffffffffffffffffffffffffffb497ffffffffffffffffffffffffffffffffffffffffffffffffffffffffffffffffb5560017ffffffffffffffffffffffffffffffffffffffffffffffffffffffffffffffffc557ffffffffffffffffffffffffffffffffffffffffffffffffffffffffffffffffc497ffffffffffffffffffffffffffffffffffffffffffffffffffffffffffffffffc5560017ffffffffffffffffffffffffffffffffffffffffffffffffffffffffffffffffd557ffffffffffffffffffffffffffffffffffffffffffffffffffffffffffffffffd497ffffffffffffffffffffffffffffffffffffffffffffffffffffffffffffffffd5560017ffffffffffffffffffffffffffffffffffffffffffffffffffffffffffffffffe557ffffffffffffffffffffffffffffffffffffffffffffffffffffffffffffffffe497ffffffffffffffffffffffffffffffffffffffffffffffffffffffffffffffffe5560017fffffffffffffffffffffffffffffffffffffffffffffffffffffffffffffffff557fffffffffffffffffffffffffffffffffffffffffffffffffffffffffffffffff497fffffffffffffffffffffffffffffffffffffffffffffffffffffffffffffffff5560004960005560014960015560024960025560034960035560044960045560054960055560016006556006496006556001600755600749600755600160085560084960085560016009556009496009556001600a55600a49600a55",
                "nonce" : "0x01",
                "storage" : {
                    "0x00" : "0x01b8c5b09810b5fc07355d3da42e2c3a3e200c1d9a678491b7e8e256fc50cc4f",
                    "0x01" : "0x015b4c8cc4f86aa2d2cf9e9ce97fca704a11a6c20f6b1d6c00a6e15f6d60a6df"
                }
            },
            "0x0000000000000000000000000000000000001200" : {
                "balance" : "0x00",
                "code" : "0x60017ffffffffffffffffffffffffffffffffffffffffffffffffffffffffffffffffb557ffffffffffffffffffffffffffffffffffffffffffffffffffffffffffffffffb497ffffffffffffffffffffffffffffffffffffffffffffffffffffffffffffffffb5560017ffffffffffffffffffffffffffffffffffffffffffffffffffffffffffffffffc557ffffffffffffffffffffffffffffffffffffffffffffffffffffffffffffffffc497ffffffffffffffffffffffffffffffffffffffffffffffffffffffffffffffffc5560017ffffffffffffffffffffffffffffffffffffffffffffffffffffffffffffffffd557ffffffffffffffffffffffffffffffffffffffffffffffffffffffffffffffffd497ffffffffffffffffffffffffffffffffffffffffffffffffffffffffffffffffd5560017ffffffffffffffffffffffffffffffffffffffffffffffffffffffffffffffffe557ffffffffffffffffffffffffffffffffffffffffffffffffffffffffffffffffe497ffffffffffffffffffffffffffffffffffffffffffffffffffffffffffffffffe5560017fffffffffffffffffffffffffffffffffffffffffffffffffffffffffffffffff557fffffffffffffffffffffffffffffffffffffffffffffffffffffffffffffffff497fffffffffffffffffffffffffffffffffffffffffffffffffffffffffffffffff5560004960005560014960015560024960025560034960035560044960045560054960055560016006556006496006556001600755600749600755600160085560084960085560016009556009496009556001600a55600a49600a55",
                "nonce" : "0x01",
                "storage" : {
                    "0x00" : "0x01b8c5b09810b5fc07355d3da42e2c3a3e200c1d9a678491b7e8e256fc50cc4f",
                    "0x01" : "0x015b4c8cc4f86aa2d2cf9e9ce97fca704a11a6c20f6b1d6c00a6e15f6d60a6df",
                    "0x02" : "0x01878f80eaf10be1a6f618e6f8c071b10a6c14d9b89a3bf2a3f3cf2db6c5681d"
                }
            },
            "0x0000000000000000000000000000000000001300" : {
                "balance" : "0x00",
                "code" : "0x60017ffffffffffffffffffffffffffffffffffffffffffffffffffffffffffffffffb557ffffffffffffffffffffffffffffffffffffffffffffffffffffffffffffffffb497ffffffffffffffffffffffffffffffffffffffffffffffffffffffffffffffffb5560017ffffffffffffffffffffffffffffffffffffffffffffffffffffffffffffffffc557ffffffffffffffffffffffffffffffffffffffffffffffffffffffffffffffffc497ffffffffffffffffffffffffffffffffffffffffffffffffffffffffffffffffc5560017ffffffffffffffffffffffffffffffffffffffffffffffffffffffffffffffffd557ffffffffffffffffffffffffffffffffffffffffffffffffffffffffffffffffd497ffffffffffffffffffffffffffffffffffffffffffffffffffffffffffffffffd5560017ffffffffffffffffffffffffffffffffffffffffffffffffffffffffffffffffe557ffffffffffffffffffffffffffffffffffffffffffffffffffffffffffffffffe497ffffffffffffffffffffffffffffffffffffffffffffffffffffffffffffffffe5560017fffffffffffffffffffffffffffffffffffffffffffffffffffffffffffffffff557fffffffffffffffffffffffffffffffffffffffffffffffffffffffffffffffff497fffffffffffffffffffffffffffffffffffffffffffffffffffffffffffffffff5560004960005560014960015560024960025560034960035560044960045560054960055560016006556006496006556001600755600749600755600160085560084960085560016009556009496009556001600a55600a49600a55",
                "nonce" : "0x01",
                "storage" : {
                    "0x00" : "0x01b8c5b09810b5fc07355d3da42e2c3a3e200c1d9a678491b7e8e256fc50cc4f",
                    "0x01" : "0x015b4c8cc4f86aa2d2cf9e9ce97fca704a11a6c20f6b1d6c00a6e15f6d60a6df",
                    "0x02" : "0x01878f80eaf10be1a6f618e6f8c071b10a6c14d9b89a3bf2a3f3cf2db6c5681d",
                    "0x03" : "0x014eb72b108d562c639faeb6f8c6f366a28b0381c7d30431117ec8c7bb89f834"
                }
            },
            "0x0000000000000000000000000000000000001400" : {
                "balance" : "0x00",
                "code" : "0x60017ffffffffffffffffffffffffffffffffffffffffffffffffffffffffffffffffb557ffffffffffffffffffffffffffffffffffffffffffffffffffffffffffffffffb497ffffffffffffffffffffffffffffffffffffffffffffffffffffffffffffffffb5560017ffffffffffffffffffffffffffffffffffffffffffffffffffffffffffffffffc557ffffffffffffffffffffffffffffffffffffffffffffffffffffffffffffffffc497ffffffffffffffffffffffffffffffffffffffffffffffffffffffffffffffffc5560017ffffffffffffffffffffffffffffffffffffffffffffffffffffffffffffffffd557ffffffffffffffffffffffffffffffffffffffffffffffffffffffffffffffffd497ffffffffffffffffffffffffffffffffffffffffffffffffffffffffffffffffd5560017ffffffffffffffffffffffffffffffffffffffffffffffffffffffffffffffffe557ffffffffffffffffffffffffffffffffffffffffffffffffffffffffffffffffe497ffffffffffffffffffffffffffffffffffffffffffffffffffffffffffffffffe5560017fffffffffffffffffffffffffffffffffffffffffffffffffffffffffffffffff557fffffffffffffffffffffffffffffffffffffffffffffffffffffffffffffffff497fffffffffffffffffffffffffffffffffffffffffffffffffffffffffffffffff5560004960005560014960015560024960025560034960035560044960045560054960055560016006556006496006556001600755600749600755600160085560084960085560016009556009496009556001600a55600a49600a55",
                "nonce" : "0x01",
                "storage" : {
                    "0x00" : "0x01b8c5b09810b5fc07355d3da42e2c3a3e200c1d9a678491b7e8e256fc50cc4f",
                    "0x01" : "0x015b4c8cc4f86aa2d2cf9e9ce97fca704a11a6c20f6b1d6c00a6e15f6d60a6df",
                    "0x02" : "0x01878f80eaf10be1a6f618e6f8c071b10a6c14d9b89a3bf2a3f3cf2db6c5681d",
                    "0x03" : "0x014eb72b108d562c639faeb6f8c6f366a28b0381c7d30431117ec8c7bb89f834",
                    "0x04" : "0x01a9b2a6c3f3f0675b768d49b5f5dc5b5d988f88d55766247ba9e40b125f16bb"
                }
            },
            "0x000f3df6d732807ef1319fb7b8bb8522d0beac02" : {
                "balance" : "0x00",
                "code" : "0x3373fffffffffffffffffffffffffffffffffffffffe14604d57602036146024575f5ffd5b5f35801560495762001fff810690815414603c575f5ffd5b62001fff01545f5260205ff35b5f5ffd5b62001fff42064281555f359062001fff015500",
                "nonce" : "0x01",
                "storage" : {
                    "0x0c" : "0x0c",
                    "0x18" : "0x18",
                    "0x24" : "0x24",
                    "0x30" : "0x30",
                    "0x3c" : "0x3c"
                }
            },
            "0x2adc25665018aa1fe0e6bc666dac8fc2697ff9ba" : {
                "balance" : "0x39e766",
                "code" : "0x",
                "nonce" : "0x00",
                "storage" : {
                }
            },
            "0xa94f5374fce5edbc8e2a8697c15331677e6ebf0b" : {
                "balance" : "0x3635c9adc5ddc0fcac",
                "code" : "0x",
                "nonce" : "0x05",
                "storage" : {
                }
            }
        },
        "pre" : {
            "0x0000000000000000000000000000000000001000" : {
                "balance" : "0x00",
                "code" : "0x60017ffffffffffffffffffffffffffffffffffffffffffffffffffffffffffffffffb557ffffffffffffffffffffffffffffffffffffffffffffffffffffffffffffffffb497ffffffffffffffffffffffffffffffffffffffffffffffffffffffffffffffffb5560017ffffffffffffffffffffffffffffffffffffffffffffffffffffffffffffffffc557ffffffffffffffffffffffffffffffffffffffffffffffffffffffffffffffffc497ffffffffffffffffffffffffffffffffffffffffffffffffffffffffffffffffc5560017ffffffffffffffffffffffffffffffffffffffffffffffffffffffffffffffffd557ffffffffffffffffffffffffffffffffffffffffffffffffffffffffffffffffd497ffffffffffffffffffffffffffffffffffffffffffffffffffffffffffffffffd5560017ffffffffffffffffffffffffffffffffffffffffffffffffffffffffffffffffe557ffffffffffffffffffffffffffffffffffffffffffffffffffffffffffffffffe497ffffffffffffffffffffffffffffffffffffffffffffffffffffffffffffffffe5560017fffffffffffffffffffffffffffffffffffffffffffffffffffffffffffffffff557fffffffffffffffffffffffffffffffffffffffffffffffffffffffffffffffff497fffffffffffffffffffffffffffffffffffffffffffffffffffffffffffffffff5560004960005560014960015560024960025560034960035560044960045560054960055560016006556006496006556001600755600749600755600160085560084960085560016009556009496009556001600a55600a49600a55",
                "nonce" : "0x01",
                "storage" : {
                }
            },
            "0x0000000000000000000000000000000000001100" : {
                "balance" : "0x00",
                "code" : "0x60017ffffffffffffffffffffffffffffffffffffffffffffffffffffffffffffffffb557ffffffffffffffffffffffffffffffffffffffffffffffffffffffffffffffffb497ffffffffffffffffffffffffffffffffffffffffffffffffffffffffffffffffb5560017ffffffffffffffffffffffffffffffffffffffffffffffffffffffffffffffffc557ffffffffffffffffffffffffffffffffffffffffffffffffffffffffffffffffc497ffffffffffffffffffffffffffffffffffffffffffffffffffffffffffffffffc5560017ffffffffffffffffffffffffffffffffffffffffffffffffffffffffffffffffd557ffffffffffffffffffffffffffffffffffffffffffffffffffffffffffffffffd497ffffffffffffffffffffffffffffffffffffffffffffffffffffffffffffffffd5560017ffffffffffffffffffffffffffffffffffffffffffffffffffffffffffffffffe557ffffffffffffffffffffffffffffffffffffffffffffffffffffffffffffffffe497ffffffffffffffffffffffffffffffffffffffffffffffffffffffffffffffffe5560017fffffffffffffffffffffffffffffffffffffffffffffffffffffffffffffffff557fffffffffffffffffffffffffffffffffffffffffffffffffffffffffffffffff497fffffffffffffffffffffffffffffffffffffffffffffffffffffffffffffffff5560004960005560014960015560024960025560034960035560044960045560054960055560016006556006496006556001600755600749600755600160085560084960085560016009556009496009556001600a55600a49600a55",
                "nonce" : "0x01",
                "storage" : {
                }
            },
            "0x0000000000000000000000000000000000001200" : {
                "balance" : "0x00",
                "code" : "0x60017ffffffffffffffffffffffffffffffffffffffffffffffffffffffffffffffffb557ffffffffffffffffffffffffffffffffffffffffffffffffffffffffffffffffb497ffffffffffffffffffffffffffffffffffffffffffffffffffffffffffffffffb5560017ffffffffffffffffffffffffffffffffffffffffffffffffffffffffffffffffc557ffffffffffffffffffffffffffffffffffffffffffffffffffffffffffffffffc497ffffffffffffffffffffffffffffffffffffffffffffffffffffffffffffffffc5560017ffffffffffffffffffffffffffffffffffffffffffffffffffffffffffffffffd557ffffffffffffffffffffffffffffffffffffffffffffffffffffffffffffffffd497ffffffffffffffffffffffffffffffffffffffffffffffffffffffffffffffffd5560017ffffffffffffffffffffffffffffffffffffffffffffffffffffffffffffffffe557ffffffffffffffffffffffffffffffffffffffffffffffffffffffffffffffffe497ffffffffffffffffffffffffffffffffffffffffffffffffffffffffffffffffe5560017fffffffffffffffffffffffffffffffffffffffffffffffffffffffffffffffff557fffffffffffffffffffffffffffffffffffffffffffffffffffffffffffffffff497fffffffffffffffffffffffffffffffffffffffffffffffffffffffffffffffff5560004960005560014960015560024960025560034960035560044960045560054960055560016006556006496006556001600755600749600755600160085560084960085560016009556009496009556001600a55600a49600a55",
                "nonce" : "0x01",
                "storage" : {
                }
            },
            "0x0000000000000000000000000000000000001300" : {
                "balance" : "0x00",
                "code" : "0x60017ffffffffffffffffffffffffffffffffffffffffffffffffffffffffffffffffb557ffffffffffffffffffffffffffffffffffffffffffffffffffffffffffffffffb497ffffffffffffffffffffffffffffffffffffffffffffffffffffffffffffffffb5560017ffffffffffffffffffffffffffffffffffffffffffffffffffffffffffffffffc557ffffffffffffffffffffffffffffffffffffffffffffffffffffffffffffffffc497ffffffffffffffffffffffffffffffffffffffffffffffffffffffffffffffffc5560017ffffffffffffffffffffffffffffffffffffffffffffffffffffffffffffffffd557ffffffffffffffffffffffffffffffffffffffffffffffffffffffffffffffffd497ffffffffffffffffffffffffffffffffffffffffffffffffffffffffffffffffd5560017ffffffffffffffffffffffffffffffffffffffffffffffffffffffffffffffffe557ffffffffffffffffffffffffffffffffffffffffffffffffffffffffffffffffe497ffffffffffffffffffffffffffffffffffffffffffffffffffffffffffffffffe5560017fffffffffffffffffffffffffffffffffffffffffffffffffffffffffffffffff557fffffffffffffffffffffffffffffffffffffffffffffffffffffffffffffffff497fffffffffffffffffffffffffffffffffffffffffffffffffffffffffffffffff5560004960005560014960015560024960025560034960035560044960045560054960055560016006556006496006556001600755600749600755600160085560084960085560016009556009496009556001600a55600a49600a55",
                "nonce" : "0x01",
                "storage" : {
                }
            },
            "0x0000000000000000000000000000000000001400" : {
                "balance" : "0x00",
                "code" : "0x60017ffffffffffffffffffffffffffffffffffffffffffffffffffffffffffffffffb557ffffffffffffffffffffffffffffffffffffffffffffffffffffffffffffffffb497ffffffffffffffffffffffffffffffffffffffffffffffffffffffffffffffffb5560017ffffffffffffffffffffffffffffffffffffffffffffffffffffffffffffffffc557ffffffffffffffffffffffffffffffffffffffffffffffffffffffffffffffffc497ffffffffffffffffffffffffffffffffffffffffffffffffffffffffffffffffc5560017ffffffffffffffffffffffffffffffffffffffffffffffffffffffffffffffffd557ffffffffffffffffffffffffffffffffffffffffffffffffffffffffffffffffd497ffffffffffffffffffffffffffffffffffffffffffffffffffffffffffffffffd5560017ffffffffffffffffffffffffffffffffffffffffffffffffffffffffffffffffe557ffffffffffffffffffffffffffffffffffffffffffffffffffffffffffffffffe497ffffffffffffffffffffffffffffffffffffffffffffffffffffffffffffffffe5560017fffffffffffffffffffffffffffffffffffffffffffffffffffffffffffffffff557fffffffffffffffffffffffffffffffffffffffffffffffffffffffffffffffff497fffffffffffffffffffffffffffffffffffffffffffffffffffffffffffffffff5560004960005560014960015560024960025560034960035560044960045560054960055560016006556006496006556001600755600749600755600160085560084960085560016009556009496009556001600a55600a49600a55",
                "nonce" : "0x01",
                "storage" : {
                }
            },
            "0x000f3df6d732807ef1319fb7b8bb8522d0beac02" : {
                "balance" : "0x00",
                "code" : "0x3373fffffffffffffffffffffffffffffffffffffffe14604d57602036146024575f5ffd5b5f35801560495762001fff810690815414603c575f5ffd5b62001fff01545f5260205ff35b5f5ffd5b62001fff42064281555f359062001fff015500",
                "nonce" : "0x01",
                "storage" : {
                }
            },
            "0xa94f5374fce5edbc8e2a8697c15331677e6ebf0b" : {
                "balance" : "0x3635c9adc5dea00000",
                "code" : "0x",
                "nonce" : "0x00",
                "storage" : {
                }
            }
        },
        "sealEngine" : "NoProof"
    }
}