{
    "src/GeneralStateTestsFiller/Pyspecs/cancun/eip4844_blobs/test_blobhash_opcode.py::test_blobhash_multiple_txs_in_block[fork_Cancun-blockchain_test]" : {
        "_info" : {
            "comment" : "`execution-spec-tests` generated test",
            "description" : "Test function documentation:\n\n    Tests that the `BLOBHASH` opcode returns the appropriate values when there\n    is more than 1 blob tx type within a block (for tx types 2 and 3).\n\n    Scenarios involve tx type 3 followed by tx type 2 running the same code\n    within a block, including the opposite.",
            "filling-rpc-server" : "ethereum-spec-evm 0.1.0 (Git commit: 0d5cdb0351ff34b8ef13c4c07d9fa19999c73f0b)",
            "filling-tool-version" : "retesteth-0.3.2-legacy+commit.3ee677f4.Linux.g++",
            "filling-transition-tool" : "ethereum-spec-evm-resolver 0.0.1",
            "fixture_format" : "blockchain_test",
            "generatedTestHash" : "ee7c85ebbe57ebcc3cc47e035c31fad987a102b6dd82ceda85d92aba1a3b2819",
            "hash" : "0x13d41aab8631b26e5360cda93f6b65205aeb8ae002ace49f69f03220ddf60640",
            "lllcversion" : "Version: 0.5.14-develop.2024.11.5+commit.b2b86751.mod.Linux.g++",
            "solidity" : "Version: 0.8.24+commit.e11b9ed9.Linux.g++",
            "source" : "src/GeneralStateTestsFiller/Pyspecs/cancun/eip4844_blobs/test_blobhash_opcode.py",
            "sourceHash" : "fcb64fc17a63c561d9a2a12a8903899dfbdf7575c78a3e60ce9e4cfe5b6e26e2",
            "url" : "https://github.com/ethereum/execution-spec-tests/blob/0d5cdb0351ff34b8ef13c4c07d9fa19999c73f0b/tests/tmp/tmptest_976acf6d_de5f_4fd1_bc27_8d95296f3f98/test_blobhash_opcode.py#L243"
        },
        "blocks" : [
            {
                "blockHeader" : {
                    "baseFeePerGas" : "0x07",
                    "blobGasUsed" : "0x0c0000",
                    "bloom" : "0x00000000000000000000000000000000000000000000000000000000000000000000000000000000000000000000000000000000000000000000000000000000000000000000000000000000000000000000000000000000000000000000000000000000000000000000000000000000000000000000000000000000000000000000000000000000000000000000000000000000000000000000000000000000000000000000000000000000000000000000000000000000000000000000000000000000000000000000000000000000000000000000000000000000000000000000000000000000000000000000000000000000000000000000000000000000",
                    "coinbase" : "0x2adc25665018aa1fe0e6bc666dac8fc2697ff9ba",
                    "difficulty" : "0x00",
                    "excessBlobGas" : "0x00",
                    "extraData" : "0x",
                    "gasLimit" : "0x016345785d8a0000",
                    "gasUsed" : "0x02f8a8",
                    "hash" : "0x37121ffe95e7d1bd312f48b55aca0b29057b93240382fb173811c45fe48b2e7c",
                    "mixHash" : "0x0000000000000000000000000000000000000000000000000000000000000000",
                    "nonce" : "0x0000000000000000",
                    "number" : "0x01",
                    "parentBeaconBlockRoot" : "0x0000000000000000000000000000000000000000000000000000000000000000",
                    "parentHash" : "0x04124a173134daa49a1f904a4ffa7ec07a371829051d618e934f2a7bb8af235b",
                    "receiptTrie" : "0xf44b62ca500455002c17e676410100f1a6df14862de0691766cb2a9ed3c59dc8",
                    "stateRoot" : "0x8ec9b6e9e96ebc4bf68e90ce639aea7704bc220d0bd9b0304496f4e3eec47d31",
                    "timestamp" : "0x0c",
                    "transactionsTrie" : "0x733895a5856852c711316fdcfb7876fd7bd9a5232338dc51c8d48d09ec4f6941",
                    "uncleHash" : "0x1dcc4de8dec75d7aab85b567b6ccd41ad312451b948a7413f0a142fd40d49347",
                    "withdrawalsRoot" : "0x56e81f171bcc55a6ff8345e692c0f86e5b48e01b996cadc001622fb5e363b421"
                },
                "blocknumber" : "1",
                "rlp" : "0xf90423f90240a004124a173134daa49a1f904a4ffa7ec07a371829051d618e934f2a7bb8af235ba01dcc4de8dec75d7aab85b567b6ccd41ad312451b948a7413f0a142fd40d49347942adc25665018aa1fe0e6bc666dac8fc2697ff9baa08ec9b6e9e96ebc4bf68e90ce639aea7704bc220d0bd9b0304496f4e3eec47d31a0733895a5856852c711316fdcfb7876fd7bd9a5232338dc51c8d48d09ec4f6941a0f44b62ca500455002c17e676410100f1a6df14862de0691766cb2a9ed3c59dc8b9010000000000000000000000000000000000000000000000000000000000000000000000000000000000000000000000000000000000000000000000000000000000000000000000000000000000000000000000000000000000000000000000000000000000000000000000000000000000000000000000000000000000000000000000000000000000000000000000000000000000000000000000000000000000000000000000000000000000000000000000000000000000000000000000000000000000000000000000000000000000000000000000000000000000000000000000000000000000000000000000000000000000000000000000000000000000800188016345785d8a00008302f8a80c80a0000000000000000000000000000000000000000000000000000000000000000088000000000000000007a056e81f171bcc55a6ff8345e692c0f86e5b48e01b996cadc001622fb5e363b421830c000080a00000000000000000000000000000000000000000000000000000000000000000f901dbb9015003f9014c01800a0a832dc6c094000000000000000000000000000000000000100080a00000000000000000000000000000000000000000000000000000000000000000c00af8c6a001b8c5b09810b5fc07355d3da42e2c3a3e200c1d9a678491b7e8e256fc50cc4fa0015b4c8cc4f86aa2d2cf9e9ce97fca704a11a6c20f6b1d6c00a6e15f6d60a6dfa001878f80eaf10be1a6f618e6f8c071b10a6c14d9b89a3bf2a3f3cf2db6c5681da0014eb72b108d562c639faeb6f8c6f366a28b0381c7d30431117ec8c7bb89f834a001a9b2a6c3f3f0675b768d49b5f5dc5b5d988f88d55766247ba9e40b125f16bba001a4d4cde4aa01e57fb2c880d1d9c778c33bdf85e48ef4c4d4b4de51abccf4ed01a0addbf957e470db7f67029390725b753662dd6c3161d47946caecc30101d8ab59a06b2457115cbf105990dae3ed644f2731cecc343c385cc1592ad20bed8e8c5c95b88602f88301010a0a832dc6c094000000000000000000000000000000000000100080a00000000000000000000000000000000000000000000000000000000000000000c080a0d19824850ecde2812e7e7ee821e3a558320630a685f2760cdb03023680e2a79aa00d7617ef9986f99d1f9edb4bb5af5b051a13acd634cc6a1cbe3a8ea4ba456c72c0c0",
                "transactions" : [
                    {
                        "accessList" : [
                        ],
                        "blobVersionedHashes" : [
                            "0x01b8c5b09810b5fc07355d3da42e2c3a3e200c1d9a678491b7e8e256fc50cc4f",
                            "0x015b4c8cc4f86aa2d2cf9e9ce97fca704a11a6c20f6b1d6c00a6e15f6d60a6df",
                            "0x01878f80eaf10be1a6f618e6f8c071b10a6c14d9b89a3bf2a3f3cf2db6c5681d",
                            "0x014eb72b108d562c639faeb6f8c6f366a28b0381c7d30431117ec8c7bb89f834",
                            "0x01a9b2a6c3f3f0675b768d49b5f5dc5b5d988f88d55766247ba9e40b125f16bb",
                            "0x01a4d4cde4aa01e57fb2c880d1d9c778c33bdf85e48ef4c4d4b4de51abccf4ed"
                        ],
                        "chainId" : "0x01",
                        "data" : "0x0000000000000000000000000000000000000000000000000000000000000000",
                        "gasLimit" : "0x2dc6c0",
                        "maxFeePerBlobGas" : "0x0a",
                        "maxFeePerGas" : "0x0a",
                        "maxPriorityFeePerGas" : "0x0a",
                        "nonce" : "0x00",
                        "r" : "0xaddbf957e470db7f67029390725b753662dd6c3161d47946caecc30101d8ab59",
                        "s" : "0x6b2457115cbf105990dae3ed644f2731cecc343c385cc1592ad20bed8e8c5c95",
                        "sender" : "0xa94f5374fce5edbc8e2a8697c15331677e6ebf0b",
                        "to" : "0x0000000000000000000000000000000000001000",
                        "type" : "0x03",
                        "v" : "0x01",
                        "value" : "0x00"
                    },
                    {
                        "accessList" : [
                        ],
                        "chainId" : "0x01",
                        "data" : "0x0000000000000000000000000000000000000000000000000000000000000000",
                        "gasLimit" : "0x2dc6c0",
                        "maxFeePerGas" : "0x0a",
                        "maxPriorityFeePerGas" : "0x0a",
                        "nonce" : "0x01",
                        "r" : "0xd19824850ecde2812e7e7ee821e3a558320630a685f2760cdb03023680e2a79a",
                        "s" : "0x0d7617ef9986f99d1f9edb4bb5af5b051a13acd634cc6a1cbe3a8ea4ba456c72",
                        "sender" : "0xa94f5374fce5edbc8e2a8697c15331677e6ebf0b",
                        "to" : "0x0000000000000000000000000000000000001000",
                        "type" : "0x02",
                        "v" : "0x00",
                        "value" : "0x00"
                    }
                ],
                "uncleHeaders" : [
                ],
                "withdrawals" : [
                ]
            },
            {
                "blockHeader" : {
                    "baseFeePerGas" : "0x07",
                    "blobGasUsed" : "0x0c0000",
                    "bloom" : "0x00000000000000000000000000000000000000000000000000000000000000000000000000000000000000000000000000000000000000000000000000000000000000000000000000000000000000000000000000000000000000000000000000000000000000000000000000000000000000000000000000000000000000000000000000000000000000000000000000000000000000000000000000000000000000000000000000000000000000000000000000000000000000000000000000000000000000000000000000000000000000000000000000000000000000000000000000000000000000000000000000000000000000000000000000000000",
                    "coinbase" : "0x2adc25665018aa1fe0e6bc666dac8fc2697ff9ba",
                    "difficulty" : "0x00",
                    "excessBlobGas" : "0x060000",
                    "extraData" : "0x",
                    "gasLimit" : "0x016345785d8a0000",
                    "gasUsed" : "0x02df04",
                    "hash" : "0x42ff60b24af7e8e04f7c81c3e999c8d56f0cb7d24104a108812a304c004c8394",
                    "mixHash" : "0x0000000000000000000000000000000000000000000000000000000000000000",
                    "nonce" : "0x0000000000000000",
                    "number" : "0x02",
                    "parentBeaconBlockRoot" : "0x0000000000000000000000000000000000000000000000000000000000000000",
                    "parentHash" : "0x37121ffe95e7d1bd312f48b55aca0b29057b93240382fb173811c45fe48b2e7c",
                    "receiptTrie" : "0xda5ac010087a7cb6e374f2cda2f2c54242b12da3fc28ef70fffbdce90d262adf",
                    "stateRoot" : "0x187b9056e7ab072db835d94441da1f8b474c6dfda85fb8e9ab67617b99440560",
                    "timestamp" : "0x18",
                    "transactionsTrie" : "0xbda5dc62f04441b841d5915043288c3abe73cd32f0167233b85275240afd9e7a",
                    "uncleHash" : "0x1dcc4de8dec75d7aab85b567b6ccd41ad312451b948a7413f0a142fd40d49347",
                    "withdrawalsRoot" : "0x56e81f171bcc55a6ff8345e692c0f86e5b48e01b996cadc001622fb5e363b421"
                },
                "blocknumber" : "2",
                "rlp" : "0xf90426f90243a037121ffe95e7d1bd312f48b55aca0b29057b93240382fb173811c45fe48b2e7ca01dcc4de8dec75d7aab85b567b6ccd41ad312451b948a7413f0a142fd40d49347942adc25665018aa1fe0e6bc666dac8fc2697ff9baa0187b9056e7ab072db835d94441da1f8b474c6dfda85fb8e9ab67617b99440560a0bda5dc62f04441b841d5915043288c3abe73cd32f0167233b85275240afd9e7aa0da5ac010087a7cb6e374f2cda2f2c54242b12da3fc28ef70fffbdce90d262adfb9010000000000000000000000000000000000000000000000000000000000000000000000000000000000000000000000000000000000000000000000000000000000000000000000000000000000000000000000000000000000000000000000000000000000000000000000000000000000000000000000000000000000000000000000000000000000000000000000000000000000000000000000000000000000000000000000000000000000000000000000000000000000000000000000000000000000000000000000000000000000000000000000000000000000000000000000000000000000000000000000000000000000000000000000000000000000800288016345785d8a00008302df041880a0000000000000000000000000000000000000000000000000000000000000000088000000000000000007a056e81f171bcc55a6ff8345e692c0f86e5b48e01b996cadc001622fb5e363b421830c000083060000a00000000000000000000000000000000000000000000000000000000000000000f901dbb88602f88301020a0a832dc6c094000000000000000000000000000000000000110080a00000000000000000000000000000000000000000000000000000000000000000c080a0ce1fe19ada21fcf8b81bc84de44605910f771acdc2a187ff5578c0cc9adaf212a06641f975a32b1f20420c97b2049c7d5ed1eb775ecd8ce89d6e9e408f86160830b9015003f9014c01030a0a832dc6c094000000000000000000000000000000000000110080a00000000000000000000000000000000000000000000000000000000000000000c00af8c6a001b8c5b09810b5fc07355d3da42e2c3a3e200c1d9a678491b7e8e256fc50cc4fa0015b4c8cc4f86aa2d2cf9e9ce97fca704a11a6c20f6b1d6c00a6e15f6d60a6dfa001878f80eaf10be1a6f618e6f8c071b10a6c14d9b89a3bf2a3f3cf2db6c5681da0014eb72b108d562c639faeb6f8c6f366a28b0381c7d30431117ec8c7bb89f834a001a9b2a6c3f3f0675b768d49b5f5dc5b5d988f88d55766247ba9e40b125f16bba001a4d4cde4aa01e57fb2c880d1d9c778c33bdf85e48ef4c4d4b4de51abccf4ed80a02f0b0ea0aa0e5bca7cd1c69604416b93a0c2b1796dfe52e4fe39d0f8a5b69e8da06b0fd6b39601b1e3fd2387a5f7574fefbcc03a8a70ff43e4f97917c63a684d6ec0c0",
                "transactions" : [
                    {
                        "accessList" : [
                        ],
                        "chainId" : "0x01",
                        "data" : "0x0000000000000000000000000000000000000000000000000000000000000000",
                        "gasLimit" : "0x2dc6c0",
                        "maxFeePerGas" : "0x0a",
                        "maxPriorityFeePerGas" : "0x0a",
                        "nonce" : "0x02",
                        "r" : "0xce1fe19ada21fcf8b81bc84de44605910f771acdc2a187ff5578c0cc9adaf212",
                        "s" : "0x6641f975a32b1f20420c97b2049c7d5ed1eb775ecd8ce89d6e9e408f86160830",
                        "sender" : "0xa94f5374fce5edbc8e2a8697c15331677e6ebf0b",
                        "to" : "0x0000000000000000000000000000000000001100",
                        "type" : "0x02",
                        "v" : "0x00",
                        "value" : "0x00"
                    },
                    {
                        "accessList" : [
                        ],
                        "blobVersionedHashes" : [
                            "0x01b8c5b09810b5fc07355d3da42e2c3a3e200c1d9a678491b7e8e256fc50cc4f",
                            "0x015b4c8cc4f86aa2d2cf9e9ce97fca704a11a6c20f6b1d6c00a6e15f6d60a6df",
                            "0x01878f80eaf10be1a6f618e6f8c071b10a6c14d9b89a3bf2a3f3cf2db6c5681d",
                            "0x014eb72b108d562c639faeb6f8c6f366a28b0381c7d30431117ec8c7bb89f834",
                            "0x01a9b2a6c3f3f0675b768d49b5f5dc5b5d988f88d55766247ba9e40b125f16bb",
                            "0x01a4d4cde4aa01e57fb2c880d1d9c778c33bdf85e48ef4c4d4b4de51abccf4ed"
                        ],
                        "chainId" : "0x01",
                        "data" : "0x0000000000000000000000000000000000000000000000000000000000000000",
                        "gasLimit" : "0x2dc6c0",
                        "maxFeePerBlobGas" : "0x0a",
                        "maxFeePerGas" : "0x0a",
                        "maxPriorityFeePerGas" : "0x0a",
                        "nonce" : "0x03",
                        "r" : "0x2f0b0ea0aa0e5bca7cd1c69604416b93a0c2b1796dfe52e4fe39d0f8a5b69e8d",
                        "s" : "0x6b0fd6b39601b1e3fd2387a5f7574fefbcc03a8a70ff43e4f97917c63a684d6e",
                        "sender" : "0xa94f5374fce5edbc8e2a8697c15331677e6ebf0b",
                        "to" : "0x0000000000000000000000000000000000001100",
                        "type" : "0x03",
                        "v" : "0x00",
                        "value" : "0x00"
                    }
                ],
                "uncleHeaders" : [
                ],
                "withdrawals" : [
                ]
            },
            {
                "blockHeader" : {
                    "baseFeePerGas" : "0x07",
                    "blobGasUsed" : "0x0c0000",
                    "bloom" : "0x00000000000000000000000000000000000000000000000000000000000000000000000000000000000000000000000000000000000000000000000000000000000000000000000000000000000000000000000000000000000000000000000000000000000000000000000000000000000000000000000000000000000000000000000000000000000000000000000000000000000000000000000000000000000000000000000000000000000000000000000000000000000000000000000000000000000000000000000000000000000000000000000000000000000000000000000000000000000000000000000000000000000000000000000000000000",
                    "coinbase" : "0x2adc25665018aa1fe0e6bc666dac8fc2697ff9ba",
                    "difficulty" : "0x00",
                    "excessBlobGas" : "0x0c0000",
                    "extraData" : "0x",
                    "gasLimit" : "0x016345785d8a0000",
                    "gasUsed" : "0x02df04",
                    "hash" : "0x3d87a19783768ae72f6a34a87ce405e6fe75e82590859ce4ca5783d6d5deb0bf",
                    "mixHash" : "0x0000000000000000000000000000000000000000000000000000000000000000",
                    "nonce" : "0x0000000000000000",
                    "number" : "0x03",
                    "parentBeaconBlockRoot" : "0x0000000000000000000000000000000000000000000000000000000000000000",
                    "parentHash" : "0x42ff60b24af7e8e04f7c81c3e999c8d56f0cb7d24104a108812a304c004c8394",
                    "receiptTrie" : "0xda5ac010087a7cb6e374f2cda2f2c54242b12da3fc28ef70fffbdce90d262adf",
                    "stateRoot" : "0x33779966f696a19128b625dcc79a793525bed03fc589653d5969673ab03ccb1f",
                    "timestamp" : "0x24",
                    "transactionsTrie" : "0xb0a9caba7a835144e5e6320e9723eb9d143453d3ab45561370301168bbdc91de",
                    "uncleHash" : "0x1dcc4de8dec75d7aab85b567b6ccd41ad312451b948a7413f0a142fd40d49347",
                    "withdrawalsRoot" : "0x56e81f171bcc55a6ff8345e692c0f86e5b48e01b996cadc001622fb5e363b421"
                },
                "blocknumber" : "3",
                "rlp" : "0xf90426f90243a042ff60b24af7e8e04f7c81c3e999c8d56f0cb7d24104a108812a304c004c8394a01dcc4de8dec75d7aab85b567b6ccd41ad312451b948a7413f0a142fd40d49347942adc25665018aa1fe0e6bc666dac8fc2697ff9baa033779966f696a19128b625dcc79a793525bed03fc589653d5969673ab03ccb1fa0b0a9caba7a835144e5e6320e9723eb9d143453d3ab45561370301168bbdc91dea0da5ac010087a7cb6e374f2cda2f2c54242b12da3fc28ef70fffbdce90d262adfb9010000000000000000000000000000000000000000000000000000000000000000000000000000000000000000000000000000000000000000000000000000000000000000000000000000000000000000000000000000000000000000000000000000000000000000000000000000000000000000000000000000000000000000000000000000000000000000000000000000000000000000000000000000000000000000000000000000000000000000000000000000000000000000000000000000000000000000000000000000000000000000000000000000000000000000000000000000000000000000000000000000000000000000000000000000000000800388016345785d8a00008302df042480a0000000000000000000000000000000000000000000000000000000000000000088000000000000000007a056e81f171bcc55a6ff8345e692c0f86e5b48e01b996cadc001622fb5e363b421830c0000830c0000a00000000000000000000000000000000000000000000000000000000000000000f901dbb88602f88301040a0a832dc6c094000000000000000000000000000000000000120080a00000000000000000000000000000000000000000000000000000000000000000c001a0e689870971f4617f725df47582f225de28c74483ef8570b0021fba2049ec8268a0239e6d21cc1bb3163dab4a59e0617ed4a69ddd81301c7e1e36c3e8604f1358dcb9015003f9014c01050a0a832dc6c094000000000000000000000000000000000000130080a00000000000000000000000000000000000000000000000000000000000000000c00af8c6a001b8c5b09810b5fc07355d3da42e2c3a3e200c1d9a678491b7e8e256fc50cc4fa0015b4c8cc4f86aa2d2cf9e9ce97fca704a11a6c20f6b1d6c00a6e15f6d60a6dfa001878f80eaf10be1a6f618e6f8c071b10a6c14d9b89a3bf2a3f3cf2db6c5681da0014eb72b108d562c639faeb6f8c6f366a28b0381c7d30431117ec8c7bb89f834a001a9b2a6c3f3f0675b768d49b5f5dc5b5d988f88d55766247ba9e40b125f16bba001a4d4cde4aa01e57fb2c880d1d9c778c33bdf85e48ef4c4d4b4de51abccf4ed80a0ae004c675a7c620834a3e80266381d11b2c8f0b275b8ff4c89eeaa1764906fcda0287c090f1ab962ba17c27f35494cd2805d63bdb05497361680b6e481436fe151c0c0",
                "transactions" : [
                    {
                        "accessList" : [
                        ],
                        "chainId" : "0x01",
                        "data" : "0x0000000000000000000000000000000000000000000000000000000000000000",
                        "gasLimit" : "0x2dc6c0",
                        "maxFeePerGas" : "0x0a",
                        "maxPriorityFeePerGas" : "0x0a",
                        "nonce" : "0x04",
                        "r" : "0xe689870971f4617f725df47582f225de28c74483ef8570b0021fba2049ec8268",
                        "s" : "0x239e6d21cc1bb3163dab4a59e0617ed4a69ddd81301c7e1e36c3e8604f1358dc",
                        "sender" : "0xa94f5374fce5edbc8e2a8697c15331677e6ebf0b",
                        "to" : "0x0000000000000000000000000000000000001200",
                        "type" : "0x02",
                        "v" : "0x01",
                        "value" : "0x00"
                    },
                    {
                        "accessList" : [
                        ],
                        "blobVersionedHashes" : [
                            "0x01b8c5b09810b5fc07355d3da42e2c3a3e200c1d9a678491b7e8e256fc50cc4f",
                            "0x015b4c8cc4f86aa2d2cf9e9ce97fca704a11a6c20f6b1d6c00a6e15f6d60a6df",
                            "0x01878f80eaf10be1a6f618e6f8c071b10a6c14d9b89a3bf2a3f3cf2db6c5681d",
                            "0x014eb72b108d562c639faeb6f8c6f366a28b0381c7d30431117ec8c7bb89f834",
                            "0x01a9b2a6c3f3f0675b768d49b5f5dc5b5d988f88d55766247ba9e40b125f16bb",
                            "0x01a4d4cde4aa01e57fb2c880d1d9c778c33bdf85e48ef4c4d4b4de51abccf4ed"
                        ],
                        "chainId" : "0x01",
                        "data" : "0x0000000000000000000000000000000000000000000000000000000000000000",
                        "gasLimit" : "0x2dc6c0",
                        "maxFeePerBlobGas" : "0x0a",
                        "maxFeePerGas" : "0x0a",
                        "maxPriorityFeePerGas" : "0x0a",
                        "nonce" : "0x05",
                        "r" : "0xae004c675a7c620834a3e80266381d11b2c8f0b275b8ff4c89eeaa1764906fcd",
                        "s" : "0x287c090f1ab962ba17c27f35494cd2805d63bdb05497361680b6e481436fe151",
                        "sender" : "0xa94f5374fce5edbc8e2a8697c15331677e6ebf0b",
                        "to" : "0x0000000000000000000000000000000000001300",
                        "type" : "0x03",
                        "v" : "0x00",
                        "value" : "0x00"
                    }
                ],
                "uncleHeaders" : [
                ],
                "withdrawals" : [
                ]
            }
        ],
        "config" : {
            "blobSchedule" : {
                "Cancun" : {
                    "baseFeeUpdateFraction" : "0x32f0ed",
                    "max" : "0x06",
                    "target" : "0x03"
                }
            },
            "chainid" : "0x01",
            "network" : "Cancun"
        },
        "genesisBlockHeader" : {
            "baseFeePerGas" : "0x07",
            "blobGasUsed" : "0x00",
            "bloom" : "0x00000000000000000000000000000000000000000000000000000000000000000000000000000000000000000000000000000000000000000000000000000000000000000000000000000000000000000000000000000000000000000000000000000000000000000000000000000000000000000000000000000000000000000000000000000000000000000000000000000000000000000000000000000000000000000000000000000000000000000000000000000000000000000000000000000000000000000000000000000000000000000000000000000000000000000000000000000000000000000000000000000000000000000000000000000000",
            "coinbase" : "0x0000000000000000000000000000000000000000",
            "difficulty" : "0x00",
            "excessBlobGas" : "0x00",
            "extraData" : "0x00",
            "gasLimit" : "0x016345785d8a0000",
            "gasUsed" : "0x00",
            "hash" : "0x04124a173134daa49a1f904a4ffa7ec07a371829051d618e934f2a7bb8af235b",
            "mixHash" : "0x0000000000000000000000000000000000000000000000000000000000000000",
            "nonce" : "0x0000000000000000",
            "number" : "0x00",
            "parentBeaconBlockRoot" : "0x0000000000000000000000000000000000000000000000000000000000000000",
            "parentHash" : "0x0000000000000000000000000000000000000000000000000000000000000000",
            "receiptTrie" : "0x56e81f171bcc55a6ff8345e692c0f86e5b48e01b996cadc001622fb5e363b421",
            "stateRoot" : "0x9e70df22f9af751acf58adfd6f96669ed1c75b93b55b3302e3de8bd663c62b09",
            "timestamp" : "0x00",
            "transactionsTrie" : "0x56e81f171bcc55a6ff8345e692c0f86e5b48e01b996cadc001622fb5e363b421",
            "uncleHash" : "0x1dcc4de8dec75d7aab85b567b6ccd41ad312451b948a7413f0a142fd40d49347",
            "withdrawalsRoot" : "0x56e81f171bcc55a6ff8345e692c0f86e5b48e01b996cadc001622fb5e363b421"
        },
        "genesisRLP" : "0xf90240f9023aa00000000000000000000000000000000000000000000000000000000000000000a01dcc4de8dec75d7aab85b567b6ccd41ad312451b948a7413f0a142fd40d49347940000000000000000000000000000000000000000a09e70df22f9af751acf58adfd6f96669ed1c75b93b55b3302e3de8bd663c62b09a056e81f171bcc55a6ff8345e692c0f86e5b48e01b996cadc001622fb5e363b421a056e81f171bcc55a6ff8345e692c0f86e5b48e01b996cadc001622fb5e363b421b9010000000000000000000000000000000000000000000000000000000000000000000000000000000000000000000000000000000000000000000000000000000000000000000000000000000000000000000000000000000000000000000000000000000000000000000000000000000000000000000000000000000000000000000000000000000000000000000000000000000000000000000000000000000000000000000000000000000000000000000000000000000000000000000000000000000000000000000000000000000000000000000000000000000000000000000000000000000000000000000000000000000000000000000000000000000000808088016345785d8a0000808000a0000000000000000000000000000000000000000000000000000000000000000088000000000000000007a056e81f171bcc55a6ff8345e692c0f86e5b48e01b996cadc001622fb5e363b4218080a00000000000000000000000000000000000000000000000000000000000000000c0c0c0",
        "lastblockhash" : "0x3d87a19783768ae72f6a34a87ce405e6fe75e82590859ce4ca5783d6d5deb0bf",
        "network" : "Cancun",
        "postState" : {
            "0x0000000000000000000000000000000000001000" : {
                "balance" : "0x00",
                "code" : "0x600049600055600149600155600249600255600349600355600449600455600549600555",
                "nonce" : "0x01",
                "storage" : {
                }
            },
            "0x0000000000000000000000000000000000001100" : {
                "balance" : "0x00",
                "code" : "0x600049600055600149600155600249600255600349600355600449600455600549600555",
                "nonce" : "0x01",
                "storage" : {
                    "0x00" : "0x01b8c5b09810b5fc07355d3da42e2c3a3e200c1d9a678491b7e8e256fc50cc4f",
                    "0x01" : "0x015b4c8cc4f86aa2d2cf9e9ce97fca704a11a6c20f6b1d6c00a6e15f6d60a6df",
                    "0x02" : "0x01878f80eaf10be1a6f618e6f8c071b10a6c14d9b89a3bf2a3f3cf2db6c5681d",
                    "0x03" : "0x014eb72b108d562c639faeb6f8c6f366a28b0381c7d30431117ec8c7bb89f834",
                    "0x04" : "0x01a9b2a6c3f3f0675b768d49b5f5dc5b5d988f88d55766247ba9e40b125f16bb",
                    "0x05" : "0x01a4d4cde4aa01e57fb2c880d1d9c778c33bdf85e48ef4c4d4b4de51abccf4ed"
                }
            },
            "0x0000000000000000000000000000000000001200" : {
                "balance" : "0x00",
                "code" : "0x600049600055600149600155600249600255600349600355600449600455600549600555",
                "nonce" : "0x01",
                "storage" : {
                }
            },
            "0x0000000000000000000000000000000000001300" : {
                "balance" : "0x00",
                "code" : "0x600049600055600149600155600249600255600349600355600449600455600549600555",
                "nonce" : "0x01",
                "storage" : {
                    "0x00" : "0x01b8c5b09810b5fc07355d3da42e2c3a3e200c1d9a678491b7e8e256fc50cc4f",
                    "0x01" : "0x015b4c8cc4f86aa2d2cf9e9ce97fca704a11a6c20f6b1d6c00a6e15f6d60a6df",
                    "0x02" : "0x01878f80eaf10be1a6f618e6f8c071b10a6c14d9b89a3bf2a3f3cf2db6c5681d",
                    "0x03" : "0x014eb72b108d562c639faeb6f8c6f366a28b0381c7d30431117ec8c7bb89f834",
                    "0x04" : "0x01a9b2a6c3f3f0675b768d49b5f5dc5b5d988f88d55766247ba9e40b125f16bb",
                    "0x05" : "0x01a4d4cde4aa01e57fb2c880d1d9c778c33bdf85e48ef4c4d4b4de51abccf4ed"
                }
            },
            "0x000f3df6d732807ef1319fb7b8bb8522d0beac02" : {
                "balance" : "0x00",
                "code" : "0x3373fffffffffffffffffffffffffffffffffffffffe14604d57602036146024575f5ffd5b5f35801560495762001fff810690815414603c575f5ffd5b62001fff01545f5260205ff35b5f5ffd5b62001fff42064281555f359062001fff015500",
                "nonce" : "0x01",
                "storage" : {
                    "0x0c" : "0x0c",
                    "0x18" : "0x18",
                    "0x24" : "0x24"
                }
            },
            "0x2adc25665018aa1fe0e6bc666dac8fc2697ff9ba" : {
                "balance" : "0x1a2410",
                "code" : "0x",
                "nonce" : "0x00",
                "storage" : {
                }
            },
            "0xa94f5374fce5edbc8e2a8697c15331677e6ebf0b" : {
                "balance" : "0x3635c9adc5de24dd20",
                "code" : "0x",
                "nonce" : "0x06",
                "storage" : {
                }
            }
        },
        "pre" : {
            "0x0000000000000000000000000000000000001000" : {
                "balance" : "0x00",
                "code" : "0x600049600055600149600155600249600255600349600355600449600455600549600555",
                "nonce" : "0x01",
                "storage" : {
                }
            },
            "0x0000000000000000000000000000000000001100" : {
                "balance" : "0x00",
                "code" : "0x600049600055600149600155600249600255600349600355600449600455600549600555",
                "nonce" : "0x01",
                "storage" : {
                }
            },
            "0x0000000000000000000000000000000000001200" : {
                "balance" : "0x00",
                "code" : "0x600049600055600149600155600249600255600349600355600449600455600549600555",
                "nonce" : "0x01",
                "storage" : {
                }
            },
            "0x0000000000000000000000000000000000001300" : {
                "balance" : "0x00",
                "code" : "0x600049600055600149600155600249600255600349600355600449600455600549600555",
                "nonce" : "0x01",
                "storage" : {
                }
            },
            "0x000f3df6d732807ef1319fb7b8bb8522d0beac02" : {
                "balance" : "0x00",
                "code" : "0x3373fffffffffffffffffffffffffffffffffffffffe14604d57602036146024575f5ffd5b5f35801560495762001fff810690815414603c575f5ffd5b62001fff01545f5260205ff35b5f5ffd5b62001fff42064281555f359062001fff015500",
                "nonce" : "0x01",
                "storage" : {
                }
            },
            "0xa94f5374fce5edbc8e2a8697c15331677e6ebf0b" : {
                "balance" : "0x3635c9adc5dea00000",
                "code" : "0x",
                "nonce" : "0x00",
                "storage" : {
                }
            }
        },
        "sealEngine" : "NoProof"
    }
}