{
    "src/GeneralStateTestsFiller/Pyspecs/cancun/eip4844_blobs/test_excess_blob_gas.py::test_invalid_excess_blob_gas_above_target_change[fork_Cancun-max_blobs_increase_more_than_expected-blockchain_test-new_blobs_1]" : {
        "_info" : {
            "comment" : "`execution-spec-tests` generated test",
            "description" : "Test function documentation:\n\n    Test rejection of blocks where the `excessBlobGas`.\n\n    - decreases more than `TARGET_BLOB_GAS_PER_BLOCK` in a single block with zero blobs\n    - increases more than `TARGET_BLOB_GAS_PER_BLOCK` in a single block with max blobs",
            "filling-rpc-server" : "ethereum-spec-evm 0.1.0 (Git commit: 0d5cdb0351ff34b8ef13c4c07d9fa19999c73f0b)",
            "filling-tool-version" : "retesteth-0.3.2-legacy+commit.3ee677f4.Linux.g++",
            "filling-transition-tool" : "ethereum-spec-evm-resolver 0.0.1",
            "fixture_format" : "blockchain_test",
            "generatedTestHash" : "c5a6ea0375d53a79a29c6e3b081e9f42af07a558ce6f0cbfec63e91299c841df",
            "hash" : "0x2141a62be0291f713a607b7b1e10912b6d62b1049120dfd5ee1966f22e4c2faa",
            "lllcversion" : "Version: 0.5.14-develop.2024.11.5+commit.b2b86751.mod.Linux.g++",
            "solidity" : "Version: 0.8.24+commit.e11b9ed9.Linux.g++",
            "source" : "src/GeneralStateTestsFiller/Pyspecs/cancun/eip4844_blobs/test_excess_blob_gas.py",
            "sourceHash" : "30c46ec9034617e85fd2d3767b62dd76daa4d09d677849a614ac0924897f4036",
            "url" : "https://github.com/ethereum/execution-spec-tests/blob/0d5cdb0351ff34b8ef13c4c07d9fa19999c73f0b/tests/tmp/tmptest_73b7a210_7707_4fab_bdbf_a427fbb9a3d6/test_excess_blob_gas.py#L477"
        },
        "blocks" : [
            {
                "blockHeader" : {
                    "baseFeePerGas" : "0x07",
                    "blobGasUsed" : "0x0c0000",
                    "bloom" : "0x00000000000000000000000000000000000000000000000000000000000000000000000000000000000000000000000000000000000000000000000000000000000000000000000000000000000000000000000000000000000000000000000000000000000000000000000000000000000000000000000000000000000000000000000000000000000000000000000000000000000000000000000000000000000000000000000000000000000000000000000000000000000000000000000000000000000000000000000000000000000000000000000000000000000000000000000000000000000000000000000000000000000000000000000000000000",
                    "coinbase" : "0x2adc25665018aa1fe0e6bc666dac8fc2697ff9ba",
                    "difficulty" : "0x00",
                    "excessBlobGas" : "0x0a0000",
                    "extraData" : "0x",
                    "gasLimit" : "0x016345785d8a0000",
                    "gasUsed" : "0x5208",
                    "hash" : "0xe2b3638c2a70920ae6a31477ab3981e92e4e35284f432d8ef008eab15adec048",
                    "mixHash" : "0x0000000000000000000000000000000000000000000000000000000000000000",
                    "nonce" : "0x0000000000000000",
                    "number" : "0x01",
                    "parentBeaconBlockRoot" : "0x0000000000000000000000000000000000000000000000000000000000000000",
                    "parentHash" : "0xd2d98fc7dd4b20e0f2896475c098e4884b9e83b86c05bc811268fd7b8d830be6",
                    "receiptTrie" : "0xeaa8c40899a61ae59615cf9985f5e2194f8fd2b57d273be63bde6733e89b12ab",
                    "stateRoot" : "0x422c61ad11b0b62026b254a62c803ab2da19d6a645f0f55b04ab6c6ee6861b35",
                    "timestamp" : "0x0c",
                    "transactionsTrie" : "0x3e0e613a4b79cd33f619a61a68ebb9c9aae2587346fe5113a163ca86d10c2ea0",
                    "uncleHash" : "0x1dcc4de8dec75d7aab85b567b6ccd41ad312451b948a7413f0a142fd40d49347",
                    "withdrawalsRoot" : "0x56e81f171bcc55a6ff8345e692c0f86e5b48e01b996cadc001622fb5e363b421"
                },
                "blocknumber" : "1",
                "rlp" : "0xf9037cf90242a0d2d98fc7dd4b20e0f2896475c098e4884b9e83b86c05bc811268fd7b8d830be6a01dcc4de8dec75d7aab85b567b6ccd41ad312451b948a7413f0a142fd40d49347942adc25665018aa1fe0e6bc666dac8fc2697ff9baa0422c61ad11b0b62026b254a62c803ab2da19d6a645f0f55b04ab6c6ee6861b35a03e0e613a4b79cd33f619a61a68ebb9c9aae2587346fe5113a163ca86d10c2ea0a0eaa8c40899a61ae59615cf9985f5e2194f8fd2b57d273be63bde6733e89b12abb9010000000000000000000000000000000000000000000000000000000000000000000000000000000000000000000000000000000000000000000000000000000000000000000000000000000000000000000000000000000000000000000000000000000000000000000000000000000000000000000000000000000000000000000000000000000000000000000000000000000000000000000000000000000000000000000000000000000000000000000000000000000000000000000000000000000000000000000000000000000000000000000000000000000000000000000000000000000000000000000000000000000000000000000000000000000000800188016345785d8a00008252080c80a0000000000000000000000000000000000000000000000000000000000000000088000000000000000007a056e81f171bcc55a6ff8345e692c0f86e5b48e01b996cadc001622fb5e363b421830c0000830a0000a00000000000000000000000000000000000000000000000000000000000000000f90132b9012f03f9012b01808007825208946389e7f33ce3b1e94e4325ef02829cd12297ef710180c001f8c6a00100000000000000000000000000000000000000000000000000000000000000a00100000000000000000000000000000000000000000000000000000000000001a00100000000000000000000000000000000000000000000000000000000000002a00100000000000000000000000000000000000000000000000000000000000003a00100000000000000000000000000000000000000000000000000000000000004a0010000000000000000000000000000000000000000000000000000000000000501a0238e73985780e4434f16bafd63ae465bce31bd623b763901c14f4a9a2d7ff869a01e17141eec23d157b85abe3d3ab6bbde13b7364d78e602da29b6175686f1cacfc0c0",
                "transactions" : [
                    {
                        "accessList" : [
                        ],
                        "blobVersionedHashes" : [
                            "0x0100000000000000000000000000000000000000000000000000000000000000",
                            "0x0100000000000000000000000000000000000000000000000000000000000001",
                            "0x0100000000000000000000000000000000000000000000000000000000000002",
                            "0x0100000000000000000000000000000000000000000000000000000000000003",
                            "0x0100000000000000000000000000000000000000000000000000000000000004",
                            "0x0100000000000000000000000000000000000000000000000000000000000005"
                        ],
                        "chainId" : "0x01",
                        "data" : "0x",
                        "gasLimit" : "0x5208",
                        "maxFeePerBlobGas" : "0x01",
                        "maxFeePerGas" : "0x07",
                        "maxPriorityFeePerGas" : "0x00",
                        "nonce" : "0x00",
                        "r" : "0x238e73985780e4434f16bafd63ae465bce31bd623b763901c14f4a9a2d7ff869",
                        "s" : "0x1e17141eec23d157b85abe3d3ab6bbde13b7364d78e602da29b6175686f1cacf",
                        "sender" : "0x8a0a19589531694250d570040a0c4b74576919b8",
                        "to" : "0x6389e7f33ce3b1e94e4325ef02829cd12297ef71",
                        "type" : "0x03",
                        "v" : "0x01",
                        "value" : "0x01"
                    }
                ],
                "uncleHeaders" : [
                ],
                "withdrawals" : [
                ]
            },
            {
                "expectException" : "BlockException.INCORRECT_EXCESS_BLOB_GAS",
                "rlp" : "0xf902d3f90242a0e2b3638c2a70920ae6a31477ab3981e92e4e35284f432d8ef008eab15adec048a01dcc4de8dec75d7aab85b567b6ccd41ad312451b948a7413f0a142fd40d49347942adc25665018aa1fe0e6bc666dac8fc2697ff9baa0b18a6f9ef8f31e7ebad713f1d4939bce31141520d95ac28fe923111a90a6b065a05ca451a86e479065bc65b85979b633432145e836040a533362ff9b3c993fc64ca0c117ad0158b04d4277c8a0d1b440360bf3f011ad7caccf8740df472c96e8f5ccb9010000000000000000000000000000000000000000000000000000000000000000000000000000000000000000000000000000000000000000000000000000000000000000000000000000000000000000000000000000000000000000000000000000000000000000000000000000000000000000000000000000000000000000000000000000000000000000000000000000000000000000000000000000000000000000000000000000000000000000000000000000000000000000000000000000000000000000000000000000000000000000000000000000000000000000000000000000000000000000000000000000000000000000000000000000000000800288016345785d8a000082a8611880a0000000000000000000000000000000000000000000000000000000000000000088000000000000000007a056e81f171bcc55a6ff8345e692c0f86e5b48e01b996cadc001622fb5e363b4218302000083120000a00000000000000000000000000000000000000000000000000000000000000000f88ab88803f8850180800782afc89400000000000000000000000000000000000010000180c001e1a0010000000000000000000000000000000000000000000000000000000000000080a06ff08afceffbb09752c2b60468a6fbb8c4bb3a50a64437be7d7ece0652c7c352a066723e98695c972accb9e39207a0959a4f9b5a42a22bb7f26678bbc6f0671933c0c0",
                "rlp_decoded" : {
                    "blockHeader" : {
                        "baseFeePerGas" : "0x07",
                        "blobGasUsed" : "0x020000",
                        "bloom" : "0x00000000000000000000000000000000000000000000000000000000000000000000000000000000000000000000000000000000000000000000000000000000000000000000000000000000000000000000000000000000000000000000000000000000000000000000000000000000000000000000000000000000000000000000000000000000000000000000000000000000000000000000000000000000000000000000000000000000000000000000000000000000000000000000000000000000000000000000000000000000000000000000000000000000000000000000000000000000000000000000000000000000000000000000000000000000",
                        "coinbase" : "0x2adc25665018aa1fe0e6bc666dac8fc2697ff9ba",
                        "difficulty" : "0x00",
                        "excessBlobGas" : "0x120000",
                        "extraData" : "0x",
                        "gasLimit" : "0x016345785d8a0000",
                        "gasUsed" : "0xa861",
                        "hash" : "0xfe9068cd545110c1f32a2458f07c0ae362a550c7a3559815329ff19233c8401d",
                        "mixHash" : "0x0000000000000000000000000000000000000000000000000000000000000000",
                        "nonce" : "0x0000000000000000",
                        "number" : "0x02",
                        "parentBeaconBlockRoot" : "0x0000000000000000000000000000000000000000000000000000000000000000",
                        "parentHash" : "0xe2b3638c2a70920ae6a31477ab3981e92e4e35284f432d8ef008eab15adec048",
                        "receiptTrie" : "0xc117ad0158b04d4277c8a0d1b440360bf3f011ad7caccf8740df472c96e8f5cc",
                        "stateRoot" : "0xb18a6f9ef8f31e7ebad713f1d4939bce31141520d95ac28fe923111a90a6b065",
                        "timestamp" : "0x18",
                        "transactionsTrie" : "0x5ca451a86e479065bc65b85979b633432145e836040a533362ff9b3c993fc64c",
                        "uncleHash" : "0x1dcc4de8dec75d7aab85b567b6ccd41ad312451b948a7413f0a142fd40d49347",
                        "withdrawalsRoot" : "0x56e81f171bcc55a6ff8345e692c0f86e5b48e01b996cadc001622fb5e363b421"
                    },
                    "blocknumber" : "2",
                    "transactions" : [
                        {
                            "accessList" : [
                            ],
                            "blobVersionedHashes" : [
                                "0x0100000000000000000000000000000000000000000000000000000000000000"
                            ],
                            "chainId" : "0x01",
                            "data" : "0x",
                            "gasLimit" : "0xafc8",
                            "maxFeePerBlobGas" : "0x01",
                            "maxFeePerGas" : "0x07",
                            "maxPriorityFeePerGas" : "0x00",
                            "nonce" : "0x00",
                            "r" : "0x6ff08afceffbb09752c2b60468a6fbb8c4bb3a50a64437be7d7ece0652c7c352",
                            "s" : "0x66723e98695c972accb9e39207a0959a4f9b5a42a22bb7f26678bbc6f0671933",
                            "sender" : "0xa94f5374fce5edbc8e2a8697c15331677e6ebf0b",
                            "to" : "0x0000000000000000000000000000000000001000",
                            "type" : "0x03",
                            "v" : "0x00",
                            "value" : "0x01"
                        }
                    ],
                    "uncleHeaders" : [
                    ],
                    "withdrawals" : [
                    ]
                }
            }
        ],
        "config" : {
            "blobSchedule" : {
                "Cancun" : {
                    "baseFeeUpdateFraction" : "0x32f0ed",
                    "max" : "0x06",
                    "target" : "0x03"
                }
            },
            "chainid" : "0x01",
            "network" : "Cancun"
        },
        "genesisBlockHeader" : {
            "baseFeePerGas" : "0x07",
            "blobGasUsed" : "0x00",
            "bloom" : "0x00000000000000000000000000000000000000000000000000000000000000000000000000000000000000000000000000000000000000000000000000000000000000000000000000000000000000000000000000000000000000000000000000000000000000000000000000000000000000000000000000000000000000000000000000000000000000000000000000000000000000000000000000000000000000000000000000000000000000000000000000000000000000000000000000000000000000000000000000000000000000000000000000000000000000000000000000000000000000000000000000000000000000000000000000000000",
            "coinbase" : "0x0000000000000000000000000000000000000000",
            "difficulty" : "0x00",
            "excessBlobGas" : "0x100000",
            "extraData" : "0x00",
            "gasLimit" : "0x016345785d8a0000",
            "gasUsed" : "0x00",
            "hash" : "0xd2d98fc7dd4b20e0f2896475c098e4884b9e83b86c05bc811268fd7b8d830be6",
            "mixHash" : "0x0000000000000000000000000000000000000000000000000000000000000000",
            "nonce" : "0x0000000000000000",
            "number" : "0x00",
            "parentBeaconBlockRoot" : "0x0000000000000000000000000000000000000000000000000000000000000000",
            "parentHash" : "0x0000000000000000000000000000000000000000000000000000000000000000",
            "receiptTrie" : "0x56e81f171bcc55a6ff8345e692c0f86e5b48e01b996cadc001622fb5e363b421",
            "stateRoot" : "0xde09a82126125fddec6388029abd53274745961f80591c84bc2190fb815fdf57",
            "timestamp" : "0x00",
            "transactionsTrie" : "0x56e81f171bcc55a6ff8345e692c0f86e5b48e01b996cadc001622fb5e363b421",
            "uncleHash" : "0x1dcc4de8dec75d7aab85b567b6ccd41ad312451b948a7413f0a142fd40d49347",
            "withdrawalsRoot" : "0x56e81f171bcc55a6ff8345e692c0f86e5b48e01b996cadc001622fb5e363b421"
        },
        "genesisRLP" : "0xf90243f9023da00000000000000000000000000000000000000000000000000000000000000000a01dcc4de8dec75d7aab85b567b6ccd41ad312451b948a7413f0a142fd40d49347940000000000000000000000000000000000000000a0de09a82126125fddec6388029abd53274745961f80591c84bc2190fb815fdf57a056e81f171bcc55a6ff8345e692c0f86e5b48e01b996cadc001622fb5e363b421a056e81f171bcc55a6ff8345e692c0f86e5b48e01b996cadc001622fb5e363b421b9010000000000000000000000000000000000000000000000000000000000000000000000000000000000000000000000000000000000000000000000000000000000000000000000000000000000000000000000000000000000000000000000000000000000000000000000000000000000000000000000000000000000000000000000000000000000000000000000000000000000000000000000000000000000000000000000000000000000000000000000000000000000000000000000000000000000000000000000000000000000000000000000000000000000000000000000000000000000000000000000000000000000000000000000000000000000808088016345785d8a0000808000a0000000000000000000000000000000000000000000000000000000000000000088000000000000000007a056e81f171bcc55a6ff8345e692c0f86e5b48e01b996cadc001622fb5e363b4218083100000a00000000000000000000000000000000000000000000000000000000000000000c0c0c0",
        "lastblockhash" : "0xe2b3638c2a70920ae6a31477ab3981e92e4e35284f432d8ef008eab15adec048",
        "network" : "Cancun",
        "postState" : {
            "0x0000000000000000000000000000000000001000" : {
                "balance" : "0x00",
                "code" : "0x4a600055",
                "nonce" : "0x01",
                "storage" : {
                }
            },
            "0x000f3df6d732807ef1319fb7b8bb8522d0beac02" : {
                "balance" : "0x00",
                "code" : "0x3373fffffffffffffffffffffffffffffffffffffffe14604d57602036146024575f5ffd5b5f35801560495762001fff810690815414603c575f5ffd5b62001fff01545f5260205ff35b5f5ffd5b62001fff42064281555f359062001fff015500",
                "nonce" : "0x01",
                "storage" : {
                    "0x0c" : "0x0c"
                }
            },
            "0x6389e7f33ce3b1e94e4325ef02829cd12297ef71" : {
                "balance" : "0x01",
                "code" : "0x",
                "nonce" : "0x00",
                "storage" : {
                }
            },
            "0x8a0a19589531694250d570040a0c4b74576919b8" : {
                "balance" : "0x033b2e3c9fd0803ce7f1c1c7",
                "code" : "0x",
                "nonce" : "0x01",
                "storage" : {
                }
            },
            "0xa94f5374fce5edbc8e2a8697c15331677e6ebf0b" : {
                "balance" : "0x06ce79",
                "code" : "0x",
                "nonce" : "0x00",
                "storage" : {
                }
            }
        },
        "pre" : {
            "0x0000000000000000000000000000000000001000" : {
                "balance" : "0x00",
                "code" : "0x4a600055",
                "nonce" : "0x01",
                "storage" : {
                }
            },
            "0x000f3df6d732807ef1319fb7b8bb8522d0beac02" : {
                "balance" : "0x00",
                "code" : "0x3373fffffffffffffffffffffffffffffffffffffffe14604d57602036146024575f5ffd5b5f35801560495762001fff810690815414603c575f5ffd5b62001fff01545f5260205ff35b5f5ffd5b62001fff42064281555f359062001fff015500",
                "nonce" : "0x01",
                "storage" : {
                }
            },
            "0x8a0a19589531694250d570040a0c4b74576919b8" : {
                "balance" : "0x033b2e3c9fd0803ce8000000",
                "code" : "0x",
                "nonce" : "0x00",
                "storage" : {
                }
            },
            "0xa94f5374fce5edbc8e2a8697c15331677e6ebf0b" : {
                "balance" : "0x06ce79",
                "code" : "0x",
                "nonce" : "0x00",
                "storage" : {
                }
            }
        },
        "sealEngine" : "NoProof"
    },
    "src/GeneralStateTestsFiller/Pyspecs/cancun/eip4844_blobs/test_excess_blob_gas.py::test_invalid_excess_blob_gas_above_target_change[fork_Cancun-zero_blobs_decrease_more_than_expected-blockchain_test-new_blobs_1]" : {
        "_info" : {
            "comment" : "`execution-spec-tests` generated test",
            "description" : "Test function documentation:\n\n    Test rejection of blocks where the `excessBlobGas`.\n\n    - decreases more than `TARGET_BLOB_GAS_PER_BLOCK` in a single block with zero blobs\n    - increases more than `TARGET_BLOB_GAS_PER_BLOCK` in a single block with max blobs",
            "filling-rpc-server" : "ethereum-spec-evm 0.1.0 (Git commit: 0d5cdb0351ff34b8ef13c4c07d9fa19999c73f0b)",
            "filling-tool-version" : "retesteth-0.3.2-legacy+commit.3ee677f4.Linux.g++",
            "filling-transition-tool" : "ethereum-spec-evm-resolver 0.0.1",
            "fixture_format" : "blockchain_test",
            "generatedTestHash" : "a012ad144db6eda024307f9650bffe65afa592ab85d127ad83435e1c13f26190",
            "hash" : "0xd98f6bb0399df3880eda93cc0cc4c262aba000dce4b555d5c7f4ddcf2c3a3473",
            "lllcversion" : "Version: 0.5.14-develop.2024.11.5+commit.b2b86751.mod.Linux.g++",
            "solidity" : "Version: 0.8.24+commit.e11b9ed9.Linux.g++",
            "source" : "src/GeneralStateTestsFiller/Pyspecs/cancun/eip4844_blobs/test_excess_blob_gas.py",
            "sourceHash" : "30c46ec9034617e85fd2d3767b62dd76daa4d09d677849a614ac0924897f4036",
            "url" : "https://github.com/ethereum/execution-spec-tests/blob/0d5cdb0351ff34b8ef13c4c07d9fa19999c73f0b/tests/tmp/tmptest_73b7a210_7707_4fab_bdbf_a427fbb9a3d6/test_excess_blob_gas.py#L477"
        },
        "blocks" : [
            {
                "expectException" : "BlockException.INCORRECT_EXCESS_BLOB_GAS",
                "rlp" : "0xf902d3f90242a07a5f2f41468b5207a240bd9bbe5e7ca3950ff7f3e790ea6c8cca58b9604597daa01dcc4de8dec75d7aab85b567b6ccd41ad312451b948a7413f0a142fd40d49347942adc25665018aa1fe0e6bc666dac8fc2697ff9baa0e702e59a63baaff2e23a700c3e0e0ce15842de8716de43d7d64dfc4e4a120a60a05ca451a86e479065bc65b85979b633432145e836040a533362ff9b3c993fc64ca0c117ad0158b04d4277c8a0d1b440360bf3f011ad7caccf8740df472c96e8f5ccb9010000000000000000000000000000000000000000000000000000000000000000000000000000000000000000000000000000000000000000000000000000000000000000000000000000000000000000000000000000000000000000000000000000000000000000000000000000000000000000000000000000000000000000000000000000000000000000000000000000000000000000000000000000000000000000000000000000000000000000000000000000000000000000000000000000000000000000000000000000000000000000000000000000000000000000000000000000000000000000000000000000000000000000000000000000000000800188016345785d8a000082a8610c80a0000000000000000000000000000000000000000000000000000000000000000088000000000000000007a056e81f171bcc55a6ff8345e692c0f86e5b48e01b996cadc001622fb5e363b4218302000083020000a00000000000000000000000000000000000000000000000000000000000000000f88ab88803f8850180800782afc89400000000000000000000000000000000000010000180c001e1a0010000000000000000000000000000000000000000000000000000000000000080a06ff08afceffbb09752c2b60468a6fbb8c4bb3a50a64437be7d7ece0652c7c352a066723e98695c972accb9e39207a0959a4f9b5a42a22bb7f26678bbc6f0671933c0c0",
                "rlp_decoded" : {
                    "blockHeader" : {
                        "baseFeePerGas" : "0x07",
                        "blobGasUsed" : "0x020000",
                        "bloom" : "0x00000000000000000000000000000000000000000000000000000000000000000000000000000000000000000000000000000000000000000000000000000000000000000000000000000000000000000000000000000000000000000000000000000000000000000000000000000000000000000000000000000000000000000000000000000000000000000000000000000000000000000000000000000000000000000000000000000000000000000000000000000000000000000000000000000000000000000000000000000000000000000000000000000000000000000000000000000000000000000000000000000000000000000000000000000000",
                        "coinbase" : "0x2adc25665018aa1fe0e6bc666dac8fc2697ff9ba",
                        "difficulty" : "0x00",
                        "excessBlobGas" : "0x020000",
                        "extraData" : "0x",
                        "gasLimit" : "0x016345785d8a0000",
                        "gasUsed" : "0xa861",
                        "hash" : "0xa6c8841f26f128c07a63e6286c46bfdd46eecbd54c6012de78551e46aeb110ad",
                        "mixHash" : "0x0000000000000000000000000000000000000000000000000000000000000000",
                        "nonce" : "0x0000000000000000",
                        "number" : "0x01",
                        "parentBeaconBlockRoot" : "0x0000000000000000000000000000000000000000000000000000000000000000",
                        "parentHash" : "0x7a5f2f41468b5207a240bd9bbe5e7ca3950ff7f3e790ea6c8cca58b9604597da",
                        "receiptTrie" : "0xc117ad0158b04d4277c8a0d1b440360bf3f011ad7caccf8740df472c96e8f5cc",
                        "stateRoot" : "0xe702e59a63baaff2e23a700c3e0e0ce15842de8716de43d7d64dfc4e4a120a60",
                        "timestamp" : "0x0c",
                        "transactionsTrie" : "0x5ca451a86e479065bc65b85979b633432145e836040a533362ff9b3c993fc64c",
                        "uncleHash" : "0x1dcc4de8dec75d7aab85b567b6ccd41ad312451b948a7413f0a142fd40d49347",
                        "withdrawalsRoot" : "0x56e81f171bcc55a6ff8345e692c0f86e5b48e01b996cadc001622fb5e363b421"
                    },
                    "blocknumber" : "1",
                    "transactions" : [
                        {
                            "accessList" : [
                            ],
                            "blobVersionedHashes" : [
                                "0x0100000000000000000000000000000000000000000000000000000000000000"
                            ],
                            "chainId" : "0x01",
                            "data" : "0x",
                            "gasLimit" : "0xafc8",
                            "maxFeePerBlobGas" : "0x01",
                            "maxFeePerGas" : "0x07",
                            "maxPriorityFeePerGas" : "0x00",
                            "nonce" : "0x00",
                            "r" : "0x6ff08afceffbb09752c2b60468a6fbb8c4bb3a50a64437be7d7ece0652c7c352",
                            "s" : "0x66723e98695c972accb9e39207a0959a4f9b5a42a22bb7f26678bbc6f0671933",
                            "sender" : "0xa94f5374fce5edbc8e2a8697c15331677e6ebf0b",
                            "to" : "0x0000000000000000000000000000000000001000",
                            "type" : "0x03",
                            "v" : "0x00",
                            "value" : "0x01"
                        }
                    ],
                    "uncleHeaders" : [
                    ],
                    "withdrawals" : [
                    ]
                }
            }
        ],
        "config" : {
            "blobSchedule" : {
                "Cancun" : {
                    "baseFeeUpdateFraction" : "0x32f0ed",
                    "max" : "0x06",
                    "target" : "0x03"
                }
            },
            "chainid" : "0x01",
            "network" : "Cancun"
        },
        "genesisBlockHeader" : {
            "baseFeePerGas" : "0x07",
            "blobGasUsed" : "0x00",
            "bloom" : "0x00000000000000000000000000000000000000000000000000000000000000000000000000000000000000000000000000000000000000000000000000000000000000000000000000000000000000000000000000000000000000000000000000000000000000000000000000000000000000000000000000000000000000000000000000000000000000000000000000000000000000000000000000000000000000000000000000000000000000000000000000000000000000000000000000000000000000000000000000000000000000000000000000000000000000000000000000000000000000000000000000000000000000000000000000000000",
            "coinbase" : "0x0000000000000000000000000000000000000000",
            "difficulty" : "0x00",
            "excessBlobGas" : "0x0a0000",
            "extraData" : "0x00",
            "gasLimit" : "0x016345785d8a0000",
            "gasUsed" : "0x00",
            "hash" : "0x7a5f2f41468b5207a240bd9bbe5e7ca3950ff7f3e790ea6c8cca58b9604597da",
            "mixHash" : "0x0000000000000000000000000000000000000000000000000000000000000000",
            "nonce" : "0x0000000000000000",
            "number" : "0x00",
            "parentBeaconBlockRoot" : "0x0000000000000000000000000000000000000000000000000000000000000000",
            "parentHash" : "0x0000000000000000000000000000000000000000000000000000000000000000",
            "receiptTrie" : "0x56e81f171bcc55a6ff8345e692c0f86e5b48e01b996cadc001622fb5e363b421",
            "stateRoot" : "0xb4ebf7b941bea3aaec32b33ca9dceb9b5b9876b57db27ab4d0ce4640b233fbd0",
            "timestamp" : "0x00",
            "transactionsTrie" : "0x56e81f171bcc55a6ff8345e692c0f86e5b48e01b996cadc001622fb5e363b421",
            "uncleHash" : "0x1dcc4de8dec75d7aab85b567b6ccd41ad312451b948a7413f0a142fd40d49347",
            "withdrawalsRoot" : "0x56e81f171bcc55a6ff8345e692c0f86e5b48e01b996cadc001622fb5e363b421"
        },
        "genesisRLP" : "0xf90243f9023da00000000000000000000000000000000000000000000000000000000000000000a01dcc4de8dec75d7aab85b567b6ccd41ad312451b948a7413f0a142fd40d49347940000000000000000000000000000000000000000a0b4ebf7b941bea3aaec32b33ca9dceb9b5b9876b57db27ab4d0ce4640b233fbd0a056e81f171bcc55a6ff8345e692c0f86e5b48e01b996cadc001622fb5e363b421a056e81f171bcc55a6ff8345e692c0f86e5b48e01b996cadc001622fb5e363b421b9010000000000000000000000000000000000000000000000000000000000000000000000000000000000000000000000000000000000000000000000000000000000000000000000000000000000000000000000000000000000000000000000000000000000000000000000000000000000000000000000000000000000000000000000000000000000000000000000000000000000000000000000000000000000000000000000000000000000000000000000000000000000000000000000000000000000000000000000000000000000000000000000000000000000000000000000000000000000000000000000000000000000000000000000000000000000808088016345785d8a0000808000a0000000000000000000000000000000000000000000000000000000000000000088000000000000000007a056e81f171bcc55a6ff8345e692c0f86e5b48e01b996cadc001622fb5e363b42180830a0000a00000000000000000000000000000000000000000000000000000000000000000c0c0c0",
        "lastblockhash" : "0x7a5f2f41468b5207a240bd9bbe5e7ca3950ff7f3e790ea6c8cca58b9604597da",
        "network" : "Cancun",
        "postState" : {
            "0x0000000000000000000000000000000000001000" : {
                "balance" : "0x00",
                "code" : "0x4a600055",
                "nonce" : "0x01",
                "storage" : {
                }
            },
            "0x000f3df6d732807ef1319fb7b8bb8522d0beac02" : {
                "balance" : "0x00",
                "code" : "0x3373fffffffffffffffffffffffffffffffffffffffe14604d57602036146024575f5ffd5b5f35801560495762001fff810690815414603c575f5ffd5b62001fff01545f5260205ff35b5f5ffd5b62001fff42064281555f359062001fff015500",
                "nonce" : "0x01",
                "storage" : {
                }
            },
            "0xa94f5374fce5edbc8e2a8697c15331677e6ebf0b" : {
                "balance" : "0x06ce79",
                "code" : "0x",
                "nonce" : "0x00",
                "storage" : {
                }
            }
        },
        "pre" : {
            "0x0000000000000000000000000000000000001000" : {
                "balance" : "0x00",
                "code" : "0x4a600055",
                "nonce" : "0x01",
                "storage" : {
                }
            },
            "0x000f3df6d732807ef1319fb7b8bb8522d0beac02" : {
                "balance" : "0x00",
                "code" : "0x3373fffffffffffffffffffffffffffffffffffffffe14604d57602036146024575f5ffd5b5f35801560495762001fff810690815414603c575f5ffd5b62001fff01545f5260205ff35b5f5ffd5b62001fff42064281555f359062001fff015500",
                "nonce" : "0x01",
                "storage" : {
                }
            },
            "0xa94f5374fce5edbc8e2a8697c15331677e6ebf0b" : {
                "balance" : "0x06ce79",
                "code" : "0x",
                "nonce" : "0x00",
                "storage" : {
                }
            }
        },
        "sealEngine" : "NoProof"
    }
}