{
    "solidityExample_d0g0v0_Cancun" : {
        "_info" : {
            "comment" : "An example test for using solidity contracts in the test",
            "filling-rpc-server" : "evmone-t8n 0.14.0",
            "filling-tool-version" : "retesteth-0.3.2-legacy+commit.e0777df7.Linux.g++",
            "generatedTestHash" : "888cc8f4a2b0e7c1906574f4083b6fd679d47e266fe4e4185c7ebf877ed210d0",
            "lllcversion" : "Version: 0.5.14-develop.2024.11.5+commit.b2b86751.mod.Linux.g++",
            "solidity" : "Version: 0.8.24+commit.e11b9ed9.Linux.g++",
            "source" : "src/GeneralStateTestsFiller/stExample/solidityExampleFiller.yml",
            "sourceHash" : "183aba76ca652aca9dba9268833bc330bb2c52d0d83d0f00d5d1bd167f983b5d"
        },
        "blocks" : [
            {
                "blockHeader" : {
                    "baseFeePerGas" : "0x0a",
                    "blobGasUsed" : "0x00",
                    "bloom" : "0x00000000000000000000000000000000000000000000000000000000000000000000000000000000000000000000000000000000000000000000000000000000000000000000000000000000000000000000000000000000000000000000000000000000000000000000000000000000000000000000000000000000000000000000000000000000000000000000000000000000000000000000000000000000000000000000000000000000000000000000000000000000000000000000000000000000000000000000000000000000000000000000000000000000000000000000000000000000000000000000000000000000000000000000000000000000",
                    "coinbase" : "0x2adc25665018aa1fe0e6bc666dac8fc2697ff9ba",
                    "difficulty" : "0x00",
                    "excessBlobGas" : "0x00",
                    "extraData" : "0x00",
                    "gasLimit" : "0x05f5e100",
                    "gasUsed" : "0x029e1f",
                    "hash" : "0xc1ea6ffddd886d7139abec7eac1cc78e661b52373cd4f54d29c91e342f89e972",
                    "mixHash" : "0x0000000000000000000000000000000000000000000000000000000000020000",
                    "nonce" : "0x0000000000000000",
                    "number" : "0x01",
                    "parentBeaconBlockRoot" : "0x0000000000000000000000000000000000000000000000000000000000000000",
                    "parentHash" : "0x48a93b69d4e5b5a3e2edf87cc7e913a7accbeda358cf2bacab554179c5b359e3",
                    "receiptTrie" : "0x8560690af929551571bc1385f70c39c932a89e08b43355d540a38125ebd87490",
                    "stateRoot" : "0xa75bcdd3f3ac2e226f501dc90a9a4c9f4161cf83b0c0e7f3dd0b3c9eb99a76c0",
                    "timestamp" : "0x03e8",
                    "transactionsTrie" : "0xb8466b5b437cf6d45ed3dfa2058e2b6709f1a86145215e8a59694dc559a4526f",
                    "uncleHash" : "0x1dcc4de8dec75d7aab85b567b6ccd41ad312451b948a7413f0a142fd40d49347",
                    "withdrawalsRoot" : "0x56e81f171bcc55a6ff8345e692c0f86e5b48e01b996cadc001622fb5e363b421"
                },
                "rlp" : "0xf902eaf9023ba048a93b69d4e5b5a3e2edf87cc7e913a7accbeda358cf2bacab554179c5b359e3a01dcc4de8dec75d7aab85b567b6ccd41ad312451b948a7413f0a142fd40d49347942adc25665018aa1fe0e6bc666dac8fc2697ff9baa0a75bcdd3f3ac2e226f501dc90a9a4c9f4161cf83b0c0e7f3dd0b3c9eb99a76c0a0b8466b5b437cf6d45ed3dfa2058e2b6709f1a86145215e8a59694dc559a4526fa08560690af929551571bc1385f70c39c932a89e08b43355d540a38125ebd87490b901000000000000000000000000000000000000000000000000000000000000000000000000000000000000000000000000000000000000000000000000000000000000000000000000000000000000000000000000000000000000000000000000000000000000000000000000000000000000000000000000000000000000000000000000000000000000000000000000000000000000000000000000000000000000000000000000000000000000000000000000000000000000000000000000000000000000000000000000000000000000000000000000000000000000000000000000000000000000000000000000000000000000000000000000000000000080018405f5e10083029e1f8203e800a000000000000000000000000000000000000000000000000000000000000200008800000000000000000aa056e81f171bcc55a6ff8345e692c0f86e5b48e01b996cadc001622fb5e363b4218080a00000000000000000000000000000000000000000000000000000000000000000f8a8f8a6800a8404c4b40094095e7baea6a6c7c4c2dfeb977efac326af552d8780b844b66176a7000000000000000000000000000000000000000000000000000000000000000500000000000000000000000000000000000000000000000000000000000000451ca0557b882a6f4c398e1dc30731cc0490f9743d2df3a13b9e465a87198920d34877a071659dc2b9ff195215e075315734b937a7773e470d47d33cdca183b1bc4093a7c0c0",
                "transactions" : [
                    {
                        "data" : "0xb66176a700000000000000000000000000000000000000000000000000000000000000050000000000000000000000000000000000000000000000000000000000000045",
                        "gasLimit" : "0x04c4b400",
                        "gasPrice" : "0x0a",
                        "nonce" : "0x00",
                        "r" : "0x557b882a6f4c398e1dc30731cc0490f9743d2df3a13b9e465a87198920d34877",
                        "s" : "0x71659dc2b9ff195215e075315734b937a7773e470d47d33cdca183b1bc4093a7",
                        "sender" : "0xa94f5374fce5edbc8e2a8697c15331677e6ebf0b",
                        "to" : "0x095e7baea6a6c7c4c2dfeb977efac326af552d87",
                        "v" : "0x1c",
                        "value" : "0x00"
                    }
                ],
                "uncleHeaders" : [
                ],
                "withdrawals" : [
                ]
            }
        ],
        "config" : {
            "blobSchedule" : {
                "Cancun" : {
                    "baseFeeUpdateFraction" : "0x32f0ed",
                    "max" : "0x06",
                    "target" : "0x03"
                }
            },
            "chainid" : "0x01",
            "network" : "Cancun"
        },
        "genesisBlockHeader" : {
            "baseFeePerGas" : "0x0b",
            "blobGasUsed" : "0x00",
            "bloom" : "0x00000000000000000000000000000000000000000000000000000000000000000000000000000000000000000000000000000000000000000000000000000000000000000000000000000000000000000000000000000000000000000000000000000000000000000000000000000000000000000000000000000000000000000000000000000000000000000000000000000000000000000000000000000000000000000000000000000000000000000000000000000000000000000000000000000000000000000000000000000000000000000000000000000000000000000000000000000000000000000000000000000000000000000000000000000000",
            "coinbase" : "0x2adc25665018aa1fe0e6bc666dac8fc2697ff9ba",
            "difficulty" : "0x00",
            "excessBlobGas" : "0x060000",
            "extraData" : "0x00",
            "gasLimit" : "0x05f5e100",
            "gasUsed" : "0x00",
            "hash" : "0x48a93b69d4e5b5a3e2edf87cc7e913a7accbeda358cf2bacab554179c5b359e3",
            "mixHash" : "0x0000000000000000000000000000000000000000000000000000000000020000",
            "nonce" : "0x0000000000000000",
            "number" : "0x00",
            "parentBeaconBlockRoot" : "0x0000000000000000000000000000000000000000000000000000000000000000",
            "parentHash" : "0x0000000000000000000000000000000000000000000000000000000000000000",
            "receiptTrie" : "0x56e81f171bcc55a6ff8345e692c0f86e5b48e01b996cadc001622fb5e363b421",
            "stateRoot" : "0xf7a090e8eecdde16e76161a0cb37b7f8359e7653683278d4e908fd93d4b57d3b",
            "timestamp" : "0x00",
            "transactionsTrie" : "0x56e81f171bcc55a6ff8345e692c0f86e5b48e01b996cadc001622fb5e363b421",
            "uncleHash" : "0x1dcc4de8dec75d7aab85b567b6ccd41ad312451b948a7413f0a142fd40d49347",
            "withdrawalsRoot" : "0x56e81f171bcc55a6ff8345e692c0f86e5b48e01b996cadc001622fb5e363b421"
        },
        "genesisRLP" : "0xf9023ff90239a00000000000000000000000000000000000000000000000000000000000000000a01dcc4de8dec75d7aab85b567b6ccd41ad312451b948a7413f0a142fd40d49347942adc25665018aa1fe0e6bc666dac8fc2697ff9baa0f7a090e8eecdde16e76161a0cb37b7f8359e7653683278d4e908fd93d4b57d3ba056e81f171bcc55a6ff8345e692c0f86e5b48e01b996cadc001622fb5e363b421a056e81f171bcc55a6ff8345e692c0f86e5b48e01b996cadc001622fb5e363b421b901000000000000000000000000000000000000000000000000000000000000000000000000000000000000000000000000000000000000000000000000000000000000000000000000000000000000000000000000000000000000000000000000000000000000000000000000000000000000000000000000000000000000000000000000000000000000000000000000000000000000000000000000000000000000000000000000000000000000000000000000000000000000000000000000000000000000000000000000000000000000000000000000000000000000000000000000000000000000000000000000000000000000000000000000000000000080808405f5e100808000a000000000000000000000000000000000000000000000000000000000000200008800000000000000000ba056e81f171bcc55a6ff8345e692c0f86e5b48e01b996cadc001622fb5e363b4218083060000a00000000000000000000000000000000000000000000000000000000000000000c0c0c0",
        "lastblockhash" : "0xc1ea6ffddd886d7139abec7eac1cc78e661b52373cd4f54d29c91e342f89e972",
        "network" : "Cancun",
        "postState" : {
            "0x000f3df6d732807ef1319fb7b8bb8522d0beac02" : {
                "balance" : "0x00",
                "code" : "0x3373fffffffffffffffffffffffffffffffffffffffe14604d57602036146024575f5ffd5b5f35801560495762001fff810690815414603c575f5ffd5b62001fff01545f5260205ff35b5f5ffd5b62001fff42064281555f359062001fff015500",
                "nonce" : "0x01",
                "storage" : {
                    "0x03e8" : "0x03e8"
                }
            },
            "0x095e7baea6a6c7c4c2dfeb977efac326af552d87" : {
                "balance" : "0x0ba1a9ce0ba1a9ce",
                "code" : "0x608060405234801561001057600080fd5b506004361061002b5760003560e01c8063b66176a714610030575b600080fd5b61004a6004803603810190610045919061018d565b61004c565b005b60405161005890610145565b604051809103906000f080158015610074573d6000803e3d6000fd5b506000806101000a81548173ffffffffffffffffffffffffffffffffffffffff021916908373ffffffffffffffffffffffffffffffffffffffff16021790555060008054906101000a900473ffffffffffffffffffffffffffffffffffffffff1673ffffffffffffffffffffffffffffffffffffffff1663b66176a783836040518363ffffffff1660e01b815260040161010f9291906101dc565b600060405180830381600087803b15801561012957600080fd5b505af115801561013d573d6000803e3d6000fd5b505050505050565b6101238061020683390190565b600080fd5b6000819050919050565b61016a81610157565b811461017557600080fd5b50565b60008135905061018781610161565b92915050565b600080604083850312156101a4576101a3610152565b5b60006101b285828601610178565b92505060206101c385828601610178565b9150509250929050565b6101d681610157565b82525050565b60006040820190506101f160008301856101cd565b6101fe60208301846101cd565b939250505056fe608060405267ff00ff00ff00ff0060005534801561001c57600080fd5b5060f88061002b6000396000f3fe6080604052348015600f57600080fd5b506004361060285760003560e01c8063b66176a714602d575b600080fd5b60436004803603810190603f91906089565b6045565b005b806000819055508082555050565b600080fd5b6000819050919050565b6069816058565b8114607357600080fd5b50565b6000813590506083816062565b92915050565b60008060408385031215609d57609c6053565b5b600060a9858286016076565b925050602060b8858286016076565b915050925092905056fea264697066735822122068f3f59fabd225957edb442a6108850ffb737c9b7fe6e8c99037e3d8d0074c6e64736f6c63430008180033a26469706673582212209a6c0b7973f96d83be01671f53fcd3216630a9badac2a2ea1467558ab7606ea464736f6c63430008180033",
                "nonce" : "0x01",
                "storage" : {
                    "0x00" : "0xd2571607e241ecf590ed94b12d87c94babe36db6"
                }
            },
            "0x195e7baea6a6c7c4c2dfeb977efac326af552d87" : {
                "balance" : "0x0ba1a9ce0ba1a9ce",
                "code" : "0x6080604052348015600e575f80fd5b50600436106026575f3560e01c8063b66176a714602a575b5f80fd5b60406004803603810190603c91906081565b6042565b005b805f819055508082555050565b5f80fd5b5f819050919050565b6063816053565b8114606c575f80fd5b50565b5f81359050607b81605c565b92915050565b5f80604083850312156094576093604f565b5b5f609f85828601606f565b925050602060ae85828601606f565b915050925092905056fea26469706673582212205c1cf075e646bc2a10300878602e412d7ab4381bd72a0299c15449aa6797376664736f6c63430008180033",
                "nonce" : "0x00",
                "storage" : {
                }
            },
            "0xa94f5374fce5edbc8e2a8697c15331677e6ebf0b" : {
                "balance" : "0x0ba1a9ce0b877c98",
                "code" : "0x",
                "nonce" : "0x01",
                "storage" : {
                }
            },
            "0xd2571607e241ecf590ed94b12d87c94babe36db6" : {
                "balance" : "0x00",
                "code" : "0x6080604052348015600f57600080fd5b506004361060285760003560e01c8063b66176a714602d575b600080fd5b60436004803603810190603f91906089565b6045565b005b806000819055508082555050565b600080fd5b6000819050919050565b6069816058565b8114607357600080fd5b50565b6000813590506083816062565b92915050565b60008060408385031215609d57609c6053565b5b600060a9858286016076565b925050602060b8858286016076565b915050925092905056fea264697066735822122068f3f59fabd225957edb442a6108850ffb737c9b7fe6e8c99037e3d8d0074c6e64736f6c63430008180033",
                "nonce" : "0x01",
                "storage" : {
                    "0x00" : "0x45",
                    "0x05" : "0x45"
                }
            }
        },
        "pre" : {
            "0x000f3df6d732807ef1319fb7b8bb8522d0beac02" : {
                "balance" : "0x00",
                "code" : "0x3373fffffffffffffffffffffffffffffffffffffffe14604d57602036146024575f5ffd5b5f35801560495762001fff810690815414603c575f5ffd5b62001fff01545f5260205ff35b5f5ffd5b62001fff42064281555f359062001fff015500",
                "nonce" : "0x01",
                "storage" : {
                }
            },
            "0x095e7baea6a6c7c4c2dfeb977efac326af552d87" : {
                "balance" : "0x0ba1a9ce0ba1a9ce",
                "code" : "0x608060405234801561001057600080fd5b506004361061002b5760003560e01c8063b66176a714610030575b600080fd5b61004a6004803603810190610045919061018d565b61004c565b005b60405161005890610145565b604051809103906000f080158015610074573d6000803e3d6000fd5b506000806101000a81548173ffffffffffffffffffffffffffffffffffffffff021916908373ffffffffffffffffffffffffffffffffffffffff16021790555060008054906101000a900473ffffffffffffffffffffffffffffffffffffffff1673ffffffffffffffffffffffffffffffffffffffff1663b66176a783836040518363ffffffff1660e01b815260040161010f9291906101dc565b600060405180830381600087803b15801561012957600080fd5b505af115801561013d573d6000803e3d6000fd5b505050505050565b6101238061020683390190565b600080fd5b6000819050919050565b61016a81610157565b811461017557600080fd5b50565b60008135905061018781610161565b92915050565b600080604083850312156101a4576101a3610152565b5b60006101b285828601610178565b92505060206101c385828601610178565b9150509250929050565b6101d681610157565b82525050565b60006040820190506101f160008301856101cd565b6101fe60208301846101cd565b939250505056fe608060405267ff00ff00ff00ff0060005534801561001c57600080fd5b5060f88061002b6000396000f3fe6080604052348015600f57600080fd5b506004361060285760003560e01c8063b66176a714602d575b600080fd5b60436004803603810190603f91906089565b6045565b005b806000819055508082555050565b600080fd5b6000819050919050565b6069816058565b8114607357600080fd5b50565b6000813590506083816062565b92915050565b60008060408385031215609d57609c6053565b5b600060a9858286016076565b925050602060b8858286016076565b915050925092905056fea264697066735822122068f3f59fabd225957edb442a6108850ffb737c9b7fe6e8c99037e3d8d0074c6e64736f6c63430008180033a26469706673582212209a6c0b7973f96d83be01671f53fcd3216630a9badac2a2ea1467558ab7606ea464736f6c63430008180033",
                "nonce" : "0x00",
                "storage" : {
                }
            },
            "0x195e7baea6a6c7c4c2dfeb977efac326af552d87" : {
                "balance" : "0x0ba1a9ce0ba1a9ce",
                "code" : "0x6080604052348015600e575f80fd5b50600436106026575f3560e01c8063b66176a714602a575b5f80fd5b60406004803603810190603c91906081565b6042565b005b805f819055508082555050565b5f80fd5b5f819050919050565b6063816053565b8114606c575f80fd5b50565b5f81359050607b81605c565b92915050565b5f80604083850312156094576093604f565b5b5f609f85828601606f565b925050602060ae85828601606f565b915050925092905056fea26469706673582212205c1cf075e646bc2a10300878602e412d7ab4381bd72a0299c15449aa6797376664736f6c63430008180033",
                "nonce" : "0x00",
                "storage" : {
                }
            },
            "0xa94f5374fce5edbc8e2a8697c15331677e6ebf0b" : {
                "balance" : "0x0ba1a9ce0ba1a9ce",
                "code" : "0x",
                "nonce" : "0x00",
                "storage" : {
                }
            }
        },
        "sealEngine" : "NoProof"
    },
    "solidityExample_d0g0v0_Prague" : {
        "_info" : {
            "comment" : "An example test for using solidity contracts in the test",
            "filling-rpc-server" : "evmone-t8n 0.14.0",
            "filling-tool-version" : "retesteth-0.3.2-legacy+commit.e0777df7.Linux.g++",
            "generatedTestHash" : "650ff139d6cd4af0c2a0873a938aed88a6034d574810bf41907e33af2870ae60",
            "lllcversion" : "Version: 0.5.14-develop.2024.11.5+commit.b2b86751.mod.Linux.g++",
            "solidity" : "Version: 0.8.24+commit.e11b9ed9.Linux.g++",
            "source" : "src/GeneralStateTestsFiller/stExample/solidityExampleFiller.yml",
            "sourceHash" : "183aba76ca652aca9dba9268833bc330bb2c52d0d83d0f00d5d1bd167f983b5d"
        },
        "blocks" : [
            {
                "blockHeader" : {
                    "baseFeePerGas" : "0x0a",
                    "blobGasUsed" : "0x00",
                    "bloom" : "0x00000000000000000000000000000000000000000000000000000000000000000000000000000000000000000000000000000000000000000000000000000000000000000000000000000000000000000000000000000000000000000000000000000000000000000000000000000000000000000000000000000000000000000000000000000000000000000000000000000000000000000000000000000000000000000000000000000000000000000000000000000000000000000000000000000000000000000000000000000000000000000000000000000000000000000000000000000000000000000000000000000000000000000000000000000000",
                    "coinbase" : "0x2adc25665018aa1fe0e6bc666dac8fc2697ff9ba",
                    "difficulty" : "0x00",
                    "excessBlobGas" : "0x00",
                    "extraData" : "0x00",
                    "gasLimit" : "0x05f5e100",
                    "gasUsed" : "0x029e1f",
                    "hash" : "0xc0a5e416c68ea1be919189bbbe8b99a647bf6689ab95c11d2b7221224968b9f5",
                    "mixHash" : "0x0000000000000000000000000000000000000000000000000000000000020000",
                    "nonce" : "0x0000000000000000",
                    "number" : "0x01",
                    "parentBeaconBlockRoot" : "0x0000000000000000000000000000000000000000000000000000000000000000",
                    "parentHash" : "0xf5cd5f95c87c1160f5e6b156923e44e1a408d7b6920c4a5f02568f1010d42cc6",
                    "receiptTrie" : "0x8560690af929551571bc1385f70c39c932a89e08b43355d540a38125ebd87490",
                    "requestsHash" : "0xe3b0c44298fc1c149afbf4c8996fb92427ae41e4649b934ca495991b7852b855",
                    "stateRoot" : "0x7f01042b85e27b418ed693dd1a24c23c891e6f89d8e3d21dfdbf241db8108b61",
                    "timestamp" : "0x03e8",
                    "transactionsTrie" : "0xb8466b5b437cf6d45ed3dfa2058e2b6709f1a86145215e8a59694dc559a4526f",
                    "uncleHash" : "0x1dcc4de8dec75d7aab85b567b6ccd41ad312451b948a7413f0a142fd40d49347",
                    "withdrawalsRoot" : "0x56e81f171bcc55a6ff8345e692c0f86e5b48e01b996cadc001622fb5e363b421"
                },
                "rlp" : "0xf9030bf9025ca0f5cd5f95c87c1160f5e6b156923e44e1a408d7b6920c4a5f02568f1010d42cc6a01dcc4de8dec75d7aab85b567b6ccd41ad312451b948a7413f0a142fd40d49347942adc25665018aa1fe0e6bc666dac8fc2697ff9baa07f01042b85e27b418ed693dd1a24c23c891e6f89d8e3d21dfdbf241db8108b61a0b8466b5b437cf6d45ed3dfa2058e2b6709f1a86145215e8a59694dc559a4526fa08560690af929551571bc1385f70c39c932a89e08b43355d540a38125ebd87490b901000000000000000000000000000000000000000000000000000000000000000000000000000000000000000000000000000000000000000000000000000000000000000000000000000000000000000000000000000000000000000000000000000000000000000000000000000000000000000000000000000000000000000000000000000000000000000000000000000000000000000000000000000000000000000000000000000000000000000000000000000000000000000000000000000000000000000000000000000000000000000000000000000000000000000000000000000000000000000000000000000000000000000000000000000000000080018405f5e10083029e1f8203e800a000000000000000000000000000000000000000000000000000000000000200008800000000000000000aa056e81f171bcc55a6ff8345e692c0f86e5b48e01b996cadc001622fb5e363b4218080a00000000000000000000000000000000000000000000000000000000000000000a0e3b0c44298fc1c149afbf4c8996fb92427ae41e4649b934ca495991b7852b855f8a8f8a6800a8404c4b40094095e7baea6a6c7c4c2dfeb977efac326af552d8780b844b66176a7000000000000000000000000000000000000000000000000000000000000000500000000000000000000000000000000000000000000000000000000000000451ca0557b882a6f4c398e1dc30731cc0490f9743d2df3a13b9e465a87198920d34877a071659dc2b9ff195215e075315734b937a7773e470d47d33cdca183b1bc4093a7c0c0",
                "transactions" : [
                    {
                        "data" : "0xb66176a700000000000000000000000000000000000000000000000000000000000000050000000000000000000000000000000000000000000000000000000000000045",
                        "gasLimit" : "0x04c4b400",
                        "gasPrice" : "0x0a",
                        "nonce" : "0x00",
                        "r" : "0x557b882a6f4c398e1dc30731cc0490f9743d2df3a13b9e465a87198920d34877",
                        "s" : "0x71659dc2b9ff195215e075315734b937a7773e470d47d33cdca183b1bc4093a7",
                        "sender" : "0xa94f5374fce5edbc8e2a8697c15331677e6ebf0b",
                        "to" : "0x095e7baea6a6c7c4c2dfeb977efac326af552d87",
                        "v" : "0x1c",
                        "value" : "0x00"
                    }
                ],
                "uncleHeaders" : [
                ],
                "withdrawals" : [
                ]
            }
        ],
        "config" : {
            "blobSchedule" : {
                "Prague" : {
                    "baseFeeUpdateFraction" : "0x4c6964",
                    "max" : "0x09",
                    "target" : "0x06"
                }
            },
            "chainid" : "0x01",
            "network" : "Prague"
        },
        "genesisBlockHeader" : {
            "baseFeePerGas" : "0x0b",
            "blobGasUsed" : "0x00",
            "bloom" : "0x00000000000000000000000000000000000000000000000000000000000000000000000000000000000000000000000000000000000000000000000000000000000000000000000000000000000000000000000000000000000000000000000000000000000000000000000000000000000000000000000000000000000000000000000000000000000000000000000000000000000000000000000000000000000000000000000000000000000000000000000000000000000000000000000000000000000000000000000000000000000000000000000000000000000000000000000000000000000000000000000000000000000000000000000000000000",
            "coinbase" : "0x2adc25665018aa1fe0e6bc666dac8fc2697ff9ba",
            "difficulty" : "0x00",
            "excessBlobGas" : "0x060000",
            "extraData" : "0x00",
            "gasLimit" : "0x05f5e100",
            "gasUsed" : "0x00",
            "hash" : "0xf5cd5f95c87c1160f5e6b156923e44e1a408d7b6920c4a5f02568f1010d42cc6",
            "mixHash" : "0x0000000000000000000000000000000000000000000000000000000000020000",
            "nonce" : "0x0000000000000000",
            "number" : "0x00",
            "parentBeaconBlockRoot" : "0x0000000000000000000000000000000000000000000000000000000000000000",
            "parentHash" : "0x0000000000000000000000000000000000000000000000000000000000000000",
            "receiptTrie" : "0x56e81f171bcc55a6ff8345e692c0f86e5b48e01b996cadc001622fb5e363b421",
            "requestsHash" : "0xe3b0c44298fc1c149afbf4c8996fb92427ae41e4649b934ca495991b7852b855",
            "stateRoot" : "0x0ecf589d0f444fca95ab64893499f9534717e266d37a0d3e9f12fe67956c7b2f",
            "timestamp" : "0x00",
            "transactionsTrie" : "0x56e81f171bcc55a6ff8345e692c0f86e5b48e01b996cadc001622fb5e363b421",
            "uncleHash" : "0x1dcc4de8dec75d7aab85b567b6ccd41ad312451b948a7413f0a142fd40d49347",
            "withdrawalsRoot" : "0x56e81f171bcc55a6ff8345e692c0f86e5b48e01b996cadc001622fb5e363b421"
        },
        "genesisRLP" : "0xf90260f9025aa00000000000000000000000000000000000000000000000000000000000000000a01dcc4de8dec75d7aab85b567b6ccd41ad312451b948a7413f0a142fd40d49347942adc25665018aa1fe0e6bc666dac8fc2697ff9baa00ecf589d0f444fca95ab64893499f9534717e266d37a0d3e9f12fe67956c7b2fa056e81f171bcc55a6ff8345e692c0f86e5b48e01b996cadc001622fb5e363b421a056e81f171bcc55a6ff8345e692c0f86e5b48e01b996cadc001622fb5e363b421b901000000000000000000000000000000000000000000000000000000000000000000000000000000000000000000000000000000000000000000000000000000000000000000000000000000000000000000000000000000000000000000000000000000000000000000000000000000000000000000000000000000000000000000000000000000000000000000000000000000000000000000000000000000000000000000000000000000000000000000000000000000000000000000000000000000000000000000000000000000000000000000000000000000000000000000000000000000000000000000000000000000000000000000000000000000000080808405f5e100808000a000000000000000000000000000000000000000000000000000000000000200008800000000000000000ba056e81f171bcc55a6ff8345e692c0f86e5b48e01b996cadc001622fb5e363b4218083060000a00000000000000000000000000000000000000000000000000000000000000000a0e3b0c44298fc1c149afbf4c8996fb92427ae41e4649b934ca495991b7852b855c0c0c0",
        "lastblockhash" : "0xc0a5e416c68ea1be919189bbbe8b99a647bf6689ab95c11d2b7221224968b9f5",
        "network" : "Prague",
        "postState" : {
            "0x0000f90827f1c53a10cb7a02335b175320002935" : {
                "balance" : "0x00",
                "code" : "0x3373fffffffffffffffffffffffffffffffffffffffe14604657602036036042575f35600143038111604257611fff81430311604257611fff9006545f5260205ff35b5f5ffd5b5f35611fff60014303065500",
                "nonce" : "0x01",
                "storage" : {
                    "0x00" : "0xf5cd5f95c87c1160f5e6b156923e44e1a408d7b6920c4a5f02568f1010d42cc6"
                }
            },
            "0x000f3df6d732807ef1319fb7b8bb8522d0beac02" : {
                "balance" : "0x00",
                "code" : "0x3373fffffffffffffffffffffffffffffffffffffffe14604d57602036146024575f5ffd5b5f35801560495762001fff810690815414603c575f5ffd5b62001fff01545f5260205ff35b5f5ffd5b62001fff42064281555f359062001fff015500",
                "nonce" : "0x01",
                "storage" : {
                    "0x03e8" : "0x03e8"
                }
            },
            "0x095e7baea6a6c7c4c2dfeb977efac326af552d87" : {
                "balance" : "0x0ba1a9ce0ba1a9ce",
                "code" : "0x608060405234801561001057600080fd5b506004361061002b5760003560e01c8063b66176a714610030575b600080fd5b61004a6004803603810190610045919061018d565b61004c565b005b60405161005890610145565b604051809103906000f080158015610074573d6000803e3d6000fd5b506000806101000a81548173ffffffffffffffffffffffffffffffffffffffff021916908373ffffffffffffffffffffffffffffffffffffffff16021790555060008054906101000a900473ffffffffffffffffffffffffffffffffffffffff1673ffffffffffffffffffffffffffffffffffffffff1663b66176a783836040518363ffffffff1660e01b815260040161010f9291906101dc565b600060405180830381600087803b15801561012957600080fd5b505af115801561013d573d6000803e3d6000fd5b505050505050565b6101238061020683390190565b600080fd5b6000819050919050565b61016a81610157565b811461017557600080fd5b50565b60008135905061018781610161565b92915050565b600080604083850312156101a4576101a3610152565b5b60006101b285828601610178565b92505060206101c385828601610178565b9150509250929050565b6101d681610157565b82525050565b60006040820190506101f160008301856101cd565b6101fe60208301846101cd565b939250505056fe608060405267ff00ff00ff00ff0060005534801561001c57600080fd5b5060f88061002b6000396000f3fe6080604052348015600f57600080fd5b506004361060285760003560e01c8063b66176a714602d575b600080fd5b60436004803603810190603f91906089565b6045565b005b806000819055508082555050565b600080fd5b6000819050919050565b6069816058565b8114607357600080fd5b50565b6000813590506083816062565b92915050565b60008060408385031215609d57609c6053565b5b600060a9858286016076565b925050602060b8858286016076565b915050925092905056fea264697066735822122068f3f59fabd225957edb442a6108850ffb737c9b7fe6e8c99037e3d8d0074c6e64736f6c63430008180033a26469706673582212209a6c0b7973f96d83be01671f53fcd3216630a9badac2a2ea1467558ab7606ea464736f6c63430008180033",
                "nonce" : "0x01",
                "storage" : {
                    "0x00" : "0xd2571607e241ecf590ed94b12d87c94babe36db6"
                }
            },
            "0x195e7baea6a6c7c4c2dfeb977efac326af552d87" : {
                "balance" : "0x0ba1a9ce0ba1a9ce",
                "code" : "0x6080604052348015600e575f80fd5b50600436106026575f3560e01c8063b66176a714602a575b5f80fd5b60406004803603810190603c91906081565b6042565b005b805f819055508082555050565b5f80fd5b5f819050919050565b6063816053565b8114606c575f80fd5b50565b5f81359050607b81605c565b92915050565b5f80604083850312156094576093604f565b5b5f609f85828601606f565b925050602060ae85828601606f565b915050925092905056fea26469706673582212205c1cf075e646bc2a10300878602e412d7ab4381bd72a0299c15449aa6797376664736f6c63430008180033",
                "nonce" : "0x00",
                "storage" : {
                }
            },
            "0xa94f5374fce5edbc8e2a8697c15331677e6ebf0b" : {
                "balance" : "0x0ba1a9ce0b877c98",
                "code" : "0x",
                "nonce" : "0x01",
                "storage" : {
                }
            },
            "0xd2571607e241ecf590ed94b12d87c94babe36db6" : {
                "balance" : "0x00",
                "code" : "0x6080604052348015600f57600080fd5b506004361060285760003560e01c8063b66176a714602d575b600080fd5b60436004803603810190603f91906089565b6045565b005b806000819055508082555050565b600080fd5b6000819050919050565b6069816058565b8114607357600080fd5b50565b6000813590506083816062565b92915050565b60008060408385031215609d57609c6053565b5b600060a9858286016076565b925050602060b8858286016076565b915050925092905056fea264697066735822122068f3f59fabd225957edb442a6108850ffb737c9b7fe6e8c99037e3d8d0074c6e64736f6c63430008180033",
                "nonce" : "0x01",
                "storage" : {
                    "0x00" : "0x45",
                    "0x05" : "0x45"
                }
            }
        },
        "pre" : {
            "0x0000f90827f1c53a10cb7a02335b175320002935" : {
                "balance" : "0x00",
                "code" : "0x3373fffffffffffffffffffffffffffffffffffffffe14604657602036036042575f35600143038111604257611fff81430311604257611fff9006545f5260205ff35b5f5ffd5b5f35611fff60014303065500",
                "nonce" : "0x01",
                "storage" : {
                }
            },
            "0x000f3df6d732807ef1319fb7b8bb8522d0beac02" : {
                "balance" : "0x00",
                "code" : "0x3373fffffffffffffffffffffffffffffffffffffffe14604d57602036146024575f5ffd5b5f35801560495762001fff810690815414603c575f5ffd5b62001fff01545f5260205ff35b5f5ffd5b62001fff42064281555f359062001fff015500",
                "nonce" : "0x01",
                "storage" : {
                }
            },
            "0x095e7baea6a6c7c4c2dfeb977efac326af552d87" : {
                "balance" : "0x0ba1a9ce0ba1a9ce",
                "code" : "0x608060405234801561001057600080fd5b506004361061002b5760003560e01c8063b66176a714610030575b600080fd5b61004a6004803603810190610045919061018d565b61004c565b005b60405161005890610145565b604051809103906000f080158015610074573d6000803e3d6000fd5b506000806101000a81548173ffffffffffffffffffffffffffffffffffffffff021916908373ffffffffffffffffffffffffffffffffffffffff16021790555060008054906101000a900473ffffffffffffffffffffffffffffffffffffffff1673ffffffffffffffffffffffffffffffffffffffff1663b66176a783836040518363ffffffff1660e01b815260040161010f9291906101dc565b600060405180830381600087803b15801561012957600080fd5b505af115801561013d573d6000803e3d6000fd5b505050505050565b6101238061020683390190565b600080fd5b6000819050919050565b61016a81610157565b811461017557600080fd5b50565b60008135905061018781610161565b92915050565b600080604083850312156101a4576101a3610152565b5b60006101b285828601610178565b92505060206101c385828601610178565b9150509250929050565b6101d681610157565b82525050565b60006040820190506101f160008301856101cd565b6101fe60208301846101cd565b939250505056fe608060405267ff00ff00ff00ff0060005534801561001c57600080fd5b5060f88061002b6000396000f3fe6080604052348015600f57600080fd5b506004361060285760003560e01c8063b66176a714602d575b600080fd5b60436004803603810190603f91906089565b6045565b005b806000819055508082555050565b600080fd5b6000819050919050565b6069816058565b8114607357600080fd5b50565b6000813590506083816062565b92915050565b60008060408385031215609d57609c6053565b5b600060a9858286016076565b925050602060b8858286016076565b915050925092905056fea264697066735822122068f3f59fabd225957edb442a6108850ffb737c9b7fe6e8c99037e3d8d0074c6e64736f6c63430008180033a26469706673582212209a6c0b7973f96d83be01671f53fcd3216630a9badac2a2ea1467558ab7606ea464736f6c63430008180033",
                "nonce" : "0x00",
                "storage" : {
                }
            },
            "0x195e7baea6a6c7c4c2dfeb977efac326af552d87" : {
                "balance" : "0x0ba1a9ce0ba1a9ce",
                "code" : "0x6080604052348015600e575f80fd5b50600436106026575f3560e01c8063b66176a714602a575b5f80fd5b60406004803603810190603c91906081565b6042565b005b805f819055508082555050565b5f80fd5b5f819050919050565b6063816053565b8114606c575f80fd5b50565b5f81359050607b81605c565b92915050565b5f80604083850312156094576093604f565b5b5f609f85828601606f565b925050602060ae85828601606f565b915050925092905056fea26469706673582212205c1cf075e646bc2a10300878602e412d7ab4381bd72a0299c15449aa6797376664736f6c63430008180033",
                "nonce" : "0x00",
                "storage" : {
                }
            },
            "0xa94f5374fce5edbc8e2a8697c15331677e6ebf0b" : {
                "balance" : "0x0ba1a9ce0ba1a9ce",
                "code" : "0x",
                "nonce" : "0x00",
                "storage" : {
                }
            }
        },
        "sealEngine" : "NoProof"
    }
}