{
    "src/GeneralStateTestsFiller/Pyspecs/frontier/examples/test_block_intermediate_state.py::test_block_intermidiate_state[fork_Frontier-blockchain_test]" : {
        "_info" : {
            "comment" : "`execution-spec-tests` generated test",
            "description" : "Test function documentation:\nVerify intermidiate block states.",
            "filling-rpc-server" : "ethereum-spec-evm 0.1.0 (Git commit: 0d5cdb0351ff34b8ef13c4c07d9fa19999c73f0b)",
            "filling-tool-version" : "retesteth-0.3.2-legacy+commit.3ee677f4.Linux.g++",
            "filling-transition-tool" : "ethereum-spec-evm-resolver 0.0.1",
            "fixture_format" : "blockchain_test",
            "generatedTestHash" : "4b63620983abe4459561ee88da07eddd50a316305ce46ebd2db56de0074c60d6",
            "hash" : "0x425c40f670ea09faa87d1e42bd9778bf887e1d8c62d516cf9c01bf8bb3ca329e",
            "lllcversion" : "Version: 0.5.14-develop.2024.11.5+commit.b2b86751.mod.Linux.g++",
            "solidity" : "Version: 0.8.24+commit.e11b9ed9.Linux.g++",
            "source" : "src/GeneralStateTestsFiller/Pyspecs/frontier/examples/test_block_intermediate_state.py",
            "sourceHash" : "faa5ac1456c38dacde2e20af6e2934bb15a1d41811f37cebb4c455b56ae1ecd1",
            "url" : "https://github.com/ethereum/execution-spec-tests/blob/0d5cdb0351ff34b8ef13c4c07d9fa19999c73f0b/tests/tmp/tmptest_e34f42eb_51ca_4f22_9cdb_8bf0cc3c8e59/test_block_intermediate_state.py#L15"
        },
        "blocks" : [
            {
                "blockHeader" : {
                    "bloom" : "0x00000000000000000000000000000000000000000000000000000000000000000000000000000000000000000000000000000000000000000000000000000000000000000000000000000000000000000000000000000000000000000000000000000000000000000000000000000000000000000000000000000000000000000000000000000000000000000000000000000000000000000000000000000000000000000000000000000000000000000000000000000000000000000000000000000000000000000000000000000000000000000000000000000000000000000000000000000000000000000000000000000000000000000000000000000000",
                    "coinbase" : "0x2adc25665018aa1fe0e6bc666dac8fc2697ff9ba",
                    "difficulty" : "0x020040",
                    "extraData" : "0x",
                    "gasLimit" : "0x016345785d8a0000",
                    "gasUsed" : "0x5208",
                    "hash" : "0x87687cbc0628873155d9fb3d567f1f215b7c053bfe55f0ea155b6b7e125c4994",
                    "mixHash" : "0x0000000000000000000000000000000000000000000000000000000000000000",
                    "nonce" : "0x0000000000000000",
                    "number" : "0x01",
                    "parentHash" : "0x061e0ff361b8797b01e4fb8419fac7e56f002fad10f2a78ed8588b67b8baf08c",
                    "receiptTrie" : "0x91eabb31e4b06b62b264444a19f6b7d3a3f7f1dbef5c1983c0b72d14ddc9ff97",
                    "stateRoot" : "0x099c0db71853e4b31cdbde4a6dee36e98becfb16e7b6bfd1da4c602a18165cba",
                    "timestamp" : "0x0c",
                    "transactionsTrie" : "0x1df304ff88c97dc68663944ccd4499defb653696c807252449bce830c3e35d3c",
                    "uncleHash" : "0x1dcc4de8dec75d7aab85b567b6ccd41ad312451b948a7413f0a142fd40d49347"
                },
                "blocknumber" : "1",
                "rlp" : "0xf9024ef901faa0061e0ff361b8797b01e4fb8419fac7e56f002fad10f2a78ed8588b67b8baf08ca01dcc4de8dec75d7aab85b567b6ccd41ad312451b948a7413f0a142fd40d49347942adc25665018aa1fe0e6bc666dac8fc2697ff9baa0099c0db71853e4b31cdbde4a6dee36e98becfb16e7b6bfd1da4c602a18165cbaa01df304ff88c97dc68663944ccd4499defb653696c807252449bce830c3e35d3ca091eabb31e4b06b62b264444a19f6b7d3a3f7f1dbef5c1983c0b72d14ddc9ff97b9010000000000000000000000000000000000000000000000000000000000000000000000000000000000000000000000000000000000000000000000000000000000000000000000000000000000000000000000000000000000000000000000000000000000000000000000000000000000000000000000000000000000000000000000000000000000000000000000000000000000000000000000000000000000000000000000000000000000000000000000000000000000000000000000000000000000000000000000000000000000000000000000000000000000000000000000000000000000000000000000000000000000000000000000000000000000830200400188016345785d8a00008252080c80a00000000000000000000000000000000000000000000000000000000000000000880000000000000000f84ef84c800a830186a08080801ba04a70e36753e51ecbabb12ffefb365a5d70ddfc104dfbd752f26fb43bb03577fea006b0526056d8c5dd80222b72cc3f0860f38750ca98d3261b29ec6bdc5833d9d1c0",
                "transactions" : [
                    {
                        "chainId" : "0x01",
                        "data" : "0x",
                        "gasLimit" : "0x0186a0",
                        "gasPrice" : "0x0a",
                        "nonce" : "0x00",
                        "r" : "0x4a70e36753e51ecbabb12ffefb365a5d70ddfc104dfbd752f26fb43bb03577fe",
                        "s" : "0x06b0526056d8c5dd80222b72cc3f0860f38750ca98d3261b29ec6bdc5833d9d1",
                        "sender" : "0xa94f5374fce5edbc8e2a8697c15331677e6ebf0b",
                        "to" : "",
                        "type" : "0x00",
                        "v" : "0x1b",
                        "value" : "0x00"
                    }
                ],
                "uncleHeaders" : [
                ]
            },
            {
                "blockHeader" : {
                    "bloom" : "0x00000000000000000000000000000000000000000000000000000000000000000000000000000000000000000000000000000000000000000000000000000000000000000000000000000000000000000000000000000000000000000000000000000000000000000000000000000000000000000000000000000000000000000000000000000000000000000000000000000000000000000000000000000000000000000000000000000000000000000000000000000000000000000000000000000000000000000000000000000000000000000000000000000000000000000000000000000000000000000000000000000000000000000000000000000000",
                    "coinbase" : "0x2adc25665018aa1fe0e6bc666dac8fc2697ff9ba",
                    "difficulty" : "0x020080",
                    "extraData" : "0x",
                    "gasLimit" : "0x016345785d8a0000",
                    "gasUsed" : "0x00",
                    "hash" : "0x550cb4e23b1faf9ad03189320c4d52d23b2959b819714c889b7ac3ec3324f655",
                    "mixHash" : "0x0000000000000000000000000000000000000000000000000000000000000000",
                    "nonce" : "0x0000000000000000",
                    "number" : "0x02",
                    "parentHash" : "0x87687cbc0628873155d9fb3d567f1f215b7c053bfe55f0ea155b6b7e125c4994",
                    "receiptTrie" : "0x56e81f171bcc55a6ff8345e692c0f86e5b48e01b996cadc001622fb5e363b421",
                    "stateRoot" : "0x2a7be4c025aed057ca0a9a26749a3ca6638ffb10b3babed153d0f40946a5e874",
                    "timestamp" : "0x18",
                    "transactionsTrie" : "0x56e81f171bcc55a6ff8345e692c0f86e5b48e01b996cadc001622fb5e363b421",
                    "uncleHash" : "0x1dcc4de8dec75d7aab85b567b6ccd41ad312451b948a7413f0a142fd40d49347"
                },
                "blocknumber" : "2",
                "rlp" : "0xf901fdf901f8a087687cbc0628873155d9fb3d567f1f215b7c053bfe55f0ea155b6b7e125c4994a01dcc4de8dec75d7aab85b567b6ccd41ad312451b948a7413f0a142fd40d49347942adc25665018aa1fe0e6bc666dac8fc2697ff9baa02a7be4c025aed057ca0a9a26749a3ca6638ffb10b3babed153d0f40946a5e874a056e81f171bcc55a6ff8345e692c0f86e5b48e01b996cadc001622fb5e363b421a056e81f171bcc55a6ff8345e692c0f86e5b48e01b996cadc001622fb5e363b421b9010000000000000000000000000000000000000000000000000000000000000000000000000000000000000000000000000000000000000000000000000000000000000000000000000000000000000000000000000000000000000000000000000000000000000000000000000000000000000000000000000000000000000000000000000000000000000000000000000000000000000000000000000000000000000000000000000000000000000000000000000000000000000000000000000000000000000000000000000000000000000000000000000000000000000000000000000000000000000000000000000000000000000000000000000000000000830200800288016345785d8a0000801880a00000000000000000000000000000000000000000000000000000000000000000880000000000000000c0c0",
                "transactions" : [
                ],
                "uncleHeaders" : [
                ]
            },
            {
                "blockHeader" : {
                    "bloom" : "0x00000000000000000000000000000000000000000000000000000000000000000000000000000000000000000000000000000000000000000000000000000000000000000000000000000000000000000000000000000000000000000000000000000000000000000000000000000000000000000000000000000000000000000000000000000000000000000000000000000000000000000000000000000000000000000000000000000000000000000000000000000000000000000000000000000000000000000000000000000000000000000000000000000000000000000000000000000000000000000000000000000000000000000000000000000000",
                    "coinbase" : "0x2adc25665018aa1fe0e6bc666dac8fc2697ff9ba",
                    "difficulty" : "0x0200c0",
                    "extraData" : "0x",
                    "gasLimit" : "0x016345785d8a0000",
                    "gasUsed" : "0x5208",
                    "hash" : "0x7125417cb1bfced4fe984ba2a33dd586aaa80146bc88160c4b0aa7a0993ae1d8",
                    "mixHash" : "0x0000000000000000000000000000000000000000000000000000000000000000",
                    "nonce" : "0x0000000000000000",
                    "number" : "0x03",
                    "parentHash" : "0x550cb4e23b1faf9ad03189320c4d52d23b2959b819714c889b7ac3ec3324f655",
                    "receiptTrie" : "0x7247e30aa5cc9c3d37c052c5e92e31e37eb0dc6f288f2f606c75efac96a59cd3",
                    "stateRoot" : "0xc4c68fa7694d9ce3a232af2d2d832d48650170b00d7e73408231e57f3e6aedb9",
                    "timestamp" : "0x24",
                    "transactionsTrie" : "0xfa713301492c38999749e478d548cea77dc743989d4df95114b9cbf48c7009b5",
                    "uncleHash" : "0x1dcc4de8dec75d7aab85b567b6ccd41ad312451b948a7413f0a142fd40d49347"
                },
                "blocknumber" : "3",
                "rlp" : "0xf9024ef901faa0550cb4e23b1faf9ad03189320c4d52d23b2959b819714c889b7ac3ec3324f655a01dcc4de8dec75d7aab85b567b6ccd41ad312451b948a7413f0a142fd40d49347942adc25665018aa1fe0e6bc666dac8fc2697ff9baa0c4c68fa7694d9ce3a232af2d2d832d48650170b00d7e73408231e57f3e6aedb9a0fa713301492c38999749e478d548cea77dc743989d4df95114b9cbf48c7009b5a07247e30aa5cc9c3d37c052c5e92e31e37eb0dc6f288f2f606c75efac96a59cd3b9010000000000000000000000000000000000000000000000000000000000000000000000000000000000000000000000000000000000000000000000000000000000000000000000000000000000000000000000000000000000000000000000000000000000000000000000000000000000000000000000000000000000000000000000000000000000000000000000000000000000000000000000000000000000000000000000000000000000000000000000000000000000000000000000000000000000000000000000000000000000000000000000000000000000000000000000000000000000000000000000000000000000000000000000000000000000830200c00388016345785d8a00008252082480a00000000000000000000000000000000000000000000000000000000000000000880000000000000000f84ef84c010a830186a08080801ba05368232172b77339a181b6d721728de454f43eb35509a793979cb1ca2b454296a013f67f0fe70630b72990fbd0461290dedde5b77bb76a52608507fdcced2ce1cfc0",
                "transactions" : [
                    {
                        "chainId" : "0x01",
                        "data" : "0x",
                        "gasLimit" : "0x0186a0",
                        "gasPrice" : "0x0a",
                        "nonce" : "0x01",
                        "r" : "0x5368232172b77339a181b6d721728de454f43eb35509a793979cb1ca2b454296",
                        "s" : "0x13f67f0fe70630b72990fbd0461290dedde5b77bb76a52608507fdcced2ce1cf",
                        "sender" : "0xa94f5374fce5edbc8e2a8697c15331677e6ebf0b",
                        "to" : "",
                        "type" : "0x00",
                        "v" : "0x1b",
                        "value" : "0x00"
                    }
                ],
                "uncleHeaders" : [
                ]
            }
        ],
        "config" : {
            "chainid" : "0x01",
            "network" : "Frontier"
        },
        "genesisBlockHeader" : {
            "bloom" : "0x00000000000000000000000000000000000000000000000000000000000000000000000000000000000000000000000000000000000000000000000000000000000000000000000000000000000000000000000000000000000000000000000000000000000000000000000000000000000000000000000000000000000000000000000000000000000000000000000000000000000000000000000000000000000000000000000000000000000000000000000000000000000000000000000000000000000000000000000000000000000000000000000000000000000000000000000000000000000000000000000000000000000000000000000000000000",
            "coinbase" : "0x0000000000000000000000000000000000000000",
            "difficulty" : "0x020000",
            "extraData" : "0x00",
            "gasLimit" : "0x016345785d8a0000",
            "gasUsed" : "0x00",
            "hash" : "0x061e0ff361b8797b01e4fb8419fac7e56f002fad10f2a78ed8588b67b8baf08c",
            "mixHash" : "0x0000000000000000000000000000000000000000000000000000000000000000",
            "nonce" : "0x0000000000000000",
            "number" : "0x00",
            "parentHash" : "0x0000000000000000000000000000000000000000000000000000000000000000",
            "receiptTrie" : "0x56e81f171bcc55a6ff8345e692c0f86e5b48e01b996cadc001622fb5e363b421",
            "stateRoot" : "0x70c42824108fafccadbfce71e6e22660c4fad89be18be324cd15ef351969a8c8",
            "timestamp" : "0x00",
            "transactionsTrie" : "0x56e81f171bcc55a6ff8345e692c0f86e5b48e01b996cadc001622fb5e363b421",
            "uncleHash" : "0x1dcc4de8dec75d7aab85b567b6ccd41ad312451b948a7413f0a142fd40d49347"
        },
        "genesisRLP" : "0xf901fdf901f8a00000000000000000000000000000000000000000000000000000000000000000a01dcc4de8dec75d7aab85b567b6ccd41ad312451b948a7413f0a142fd40d49347940000000000000000000000000000000000000000a070c42824108fafccadbfce71e6e22660c4fad89be18be324cd15ef351969a8c8a056e81f171bcc55a6ff8345e692c0f86e5b48e01b996cadc001622fb5e363b421a056e81f171bcc55a6ff8345e692c0f86e5b48e01b996cadc001622fb5e363b421b9010000000000000000000000000000000000000000000000000000000000000000000000000000000000000000000000000000000000000000000000000000000000000000000000000000000000000000000000000000000000000000000000000000000000000000000000000000000000000000000000000000000000000000000000000000000000000000000000000000000000000000000000000000000000000000000000000000000000000000000000000000000000000000000000000000000000000000000000000000000000000000000000000000000000000000000000000000000000000000000000000000000000000000000000000000000000830200008088016345785d8a0000808000a00000000000000000000000000000000000000000000000000000000000000000880000000000000000c0c0",
        "lastblockhash" : "0x7125417cb1bfced4fe984ba2a33dd586aaa80146bc88160c4b0aa7a0993ae1d8",
        "network" : "Frontier",
        "postState" : {
            "0x2adc25665018aa1fe0e6bc666dac8fc2697ff9ba" : {
                "balance" : "0xd02ab486cee268a0",
                "code" : "0x",
                "nonce" : "0x00",
                "storage" : {
                }
            },
            "0x6295ee1b4f6dd65047762f924ecd367c17eabf8f" : {
                "balance" : "0x00",
                "code" : "0x",
                "nonce" : "0x00",
                "storage" : {
                }
            },
            "0xa94f5374fce5edbc8e2a8697c15331677e6ebf0b" : {
                "balance" : "0x3635c9adc5de999760",
                "code" : "0x",
                "nonce" : "0x02",
                "storage" : {
                }
            },
            "0xec0e71ad0a90ffe1909d27dac207f7680abba42d" : {
                "balance" : "0x00",
                "code" : "0x",
                "nonce" : "0x00",
                "storage" : {
                }
            }
        },
        "pre" : {
            "0xa94f5374fce5edbc8e2a8697c15331677e6ebf0b" : {
                "balance" : "0x3635c9adc5dea00000",
                "code" : "0x",
                "nonce" : "0x00",
                "storage" : {
                }
            }
        },
        "sealEngine" : "NoProof"
    },
    "src/GeneralStateTestsFiller/Pyspecs/frontier/examples/test_block_intermediate_state.py::test_block_intermidiate_state[fork_Homestead-blockchain_test]" : {
        "_info" : {
            "comment" : "`execution-spec-tests` generated test",
            "description" : "Test function documentation:\nVerify intermidiate block states.",
            "filling-rpc-server" : "ethereum-spec-evm 0.1.0 (Git commit: 0d5cdb0351ff34b8ef13c4c07d9fa19999c73f0b)",
            "filling-tool-version" : "retesteth-0.3.2-legacy+commit.3ee677f4.Linux.g++",
            "filling-transition-tool" : "ethereum-spec-evm-resolver 0.0.1",
            "fixture_format" : "blockchain_test",
            "generatedTestHash" : "74ad880456793c8b7404c40d90206144dc103488be9b8db6f4520e9ef2390607",
            "hash" : "0xcd83080c7e01c323bc94f9a39129275c7a4fe6dbe95019e9b5e987fc160a6c42",
            "lllcversion" : "Version: 0.5.14-develop.2024.11.5+commit.b2b86751.mod.Linux.g++",
            "solidity" : "Version: 0.8.24+commit.e11b9ed9.Linux.g++",
            "source" : "src/GeneralStateTestsFiller/Pyspecs/frontier/examples/test_block_intermediate_state.py",
            "sourceHash" : "faa5ac1456c38dacde2e20af6e2934bb15a1d41811f37cebb4c455b56ae1ecd1",
            "url" : "https://github.com/ethereum/execution-spec-tests/blob/0d5cdb0351ff34b8ef13c4c07d9fa19999c73f0b/tests/tmp/tmptest_e34f42eb_51ca_4f22_9cdb_8bf0cc3c8e59/test_block_intermediate_state.py#L15"
        },
        "blocks" : [
            {
                "blockHeader" : {
                    "bloom" : "0x00000000000000000000000000000000000000000000000000000000000000000000000000000000000000000000000000000000000000000000000000000000000000000000000000000000000000000000000000000000000000000000000000000000000000000000000000000000000000000000000000000000000000000000000000000000000000000000000000000000000000000000000000000000000000000000000000000000000000000000000000000000000000000000000000000000000000000000000000000000000000000000000000000000000000000000000000000000000000000000000000000000000000000000000000000000",
                    "coinbase" : "0x2adc25665018aa1fe0e6bc666dac8fc2697ff9ba",
                    "difficulty" : "0x020000",
                    "extraData" : "0x",
                    "gasLimit" : "0x016345785d8a0000",
                    "gasUsed" : "0xcf08",
                    "hash" : "0x4c29768622ab9ccac1d1f56483c7a4275f9618366463b5971b7e2b5648811023",
                    "mixHash" : "0x0000000000000000000000000000000000000000000000000000000000000000",
                    "nonce" : "0x0000000000000000",
                    "number" : "0x01",
                    "parentHash" : "0x061e0ff361b8797b01e4fb8419fac7e56f002fad10f2a78ed8588b67b8baf08c",
                    "receiptTrie" : "0x4bf99e71e54f5f41d3121db329c9f1b4adf0b1e2962a1a506fce33fd3bca171c",
                    "stateRoot" : "0x0acd775f2d2235bc759a5d1ec1d5a243f08ff528e53728f341ef40a50f327ac2",
                    "timestamp" : "0x0c",
                    "transactionsTrie" : "0x1df304ff88c97dc68663944ccd4499defb653696c807252449bce830c3e35d3c",
                    "uncleHash" : "0x1dcc4de8dec75d7aab85b567b6ccd41ad312451b948a7413f0a142fd40d49347"
                },
                "blocknumber" : "1",
                "rlp" : "0xf9024ef901faa0061e0ff361b8797b01e4fb8419fac7e56f002fad10f2a78ed8588b67b8baf08ca01dcc4de8dec75d7aab85b567b6ccd41ad312451b948a7413f0a142fd40d49347942adc25665018aa1fe0e6bc666dac8fc2697ff9baa00acd775f2d2235bc759a5d1ec1d5a243f08ff528e53728f341ef40a50f327ac2a01df304ff88c97dc68663944ccd4499defb653696c807252449bce830c3e35d3ca04bf99e71e54f5f41d3121db329c9f1b4adf0b1e2962a1a506fce33fd3bca171cb9010000000000000000000000000000000000000000000000000000000000000000000000000000000000000000000000000000000000000000000000000000000000000000000000000000000000000000000000000000000000000000000000000000000000000000000000000000000000000000000000000000000000000000000000000000000000000000000000000000000000000000000000000000000000000000000000000000000000000000000000000000000000000000000000000000000000000000000000000000000000000000000000000000000000000000000000000000000000000000000000000000000000000000000000000000000000830200000188016345785d8a000082cf080c80a00000000000000000000000000000000000000000000000000000000000000000880000000000000000f84ef84c800a830186a08080801ba04a70e36753e51ecbabb12ffefb365a5d70ddfc104dfbd752f26fb43bb03577fea006b0526056d8c5dd80222b72cc3f0860f38750ca98d3261b29ec6bdc5833d9d1c0",
                "transactions" : [
                    {
                        "chainId" : "0x01",
                        "data" : "0x",
                        "gasLimit" : "0x0186a0",
                        "gasPrice" : "0x0a",
                        "nonce" : "0x00",
                        "r" : "0x4a70e36753e51ecbabb12ffefb365a5d70ddfc104dfbd752f26fb43bb03577fe",
                        "s" : "0x06b0526056d8c5dd80222b72cc3f0860f38750ca98d3261b29ec6bdc5833d9d1",
                        "sender" : "0xa94f5374fce5edbc8e2a8697c15331677e6ebf0b",
                        "to" : "",
                        "type" : "0x00",
                        "v" : "0x1b",
                        "value" : "0x00"
                    }
                ],
                "uncleHeaders" : [
                ]
            },
            {
                "blockHeader" : {
                    "bloom" : "0x00000000000000000000000000000000000000000000000000000000000000000000000000000000000000000000000000000000000000000000000000000000000000000000000000000000000000000000000000000000000000000000000000000000000000000000000000000000000000000000000000000000000000000000000000000000000000000000000000000000000000000000000000000000000000000000000000000000000000000000000000000000000000000000000000000000000000000000000000000000000000000000000000000000000000000000000000000000000000000000000000000000000000000000000000000000",
                    "coinbase" : "0x2adc25665018aa1fe0e6bc666dac8fc2697ff9ba",
                    "difficulty" : "0x020000",
                    "extraData" : "0x",
                    "gasLimit" : "0x016345785d8a0000",
                    "gasUsed" : "0x00",
                    "hash" : "0x9c6934403d9f695b8a1984594029d94763eb328695538fe9854ea01c29aba67b",
                    "mixHash" : "0x0000000000000000000000000000000000000000000000000000000000000000",
                    "nonce" : "0x0000000000000000",
                    "number" : "0x02",
                    "parentHash" : "0x4c29768622ab9ccac1d1f56483c7a4275f9618366463b5971b7e2b5648811023",
                    "receiptTrie" : "0x56e81f171bcc55a6ff8345e692c0f86e5b48e01b996cadc001622fb5e363b421",
                    "stateRoot" : "0x9a48615ad6bc7264984c422bf7dfb4de4e37d8b2a1bccde99a60c227543c52f7",
                    "timestamp" : "0x18",
                    "transactionsTrie" : "0x56e81f171bcc55a6ff8345e692c0f86e5b48e01b996cadc001622fb5e363b421",
                    "uncleHash" : "0x1dcc4de8dec75d7aab85b567b6ccd41ad312451b948a7413f0a142fd40d49347"
                },
                "blocknumber" : "2",
                "rlp" : "0xf901fdf901f8a04c29768622ab9ccac1d1f56483c7a4275f9618366463b5971b7e2b5648811023a01dcc4de8dec75d7aab85b567b6ccd41ad312451b948a7413f0a142fd40d49347942adc25665018aa1fe0e6bc666dac8fc2697ff9baa09a48615ad6bc7264984c422bf7dfb4de4e37d8b2a1bccde99a60c227543c52f7a056e81f171bcc55a6ff8345e692c0f86e5b48e01b996cadc001622fb5e363b421a056e81f171bcc55a6ff8345e692c0f86e5b48e01b996cadc001622fb5e363b421b9010000000000000000000000000000000000000000000000000000000000000000000000000000000000000000000000000000000000000000000000000000000000000000000000000000000000000000000000000000000000000000000000000000000000000000000000000000000000000000000000000000000000000000000000000000000000000000000000000000000000000000000000000000000000000000000000000000000000000000000000000000000000000000000000000000000000000000000000000000000000000000000000000000000000000000000000000000000000000000000000000000000000000000000000000000000000830200000288016345785d8a0000801880a00000000000000000000000000000000000000000000000000000000000000000880000000000000000c0c0",
                "transactions" : [
                ],
                "uncleHeaders" : [
                ]
            },
            {
                "blockHeader" : {
                    "bloom" : "0x00000000000000000000000000000000000000000000000000000000000000000000000000000000000000000000000000000000000000000000000000000000000000000000000000000000000000000000000000000000000000000000000000000000000000000000000000000000000000000000000000000000000000000000000000000000000000000000000000000000000000000000000000000000000000000000000000000000000000000000000000000000000000000000000000000000000000000000000000000000000000000000000000000000000000000000000000000000000000000000000000000000000000000000000000000000",
                    "coinbase" : "0x2adc25665018aa1fe0e6bc666dac8fc2697ff9ba",
                    "difficulty" : "0x020000",
                    "extraData" : "0x",
                    "gasLimit" : "0x016345785d8a0000",
                    "gasUsed" : "0xcf08",
                    "hash" : "0x63f375127afc6a65af722ccf3b80d0891eb459da0f5610bf21ddcd76e65913c5",
                    "mixHash" : "0x0000000000000000000000000000000000000000000000000000000000000000",
                    "nonce" : "0x0000000000000000",
                    "number" : "0x03",
                    "parentHash" : "0x9c6934403d9f695b8a1984594029d94763eb328695538fe9854ea01c29aba67b",
                    "receiptTrie" : "0xdbf6c57c08289ea50247e8fd5827f27fb6c30f9100f6aab598997c5959cdd052",
                    "stateRoot" : "0x14e51d7039a4e053133e46578af3c68d115e4ab0ca8f413ff572d9dca5b07ec6",
                    "timestamp" : "0x24",
                    "transactionsTrie" : "0xfa713301492c38999749e478d548cea77dc743989d4df95114b9cbf48c7009b5",
                    "uncleHash" : "0x1dcc4de8dec75d7aab85b567b6ccd41ad312451b948a7413f0a142fd40d49347"
                },
                "blocknumber" : "3",
                "rlp" : "0xf9024ef901faa09c6934403d9f695b8a1984594029d94763eb328695538fe9854ea01c29aba67ba01dcc4de8dec75d7aab85b567b6ccd41ad312451b948a7413f0a142fd40d49347942adc25665018aa1fe0e6bc666dac8fc2697ff9baa014e51d7039a4e053133e46578af3c68d115e4ab0ca8f413ff572d9dca5b07ec6a0fa713301492c38999749e478d548cea77dc743989d4df95114b9cbf48c7009b5a0dbf6c57c08289ea50247e8fd5827f27fb6c30f9100f6aab598997c5959cdd052b9010000000000000000000000000000000000000000000000000000000000000000000000000000000000000000000000000000000000000000000000000000000000000000000000000000000000000000000000000000000000000000000000000000000000000000000000000000000000000000000000000000000000000000000000000000000000000000000000000000000000000000000000000000000000000000000000000000000000000000000000000000000000000000000000000000000000000000000000000000000000000000000000000000000000000000000000000000000000000000000000000000000000000000000000000000000000830200000388016345785d8a000082cf082480a00000000000000000000000000000000000000000000000000000000000000000880000000000000000f84ef84c010a830186a08080801ba05368232172b77339a181b6d721728de454f43eb35509a793979cb1ca2b454296a013f67f0fe70630b72990fbd0461290dedde5b77bb76a52608507fdcced2ce1cfc0",
                "transactions" : [
                    {
                        "chainId" : "0x01",
                        "data" : "0x",
                        "gasLimit" : "0x0186a0",
                        "gasPrice" : "0x0a",
                        "nonce" : "0x01",
                        "r" : "0x5368232172b77339a181b6d721728de454f43eb35509a793979cb1ca2b454296",
                        "s" : "0x13f67f0fe70630b72990fbd0461290dedde5b77bb76a52608507fdcced2ce1cf",
                        "sender" : "0xa94f5374fce5edbc8e2a8697c15331677e6ebf0b",
                        "to" : "",
                        "type" : "0x00",
                        "v" : "0x1b",
                        "value" : "0x00"
                    }
                ],
                "uncleHeaders" : [
                ]
            }
        ],
        "config" : {
            "chainid" : "0x01",
            "network" : "Homestead"
        },
        "genesisBlockHeader" : {
            "bloom" : "0x00000000000000000000000000000000000000000000000000000000000000000000000000000000000000000000000000000000000000000000000000000000000000000000000000000000000000000000000000000000000000000000000000000000000000000000000000000000000000000000000000000000000000000000000000000000000000000000000000000000000000000000000000000000000000000000000000000000000000000000000000000000000000000000000000000000000000000000000000000000000000000000000000000000000000000000000000000000000000000000000000000000000000000000000000000000",
            "coinbase" : "0x0000000000000000000000000000000000000000",
            "difficulty" : "0x020000",
            "extraData" : "0x00",
            "gasLimit" : "0x016345785d8a0000",
            "gasUsed" : "0x00",
            "hash" : "0x061e0ff361b8797b01e4fb8419fac7e56f002fad10f2a78ed8588b67b8baf08c",
            "mixHash" : "0x0000000000000000000000000000000000000000000000000000000000000000",
            "nonce" : "0x0000000000000000",
            "number" : "0x00",
            "parentHash" : "0x0000000000000000000000000000000000000000000000000000000000000000",
            "receiptTrie" : "0x56e81f171bcc55a6ff8345e692c0f86e5b48e01b996cadc001622fb5e363b421",
            "stateRoot" : "0x70c42824108fafccadbfce71e6e22660c4fad89be18be324cd15ef351969a8c8",
            "timestamp" : "0x00",
            "transactionsTrie" : "0x56e81f171bcc55a6ff8345e692c0f86e5b48e01b996cadc001622fb5e363b421",
            "uncleHash" : "0x1dcc4de8dec75d7aab85b567b6ccd41ad312451b948a7413f0a142fd40d49347"
        },
        "genesisRLP" : "0xf901fdf901f8a00000000000000000000000000000000000000000000000000000000000000000a01dcc4de8dec75d7aab85b567b6ccd41ad312451b948a7413f0a142fd40d49347940000000000000000000000000000000000000000a070c42824108fafccadbfce71e6e22660c4fad89be18be324cd15ef351969a8c8a056e81f171bcc55a6ff8345e692c0f86e5b48e01b996cadc001622fb5e363b421a056e81f171bcc55a6ff8345e692c0f86e5b48e01b996cadc001622fb5e363b421b9010000000000000000000000000000000000000000000000000000000000000000000000000000000000000000000000000000000000000000000000000000000000000000000000000000000000000000000000000000000000000000000000000000000000000000000000000000000000000000000000000000000000000000000000000000000000000000000000000000000000000000000000000000000000000000000000000000000000000000000000000000000000000000000000000000000000000000000000000000000000000000000000000000000000000000000000000000000000000000000000000000000000000000000000000000000000830200008088016345785d8a0000808000a00000000000000000000000000000000000000000000000000000000000000000880000000000000000c0c0",
        "lastblockhash" : "0x63f375127afc6a65af722ccf3b80d0891eb459da0f5610bf21ddcd76e65913c5",
        "network" : "Homestead",
        "postState" : {
            "0x2adc25665018aa1fe0e6bc666dac8fc2697ff9ba" : {
                "balance" : "0xd02ab486ceec2ca0",
                "code" : "0x",
                "nonce" : "0x00",
                "storage" : {
                }
            },
            "0x6295ee1b4f6dd65047762f924ecd367c17eabf8f" : {
                "balance" : "0x00",
                "code" : "0x",
                "nonce" : "0x00",
                "storage" : {
                }
            },
            "0xa94f5374fce5edbc8e2a8697c15331677e6ebf0b" : {
                "balance" : "0x3635c9adc5de8fd360",
                "code" : "0x",
                "nonce" : "0x02",
                "storage" : {
                }
            },
            "0xec0e71ad0a90ffe1909d27dac207f7680abba42d" : {
                "balance" : "0x00",
                "code" : "0x",
                "nonce" : "0x00",
                "storage" : {
                }
            }
        },
        "pre" : {
            "0xa94f5374fce5edbc8e2a8697c15331677e6ebf0b" : {
                "balance" : "0x3635c9adc5dea00000",
                "code" : "0x",
                "nonce" : "0x00",
                "storage" : {
                }
            }
        },
        "sealEngine" : "NoProof"
    }
}