{
    "src/GeneralStateTestsFiller/Pyspecs/cancun/eip1153_tstore/test_basic_tload.py::test_basic_tload_after_store[fork_Cancun-state_test]" : {
        "_info" : {
            "comment" : "`execution-spec-tests` generated test",
            "description" : "Test function documentation:\n\n    Ported .json vectors.\n\n    (18_tloadAfterStoreFiller.yml)\n    tload from same slot after store returns 0",
            "eels-resolution" : {
                "branch" : "master",
                "commit" : "78fb726158c69d8fa164e28f195fabf6ab59b915",
                "git-url" : "https://github.com/ethereum/execution-specs.git"
            },
            "filling-rpc-server" : "evmone-t8n 0.14.0",
            "filling-tool-version" : "retesteth-0.3.2-legacy+commit.e0777df7.Linux.g++",
            "filling-transition-tool" : "ethereum-spec-evm-resolver 0.0.5",
            "fixture_format" : "state_test",
            "generatedTestHash" : "cac3226519e6b819dc0aa39236071b03996ffd57a0cc57f55a727c833927b304",
            "hash" : "0x40327ca01e6b695cbfa5683859d34cb7b8be340adb039b57222961614741be1a",
            "lllcversion" : "Version: 0.5.14-develop.2024.11.5+commit.b2b86751.mod.Linux.g++",
            "solidity" : "Version: 0.8.24+commit.e11b9ed9.Linux.g++",
            "source" : "src/GeneralStateTestsFiller/Pyspecs/cancun/eip1153_tstore/test_basic_tload.py",
            "sourceHash" : "3b77e4f980362a05ad816702c57f7506ddb222c1261f28e5f0c64a80e4d1aebb",
            "url" : "https://github.com/ethereum/execution-spec-tests/blob/5c7583f98c6eb7b291a2e38c4bf2e3a93ea9d91c/tests/tmp/tmptest_8447f19c_0b9e_466a_8b4a_2e8ade7121be/test_basic_tload.py#L242"
        },
        "config" : {
            "blobSchedule" : {
                "Cancun" : {
                    "baseFeeUpdateFraction" : "0x32f0ed",
                    "max" : "0x06",
                    "target" : "0x03"
                }
            },
            "chainid" : "0x01"
        },
        "env" : {
            "currentBaseFee" : "0x07",
            "currentCoinbase" : "0x2adc25665018aa1fe0e6bc666dac8fc2697ff9ba",
            "currentDifficulty" : "0x00",
            "currentExcessBlobGas" : "0x00",
            "currentGasLimit" : "0x016345785d8a0000",
            "currentNumber" : "0x01",
            "currentRandom" : "0x0000000000000000000000000000000000000000000000000000000000000000",
            "currentTimestamp" : "0x03e8"
        },
        "post" : {
            "Cancun" : [
                {
                    "hash" : "0xbd5c9c93f7bae49ef08638460dff7eafdaa19e39bdcd11814da5589f0ed0325b",
                    "indexes" : {
                        "data" : 0,
                        "gas" : 0,
                        "value" : 0
                    },
                    "logs" : "0x1dcc4de8dec75d7aab85b567b6ccd41ad312451b948a7413f0a142fd40d49347",
                    "state" : {
                        "0x0000000000000000000000000000000000001000" : {
                            "balance" : "0x00",
                            "code" : "0x5b601660015560015c6001556001600255",
                            "nonce" : "0x01",
                            "storage" : {
                                "0x02" : "0x01"
                            }
                        },
                        "0x2adc25665018aa1fe0e6bc666dac8fc2697ff9ba" : {
                            "balance" : "0x01fdfd",
                            "code" : "0x",
                            "nonce" : "0x00",
                            "storage" : {
                            }
                        },
                        "0xa94f5374fce5edbc8e2a8697c15331677e6ebf0b" : {
                            "balance" : "0x6124fee993b55c0a",
                            "code" : "0x",
                            "nonce" : "0x01",
                            "storage" : {
                            }
                        }
                    },
                    "txbytes" : "0xf860800a834c4b40940000000000000000000000000000000000001000808025a07efdff7ec6ddfbc04e90c94f5d44dd9933bf9215257a940fa439299794d8270da06b46d6e5e225d1977bca6e97f3f1c654e6adb48fc5c655ea8880aa68d45bfa56"
                }
            ]
        },
        "pre" : {
            "0x0000000000000000000000000000000000001000" : {
                "balance" : "0x00",
                "code" : "0x5b601660015560015c6001556001600255",
                "nonce" : "0x01",
                "storage" : {
                    "0x01" : "0xff"
                }
            },
            "0xa94f5374fce5edbc8e2a8697c15331677e6ebf0b" : {
                "balance" : "0x6124fee993bc0000",
                "code" : "0x",
                "nonce" : "0x00",
                "storage" : {
                }
            }
        },
        "transaction" : {
            "data" : [
                "0x"
            ],
            "gasLimit" : [
                "0x4c4b40"
            ],
            "gasPrice" : "0x0a",
            "nonce" : "0x00",
            "secretKey" : "0x45a915e4d060149eb4365960e6a7a45f334393093061116b197e3240065ff2d8",
            "sender" : "0xa94f5374fce5edbc8e2a8697c15331677e6ebf0b",
            "to" : "0x0000000000000000000000000000000000001000",
            "value" : [
                "0x00"
            ]
        }
    },
    "src/GeneralStateTestsFiller/Pyspecs/cancun/eip1153_tstore/test_basic_tload.py::test_basic_tload_after_store[fork_Prague-state_test]" : {
        "_info" : {
            "comment" : "`execution-spec-tests` generated test",
            "description" : "Test function documentation:\n\n    Ported .json vectors.\n\n    (18_tloadAfterStoreFiller.yml)\n    tload from same slot after store returns 0",
            "eels-resolution" : {
                "branch" : "devnets/prague/6",
                "commit" : "a25a8ab3a2989b15baac19eb327325e442342a60",
                "git-url" : "https://github.com/ethereum/execution-specs.git"
            },
            "filling-rpc-server" : "evmone-t8n 0.14.0",
            "filling-tool-version" : "retesteth-0.3.2-legacy+commit.e0777df7.Linux.g++",
            "filling-transition-tool" : "ethereum-spec-evm-resolver 0.0.5",
            "fixture_format" : "state_test",
            "generatedTestHash" : "ee5f2a6e56451325bd23966424c68bdde77aa6dc3b6947a2bc46dd14fc9765e4",
            "hash" : "0xc81627ecb9cbcc467baf6460d53cfb800cbfb520d56aeab0cda9a292ea394719",
            "lllcversion" : "Version: 0.5.14-develop.2024.11.5+commit.b2b86751.mod.Linux.g++",
            "solidity" : "Version: 0.8.24+commit.e11b9ed9.Linux.g++",
            "source" : "src/GeneralStateTestsFiller/Pyspecs/cancun/eip1153_tstore/test_basic_tload.py",
            "sourceHash" : "3b77e4f980362a05ad816702c57f7506ddb222c1261f28e5f0c64a80e4d1aebb",
            "url" : "https://github.com/ethereum/execution-spec-tests/blob/5c7583f98c6eb7b291a2e38c4bf2e3a93ea9d91c/tests/tmp/tmptest_8447f19c_0b9e_466a_8b4a_2e8ade7121be/test_basic_tload.py#L242"
        },
        "config" : {
            "blobSchedule" : {
                "Cancun" : {
                    "baseFeeUpdateFraction" : "0x32f0ed",
                    "max" : "0x06",
                    "target" : "0x03"
                },
                "Prague" : {
                    "baseFeeUpdateFraction" : "0x4c6964",
                    "max" : "0x09",
                    "target" : "0x06"
                }
            },
            "chainid" : "0x01"
        },
        "env" : {
            "currentBaseFee" : "0x07",
            "currentCoinbase" : "0x2adc25665018aa1fe0e6bc666dac8fc2697ff9ba",
            "currentDifficulty" : "0x00",
            "currentExcessBlobGas" : "0x00",
            "currentGasLimit" : "0x016345785d8a0000",
            "currentNumber" : "0x01",
            "currentRandom" : "0x0000000000000000000000000000000000000000000000000000000000000000",
            "currentTimestamp" : "0x03e8"
        },
        "post" : {
            "Prague" : [
                {
                    "hash" : "0xbd5c9c93f7bae49ef08638460dff7eafdaa19e39bdcd11814da5589f0ed0325b",
                    "indexes" : {
                        "data" : 0,
                        "gas" : 0,
                        "value" : 0
                    },
                    "logs" : "0x1dcc4de8dec75d7aab85b567b6ccd41ad312451b948a7413f0a142fd40d49347",
                    "state" : {
                        "0x0000000000000000000000000000000000001000" : {
                            "balance" : "0x00",
                            "code" : "0x5b601660015560015c6001556001600255",
                            "nonce" : "0x01",
                            "storage" : {
                                "0x02" : "0x01"
                            }
                        },
                        "0x2adc25665018aa1fe0e6bc666dac8fc2697ff9ba" : {
                            "balance" : "0x01fdfd",
                            "code" : "0x",
                            "nonce" : "0x00",
                            "storage" : {
                            }
                        },
                        "0xa94f5374fce5edbc8e2a8697c15331677e6ebf0b" : {
                            "balance" : "0x6124fee993b55c0a",
                            "code" : "0x",
                            "nonce" : "0x01",
                            "storage" : {
                            }
                        }
                    },
                    "txbytes" : "0xf860800a834c4b40940000000000000000000000000000000000001000808025a07efdff7ec6ddfbc04e90c94f5d44dd9933bf9215257a940fa439299794d8270da06b46d6e5e225d1977bca6e97f3f1c654e6adb48fc5c655ea8880aa68d45bfa56"
                }
            ]
        },
        "pre" : {
            "0x0000000000000000000000000000000000001000" : {
                "balance" : "0x00",
                "code" : "0x5b601660015560015c6001556001600255",
                "nonce" : "0x01",
                "storage" : {
                    "0x01" : "0xff"
                }
            },
            "0xa94f5374fce5edbc8e2a8697c15331677e6ebf0b" : {
                "balance" : "0x6124fee993bc0000",
                "code" : "0x",
                "nonce" : "0x00",
                "storage" : {
                }
            }
        },
        "transaction" : {
            "data" : [
                "0x"
            ],
            "gasLimit" : [
                "0x4c4b40"
            ],
            "gasPrice" : "0x0a",
            "nonce" : "0x00",
            "secretKey" : "0x45a915e4d060149eb4365960e6a7a45f334393093061116b197e3240065ff2d8",
            "sender" : "0xa94f5374fce5edbc8e2a8697c15331677e6ebf0b",
            "to" : "0x0000000000000000000000000000000000001000",
            "value" : [
                "0x00"
            ]
        }
    }
}