{
    "src/GeneralStateTestsFiller/Pyspecs/cancun/eip1153_tstore/test_tstorage_selfdestruct.py::test_reentrant_selfdestructing_call[fork_Cancun-state_test-tload_after_inner_selfdestruct_new_contract]" : {
        "_info" : {
            "comment" : "`execution-spec-tests` generated test",
            "description" : "Test function documentation:\nTest transient storage in different reentrancy contexts after selfdestructing.",
            "filling-rpc-server" : "ethereum-spec-evm 0.1.0 (Git commit: 0d5cdb0351ff34b8ef13c4c07d9fa19999c73f0b)",
            "filling-tool-version" : "retesteth-0.3.2-legacy+commit.3ee677f4.Linux.g++",
            "filling-transition-tool" : "ethereum-spec-evm-resolver 0.0.1",
            "fixture_format" : "state_test",
            "generatedTestHash" : "9321589dea830b9a56d348e88c710c5e7ddcbd24662b164d165f62cd3d210c0d",
            "hash" : "0x8440a2613c718867ca78f497a14b59bce16fc60d6ed08bd45a8c5985d62f069a",
            "lllcversion" : "Version: 0.5.14-develop.2024.11.5+commit.b2b86751.mod.Linux.g++",
            "solidity" : "Version: 0.8.24+commit.e11b9ed9.Linux.g++",
            "source" : "src/GeneralStateTestsFiller/Pyspecs/cancun/eip1153_tstore/test_tstorage_selfdestruct.py",
            "sourceHash" : "4d27f25a4804708394fd3a4d0354f9bfbdb1441df43ace9e9d46ea62ad95e0e9",
            "url" : "https://github.com/ethereum/execution-spec-tests/blob/0d5cdb0351ff34b8ef13c4c07d9fa19999c73f0b/tests/tmp/tmptest_a1240387_08b8_429f_972b_b1189992d689/test_tstorage_selfdestruct.py#L219"
        },
        "config" : {
            "blobSchedule" : {
                "Cancun" : {
                    "baseFeeUpdateFraction" : "0x32f0ed",
                    "max" : "0x06",
                    "target" : "0x03"
                }
            },
            "chainid" : "0x01"
        },
        "env" : {
            "currentBaseFee" : "0x07",
            "currentCoinbase" : "0x2adc25665018aa1fe0e6bc666dac8fc2697ff9ba",
            "currentDifficulty" : "0x00",
            "currentExcessBlobGas" : "0x00",
            "currentGasLimit" : "0x016345785d8a0000",
            "currentNumber" : "0x01",
            "currentRandom" : "0x0000000000000000000000000000000000000000000000000000000000000000",
            "currentTimestamp" : "0x03e8"
        },
        "post" : {
            "Cancun" : [
                {
                    "hash" : "0x6e11ddb906f31cce624a3bae973516d65380d2bd714514c673a84526656bdfdb",
                    "indexes" : {
                        "data" : 0,
                        "gas" : 0,
                        "value" : 0
                    },
                    "logs" : "0x1dcc4de8dec75d7aab85b567b6ccd41ad312451b948a7413f0a142fd40d49347",
                    "state" : {
                        "0x0000000000000000000000000000000000001000" : {
                            "balance" : "0x00",
                            "code" : "0x3660006000373660006000f06000556001600052602060006020600060006000545af1600155600051600255",
                            "nonce" : "0x02",
                            "storage" : {
                                "0x00" : "0x5bafcc0c93ecd8022925d7fd89da1c6250850e19",
                                "0x01" : "0x01",
                                "0x02" : "0x0100"
                            }
                        },
                        "0x2adc25665018aa1fe0e6bc666dac8fc2697ff9ba" : {
                            "balance" : "0x069df2",
                            "code" : "0x",
                            "nonce" : "0x00",
                            "storage" : {
                            }
                        },
                        "0xa94f5374fce5edbc8e2a8697c15331677e6ebf0b" : {
                            "balance" : "0x3635c9adc5de89f184",
                            "code" : "0x",
                            "nonce" : "0x01",
                            "storage" : {
                            }
                        }
                    },
                    "txbytes" : "0xf8ba800a830f424094000000000000000000000000000000000000100080b85961004e600081600b8239f3600160003514601c580157600260003514600858015760355801565b6000ff602c5801565b61010060ff5d600260005260206000602060006000305af160ff5c60005260206000f360035801565b26a0808bc0db11a00451af5801730093f5c44fd4b98debac07e90302377001ed2eaca06b6db672ddf115bc33e04f0ae8d4a1093eb9e34db317b63cb472c2d06c6843cc"
                }
            ]
        },
        "pre" : {
            "0x0000000000000000000000000000000000001000" : {
                "balance" : "0x00",
                "code" : "0x3660006000373660006000f06000556001600052602060006020600060006000545af1600155600051600255",
                "nonce" : "0x01",
                "storage" : {
                }
            },
            "0xa94f5374fce5edbc8e2a8697c15331677e6ebf0b" : {
                "balance" : "0x3635c9adc5dea00000",
                "code" : "0x",
                "nonce" : "0x00",
                "storage" : {
                }
            }
        },
        "transaction" : {
            "data" : [
                "0x61004e600081600b8239f3600160003514601c580157600260003514600858015760355801565b6000ff602c5801565b61010060ff5d600260005260206000602060006000305af160ff5c60005260206000f360035801565b"
            ],
            "gasLimit" : [
                "0x0f4240"
            ],
            "gasPrice" : "0x0a",
            "nonce" : "0x00",
            "secretKey" : "0x45a915e4d060149eb4365960e6a7a45f334393093061116b197e3240065ff2d8",
            "sender" : "0xa94f5374fce5edbc8e2a8697c15331677e6ebf0b",
            "to" : "0x0000000000000000000000000000000000001000",
            "value" : [
                "0x00"
            ]
        }
    },
    "src/GeneralStateTestsFiller/Pyspecs/cancun/eip1153_tstore/test_tstorage_selfdestruct.py::test_reentrant_selfdestructing_call[fork_Cancun-state_test-tload_after_inner_selfdestruct_pre_existing_contract]" : {
        "_info" : {
            "comment" : "`execution-spec-tests` generated test",
            "description" : "Test function documentation:\nTest transient storage in different reentrancy contexts after selfdestructing.",
            "filling-rpc-server" : "ethereum-spec-evm 0.1.0 (Git commit: 0d5cdb0351ff34b8ef13c4c07d9fa19999c73f0b)",
            "filling-tool-version" : "retesteth-0.3.2-legacy+commit.3ee677f4.Linux.g++",
            "filling-transition-tool" : "ethereum-spec-evm-resolver 0.0.1",
            "fixture_format" : "state_test",
            "generatedTestHash" : "972e7260120a8feffe38773244a0eb9f0e36b8281824fcbe7c19f9eb030d85ae",
            "hash" : "0x1a17209ae79b76cd5e830eee1828b51c16e3d11455c21c441323764c4623a250",
            "lllcversion" : "Version: 0.5.14-develop.2024.11.5+commit.b2b86751.mod.Linux.g++",
            "solidity" : "Version: 0.8.24+commit.e11b9ed9.Linux.g++",
            "source" : "src/GeneralStateTestsFiller/Pyspecs/cancun/eip1153_tstore/test_tstorage_selfdestruct.py",
            "sourceHash" : "4d27f25a4804708394fd3a4d0354f9bfbdb1441df43ace9e9d46ea62ad95e0e9",
            "url" : "https://github.com/ethereum/execution-spec-tests/blob/0d5cdb0351ff34b8ef13c4c07d9fa19999c73f0b/tests/tmp/tmptest_a1240387_08b8_429f_972b_b1189992d689/test_tstorage_selfdestruct.py#L219"
        },
        "config" : {
            "blobSchedule" : {
                "Cancun" : {
                    "baseFeeUpdateFraction" : "0x32f0ed",
                    "max" : "0x06",
                    "target" : "0x03"
                }
            },
            "chainid" : "0x01"
        },
        "env" : {
            "currentBaseFee" : "0x07",
            "currentCoinbase" : "0x2adc25665018aa1fe0e6bc666dac8fc2697ff9ba",
            "currentDifficulty" : "0x00",
            "currentExcessBlobGas" : "0x00",
            "currentGasLimit" : "0x016345785d8a0000",
            "currentNumber" : "0x01",
            "currentRandom" : "0x0000000000000000000000000000000000000000000000000000000000000000",
            "currentTimestamp" : "0x03e8"
        },
        "post" : {
            "Cancun" : [
                {
                    "hash" : "0x876310a4488614c4dc0511f89f3e7cc5b69a73abe5aae1ea0e652a106ae5b9d8",
                    "indexes" : {
                        "data" : 0,
                        "gas" : 0,
                        "value" : 0
                    },
                    "logs" : "0x1dcc4de8dec75d7aab85b567b6ccd41ad312451b948a7413f0a142fd40d49347",
                    "state" : {
                        "0x0000000000000000000000000000000000001000" : {
                            "balance" : "0x00",
                            "code" : "0x6000356000556001600052602060006020600060006000545af1600155600051600255",
                            "nonce" : "0x01",
                            "storage" : {
                                "0x00" : "0x1100",
                                "0x01" : "0x01",
                                "0x02" : "0x0100"
                            }
                        },
                        "0x0000000000000000000000000000000000001100" : {
                            "balance" : "0x00",
                            "code" : "0x600160003514601c580157600260003514600858015760375801565b6000ff602e5801565b61010060ff5d6002600052602060006020600060006000545af160ff5c60005260206000f360035801565b",
                            "nonce" : "0x01",
                            "storage" : {
                            }
                        },
                        "0x2adc25665018aa1fe0e6bc666dac8fc2697ff9ba" : {
                            "balance" : "0x045b5b",
                            "code" : "0x",
                            "nonce" : "0x00",
                            "storage" : {
                            }
                        },
                        "0xa94f5374fce5edbc8e2a8697c15331677e6ebf0b" : {
                            "balance" : "0x3635c9adc5de917a26",
                            "code" : "0x",
                            "nonce" : "0x01",
                            "storage" : {
                            }
                        }
                    },
                    "txbytes" : "0xf880800a830f424094000000000000000000000000000000000000100080a0000000000000000000000000000000000000000000000000000000000000110025a068c1cad412d7a593c6eb1dba89c6cb8d20e266a6ca601325a087c63112aba4c1a0077cdf143733043b6d25d2779d4ee4ec552ea40eab5651c0e6425e772105911a"
                }
            ]
        },
        "pre" : {
            "0x0000000000000000000000000000000000001000" : {
                "balance" : "0x00",
                "code" : "0x6000356000556001600052602060006020600060006000545af1600155600051600255",
                "nonce" : "0x01",
                "storage" : {
                }
            },
            "0x0000000000000000000000000000000000001100" : {
                "balance" : "0x00",
                "code" : "0x600160003514601c580157600260003514600858015760375801565b6000ff602e5801565b61010060ff5d6002600052602060006020600060006000545af160ff5c60005260206000f360035801565b",
                "nonce" : "0x01",
                "storage" : {
                }
            },
            "0xa94f5374fce5edbc8e2a8697c15331677e6ebf0b" : {
                "balance" : "0x3635c9adc5dea00000",
                "code" : "0x",
                "nonce" : "0x00",
                "storage" : {
                }
            }
        },
        "transaction" : {
            "data" : [
                "0x0000000000000000000000000000000000000000000000000000000000001100"
            ],
            "gasLimit" : [
                "0x0f4240"
            ],
            "gasPrice" : "0x0a",
            "nonce" : "0x00",
            "secretKey" : "0x45a915e4d060149eb4365960e6a7a45f334393093061116b197e3240065ff2d8",
            "sender" : "0xa94f5374fce5edbc8e2a8697c15331677e6ebf0b",
            "to" : "0x0000000000000000000000000000000000001000",
            "value" : [
                "0x00"
            ]
        }
    },
    "src/GeneralStateTestsFiller/Pyspecs/cancun/eip1153_tstore/test_tstorage_selfdestruct.py::test_reentrant_selfdestructing_call[fork_Cancun-state_test-tload_after_selfdestruct_new_contract]" : {
        "_info" : {
            "comment" : "`execution-spec-tests` generated test",
            "description" : "Test function documentation:\nTest transient storage in different reentrancy contexts after selfdestructing.",
            "filling-rpc-server" : "ethereum-spec-evm 0.1.0 (Git commit: 0d5cdb0351ff34b8ef13c4c07d9fa19999c73f0b)",
            "filling-tool-version" : "retesteth-0.3.2-legacy+commit.3ee677f4.Linux.g++",
            "filling-transition-tool" : "ethereum-spec-evm-resolver 0.0.1",
            "fixture_format" : "state_test",
            "generatedTestHash" : "bb6cfdd28cf2dac43ae02d0e8fc4a9bda9a5eb1e58681ba8c1a3e49c1cb4a666",
            "hash" : "0xb93ab47888010b0123df908d2df691afcb4acddfb4c27c1ed5443a89739e2ae4",
            "lllcversion" : "Version: 0.5.14-develop.2024.11.5+commit.b2b86751.mod.Linux.g++",
            "solidity" : "Version: 0.8.24+commit.e11b9ed9.Linux.g++",
            "source" : "src/GeneralStateTestsFiller/Pyspecs/cancun/eip1153_tstore/test_tstorage_selfdestruct.py",
            "sourceHash" : "4d27f25a4804708394fd3a4d0354f9bfbdb1441df43ace9e9d46ea62ad95e0e9",
            "url" : "https://github.com/ethereum/execution-spec-tests/blob/0d5cdb0351ff34b8ef13c4c07d9fa19999c73f0b/tests/tmp/tmptest_a1240387_08b8_429f_972b_b1189992d689/test_tstorage_selfdestruct.py#L219"
        },
        "config" : {
            "blobSchedule" : {
                "Cancun" : {
                    "baseFeeUpdateFraction" : "0x32f0ed",
                    "max" : "0x06",
                    "target" : "0x03"
                }
            },
            "chainid" : "0x01"
        },
        "env" : {
            "currentBaseFee" : "0x07",
            "currentCoinbase" : "0x2adc25665018aa1fe0e6bc666dac8fc2697ff9ba",
            "currentDifficulty" : "0x00",
            "currentExcessBlobGas" : "0x00",
            "currentGasLimit" : "0x016345785d8a0000",
            "currentNumber" : "0x01",
            "currentRandom" : "0x0000000000000000000000000000000000000000000000000000000000000000",
            "currentTimestamp" : "0x03e8"
        },
        "post" : {
            "Cancun" : [
                {
                    "hash" : "0xe2d0b8cd45326a39abd1af47cd578fb32c3fd39617ff19e8b1e635eac83fa454",
                    "indexes" : {
                        "data" : 0,
                        "gas" : 0,
                        "value" : 0
                    },
                    "logs" : "0x1dcc4de8dec75d7aab85b567b6ccd41ad312451b948a7413f0a142fd40d49347",
                    "state" : {
                        "0x0000000000000000000000000000000000001000" : {
                            "balance" : "0x00",
                            "code" : "0x3660006000373660006000f06000556001600052602060006020600060006000545af16001556002600052602060006020600060006000545af1600255600051600355",
                            "nonce" : "0x02",
                            "storage" : {
                                "0x00" : "0x5bafcc0c93ecd8022925d7fd89da1c6250850e19",
                                "0x01" : "0x01",
                                "0x02" : "0x01",
                                "0x03" : "0x0100"
                            }
                        },
                        "0x2adc25665018aa1fe0e6bc666dac8fc2697ff9ba" : {
                            "balance" : "0x077514",
                            "code" : "0x",
                            "nonce" : "0x00",
                            "storage" : {
                            }
                        },
                        "0xa94f5374fce5edbc8e2a8697c15331677e6ebf0b" : {
                            "balance" : "0x3635c9adc5de872468",
                            "code" : "0x",
                            "nonce" : "0x01",
                            "storage" : {
                            }
                        }
                    },
                    "txbytes" : "0xf8a8800a830f424094000000000000000000000000000000000000100080b84761003c600081600b8239f36001600035146024580157600260003514600858015760235801565b60ff5c60005260206000f360125801565b61010060ff5d6000ff60035801565b26a0b04988e370667953120597b25fe1f4a264c734013cae2b9a940ce08cb8b13edaa04bceb02bfc3a81f11e6ef8747044c514d445caca22a2e966f6802f2c03943981"
                }
            ]
        },
        "pre" : {
            "0x0000000000000000000000000000000000001000" : {
                "balance" : "0x00",
                "code" : "0x3660006000373660006000f06000556001600052602060006020600060006000545af16001556002600052602060006020600060006000545af1600255600051600355",
                "nonce" : "0x01",
                "storage" : {
                }
            },
            "0xa94f5374fce5edbc8e2a8697c15331677e6ebf0b" : {
                "balance" : "0x3635c9adc5dea00000",
                "code" : "0x",
                "nonce" : "0x00",
                "storage" : {
                }
            }
        },
        "transaction" : {
            "data" : [
                "0x61003c600081600b8239f36001600035146024580157600260003514600858015760235801565b60ff5c60005260206000f360125801565b61010060ff5d6000ff60035801565b"
            ],
            "gasLimit" : [
                "0x0f4240"
            ],
            "gasPrice" : "0x0a",
            "nonce" : "0x00",
            "secretKey" : "0x45a915e4d060149eb4365960e6a7a45f334393093061116b197e3240065ff2d8",
            "sender" : "0xa94f5374fce5edbc8e2a8697c15331677e6ebf0b",
            "to" : "0x0000000000000000000000000000000000001000",
            "value" : [
                "0x00"
            ]
        }
    },
    "src/GeneralStateTestsFiller/Pyspecs/cancun/eip1153_tstore/test_tstorage_selfdestruct.py::test_reentrant_selfdestructing_call[fork_Cancun-state_test-tload_after_selfdestruct_pre_existing_contract]" : {
        "_info" : {
            "comment" : "`execution-spec-tests` generated test",
            "description" : "Test function documentation:\nTest transient storage in different reentrancy contexts after selfdestructing.",
            "filling-rpc-server" : "ethereum-spec-evm 0.1.0 (Git commit: 0d5cdb0351ff34b8ef13c4c07d9fa19999c73f0b)",
            "filling-tool-version" : "retesteth-0.3.2-legacy+commit.3ee677f4.Linux.g++",
            "filling-transition-tool" : "ethereum-spec-evm-resolver 0.0.1",
            "fixture_format" : "state_test",
            "generatedTestHash" : "414a5d5b10e2a57b06ee10158b916dbf9ce224cc5fb86509a041a3aa2873c027",
            "hash" : "0x24fcadaa52efa060f74c18b62e37781d417863fa14410d2a3c478e6ba3509f56",
            "lllcversion" : "Version: 0.5.14-develop.2024.11.5+commit.b2b86751.mod.Linux.g++",
            "solidity" : "Version: 0.8.24+commit.e11b9ed9.Linux.g++",
            "source" : "src/GeneralStateTestsFiller/Pyspecs/cancun/eip1153_tstore/test_tstorage_selfdestruct.py",
            "sourceHash" : "4d27f25a4804708394fd3a4d0354f9bfbdb1441df43ace9e9d46ea62ad95e0e9",
            "url" : "https://github.com/ethereum/execution-spec-tests/blob/0d5cdb0351ff34b8ef13c4c07d9fa19999c73f0b/tests/tmp/tmptest_a1240387_08b8_429f_972b_b1189992d689/test_tstorage_selfdestruct.py#L219"
        },
        "config" : {
            "blobSchedule" : {
                "Cancun" : {
                    "baseFeeUpdateFraction" : "0x32f0ed",
                    "max" : "0x06",
                    "target" : "0x03"
                }
            },
            "chainid" : "0x01"
        },
        "env" : {
            "currentBaseFee" : "0x07",
            "currentCoinbase" : "0x2adc25665018aa1fe0e6bc666dac8fc2697ff9ba",
            "currentDifficulty" : "0x00",
            "currentExcessBlobGas" : "0x00",
            "currentGasLimit" : "0x016345785d8a0000",
            "currentNumber" : "0x01",
            "currentRandom" : "0x0000000000000000000000000000000000000000000000000000000000000000",
            "currentTimestamp" : "0x03e8"
        },
        "post" : {
            "Cancun" : [
                {
                    "hash" : "0x85ceccf2a727617889a3bf8c5378982801ebfa6d0c6764a470ecc277e012ed22",
                    "indexes" : {
                        "data" : 0,
                        "gas" : 0,
                        "value" : 0
                    },
                    "logs" : "0x1dcc4de8dec75d7aab85b567b6ccd41ad312451b948a7413f0a142fd40d49347",
                    "state" : {
                        "0x0000000000000000000000000000000000001000" : {
                            "balance" : "0x00",
                            "code" : "0x6000356000556001600052602060006020600060006000545af16001556002600052602060006020600060006000545af1600255600051600355",
                            "nonce" : "0x01",
                            "storage" : {
                                "0x00" : "0x1100",
                                "0x01" : "0x01",
                                "0x02" : "0x01",
                                "0x03" : "0x0100"
                            }
                        },
                        "0x0000000000000000000000000000000000001100" : {
                            "balance" : "0x00",
                            "code" : "0x6001600035146024580157600260003514600858015760235801565b60ff5c60005260206000f360125801565b61010060ff5d6000ff60035801565b",
                            "nonce" : "0x01",
                            "storage" : {
                            }
                        },
                        "0x2adc25665018aa1fe0e6bc666dac8fc2697ff9ba" : {
                            "balance" : "0x058374",
                            "code" : "0x",
                            "nonce" : "0x00",
                            "storage" : {
                            }
                        },
                        "0xa94f5374fce5edbc8e2a8697c15331677e6ebf0b" : {
                            "balance" : "0x3635c9adc5de8d9f28",
                            "code" : "0x",
                            "nonce" : "0x01",
                            "storage" : {
                            }
                        }
                    },
                    "txbytes" : "0xf880800a830f424094000000000000000000000000000000000000100080a0000000000000000000000000000000000000000000000000000000000000110025a068c1cad412d7a593c6eb1dba89c6cb8d20e266a6ca601325a087c63112aba4c1a0077cdf143733043b6d25d2779d4ee4ec552ea40eab5651c0e6425e772105911a"
                }
            ]
        },
        "pre" : {
            "0x0000000000000000000000000000000000001000" : {
                "balance" : "0x00",
                "code" : "0x6000356000556001600052602060006020600060006000545af16001556002600052602060006020600060006000545af1600255600051600355",
                "nonce" : "0x01",
                "storage" : {
                }
            },
            "0x0000000000000000000000000000000000001100" : {
                "balance" : "0x00",
                "code" : "0x6001600035146024580157600260003514600858015760235801565b60ff5c60005260206000f360125801565b61010060ff5d6000ff60035801565b",
                "nonce" : "0x01",
                "storage" : {
                }
            },
            "0xa94f5374fce5edbc8e2a8697c15331677e6ebf0b" : {
                "balance" : "0x3635c9adc5dea00000",
                "code" : "0x",
                "nonce" : "0x00",
                "storage" : {
                }
            }
        },
        "transaction" : {
            "data" : [
                "0x0000000000000000000000000000000000000000000000000000000000001100"
            ],
            "gasLimit" : [
                "0x0f4240"
            ],
            "gasPrice" : "0x0a",
            "nonce" : "0x00",
            "secretKey" : "0x45a915e4d060149eb4365960e6a7a45f334393093061116b197e3240065ff2d8",
            "sender" : "0xa94f5374fce5edbc8e2a8697c15331677e6ebf0b",
            "to" : "0x0000000000000000000000000000000000001000",
            "value" : [
                "0x00"
            ]
        }
    },
    "src/GeneralStateTestsFiller/Pyspecs/cancun/eip1153_tstore/test_tstorage_selfdestruct.py::test_reentrant_selfdestructing_call[fork_Cancun-state_test-tstore_after_selfdestruct_new_contract]" : {
        "_info" : {
            "comment" : "`execution-spec-tests` generated test",
            "description" : "Test function documentation:\nTest transient storage in different reentrancy contexts after selfdestructing.",
            "filling-rpc-server" : "ethereum-spec-evm 0.1.0 (Git commit: 0d5cdb0351ff34b8ef13c4c07d9fa19999c73f0b)",
            "filling-tool-version" : "retesteth-0.3.2-legacy+commit.3ee677f4.Linux.g++",
            "filling-transition-tool" : "ethereum-spec-evm-resolver 0.0.1",
            "fixture_format" : "state_test",
            "generatedTestHash" : "53bb971525c580bf0d51f4ce59f1c0f33ded33832d3768f288fe502fd10e6daf",
            "hash" : "0x144007bd674d12ca66a3c4743bc4747165e6433a90d38fd35cb0eae9534be589",
            "lllcversion" : "Version: 0.5.14-develop.2024.11.5+commit.b2b86751.mod.Linux.g++",
            "solidity" : "Version: 0.8.24+commit.e11b9ed9.Linux.g++",
            "source" : "src/GeneralStateTestsFiller/Pyspecs/cancun/eip1153_tstore/test_tstorage_selfdestruct.py",
            "sourceHash" : "4d27f25a4804708394fd3a4d0354f9bfbdb1441df43ace9e9d46ea62ad95e0e9",
            "url" : "https://github.com/ethereum/execution-spec-tests/blob/0d5cdb0351ff34b8ef13c4c07d9fa19999c73f0b/tests/tmp/tmptest_a1240387_08b8_429f_972b_b1189992d689/test_tstorage_selfdestruct.py#L219"
        },
        "config" : {
            "blobSchedule" : {
                "Cancun" : {
                    "baseFeeUpdateFraction" : "0x32f0ed",
                    "max" : "0x06",
                    "target" : "0x03"
                }
            },
            "chainid" : "0x01"
        },
        "env" : {
            "currentBaseFee" : "0x07",
            "currentCoinbase" : "0x2adc25665018aa1fe0e6bc666dac8fc2697ff9ba",
            "currentDifficulty" : "0x00",
            "currentExcessBlobGas" : "0x00",
            "currentGasLimit" : "0x016345785d8a0000",
            "currentNumber" : "0x01",
            "currentRandom" : "0x0000000000000000000000000000000000000000000000000000000000000000",
            "currentTimestamp" : "0x03e8"
        },
        "post" : {
            "Cancun" : [
                {
                    "hash" : "0x365ed809e5928afe2d576a2bca98ba2d43ab12a764b3f4494e056aac4c3fd66e",
                    "indexes" : {
                        "data" : 0,
                        "gas" : 0,
                        "value" : 0
                    },
                    "logs" : "0x1dcc4de8dec75d7aab85b567b6ccd41ad312451b948a7413f0a142fd40d49347",
                    "state" : {
                        "0x0000000000000000000000000000000000001000" : {
                            "balance" : "0x00",
                            "code" : "0x3660006000373660006000f06000556001600052602060006020600060006000545af16001556002600052602060006020600060006000545af16002556003600052602060006020600060006000545af1600355600051600455",
                            "nonce" : "0x02",
                            "storage" : {
                                "0x00" : "0x5bafcc0c93ecd8022925d7fd89da1c6250850e19",
                                "0x01" : "0x01",
                                "0x02" : "0x01",
                                "0x03" : "0x01",
                                "0x04" : "0x0100"
                            }
                        },
                        "0x2adc25665018aa1fe0e6bc666dac8fc2697ff9ba" : {
                            "balance" : "0x08a702",
                            "code" : "0x",
                            "nonce" : "0x00",
                            "storage" : {
                            }
                        },
                        "0xa94f5374fce5edbc8e2a8697c15331677e6ebf0b" : {
                            "balance" : "0x3635c9adc5de8328a4",
                            "code" : "0x",
                            "nonce" : "0x01",
                            "storage" : {
                            }
                        }
                    },
                    "txbytes" : "0xf8b9800a830f424094000000000000000000000000000000000000100080b85861004d600081600b8239f3600160003514603b5801576002600035146024580157600360003514600858015760295801565b60ff5c60005260206000f360185801565b61010060ff5d600c5801565b6000ff60035801565b26a09e58c47052e8085ec473979424ca472c251f2533f9f982bd775b4ba299b68630a06fa92c1bbac3e80d219253e3a4963ca9c4ca40cdf6349962a68b4dd3cbb99bec"
                }
            ]
        },
        "pre" : {
            "0x0000000000000000000000000000000000001000" : {
                "balance" : "0x00",
                "code" : "0x3660006000373660006000f06000556001600052602060006020600060006000545af16001556002600052602060006020600060006000545af16002556003600052602060006020600060006000545af1600355600051600455",
                "nonce" : "0x01",
                "storage" : {
                }
            },
            "0xa94f5374fce5edbc8e2a8697c15331677e6ebf0b" : {
                "balance" : "0x3635c9adc5dea00000",
                "code" : "0x",
                "nonce" : "0x00",
                "storage" : {
                }
            }
        },
        "transaction" : {
            "data" : [
                "0x61004d600081600b8239f3600160003514603b5801576002600035146024580157600360003514600858015760295801565b60ff5c60005260206000f360185801565b61010060ff5d600c5801565b6000ff60035801565b"
            ],
            "gasLimit" : [
                "0x0f4240"
            ],
            "gasPrice" : "0x0a",
            "nonce" : "0x00",
            "secretKey" : "0x45a915e4d060149eb4365960e6a7a45f334393093061116b197e3240065ff2d8",
            "sender" : "0xa94f5374fce5edbc8e2a8697c15331677e6ebf0b",
            "to" : "0x0000000000000000000000000000000000001000",
            "value" : [
                "0x00"
            ]
        }
    },
    "src/GeneralStateTestsFiller/Pyspecs/cancun/eip1153_tstore/test_tstorage_selfdestruct.py::test_reentrant_selfdestructing_call[fork_Cancun-state_test-tstore_after_selfdestruct_pre_existing_contract]" : {
        "_info" : {
            "comment" : "`execution-spec-tests` generated test",
            "description" : "Test function documentation:\nTest transient storage in different reentrancy contexts after selfdestructing.",
            "filling-rpc-server" : "ethereum-spec-evm 0.1.0 (Git commit: 0d5cdb0351ff34b8ef13c4c07d9fa19999c73f0b)",
            "filling-tool-version" : "retesteth-0.3.2-legacy+commit.3ee677f4.Linux.g++",
            "filling-transition-tool" : "ethereum-spec-evm-resolver 0.0.1",
            "fixture_format" : "state_test",
            "generatedTestHash" : "7d04f89f4b3f824d398a64a701650d4c262e9b68e1d9f29864c4567ce140be1a",
            "hash" : "0xabf785e7ec967f946f220ae77fb5a3d7ba682e42e8a8337d1ec83611f4bcaf3a",
            "lllcversion" : "Version: 0.5.14-develop.2024.11.5+commit.b2b86751.mod.Linux.g++",
            "solidity" : "Version: 0.8.24+commit.e11b9ed9.Linux.g++",
            "source" : "src/GeneralStateTestsFiller/Pyspecs/cancun/eip1153_tstore/test_tstorage_selfdestruct.py",
            "sourceHash" : "4d27f25a4804708394fd3a4d0354f9bfbdb1441df43ace9e9d46ea62ad95e0e9",
            "url" : "https://github.com/ethereum/execution-spec-tests/blob/0d5cdb0351ff34b8ef13c4c07d9fa19999c73f0b/tests/tmp/tmptest_a1240387_08b8_429f_972b_b1189992d689/test_tstorage_selfdestruct.py#L219"
        },
        "config" : {
            "blobSchedule" : {
                "Cancun" : {
                    "baseFeeUpdateFraction" : "0x32f0ed",
                    "max" : "0x06",
                    "target" : "0x03"
                }
            },
            "chainid" : "0x01"
        },
        "env" : {
            "currentBaseFee" : "0x07",
            "currentCoinbase" : "0x2adc25665018aa1fe0e6bc666dac8fc2697ff9ba",
            "currentDifficulty" : "0x00",
            "currentExcessBlobGas" : "0x00",
            "currentGasLimit" : "0x016345785d8a0000",
            "currentNumber" : "0x01",
            "currentRandom" : "0x0000000000000000000000000000000000000000000000000000000000000000",
            "currentTimestamp" : "0x03e8"
        },
        "post" : {
            "Cancun" : [
                {
                    "hash" : "0xd2ee00e2cbfc88a78ef9173ea3f89c3556e05c143af1de145cd4e19d1ab4c891",
                    "indexes" : {
                        "data" : 0,
                        "gas" : 0,
                        "value" : 0
                    },
                    "logs" : "0x1dcc4de8dec75d7aab85b567b6ccd41ad312451b948a7413f0a142fd40d49347",
                    "state" : {
                        "0x0000000000000000000000000000000000001000" : {
                            "balance" : "0x00",
                            "code" : "0x6000356000556001600052602060006020600060006000545af16001556002600052602060006020600060006000545af16002556003600052602060006020600060006000545af1600355600051600455",
                            "nonce" : "0x01",
                            "storage" : {
                                "0x00" : "0x1100",
                                "0x01" : "0x01",
                                "0x02" : "0x01",
                                "0x03" : "0x01",
                                "0x04" : "0x0100"
                            }
                        },
                        "0x0000000000000000000000000000000000001100" : {
                            "balance" : "0x00",
                            "code" : "0x600160003514603b5801576002600035146024580157600360003514600858015760295801565b60ff5c60005260206000f360185801565b61010060ff5d600c5801565b6000ff60035801565b",
                            "nonce" : "0x01",
                            "storage" : {
                            }
                        },
                        "0x2adc25665018aa1fe0e6bc666dac8fc2697ff9ba" : {
                            "balance" : "0x068a6c",
                            "code" : "0x",
                            "nonce" : "0x00",
                            "storage" : {
                            }
                        },
                        "0xa94f5374fce5edbc8e2a8697c15331677e6ebf0b" : {
                            "balance" : "0x3635c9adc5de8a3298",
                            "code" : "0x",
                            "nonce" : "0x01",
                            "storage" : {
                            }
                        }
                    },
                    "txbytes" : "0xf880800a830f424094000000000000000000000000000000000000100080a0000000000000000000000000000000000000000000000000000000000000110025a068c1cad412d7a593c6eb1dba89c6cb8d20e266a6ca601325a087c63112aba4c1a0077cdf143733043b6d25d2779d4ee4ec552ea40eab5651c0e6425e772105911a"
                }
            ]
        },
        "pre" : {
            "0x0000000000000000000000000000000000001000" : {
                "balance" : "0x00",
                "code" : "0x6000356000556001600052602060006020600060006000545af16001556002600052602060006020600060006000545af16002556003600052602060006020600060006000545af1600355600051600455",
                "nonce" : "0x01",
                "storage" : {
                }
            },
            "0x0000000000000000000000000000000000001100" : {
                "balance" : "0x00",
                "code" : "0x600160003514603b5801576002600035146024580157600360003514600858015760295801565b60ff5c60005260206000f360185801565b61010060ff5d600c5801565b6000ff60035801565b",
                "nonce" : "0x01",
                "storage" : {
                }
            },
            "0xa94f5374fce5edbc8e2a8697c15331677e6ebf0b" : {
                "balance" : "0x3635c9adc5dea00000",
                "code" : "0x",
                "nonce" : "0x00",
                "storage" : {
                }
            }
        },
        "transaction" : {
            "data" : [
                "0x0000000000000000000000000000000000000000000000000000000000001100"
            ],
            "gasLimit" : [
                "0x0f4240"
            ],
            "gasPrice" : "0x0a",
            "nonce" : "0x00",
            "secretKey" : "0x45a915e4d060149eb4365960e6a7a45f334393093061116b197e3240065ff2d8",
            "sender" : "0xa94f5374fce5edbc8e2a8697c15331677e6ebf0b",
            "to" : "0x0000000000000000000000000000000000001000",
            "value" : [
                "0x00"
            ]
        }
    }
}