{
    "src/GeneralStateTestsFiller/Pyspecs/cancun/eip4844_blobs/test_blob_txs.py::test_blob_tx_attribute_gasprice_opcode[fork_Cancun-state_test-tx_gas_500000-opcode_GASPRICE-tx_max_fee_per_gas_100-tx_max_fee_per_blob_gas_delta_0-tx_max_priority_fee_per_gas_0]" : {
        "_info" : {
            "comment" : "`execution-spec-tests` generated test",
            "description" : "Test function documentation:\n\n    Test GASPRICE opcode to sanity check that the blob gas fee does not affect its calculation.\n\n    - No priority fee\n    - Priority fee below data fee\n    - Priority fee above data fee",
            "filling-rpc-server" : "ethereum-spec-evm 0.1.0 (Git commit: 0d5cdb0351ff34b8ef13c4c07d9fa19999c73f0b)",
            "filling-tool-version" : "retesteth-0.3.2-legacy+commit.3ee677f4.Linux.g++",
            "filling-transition-tool" : "ethereum-spec-evm-resolver 0.0.1",
            "fixture_format" : "state_test",
            "generatedTestHash" : "c748a3de64c31c57007336bc4170bdf1b6a473ef9decdbcde57109e51bb49cbc",
            "hash" : "0x6862fc2ef91f514f567521a65fef71f1cfb7bea014aa0a383f617520d5f6452e",
            "lllcversion" : "Version: 0.5.14-develop.2024.11.5+commit.b2b86751.mod.Linux.g++",
            "solidity" : "Version: 0.8.24+commit.e11b9ed9.Linux.g++",
            "source" : "src/GeneralStateTestsFiller/Pyspecs/cancun/eip4844_blobs/test_blob_txs.py",
            "sourceHash" : "3cd8a5f6419d14c7bbb03936f24c140fcb1ae86a8f5d1011e2fd347a3b7e90af",
            "url" : "https://github.com/ethereum/execution-spec-tests/blob/0d5cdb0351ff34b8ef13c4c07d9fa19999c73f0b/tests/tmp/tmptest_44f577d6_0ab9_4cab_a379_8e18da0bcb3f/test_blob_txs.py#L1261"
        },
        "config" : {
            "blobSchedule" : {
                "Cancun" : {
                    "baseFeeUpdateFraction" : "0x32f0ed",
                    "max" : "0x06",
                    "target" : "0x03"
                }
            },
            "chainid" : "0x01"
        },
        "env" : {
            "currentBaseFee" : "0x07",
            "currentCoinbase" : "0x2adc25665018aa1fe0e6bc666dac8fc2697ff9ba",
            "currentDifficulty" : "0x00",
            "currentExcessBlobGas" : "0x0e0000",
            "currentGasLimit" : "0x016345785d8a0000",
            "currentNumber" : "0x01",
            "currentRandom" : "0x0000000000000000000000000000000000000000000000000000000000000000",
            "currentTimestamp" : "0x03e8"
        },
        "post" : {
            "Cancun" : [
                {
                    "hash" : "0xe945fbb6749fb3d92d4a2f28ca9e408654e723b2519fd0ed196e4a177d5cf1ed",
                    "indexes" : {
                        "data" : 0,
                        "gas" : 0,
                        "value" : 0
                    },
                    "logs" : "0x1dcc4de8dec75d7aab85b567b6ccd41ad312451b948a7413f0a142fd40d49347",
                    "state" : {
                        "0x0000000000000000000000000000000000001000" : {
                            "balance" : "0x01",
                            "code" : "0x3a600055",
                            "nonce" : "0x01",
                            "storage" : {
                                "0x00" : "0x07"
                            }
                        },
                        "0xa94f5374fce5edbc8e2a8697c15331677e6ebf0b" : {
                            "balance" : "0x02f655d9",
                            "code" : "0x",
                            "nonce" : "0x01",
                            "storage" : {
                            }
                        }
                    },
                    "txbytes" : "0x03f886018080648307a1209400000000000000000000000000000000000010000180c001e1a0010000000000000000000000000000000000000000000000000000000000000001a01b115378bb9110dfe43b793d1ab294871cbe61353c5919875baf05ce80a24673a0467045b9f673e18ed5c7034faed60dd26537727fed42e584c8f7c8266a7ad525"
                }
            ]
        },
        "pre" : {
            "0x0000000000000000000000000000000000001000" : {
                "balance" : "0x00",
                "code" : "0x3a600055",
                "nonce" : "0x01",
                "storage" : {
                }
            },
            "0xa94f5374fce5edbc8e2a8697c15331677e6ebf0b" : {
                "balance" : "0x02fcf081",
                "code" : "0x",
                "nonce" : "0x00",
                "storage" : {
                }
            }
        },
        "transaction" : {
            "accessLists" : [
                [
                ]
            ],
            "blobVersionedHashes" : [
                "0x0100000000000000000000000000000000000000000000000000000000000000"
            ],
            "data" : [
                "0x"
            ],
            "gasLimit" : [
                "0x07a120"
            ],
            "maxFeePerBlobGas" : "0x01",
            "maxFeePerGas" : "0x64",
            "maxPriorityFeePerGas" : "0x00",
            "nonce" : "0x00",
            "secretKey" : "0x45a915e4d060149eb4365960e6a7a45f334393093061116b197e3240065ff2d8",
            "sender" : "0xa94f5374fce5edbc8e2a8697c15331677e6ebf0b",
            "to" : "0x0000000000000000000000000000000000001000",
            "value" : [
                "0x01"
            ]
        }
    },
    "src/GeneralStateTestsFiller/Pyspecs/cancun/eip4844_blobs/test_blob_txs.py::test_blob_tx_attribute_gasprice_opcode[fork_Cancun-state_test-tx_gas_500000-opcode_GASPRICE-tx_max_fee_per_gas_100-tx_max_fee_per_blob_gas_delta_0-tx_max_priority_fee_per_gas_2]" : {
        "_info" : {
            "comment" : "`execution-spec-tests` generated test",
            "description" : "Test function documentation:\n\n    Test GASPRICE opcode to sanity check that the blob gas fee does not affect its calculation.\n\n    - No priority fee\n    - Priority fee below data fee\n    - Priority fee above data fee",
            "filling-rpc-server" : "ethereum-spec-evm 0.1.0 (Git commit: 0d5cdb0351ff34b8ef13c4c07d9fa19999c73f0b)",
            "filling-tool-version" : "retesteth-0.3.2-legacy+commit.3ee677f4.Linux.g++",
            "filling-transition-tool" : "ethereum-spec-evm-resolver 0.0.1",
            "fixture_format" : "state_test",
            "generatedTestHash" : "b6d2d9f3b2772b082ca66d60a30329fb3dae794c1ffb5b6497435e48c06c7423",
            "hash" : "0x30501469c7def3fc93ec9d688bb45d22abfdafd69020c2635380b68dc0610ad3",
            "lllcversion" : "Version: 0.5.14-develop.2024.11.5+commit.b2b86751.mod.Linux.g++",
            "solidity" : "Version: 0.8.24+commit.e11b9ed9.Linux.g++",
            "source" : "src/GeneralStateTestsFiller/Pyspecs/cancun/eip4844_blobs/test_blob_txs.py",
            "sourceHash" : "3cd8a5f6419d14c7bbb03936f24c140fcb1ae86a8f5d1011e2fd347a3b7e90af",
            "url" : "https://github.com/ethereum/execution-spec-tests/blob/0d5cdb0351ff34b8ef13c4c07d9fa19999c73f0b/tests/tmp/tmptest_44f577d6_0ab9_4cab_a379_8e18da0bcb3f/test_blob_txs.py#L1261"
        },
        "config" : {
            "blobSchedule" : {
                "Cancun" : {
                    "baseFeeUpdateFraction" : "0x32f0ed",
                    "max" : "0x06",
                    "target" : "0x03"
                }
            },
            "chainid" : "0x01"
        },
        "env" : {
            "currentBaseFee" : "0x07",
            "currentCoinbase" : "0x2adc25665018aa1fe0e6bc666dac8fc2697ff9ba",
            "currentDifficulty" : "0x00",
            "currentExcessBlobGas" : "0x0e0000",
            "currentGasLimit" : "0x016345785d8a0000",
            "currentNumber" : "0x01",
            "currentRandom" : "0x0000000000000000000000000000000000000000000000000000000000000000",
            "currentTimestamp" : "0x03e8"
        },
        "post" : {
            "Cancun" : [
                {
                    "hash" : "0x37613804c4cda81f68639bd98143105db4157e9c3c4892260e027695fa407dd1",
                    "indexes" : {
                        "data" : 0,
                        "gas" : 0,
                        "value" : 0
                    },
                    "logs" : "0x1dcc4de8dec75d7aab85b567b6ccd41ad312451b948a7413f0a142fd40d49347",
                    "state" : {
                        "0x0000000000000000000000000000000000001000" : {
                            "balance" : "0x01",
                            "code" : "0x3a600055",
                            "nonce" : "0x01",
                            "storage" : {
                                "0x00" : "0x09"
                            }
                        },
                        "0x2adc25665018aa1fe0e6bc666dac8fc2697ff9ba" : {
                            "balance" : "0x0150c2",
                            "code" : "0x",
                            "nonce" : "0x00",
                            "storage" : {
                            }
                        },
                        "0xa94f5374fce5edbc8e2a8697c15331677e6ebf0b" : {
                            "balance" : "0x02f50517",
                            "code" : "0x",
                            "nonce" : "0x01",
                            "storage" : {
                            }
                        }
                    },
                    "txbytes" : "0x03f886018002648307a1209400000000000000000000000000000000000010000180c001e1a0010000000000000000000000000000000000000000000000000000000000000080a06e3dbe9f326ae4a3d6c3dcd494b98febdab0f61e9dfa5de0d10e36321bd9c8f8a0567701baf0eb5fcf781f37e37715af959450f7e1b07cedb75a2c733a73630bb6"
                }
            ]
        },
        "pre" : {
            "0x0000000000000000000000000000000000001000" : {
                "balance" : "0x00",
                "code" : "0x3a600055",
                "nonce" : "0x01",
                "storage" : {
                }
            },
            "0xa94f5374fce5edbc8e2a8697c15331677e6ebf0b" : {
                "balance" : "0x02fcf081",
                "code" : "0x",
                "nonce" : "0x00",
                "storage" : {
                }
            }
        },
        "transaction" : {
            "accessLists" : [
                [
                ]
            ],
            "blobVersionedHashes" : [
                "0x0100000000000000000000000000000000000000000000000000000000000000"
            ],
            "data" : [
                "0x"
            ],
            "gasLimit" : [
                "0x07a120"
            ],
            "maxFeePerBlobGas" : "0x01",
            "maxFeePerGas" : "0x64",
            "maxPriorityFeePerGas" : "0x02",
            "nonce" : "0x00",
            "secretKey" : "0x45a915e4d060149eb4365960e6a7a45f334393093061116b197e3240065ff2d8",
            "sender" : "0xa94f5374fce5edbc8e2a8697c15331677e6ebf0b",
            "to" : "0x0000000000000000000000000000000000001000",
            "value" : [
                "0x01"
            ]
        }
    },
    "src/GeneralStateTestsFiller/Pyspecs/cancun/eip4844_blobs/test_blob_txs.py::test_blob_tx_attribute_gasprice_opcode[fork_Cancun-state_test-tx_gas_500000-opcode_GASPRICE-tx_max_fee_per_gas_100-tx_max_fee_per_blob_gas_delta_1-tx_max_priority_fee_per_gas_0]" : {
        "_info" : {
            "comment" : "`execution-spec-tests` generated test",
            "description" : "Test function documentation:\n\n    Test GASPRICE opcode to sanity check that the blob gas fee does not affect its calculation.\n\n    - No priority fee\n    - Priority fee below data fee\n    - Priority fee above data fee",
            "filling-rpc-server" : "ethereum-spec-evm 0.1.0 (Git commit: 0d5cdb0351ff34b8ef13c4c07d9fa19999c73f0b)",
            "filling-tool-version" : "retesteth-0.3.2-legacy+commit.3ee677f4.Linux.g++",
            "filling-transition-tool" : "ethereum-spec-evm-resolver 0.0.1",
            "fixture_format" : "state_test",
            "generatedTestHash" : "e98d93e517499f09d61478d373f41cc48162bec49430d8ce397f61297f870ed4",
            "hash" : "0xde274f95ad8fb6bb164ef7409ac1c63ba8ce60cfa5c9405b20069acf832a010a",
            "lllcversion" : "Version: 0.5.14-develop.2024.11.5+commit.b2b86751.mod.Linux.g++",
            "solidity" : "Version: 0.8.24+commit.e11b9ed9.Linux.g++",
            "source" : "src/GeneralStateTestsFiller/Pyspecs/cancun/eip4844_blobs/test_blob_txs.py",
            "sourceHash" : "3cd8a5f6419d14c7bbb03936f24c140fcb1ae86a8f5d1011e2fd347a3b7e90af",
            "url" : "https://github.com/ethereum/execution-spec-tests/blob/0d5cdb0351ff34b8ef13c4c07d9fa19999c73f0b/tests/tmp/tmptest_44f577d6_0ab9_4cab_a379_8e18da0bcb3f/test_blob_txs.py#L1261"
        },
        "config" : {
            "blobSchedule" : {
                "Cancun" : {
                    "baseFeeUpdateFraction" : "0x32f0ed",
                    "max" : "0x06",
                    "target" : "0x03"
                }
            },
            "chainid" : "0x01"
        },
        "env" : {
            "currentBaseFee" : "0x07",
            "currentCoinbase" : "0x2adc25665018aa1fe0e6bc666dac8fc2697ff9ba",
            "currentDifficulty" : "0x00",
            "currentExcessBlobGas" : "0x0e0000",
            "currentGasLimit" : "0x016345785d8a0000",
            "currentNumber" : "0x01",
            "currentRandom" : "0x0000000000000000000000000000000000000000000000000000000000000000",
            "currentTimestamp" : "0x03e8"
        },
        "post" : {
            "Cancun" : [
                {
                    "hash" : "0x961c5d51a1255fc4dd001386e0e3c8b10771fde48afea1ac073e7174fa3c2a87",
                    "indexes" : {
                        "data" : 0,
                        "gas" : 0,
                        "value" : 0
                    },
                    "logs" : "0x1dcc4de8dec75d7aab85b567b6ccd41ad312451b948a7413f0a142fd40d49347",
                    "state" : {
                        "0x0000000000000000000000000000000000001000" : {
                            "balance" : "0x01",
                            "code" : "0x3a600055",
                            "nonce" : "0x01",
                            "storage" : {
                                "0x00" : "0x07"
                            }
                        },
                        "0xa94f5374fce5edbc8e2a8697c15331677e6ebf0b" : {
                            "balance" : "0x02f855d9",
                            "code" : "0x",
                            "nonce" : "0x01",
                            "storage" : {
                            }
                        }
                    },
                    "txbytes" : "0x03f886018080648307a1209400000000000000000000000000000000000010000180c002e1a0010000000000000000000000000000000000000000000000000000000000000001a01ae50cac8f6d98d74d943c180fa1b6fc3ce04e34622e0e5744504c064067947ba04dd0b0079d96db5724fb7b087db68865ecb105e93be209cce92e274741f92a53"
                }
            ]
        },
        "pre" : {
            "0x0000000000000000000000000000000000001000" : {
                "balance" : "0x00",
                "code" : "0x3a600055",
                "nonce" : "0x01",
                "storage" : {
                }
            },
            "0xa94f5374fce5edbc8e2a8697c15331677e6ebf0b" : {
                "balance" : "0x02fef081",
                "code" : "0x",
                "nonce" : "0x00",
                "storage" : {
                }
            }
        },
        "transaction" : {
            "accessLists" : [
                [
                ]
            ],
            "blobVersionedHashes" : [
                "0x0100000000000000000000000000000000000000000000000000000000000000"
            ],
            "data" : [
                "0x"
            ],
            "gasLimit" : [
                "0x07a120"
            ],
            "maxFeePerBlobGas" : "0x02",
            "maxFeePerGas" : "0x64",
            "maxPriorityFeePerGas" : "0x00",
            "nonce" : "0x00",
            "secretKey" : "0x45a915e4d060149eb4365960e6a7a45f334393093061116b197e3240065ff2d8",
            "sender" : "0xa94f5374fce5edbc8e2a8697c15331677e6ebf0b",
            "to" : "0x0000000000000000000000000000000000001000",
            "value" : [
                "0x01"
            ]
        }
    },
    "src/GeneralStateTestsFiller/Pyspecs/cancun/eip4844_blobs/test_blob_txs.py::test_blob_tx_attribute_gasprice_opcode[fork_Cancun-state_test-tx_gas_500000-opcode_GASPRICE-tx_max_fee_per_gas_100-tx_max_fee_per_blob_gas_delta_1-tx_max_priority_fee_per_gas_2]" : {
        "_info" : {
            "comment" : "`execution-spec-tests` generated test",
            "description" : "Test function documentation:\n\n    Test GASPRICE opcode to sanity check that the blob gas fee does not affect its calculation.\n\n    - No priority fee\n    - Priority fee below data fee\n    - Priority fee above data fee",
            "filling-rpc-server" : "ethereum-spec-evm 0.1.0 (Git commit: 0d5cdb0351ff34b8ef13c4c07d9fa19999c73f0b)",
            "filling-tool-version" : "retesteth-0.3.2-legacy+commit.3ee677f4.Linux.g++",
            "filling-transition-tool" : "ethereum-spec-evm-resolver 0.0.1",
            "fixture_format" : "state_test",
            "generatedTestHash" : "fd79742c35b5185106ead66383351f64e34863e5832f4fe7738316231b841f1c",
            "hash" : "0x13c1d2e87d7a27e05704fa08df36a798a07c33d19910af801ea9b46b2a9981f5",
            "lllcversion" : "Version: 0.5.14-develop.2024.11.5+commit.b2b86751.mod.Linux.g++",
            "solidity" : "Version: 0.8.24+commit.e11b9ed9.Linux.g++",
            "source" : "src/GeneralStateTestsFiller/Pyspecs/cancun/eip4844_blobs/test_blob_txs.py",
            "sourceHash" : "3cd8a5f6419d14c7bbb03936f24c140fcb1ae86a8f5d1011e2fd347a3b7e90af",
            "url" : "https://github.com/ethereum/execution-spec-tests/blob/0d5cdb0351ff34b8ef13c4c07d9fa19999c73f0b/tests/tmp/tmptest_44f577d6_0ab9_4cab_a379_8e18da0bcb3f/test_blob_txs.py#L1261"
        },
        "config" : {
            "blobSchedule" : {
                "Cancun" : {
                    "baseFeeUpdateFraction" : "0x32f0ed",
                    "max" : "0x06",
                    "target" : "0x03"
                }
            },
            "chainid" : "0x01"
        },
        "env" : {
            "currentBaseFee" : "0x07",
            "currentCoinbase" : "0x2adc25665018aa1fe0e6bc666dac8fc2697ff9ba",
            "currentDifficulty" : "0x00",
            "currentExcessBlobGas" : "0x0e0000",
            "currentGasLimit" : "0x016345785d8a0000",
            "currentNumber" : "0x01",
            "currentRandom" : "0x0000000000000000000000000000000000000000000000000000000000000000",
            "currentTimestamp" : "0x03e8"
        },
        "post" : {
            "Cancun" : [
                {
                    "hash" : "0xe0abeed5136cf68fab84ae0134d70d6b6c458b22b30b57f88b6fa053a094e4c9",
                    "indexes" : {
                        "data" : 0,
                        "gas" : 0,
                        "value" : 0
                    },
                    "logs" : "0x1dcc4de8dec75d7aab85b567b6ccd41ad312451b948a7413f0a142fd40d49347",
                    "state" : {
                        "0x0000000000000000000000000000000000001000" : {
                            "balance" : "0x01",
                            "code" : "0x3a600055",
                            "nonce" : "0x01",
                            "storage" : {
                                "0x00" : "0x09"
                            }
                        },
                        "0x2adc25665018aa1fe0e6bc666dac8fc2697ff9ba" : {
                            "balance" : "0x0150c2",
                            "code" : "0x",
                            "nonce" : "0x00",
                            "storage" : {
                            }
                        },
                        "0xa94f5374fce5edbc8e2a8697c15331677e6ebf0b" : {
                            "balance" : "0x02f70517",
                            "code" : "0x",
                            "nonce" : "0x01",
                            "storage" : {
                            }
                        }
                    },
                    "txbytes" : "0x03f886018002648307a1209400000000000000000000000000000000000010000180c002e1a0010000000000000000000000000000000000000000000000000000000000000001a052bc3d9a94af1ae7ebc69f74124bda8f8557501bd86523d680ced431581faa56a05b7c2f22ba16b18dce028785b64005634f0e3b0a9e44993cc88faf8683cb2214"
                }
            ]
        },
        "pre" : {
            "0x0000000000000000000000000000000000001000" : {
                "balance" : "0x00",
                "code" : "0x3a600055",
                "nonce" : "0x01",
                "storage" : {
                }
            },
            "0xa94f5374fce5edbc8e2a8697c15331677e6ebf0b" : {
                "balance" : "0x02fef081",
                "code" : "0x",
                "nonce" : "0x00",
                "storage" : {
                }
            }
        },
        "transaction" : {
            "accessLists" : [
                [
                ]
            ],
            "blobVersionedHashes" : [
                "0x0100000000000000000000000000000000000000000000000000000000000000"
            ],
            "data" : [
                "0x"
            ],
            "gasLimit" : [
                "0x07a120"
            ],
            "maxFeePerBlobGas" : "0x02",
            "maxFeePerGas" : "0x64",
            "maxPriorityFeePerGas" : "0x02",
            "nonce" : "0x00",
            "secretKey" : "0x45a915e4d060149eb4365960e6a7a45f334393093061116b197e3240065ff2d8",
            "sender" : "0xa94f5374fce5edbc8e2a8697c15331677e6ebf0b",
            "to" : "0x0000000000000000000000000000000000001000",
            "value" : [
                "0x01"
            ]
        }
    }
}