{
    "src/GeneralStateTestsFiller/Pyspecs/cancun/eip4844_blobs/test_blob_txs.py::test_blob_type_tx_pre_fork[fork_ShanghaiToCancunAtTime15k-state_test-no_blob_tx]" : {
        "_info" : {
            "comment" : "`execution-spec-tests` generated test",
            "description" : "Test function documentation:\n\n    Reject blocks with blob type transactions before Cancun fork.\n\n    Blocks sent by NewPayloadV2 (Shanghai) that contain blob type transactions, furthermore blobs\n    field within NewPayloadV2 method must be computed as INVALID, due to an invalid block hash.",
            "filling-rpc-server" : "ethereum-spec-evm 0.1.0 (Git commit: 0d5cdb0351ff34b8ef13c4c07d9fa19999c73f0b)",
            "filling-tool-version" : "retesteth-0.3.2-legacy+commit.3ee677f4.Linux.g++",
            "filling-transition-tool" : "ethereum-spec-evm-resolver 0.0.1",
            "fixture_format" : "state_test",
            "generatedTestHash" : "8cf24eb87405bd4825779fd6332880d94acacb5f8d514907a61c4e782b666cc3",
            "hash" : "0x3f1eb6aadae06e45277ace8ff1137df988fcf3fd2cbf24e7b98347bdbab3d6fb",
            "lllcversion" : "Version: 0.5.14-develop.2024.11.5+commit.b2b86751.mod.Linux.g++",
            "solidity" : "Version: 0.8.24+commit.e11b9ed9.Linux.g++",
            "source" : "src/GeneralStateTestsFiller/Pyspecs/cancun/eip4844_blobs/test_blob_txs.py",
            "sourceHash" : "3cd8a5f6419d14c7bbb03936f24c140fcb1ae86a8f5d1011e2fd347a3b7e90af",
            "url" : "https://github.com/ethereum/execution-spec-tests/blob/0d5cdb0351ff34b8ef13c4c07d9fa19999c73f0b/tests/tmp/tmptest_44f577d6_0ab9_4cab_a379_8e18da0bcb3f/test_blob_txs.py#L1317"
        },
        "config" : {
            "chainid" : "0x01"
        },
        "env" : {
            "currentBaseFee" : "0x07",
            "currentCoinbase" : "0x2adc25665018aa1fe0e6bc666dac8fc2697ff9ba",
            "currentDifficulty" : "0x00",
            "currentGasLimit" : "0x016345785d8a0000",
            "currentNumber" : "0x01",
            "currentRandom" : "0x0000000000000000000000000000000000000000000000000000000000000000",
            "currentTimestamp" : "0x03e8"
        },
        "post" : {
            "Shanghai" : [
                {
                    "expectException" : "TransactionException.TYPE_3_TX_PRE_FORK|TransactionException.TYPE_3_TX_ZERO_BLOBS",
                    "hash" : "0x51f41d6ab2123b8c2bef303127d48c31e5b8ccee1bfde9f853f443fe9711c3fa",
                    "indexes" : {
                        "data" : 0,
                        "gas" : 0,
                        "value" : 0
                    },
                    "logs" : "0x1dcc4de8dec75d7aab85b567b6ccd41ad312451b948a7413f0a142fd40d49347",
                    "state" : {
                        "0xa94f5374fce5edbc8e2a8697c15331677e6ebf0b" : {
                            "balance" : "0x023e39",
                            "code" : "0x",
                            "nonce" : "0x00",
                            "storage" : {
                            }
                        }
                    },
                    "txbytes" : "0x03f86401808007825208948a0a19589531694250d570040a0c4b74576919b80180c001c001a07426ee04aab33fa24c2ec46acf22077f6dd214d9736ad9d656d5d02a2314cfc0a0598722a584a72b13506b83a79eaa5c8020f52cc9563489c204a2d79d5b8ff25f"
                }
            ]
        },
        "pre" : {
            "0xa94f5374fce5edbc8e2a8697c15331677e6ebf0b" : {
                "balance" : "0x023e39",
                "code" : "0x",
                "nonce" : "0x00",
                "storage" : {
                }
            }
        },
        "transaction" : {
            "accessLists" : [
                [
                ]
            ],
            "blobVersionedHashes" : [
            ],
            "data" : [
                "0x"
            ],
            "gasLimit" : [
                "0x5208"
            ],
            "maxFeePerBlobGas" : "0x01",
            "maxFeePerGas" : "0x07",
            "maxPriorityFeePerGas" : "0x00",
            "nonce" : "0x00",
            "secretKey" : "0x45a915e4d060149eb4365960e6a7a45f334393093061116b197e3240065ff2d8",
            "sender" : "0xa94f5374fce5edbc8e2a8697c15331677e6ebf0b",
            "to" : "0x8a0a19589531694250d570040a0c4b74576919b8",
            "value" : [
                "0x01"
            ]
        }
    },
    "src/GeneralStateTestsFiller/Pyspecs/cancun/eip4844_blobs/test_blob_txs.py::test_blob_type_tx_pre_fork[fork_ShanghaiToCancunAtTime15k-state_test-one_blob_tx]" : {
        "_info" : {
            "comment" : "`execution-spec-tests` generated test",
            "description" : "Test function documentation:\n\n    Reject blocks with blob type transactions before Cancun fork.\n\n    Blocks sent by NewPayloadV2 (Shanghai) that contain blob type transactions, furthermore blobs\n    field within NewPayloadV2 method must be computed as INVALID, due to an invalid block hash.",
            "filling-rpc-server" : "ethereum-spec-evm 0.1.0 (Git commit: 0d5cdb0351ff34b8ef13c4c07d9fa19999c73f0b)",
            "filling-tool-version" : "retesteth-0.3.2-legacy+commit.3ee677f4.Linux.g++",
            "filling-transition-tool" : "ethereum-spec-evm-resolver 0.0.1",
            "fixture_format" : "state_test",
            "generatedTestHash" : "f27e5d914e965f2e7b5d0c8fdfda63b1f5df5d5276c979a521ccd4fcf42828de",
            "hash" : "0x12ce2e26d5e1b8c7dce60b34731661556ae486a8b8e0949762f3cd2c7195f97e",
            "lllcversion" : "Version: 0.5.14-develop.2024.11.5+commit.b2b86751.mod.Linux.g++",
            "solidity" : "Version: 0.8.24+commit.e11b9ed9.Linux.g++",
            "source" : "src/GeneralStateTestsFiller/Pyspecs/cancun/eip4844_blobs/test_blob_txs.py",
            "sourceHash" : "3cd8a5f6419d14c7bbb03936f24c140fcb1ae86a8f5d1011e2fd347a3b7e90af",
            "url" : "https://github.com/ethereum/execution-spec-tests/blob/0d5cdb0351ff34b8ef13c4c07d9fa19999c73f0b/tests/tmp/tmptest_44f577d6_0ab9_4cab_a379_8e18da0bcb3f/test_blob_txs.py#L1317"
        },
        "config" : {
            "chainid" : "0x01"
        },
        "env" : {
            "currentBaseFee" : "0x07",
            "currentCoinbase" : "0x2adc25665018aa1fe0e6bc666dac8fc2697ff9ba",
            "currentDifficulty" : "0x00",
            "currentGasLimit" : "0x016345785d8a0000",
            "currentNumber" : "0x01",
            "currentRandom" : "0x0000000000000000000000000000000000000000000000000000000000000000",
            "currentTimestamp" : "0x03e8"
        },
        "post" : {
            "Shanghai" : [
                {
                    "expectException" : "TransactionException.TYPE_3_TX_PRE_FORK",
                    "hash" : "0x60801982e5816ed2f91320cea42769e76120d71d863d48bf8ec4d905455ae9cd",
                    "indexes" : {
                        "data" : 0,
                        "gas" : 0,
                        "value" : 0
                    },
                    "logs" : "0x1dcc4de8dec75d7aab85b567b6ccd41ad312451b948a7413f0a142fd40d49347",
                    "state" : {
                        "0xa94f5374fce5edbc8e2a8697c15331677e6ebf0b" : {
                            "balance" : "0x043e39",
                            "code" : "0x",
                            "nonce" : "0x00",
                            "storage" : {
                            }
                        }
                    },
                    "txbytes" : "0x03f88501808007825208948a0a19589531694250d570040a0c4b74576919b80180c001e1a0010000000000000000000000000000000000000000000000000000000000000001a06c120e55aeb31122c5caad29e69d28ec90abb71e089e0cdf4aebbf51bbc46a89a067983552dabf029ffb7ac58209a620d4a98eeeaf3df55bc9eb8e7684051ac70a"
                }
            ]
        },
        "pre" : {
            "0xa94f5374fce5edbc8e2a8697c15331677e6ebf0b" : {
                "balance" : "0x043e39",
                "code" : "0x",
                "nonce" : "0x00",
                "storage" : {
                }
            }
        },
        "transaction" : {
            "accessLists" : [
                [
                ]
            ],
            "blobVersionedHashes" : [
                "0x0100000000000000000000000000000000000000000000000000000000000000"
            ],
            "data" : [
                "0x"
            ],
            "gasLimit" : [
                "0x5208"
            ],
            "maxFeePerBlobGas" : "0x01",
            "maxFeePerGas" : "0x07",
            "maxPriorityFeePerGas" : "0x00",
            "nonce" : "0x00",
            "secretKey" : "0x45a915e4d060149eb4365960e6a7a45f334393093061116b197e3240065ff2d8",
            "sender" : "0xa94f5374fce5edbc8e2a8697c15331677e6ebf0b",
            "to" : "0x8a0a19589531694250d570040a0c4b74576919b8",
            "value" : [
                "0x01"
            ]
        }
    }
}