{
    "src/GeneralStateTestsFiller/Pyspecs/cancun/eip4844_blobs/test_blob_txs.py::test_invalid_tx_max_fee_per_blob_gas_state[fork_Cancun-insufficient_max_fee_per_blob_gas-state_test]" : {
        "_info" : {
            "comment" : "`execution-spec-tests` generated test",
            "description" : "Test function documentation:\n\n    Reject an invalid blob transaction.\n\n    - tx max_fee_per_blob_gas is barely not enough\n    - tx max_fee_per_blob_gas is zero",
            "filling-rpc-server" : "ethereum-spec-evm 0.1.0 (Git commit: 0d5cdb0351ff34b8ef13c4c07d9fa19999c73f0b)",
            "filling-tool-version" : "retesteth-0.3.2-legacy+commit.3ee677f4.Linux.g++",
            "filling-transition-tool" : "ethereum-spec-evm-resolver 0.0.1",
            "fixture_format" : "state_test",
            "generatedTestHash" : "0972e876a7e55853ebcbb583f58c69ee9a2c13cc019cec9920e450b559836fff",
            "hash" : "0xfe99e88983809f88c4ac8b3d6149b7bfbf7c1019f34ebbea106c4a3c4392f916",
            "lllcversion" : "Version: 0.5.14-develop.2024.11.5+commit.b2b86751.mod.Linux.g++",
            "solidity" : "Version: 0.8.24+commit.e11b9ed9.Linux.g++",
            "source" : "src/GeneralStateTestsFiller/Pyspecs/cancun/eip4844_blobs/test_blob_txs.py",
            "sourceHash" : "3cd8a5f6419d14c7bbb03936f24c140fcb1ae86a8f5d1011e2fd347a3b7e90af",
            "url" : "https://github.com/ethereum/execution-spec-tests/blob/0d5cdb0351ff34b8ef13c4c07d9fa19999c73f0b/tests/tmp/tmptest_44f577d6_0ab9_4cab_a379_8e18da0bcb3f/test_blob_txs.py#L498"
        },
        "config" : {
            "blobSchedule" : {
                "Cancun" : {
                    "baseFeeUpdateFraction" : "0x32f0ed",
                    "max" : "0x06",
                    "target" : "0x03"
                }
            },
            "chainid" : "0x01"
        },
        "env" : {
            "currentBaseFee" : "0x07",
            "currentCoinbase" : "0x2adc25665018aa1fe0e6bc666dac8fc2697ff9ba",
            "currentDifficulty" : "0x00",
            "currentExcessBlobGas" : "0x240000",
            "currentGasLimit" : "0x016345785d8a0000",
            "currentNumber" : "0x01",
            "currentRandom" : "0x0000000000000000000000000000000000000000000000000000000000000000",
            "currentTimestamp" : "0x03e8"
        },
        "post" : {
            "Cancun" : [
                {
                    "expectException" : "TransactionException.INSUFFICIENT_MAX_FEE_PER_BLOB_GAS",
                    "hash" : "0x60801982e5816ed2f91320cea42769e76120d71d863d48bf8ec4d905455ae9cd",
                    "indexes" : {
                        "data" : 0,
                        "gas" : 0,
                        "value" : 0
                    },
                    "logs" : "0x1dcc4de8dec75d7aab85b567b6ccd41ad312451b948a7413f0a142fd40d49347",
                    "state" : {
                        "0xa94f5374fce5edbc8e2a8697c15331677e6ebf0b" : {
                            "balance" : "0x043e39",
                            "code" : "0x",
                            "nonce" : "0x00",
                            "storage" : {
                            }
                        }
                    },
                    "txbytes" : "0x03f88501808007825208948a0a19589531694250d570040a0c4b74576919b80180c001e1a0010000000000000000000000000000000000000000000000000000000000000001a06c120e55aeb31122c5caad29e69d28ec90abb71e089e0cdf4aebbf51bbc46a89a067983552dabf029ffb7ac58209a620d4a98eeeaf3df55bc9eb8e7684051ac70a"
                }
            ]
        },
        "pre" : {
            "0xa94f5374fce5edbc8e2a8697c15331677e6ebf0b" : {
                "balance" : "0x043e39",
                "code" : "0x",
                "nonce" : "0x00",
                "storage" : {
                }
            }
        },
        "transaction" : {
            "accessLists" : [
                [
                ]
            ],
            "blobVersionedHashes" : [
                "0x0100000000000000000000000000000000000000000000000000000000000000"
            ],
            "data" : [
                "0x"
            ],
            "gasLimit" : [
                "0x5208"
            ],
            "maxFeePerBlobGas" : "0x01",
            "maxFeePerGas" : "0x07",
            "maxPriorityFeePerGas" : "0x00",
            "nonce" : "0x00",
            "secretKey" : "0x45a915e4d060149eb4365960e6a7a45f334393093061116b197e3240065ff2d8",
            "sender" : "0xa94f5374fce5edbc8e2a8697c15331677e6ebf0b",
            "to" : "0x8a0a19589531694250d570040a0c4b74576919b8",
            "value" : [
                "0x01"
            ]
        }
    },
    "src/GeneralStateTestsFiller/Pyspecs/cancun/eip4844_blobs/test_blob_txs.py::test_invalid_tx_max_fee_per_blob_gas_state[fork_Cancun-invalid_max_fee_per_blob_gas-state_test]" : {
        "_info" : {
            "comment" : "`execution-spec-tests` generated test",
            "description" : "Test function documentation:\n\n    Reject an invalid blob transaction.\n\n    - tx max_fee_per_blob_gas is barely not enough\n    - tx max_fee_per_blob_gas is zero",
            "filling-rpc-server" : "ethereum-spec-evm 0.1.0 (Git commit: 0d5cdb0351ff34b8ef13c4c07d9fa19999c73f0b)",
            "filling-tool-version" : "retesteth-0.3.2-legacy+commit.3ee677f4.Linux.g++",
            "filling-transition-tool" : "ethereum-spec-evm-resolver 0.0.1",
            "fixture_format" : "state_test",
            "generatedTestHash" : "4f0204cc2e036e4ab83a1e537b806599e214b90352a5c508b88954c99a8ed791",
            "hash" : "0x14fda4c28aef635842232e0a36361c57af6a4e63678936f0988fa621b583f1bd",
            "lllcversion" : "Version: 0.5.14-develop.2024.11.5+commit.b2b86751.mod.Linux.g++",
            "solidity" : "Version: 0.8.24+commit.e11b9ed9.Linux.g++",
            "source" : "src/GeneralStateTestsFiller/Pyspecs/cancun/eip4844_blobs/test_blob_txs.py",
            "sourceHash" : "3cd8a5f6419d14c7bbb03936f24c140fcb1ae86a8f5d1011e2fd347a3b7e90af",
            "url" : "https://github.com/ethereum/execution-spec-tests/blob/0d5cdb0351ff34b8ef13c4c07d9fa19999c73f0b/tests/tmp/tmptest_44f577d6_0ab9_4cab_a379_8e18da0bcb3f/test_blob_txs.py#L498"
        },
        "config" : {
            "blobSchedule" : {
                "Cancun" : {
                    "baseFeeUpdateFraction" : "0x32f0ed",
                    "max" : "0x06",
                    "target" : "0x03"
                }
            },
            "chainid" : "0x01"
        },
        "env" : {
            "currentBaseFee" : "0x07",
            "currentCoinbase" : "0x2adc25665018aa1fe0e6bc666dac8fc2697ff9ba",
            "currentDifficulty" : "0x00",
            "currentExcessBlobGas" : "0x00",
            "currentGasLimit" : "0x016345785d8a0000",
            "currentNumber" : "0x01",
            "currentRandom" : "0x0000000000000000000000000000000000000000000000000000000000000000",
            "currentTimestamp" : "0x03e8"
        },
        "post" : {
            "Cancun" : [
                {
                    "expectException" : "TransactionException.INSUFFICIENT_MAX_FEE_PER_BLOB_GAS",
                    "hash" : "0x51f41d6ab2123b8c2bef303127d48c31e5b8ccee1bfde9f853f443fe9711c3fa",
                    "indexes" : {
                        "data" : 0,
                        "gas" : 0,
                        "value" : 0
                    },
                    "logs" : "0x1dcc4de8dec75d7aab85b567b6ccd41ad312451b948a7413f0a142fd40d49347",
                    "state" : {
                        "0xa94f5374fce5edbc8e2a8697c15331677e6ebf0b" : {
                            "balance" : "0x023e39",
                            "code" : "0x",
                            "nonce" : "0x00",
                            "storage" : {
                            }
                        }
                    },
                    "txbytes" : "0x03f88501808007825208948a0a19589531694250d570040a0c4b74576919b80180c080e1a0010000000000000000000000000000000000000000000000000000000000000080a0e139c24284ed0b40e246644bf5af360aa5c100c521855b6a2e38bb2a4381dcd0a07558da5b85545c68103210e3259458bafde2945811850556577981e05b654de8"
                }
            ]
        },
        "pre" : {
            "0xa94f5374fce5edbc8e2a8697c15331677e6ebf0b" : {
                "balance" : "0x023e39",
                "code" : "0x",
                "nonce" : "0x00",
                "storage" : {
                }
            }
        },
        "transaction" : {
            "accessLists" : [
                [
                ]
            ],
            "blobVersionedHashes" : [
                "0x0100000000000000000000000000000000000000000000000000000000000000"
            ],
            "data" : [
                "0x"
            ],
            "gasLimit" : [
                "0x5208"
            ],
            "maxFeePerBlobGas" : "0x00",
            "maxFeePerGas" : "0x07",
            "maxPriorityFeePerGas" : "0x00",
            "nonce" : "0x00",
            "secretKey" : "0x45a915e4d060149eb4365960e6a7a45f334393093061116b197e3240065ff2d8",
            "sender" : "0xa94f5374fce5edbc8e2a8697c15331677e6ebf0b",
            "to" : "0x8a0a19589531694250d570040a0c4b74576919b8",
            "value" : [
                "0x01"
            ]
        }
    }
}