{
    "src/GeneralStateTestsFiller/Pyspecs/cancun/eip4844_blobs/test_point_evaluation_precompile.py::test_precompile_before_fork[fork_ShanghaiToCancunAtTime15k-state_test----correct_proof]" : {
        "_info" : {
            "comment" : "`execution-spec-tests` generated test",
            "description" : "Test function documentation:\nTest calling the Point Evaluation Precompile before the appropriate fork.",
            "eels-resolution" : {
                "branch" : "master",
                "commit" : "78fb726158c69d8fa164e28f195fabf6ab59b915",
                "git-url" : "https://github.com/ethereum/execution-specs.git"
            },
            "filling-rpc-server" : "evmone-t8n 0.14.0",
            "filling-tool-version" : "retesteth-0.3.2-legacy+commit.e0777df7.Linux.g++",
            "filling-transition-tool" : "ethereum-spec-evm-resolver 0.0.5",
            "fixture_format" : "state_test",
            "generatedTestHash" : "b2124d01a6a3d791913e0a09b89250adaf3a659dd69e802eaf903546038b61ab",
            "hash" : "0x04043bcd03015c881ec66c5fe7e9e66e3d4db1c93a86a6ff2e97665ac98423c3",
            "lllcversion" : "Version: 0.5.14-develop.2024.11.5+commit.b2b86751.mod.Linux.g++",
            "solidity" : "Version: 0.8.24+commit.e11b9ed9.Linux.g++",
            "source" : "src/GeneralStateTestsFiller/Pyspecs/cancun/eip4844_blobs/test_point_evaluation_precompile.py",
            "sourceHash" : "785f8005c94193d69aeeec594868d72a3c69e184c09c1bdad8659e226bc13dca",
            "url" : "https://github.com/ethereum/execution-spec-tests/blob/5c7583f98c6eb7b291a2e38c4bf2e3a93ea9d91c/tests/tmp/tmptest_8cb0504a_53c7_4014_a1b1_0ea05d5c6cd7/test_point_evaluation_precompile.py#L584"
        },
        "config" : {
            "chainid" : "0x01"
        },
        "env" : {
            "currentBaseFee" : "0x07",
            "currentCoinbase" : "0x2adc25665018aa1fe0e6bc666dac8fc2697ff9ba",
            "currentDifficulty" : "0x00",
            "currentGasLimit" : "0x016345785d8a0000",
            "currentNumber" : "0x01",
            "currentRandom" : "0x0000000000000000000000000000000000000000000000000000000000000000",
            "currentTimestamp" : "0x1d4c"
        },
        "post" : {
            "Shanghai" : [
                {
                    "hash" : "0x056409158da92cfc22301fc7b45ec4998fec8eac600f6308c710f8b9f9c6c7f2",
                    "indexes" : {
                        "data" : 0,
                        "gas" : 0,
                        "value" : 0
                    },
                    "logs" : "0x1dcc4de8dec75d7aab85b567b6ccd41ad312451b948a7413f0a142fd40d49347",
                    "state" : {
                        "0x000000000000000000000000000000000000000a" : {
                            "balance" : "0x01",
                            "code" : "0x",
                            "nonce" : "0x00",
                            "storage" : {
                            }
                        },
                        "0x0000000000000000000000000000000000001000" : {
                            "balance" : "0x00",
                            "code" : "0x366000600037600060003660006001600a5af14355",
                            "nonce" : "0x01",
                            "storage" : {
                                "0x01" : "0x01"
                            }
                        },
                        "0x2adc25665018aa1fe0e6bc666dac8fc2697ff9ba" : {
                            "balance" : "0x039df8",
                            "code" : "0x",
                            "nonce" : "0x00",
                            "storage" : {
                            }
                        },
                        "0xa94f5374fce5edbc8e2a8697c15331677e6ebf0b" : {
                            "balance" : "0x3635c9adc5de93f170",
                            "code" : "0x",
                            "nonce" : "0x01",
                            "storage" : {
                            }
                        }
                    },
                    "txbytes" : "0xf90121800a834c4b4094000000000000000000000000000000000000100080b8c0010657f37554c781402a22917dee2f75def7ab966d7b770905398eba3c444014623ce31cf9759a5c8daf3a357992f9f3dd7f9339d8998bc8e68373e54f00b75e0000000000000000000000000000000000000000000000000000000000000000c00000000000000000000000000000000000000000000000000000000000000000000000000000000000000000000000c0000000000000000000000000000000000000000000000000000000000000000000000000000000000000000000000025a0614ac66bd3ffb6b6aeca9e6309c4dfc6a776e88ffece9bfd68381015049b87f3a04da4c1f25e65364cd2a64d0105128a34e2e73dcc6c37706da0eebf41f4328d44"
                }
            ]
        },
        "pre" : {
            "0x0000000000000000000000000000000000001000" : {
                "balance" : "0x01",
                "code" : "0x366000600037600060003660006001600a5af14355",
                "nonce" : "0x01",
                "storage" : {
                }
            },
            "0xa94f5374fce5edbc8e2a8697c15331677e6ebf0b" : {
                "balance" : "0x3635c9adc5dea00000",
                "code" : "0x",
                "nonce" : "0x00",
                "storage" : {
                }
            }
        },
        "transaction" : {
            "data" : [
                "0x010657f37554c781402a22917dee2f75def7ab966d7b770905398eba3c444014623ce31cf9759a5c8daf3a357992f9f3dd7f9339d8998bc8e68373e54f00b75e0000000000000000000000000000000000000000000000000000000000000000c00000000000000000000000000000000000000000000000000000000000000000000000000000000000000000000000c00000000000000000000000000000000000000000000000000000000000000000000000000000000000000000000000"
            ],
            "gasLimit" : [
                "0x4c4b40"
            ],
            "gasPrice" : "0x0a",
            "nonce" : "0x00",
            "secretKey" : "0x45a915e4d060149eb4365960e6a7a45f334393093061116b197e3240065ff2d8",
            "sender" : "0xa94f5374fce5edbc8e2a8697c15331677e6ebf0b",
            "to" : "0x0000000000000000000000000000000000001000",
            "value" : [
                "0x00"
            ]
        }
    }
}