{
    "src/GeneralStateTestsFiller/Pyspecs/shanghai/eip4895_withdrawals/test_withdrawals.py::test_balance_within_block[fork_Cancun-blockchain_test]" : {
        "_info" : {
            "comment" : "`execution-spec-tests` generated test",
            "description" : "Test function documentation:\n\n    Test Withdrawal balance increase within the same block,\n    inside contract call.",
            "filling-rpc-server" : "ethereum-spec-evm 0.1.0 (Git commit: 0d5cdb0351ff34b8ef13c4c07d9fa19999c73f0b)",
            "filling-tool-version" : "retesteth-0.3.2-legacy+commit.3ee677f4.Linux.g++",
            "filling-transition-tool" : "ethereum-spec-evm-resolver 0.0.1",
            "fixture_format" : "blockchain_test",
            "generatedTestHash" : "596e0f3ac0c512935e2cff9506cdb92c0fa5b9ca842ed1e18f8076c811cad859",
            "hash" : "0x51e0648559fc48bac8f318832ae42ce854f2bcf210d4fd9aea8a2b311717c427",
            "lllcversion" : "Version: 0.5.14-develop.2024.11.5+commit.b2b86751.mod.Linux.g++",
            "solidity" : "Version: 0.8.24+commit.e11b9ed9.Linux.g++",
            "source" : "src/GeneralStateTestsFiller/Pyspecs/shanghai/eip4895_withdrawals/test_withdrawals.py",
            "sourceHash" : "fb5f669c6f7b51b12e59893b6d93a78d05b20abbb01b75ee895fc5d8ea7bd4ed",
            "url" : "https://github.com/ethereum/execution-spec-tests/blob/0d5cdb0351ff34b8ef13c4c07d9fa19999c73f0b/tests/tmp/tmptest_49426fea_d781_42db_814e_0ead22d06002/test_withdrawals.py#L184"
        },
        "blocks" : [
            {
                "blockHeader" : {
                    "baseFeePerGas" : "0x07",
                    "blobGasUsed" : "0x00",
                    "bloom" : "0x00000000000000000000000000000000000000000000000000000000000000000000000000000000000000000000000000000000000000000000000000000000000000000000000000000000000000000000000000000000000000000000000000000000000000000000000000000000000000000000000000000000000000000000000000000000000000000000000000000000000000000000000000000000000000000000000000000000000000000000000000000000000000000000000000000000000000000000000000000000000000000000000000000000000000000000000000000000000000000000000000000000000000000000000000000000",
                    "coinbase" : "0x2adc25665018aa1fe0e6bc666dac8fc2697ff9ba",
                    "difficulty" : "0x00",
                    "excessBlobGas" : "0x00",
                    "extraData" : "0x",
                    "gasLimit" : "0x016345785d8a0000",
                    "gasUsed" : "0xb3fc",
                    "hash" : "0x0e57dff4774e40e6c41542932a1427802ac874b046a3ea9bf841aba59c799a4b",
                    "mixHash" : "0x0000000000000000000000000000000000000000000000000000000000000000",
                    "nonce" : "0x0000000000000000",
                    "number" : "0x01",
                    "parentBeaconBlockRoot" : "0x0000000000000000000000000000000000000000000000000000000000000000",
                    "parentHash" : "0xe6a653b58b118c749988389a77c8af0b06a11349b7a70bb5f4bd1ef7730d62ea",
                    "receiptTrie" : "0xedd51b898476d717efe499381596337599116f4fc38d97ae73732bbdea9962f6",
                    "stateRoot" : "0xb83c3c5cb85e5491cc922436f75127111694080a99a4d1d84bbb5d0eace19aa2",
                    "timestamp" : "0x0c",
                    "transactionsTrie" : "0xe4be49f8aa311d6ad6f8ee0aa732064325968c76920ebb3cd646ea227423d22a",
                    "uncleHash" : "0x1dcc4de8dec75d7aab85b567b6ccd41ad312451b948a7413f0a142fd40d49347",
                    "withdrawalsRoot" : "0x8350a64250a5b0b6fe59a787f236fe1fa14ca80fed5d99f14653882b1d0ae4e3"
                },
                "blocknumber" : "1",
                "rlp" : "0xf902def9023ca0e6a653b58b118c749988389a77c8af0b06a11349b7a70bb5f4bd1ef7730d62eaa01dcc4de8dec75d7aab85b567b6ccd41ad312451b948a7413f0a142fd40d49347942adc25665018aa1fe0e6bc666dac8fc2697ff9baa0b83c3c5cb85e5491cc922436f75127111694080a99a4d1d84bbb5d0eace19aa2a0e4be49f8aa311d6ad6f8ee0aa732064325968c76920ebb3cd646ea227423d22aa0edd51b898476d717efe499381596337599116f4fc38d97ae73732bbdea9962f6b9010000000000000000000000000000000000000000000000000000000000000000000000000000000000000000000000000000000000000000000000000000000000000000000000000000000000000000000000000000000000000000000000000000000000000000000000000000000000000000000000000000000000000000000000000000000000000000000000000000000000000000000000000000000000000000000000000000000000000000000000000000000000000000000000000000000000000000000000000000000000000000000000000000000000000000000000000000000000000000000000000000000000000000000000000000000000800188016345785d8a000082b3fc0c80a0000000000000000000000000000000000000000000000000000000000000000088000000000000000007a08350a64250a5b0b6fe59a787f236fe1fa14ca80fed5d99f14653882b1d0ae4e38080a00000000000000000000000000000000000000000000000000000000000000000f882f880800a830186a094000000000000000000000000000000000000100080a00000000000000000000000008a0a19589531694250d570040a0c4b74576919b825a0d9aee523f90bef16289b3617933f01ba433f7c4f5aa19111ae6f7c87b850257da031acbff98568a6275b207b313f2dbffcfe1395ee83f8228fdc1da8962a6fb134c0d9d88080948a0a19589531694250d570040a0c4b74576919b801",
                "transactions" : [
                    {
                        "chainId" : "0x01",
                        "data" : "0x0000000000000000000000008a0a19589531694250d570040a0c4b74576919b8",
                        "gasLimit" : "0x0186a0",
                        "gasPrice" : "0x0a",
                        "nonce" : "0x00",
                        "r" : "0xd9aee523f90bef16289b3617933f01ba433f7c4f5aa19111ae6f7c87b850257d",
                        "s" : "0x31acbff98568a6275b207b313f2dbffcfe1395ee83f8228fdc1da8962a6fb134",
                        "sender" : "0xa94f5374fce5edbc8e2a8697c15331677e6ebf0b",
                        "to" : "0x0000000000000000000000000000000000001000",
                        "type" : "0x00",
                        "v" : "0x25",
                        "value" : "0x00"
                    }
                ],
                "uncleHeaders" : [
                ],
                "withdrawals" : [
                    {
                        "address" : "0x8a0a19589531694250d570040a0c4b74576919b8",
                        "amount" : "0x01",
                        "index" : "0x00",
                        "validatorIndex" : "0x00"
                    }
                ]
            },
            {
                "blockHeader" : {
                    "baseFeePerGas" : "0x07",
                    "blobGasUsed" : "0x00",
                    "bloom" : "0x00000000000000000000000000000000000000000000000000000000000000000000000000000000000000000000000000000000000000000000000000000000000000000000000000000000000000000000000000000000000000000000000000000000000000000000000000000000000000000000000000000000000000000000000000000000000000000000000000000000000000000000000000000000000000000000000000000000000000000000000000000000000000000000000000000000000000000000000000000000000000000000000000000000000000000000000000000000000000000000000000000000000000000000000000000000",
                    "coinbase" : "0x2adc25665018aa1fe0e6bc666dac8fc2697ff9ba",
                    "difficulty" : "0x00",
                    "excessBlobGas" : "0x00",
                    "extraData" : "0x",
                    "gasLimit" : "0x016345785d8a0000",
                    "gasUsed" : "0xb3fc",
                    "hash" : "0xc408a21abad09f6f5e5e22d0b0f5b8e9635b3bcc5ba900a9284e4e60facebc3a",
                    "mixHash" : "0x0000000000000000000000000000000000000000000000000000000000000000",
                    "nonce" : "0x0000000000000000",
                    "number" : "0x02",
                    "parentBeaconBlockRoot" : "0x0000000000000000000000000000000000000000000000000000000000000000",
                    "parentHash" : "0x0e57dff4774e40e6c41542932a1427802ac874b046a3ea9bf841aba59c799a4b",
                    "receiptTrie" : "0xedd51b898476d717efe499381596337599116f4fc38d97ae73732bbdea9962f6",
                    "stateRoot" : "0x9056151afb5bea80ec65a9be3f13db8bf578b4733aa2ee498431fa2cdfcbb0fc",
                    "timestamp" : "0x18",
                    "transactionsTrie" : "0x41165d157e980e9467720f127f0dd6fc8e62550cc622c972fdd4012f49293315",
                    "uncleHash" : "0x1dcc4de8dec75d7aab85b567b6ccd41ad312451b948a7413f0a142fd40d49347",
                    "withdrawalsRoot" : "0x56e81f171bcc55a6ff8345e692c0f86e5b48e01b996cadc001622fb5e363b421"
                },
                "blocknumber" : "2",
                "rlp" : "0xf902c5f9023ca00e57dff4774e40e6c41542932a1427802ac874b046a3ea9bf841aba59c799a4ba01dcc4de8dec75d7aab85b567b6ccd41ad312451b948a7413f0a142fd40d49347942adc25665018aa1fe0e6bc666dac8fc2697ff9baa09056151afb5bea80ec65a9be3f13db8bf578b4733aa2ee498431fa2cdfcbb0fca041165d157e980e9467720f127f0dd6fc8e62550cc622c972fdd4012f49293315a0edd51b898476d717efe499381596337599116f4fc38d97ae73732bbdea9962f6b9010000000000000000000000000000000000000000000000000000000000000000000000000000000000000000000000000000000000000000000000000000000000000000000000000000000000000000000000000000000000000000000000000000000000000000000000000000000000000000000000000000000000000000000000000000000000000000000000000000000000000000000000000000000000000000000000000000000000000000000000000000000000000000000000000000000000000000000000000000000000000000000000000000000000000000000000000000000000000000000000000000000000000000000000000000000000800288016345785d8a000082b3fc1880a0000000000000000000000000000000000000000000000000000000000000000088000000000000000007a056e81f171bcc55a6ff8345e692c0f86e5b48e01b996cadc001622fb5e363b4218080a00000000000000000000000000000000000000000000000000000000000000000f882f880010a830186a094000000000000000000000000000000000000100080a00000000000000000000000008a0a19589531694250d570040a0c4b74576919b825a0f9654ad36504ef9031d32687671053c01b2153ff8267a63525c4b14ea3f8468ba041c15c78b0ca80bc434959b55740886a7b225a64f9105a1f378b4f50b0373246c0c0",
                "transactions" : [
                    {
                        "chainId" : "0x01",
                        "data" : "0x0000000000000000000000008a0a19589531694250d570040a0c4b74576919b8",
                        "gasLimit" : "0x0186a0",
                        "gasPrice" : "0x0a",
                        "nonce" : "0x01",
                        "r" : "0xf9654ad36504ef9031d32687671053c01b2153ff8267a63525c4b14ea3f8468b",
                        "s" : "0x41c15c78b0ca80bc434959b55740886a7b225a64f9105a1f378b4f50b0373246",
                        "sender" : "0xa94f5374fce5edbc8e2a8697c15331677e6ebf0b",
                        "to" : "0x0000000000000000000000000000000000001000",
                        "type" : "0x00",
                        "v" : "0x25",
                        "value" : "0x00"
                    }
                ],
                "uncleHeaders" : [
                ],
                "withdrawals" : [
                ]
            }
        ],
        "config" : {
            "blobSchedule" : {
                "Cancun" : {
                    "baseFeeUpdateFraction" : "0x32f0ed",
                    "max" : "0x06",
                    "target" : "0x03"
                }
            },
            "chainid" : "0x01",
            "network" : "Cancun"
        },
        "genesisBlockHeader" : {
            "baseFeePerGas" : "0x07",
            "blobGasUsed" : "0x00",
            "bloom" : "0x00000000000000000000000000000000000000000000000000000000000000000000000000000000000000000000000000000000000000000000000000000000000000000000000000000000000000000000000000000000000000000000000000000000000000000000000000000000000000000000000000000000000000000000000000000000000000000000000000000000000000000000000000000000000000000000000000000000000000000000000000000000000000000000000000000000000000000000000000000000000000000000000000000000000000000000000000000000000000000000000000000000000000000000000000000000",
            "coinbase" : "0x0000000000000000000000000000000000000000",
            "difficulty" : "0x00",
            "excessBlobGas" : "0x00",
            "extraData" : "0x00",
            "gasLimit" : "0x016345785d8a0000",
            "gasUsed" : "0x00",
            "hash" : "0xe6a653b58b118c749988389a77c8af0b06a11349b7a70bb5f4bd1ef7730d62ea",
            "mixHash" : "0x0000000000000000000000000000000000000000000000000000000000000000",
            "nonce" : "0x0000000000000000",
            "number" : "0x00",
            "parentBeaconBlockRoot" : "0x0000000000000000000000000000000000000000000000000000000000000000",
            "parentHash" : "0x0000000000000000000000000000000000000000000000000000000000000000",
            "receiptTrie" : "0x56e81f171bcc55a6ff8345e692c0f86e5b48e01b996cadc001622fb5e363b421",
            "stateRoot" : "0xfef5d5d97a45d6473f3336a9e439e58e12b228d2fb250c58fd511b12df725cfe",
            "timestamp" : "0x00",
            "transactionsTrie" : "0x56e81f171bcc55a6ff8345e692c0f86e5b48e01b996cadc001622fb5e363b421",
            "uncleHash" : "0x1dcc4de8dec75d7aab85b567b6ccd41ad312451b948a7413f0a142fd40d49347",
            "withdrawalsRoot" : "0x56e81f171bcc55a6ff8345e692c0f86e5b48e01b996cadc001622fb5e363b421"
        },
        "genesisRLP" : "0xf90240f9023aa00000000000000000000000000000000000000000000000000000000000000000a01dcc4de8dec75d7aab85b567b6ccd41ad312451b948a7413f0a142fd40d49347940000000000000000000000000000000000000000a0fef5d5d97a45d6473f3336a9e439e58e12b228d2fb250c58fd511b12df725cfea056e81f171bcc55a6ff8345e692c0f86e5b48e01b996cadc001622fb5e363b421a056e81f171bcc55a6ff8345e692c0f86e5b48e01b996cadc001622fb5e363b421b9010000000000000000000000000000000000000000000000000000000000000000000000000000000000000000000000000000000000000000000000000000000000000000000000000000000000000000000000000000000000000000000000000000000000000000000000000000000000000000000000000000000000000000000000000000000000000000000000000000000000000000000000000000000000000000000000000000000000000000000000000000000000000000000000000000000000000000000000000000000000000000000000000000000000000000000000000000000000000000000000000000000000000000000000000000000000808088016345785d8a0000808000a0000000000000000000000000000000000000000000000000000000000000000088000000000000000007a056e81f171bcc55a6ff8345e692c0f86e5b48e01b996cadc001622fb5e363b4218080a00000000000000000000000000000000000000000000000000000000000000000c0c0c0",
        "lastblockhash" : "0xc408a21abad09f6f5e5e22d0b0f5b8e9635b3bcc5ba900a9284e4e60facebc3a",
        "network" : "Cancun",
        "postState" : {
            "0x0000000000000000000000000000000000001000" : {
                "balance" : "0x00",
                "code" : "0x600035314355",
                "nonce" : "0x01",
                "storage" : {
                    "0x01" : "0x3b9aca00",
                    "0x02" : "0x77359400"
                }
            },
            "0x000f3df6d732807ef1319fb7b8bb8522d0beac02" : {
                "balance" : "0x00",
                "code" : "0x3373fffffffffffffffffffffffffffffffffffffffe14604d57602036146024575f5ffd5b5f35801560495762001fff810690815414603c575f5ffd5b62001fff01545f5260205ff35b5f5ffd5b62001fff42064281555f359062001fff015500",
                "nonce" : "0x01",
                "storage" : {
                    "0x0c" : "0x0c",
                    "0x18" : "0x18"
                }
            },
            "0x2adc25665018aa1fe0e6bc666dac8fc2697ff9ba" : {
                "balance" : "0x0437e8",
                "code" : "0x",
                "nonce" : "0x00",
                "storage" : {
                }
            },
            "0x8a0a19589531694250d570040a0c4b74576919b8" : {
                "balance" : "0x77359400",
                "code" : "0x",
                "nonce" : "0x00",
                "storage" : {
                }
            },
            "0xa94f5374fce5edbc8e2a8697c15331677e6ebf0b" : {
                "balance" : "0x3635c9adc5de91f050",
                "code" : "0x",
                "nonce" : "0x02",
                "storage" : {
                }
            }
        },
        "pre" : {
            "0x0000000000000000000000000000000000001000" : {
                "balance" : "0x00",
                "code" : "0x600035314355",
                "nonce" : "0x01",
                "storage" : {
                }
            },
            "0x000f3df6d732807ef1319fb7b8bb8522d0beac02" : {
                "balance" : "0x00",
                "code" : "0x3373fffffffffffffffffffffffffffffffffffffffe14604d57602036146024575f5ffd5b5f35801560495762001fff810690815414603c575f5ffd5b62001fff01545f5260205ff35b5f5ffd5b62001fff42064281555f359062001fff015500",
                "nonce" : "0x01",
                "storage" : {
                }
            },
            "0x8a0a19589531694250d570040a0c4b74576919b8" : {
                "balance" : "0x3b9aca00",
                "code" : "0x",
                "nonce" : "0x00",
                "storage" : {
                }
            },
            "0xa94f5374fce5edbc8e2a8697c15331677e6ebf0b" : {
                "balance" : "0x3635c9adc5dea00000",
                "code" : "0x",
                "nonce" : "0x00",
                "storage" : {
                }
            }
        },
        "sealEngine" : "NoProof"
    },
    "src/GeneralStateTestsFiller/Pyspecs/shanghai/eip4895_withdrawals/test_withdrawals.py::test_balance_within_block[fork_Shanghai-blockchain_test]" : {
        "_info" : {
            "comment" : "`execution-spec-tests` generated test",
            "description" : "Test function documentation:\n\n    Test Withdrawal balance increase within the same block,\n    inside contract call.",
            "filling-rpc-server" : "ethereum-spec-evm 0.1.0 (Git commit: 0d5cdb0351ff34b8ef13c4c07d9fa19999c73f0b)",
            "filling-tool-version" : "retesteth-0.3.2-legacy+commit.3ee677f4.Linux.g++",
            "filling-transition-tool" : "ethereum-spec-evm-resolver 0.0.1",
            "fixture_format" : "blockchain_test",
            "generatedTestHash" : "13a2dfcc01cf6a74c37d5cfbc0be7a48d958e3eacd5b8cdb7a2020b18c08b0e9",
            "hash" : "0xd80194dbdfd5fb9f0039bb70d2f560bf5946bdbdd23c1fdd1cf34e3ca04d39f0",
            "lllcversion" : "Version: 0.5.14-develop.2024.11.5+commit.b2b86751.mod.Linux.g++",
            "solidity" : "Version: 0.8.24+commit.e11b9ed9.Linux.g++",
            "source" : "src/GeneralStateTestsFiller/Pyspecs/shanghai/eip4895_withdrawals/test_withdrawals.py",
            "sourceHash" : "fb5f669c6f7b51b12e59893b6d93a78d05b20abbb01b75ee895fc5d8ea7bd4ed",
            "url" : "https://github.com/ethereum/execution-spec-tests/blob/0d5cdb0351ff34b8ef13c4c07d9fa19999c73f0b/tests/tmp/tmptest_49426fea_d781_42db_814e_0ead22d06002/test_withdrawals.py#L184"
        },
        "blocks" : [
            {
                "blockHeader" : {
                    "baseFeePerGas" : "0x07",
                    "bloom" : "0x00000000000000000000000000000000000000000000000000000000000000000000000000000000000000000000000000000000000000000000000000000000000000000000000000000000000000000000000000000000000000000000000000000000000000000000000000000000000000000000000000000000000000000000000000000000000000000000000000000000000000000000000000000000000000000000000000000000000000000000000000000000000000000000000000000000000000000000000000000000000000000000000000000000000000000000000000000000000000000000000000000000000000000000000000000000",
                    "coinbase" : "0x2adc25665018aa1fe0e6bc666dac8fc2697ff9ba",
                    "difficulty" : "0x00",
                    "extraData" : "0x",
                    "gasLimit" : "0x016345785d8a0000",
                    "gasUsed" : "0xb3fc",
                    "hash" : "0xd3a1f6d7b3cadd1551d6e8ee976b714d7db1a5ab9dfdd5499f60c5cd74651bde",
                    "mixHash" : "0x0000000000000000000000000000000000000000000000000000000000000000",
                    "nonce" : "0x0000000000000000",
                    "number" : "0x01",
                    "parentHash" : "0xe4fa78a484e50eca953df999080f6c8621cd81e852067b1afc7059d88d2b313b",
                    "receiptTrie" : "0xedd51b898476d717efe499381596337599116f4fc38d97ae73732bbdea9962f6",
                    "stateRoot" : "0x1113f99eb6e20d9ad7db01e5987fa96a447e0af473ab14fc985f846388264cd6",
                    "timestamp" : "0x0c",
                    "transactionsTrie" : "0xe4be49f8aa311d6ad6f8ee0aa732064325968c76920ebb3cd646ea227423d22a",
                    "uncleHash" : "0x1dcc4de8dec75d7aab85b567b6ccd41ad312451b948a7413f0a142fd40d49347",
                    "withdrawalsRoot" : "0x8350a64250a5b0b6fe59a787f236fe1fa14ca80fed5d99f14653882b1d0ae4e3"
                },
                "blocknumber" : "1",
                "rlp" : "0xf902bbf90219a0e4fa78a484e50eca953df999080f6c8621cd81e852067b1afc7059d88d2b313ba01dcc4de8dec75d7aab85b567b6ccd41ad312451b948a7413f0a142fd40d49347942adc25665018aa1fe0e6bc666dac8fc2697ff9baa01113f99eb6e20d9ad7db01e5987fa96a447e0af473ab14fc985f846388264cd6a0e4be49f8aa311d6ad6f8ee0aa732064325968c76920ebb3cd646ea227423d22aa0edd51b898476d717efe499381596337599116f4fc38d97ae73732bbdea9962f6b9010000000000000000000000000000000000000000000000000000000000000000000000000000000000000000000000000000000000000000000000000000000000000000000000000000000000000000000000000000000000000000000000000000000000000000000000000000000000000000000000000000000000000000000000000000000000000000000000000000000000000000000000000000000000000000000000000000000000000000000000000000000000000000000000000000000000000000000000000000000000000000000000000000000000000000000000000000000000000000000000000000000000000000000000000000000000800188016345785d8a000082b3fc0c80a0000000000000000000000000000000000000000000000000000000000000000088000000000000000007a08350a64250a5b0b6fe59a787f236fe1fa14ca80fed5d99f14653882b1d0ae4e3f882f880800a830186a094000000000000000000000000000000000000100080a00000000000000000000000008a0a19589531694250d570040a0c4b74576919b825a0d9aee523f90bef16289b3617933f01ba433f7c4f5aa19111ae6f7c87b850257da031acbff98568a6275b207b313f2dbffcfe1395ee83f8228fdc1da8962a6fb134c0d9d88080948a0a19589531694250d570040a0c4b74576919b801",
                "transactions" : [
                    {
                        "chainId" : "0x01",
                        "data" : "0x0000000000000000000000008a0a19589531694250d570040a0c4b74576919b8",
                        "gasLimit" : "0x0186a0",
                        "gasPrice" : "0x0a",
                        "nonce" : "0x00",
                        "r" : "0xd9aee523f90bef16289b3617933f01ba433f7c4f5aa19111ae6f7c87b850257d",
                        "s" : "0x31acbff98568a6275b207b313f2dbffcfe1395ee83f8228fdc1da8962a6fb134",
                        "sender" : "0xa94f5374fce5edbc8e2a8697c15331677e6ebf0b",
                        "to" : "0x0000000000000000000000000000000000001000",
                        "type" : "0x00",
                        "v" : "0x25",
                        "value" : "0x00"
                    }
                ],
                "uncleHeaders" : [
                ],
                "withdrawals" : [
                    {
                        "address" : "0x8a0a19589531694250d570040a0c4b74576919b8",
                        "amount" : "0x01",
                        "index" : "0x00",
                        "validatorIndex" : "0x00"
                    }
                ]
            },
            {
                "blockHeader" : {
                    "baseFeePerGas" : "0x07",
                    "bloom" : "0x00000000000000000000000000000000000000000000000000000000000000000000000000000000000000000000000000000000000000000000000000000000000000000000000000000000000000000000000000000000000000000000000000000000000000000000000000000000000000000000000000000000000000000000000000000000000000000000000000000000000000000000000000000000000000000000000000000000000000000000000000000000000000000000000000000000000000000000000000000000000000000000000000000000000000000000000000000000000000000000000000000000000000000000000000000000",
                    "coinbase" : "0x2adc25665018aa1fe0e6bc666dac8fc2697ff9ba",
                    "difficulty" : "0x00",
                    "extraData" : "0x",
                    "gasLimit" : "0x016345785d8a0000",
                    "gasUsed" : "0xb3fc",
                    "hash" : "0x22b92be9d7015b63e809129b355534b6a0d7425d6e911478b2b54bf46170de19",
                    "mixHash" : "0x0000000000000000000000000000000000000000000000000000000000000000",
                    "nonce" : "0x0000000000000000",
                    "number" : "0x02",
                    "parentHash" : "0xd3a1f6d7b3cadd1551d6e8ee976b714d7db1a5ab9dfdd5499f60c5cd74651bde",
                    "receiptTrie" : "0xedd51b898476d717efe499381596337599116f4fc38d97ae73732bbdea9962f6",
                    "stateRoot" : "0x5f9c404c0cbc693643f51770e964d4f158f19d462e76dc021a70f4c183a84d37",
                    "timestamp" : "0x18",
                    "transactionsTrie" : "0x41165d157e980e9467720f127f0dd6fc8e62550cc622c972fdd4012f49293315",
                    "uncleHash" : "0x1dcc4de8dec75d7aab85b567b6ccd41ad312451b948a7413f0a142fd40d49347",
                    "withdrawalsRoot" : "0x56e81f171bcc55a6ff8345e692c0f86e5b48e01b996cadc001622fb5e363b421"
                },
                "blocknumber" : "2",
                "rlp" : "0xf902a2f90219a0d3a1f6d7b3cadd1551d6e8ee976b714d7db1a5ab9dfdd5499f60c5cd74651bdea01dcc4de8dec75d7aab85b567b6ccd41ad312451b948a7413f0a142fd40d49347942adc25665018aa1fe0e6bc666dac8fc2697ff9baa05f9c404c0cbc693643f51770e964d4f158f19d462e76dc021a70f4c183a84d37a041165d157e980e9467720f127f0dd6fc8e62550cc622c972fdd4012f49293315a0edd51b898476d717efe499381596337599116f4fc38d97ae73732bbdea9962f6b9010000000000000000000000000000000000000000000000000000000000000000000000000000000000000000000000000000000000000000000000000000000000000000000000000000000000000000000000000000000000000000000000000000000000000000000000000000000000000000000000000000000000000000000000000000000000000000000000000000000000000000000000000000000000000000000000000000000000000000000000000000000000000000000000000000000000000000000000000000000000000000000000000000000000000000000000000000000000000000000000000000000000000000000000000000000000800288016345785d8a000082b3fc1880a0000000000000000000000000000000000000000000000000000000000000000088000000000000000007a056e81f171bcc55a6ff8345e692c0f86e5b48e01b996cadc001622fb5e363b421f882f880010a830186a094000000000000000000000000000000000000100080a00000000000000000000000008a0a19589531694250d570040a0c4b74576919b825a0f9654ad36504ef9031d32687671053c01b2153ff8267a63525c4b14ea3f8468ba041c15c78b0ca80bc434959b55740886a7b225a64f9105a1f378b4f50b0373246c0c0",
                "transactions" : [
                    {
                        "chainId" : "0x01",
                        "data" : "0x0000000000000000000000008a0a19589531694250d570040a0c4b74576919b8",
                        "gasLimit" : "0x0186a0",
                        "gasPrice" : "0x0a",
                        "nonce" : "0x01",
                        "r" : "0xf9654ad36504ef9031d32687671053c01b2153ff8267a63525c4b14ea3f8468b",
                        "s" : "0x41c15c78b0ca80bc434959b55740886a7b225a64f9105a1f378b4f50b0373246",
                        "sender" : "0xa94f5374fce5edbc8e2a8697c15331677e6ebf0b",
                        "to" : "0x0000000000000000000000000000000000001000",
                        "type" : "0x00",
                        "v" : "0x25",
                        "value" : "0x00"
                    }
                ],
                "uncleHeaders" : [
                ],
                "withdrawals" : [
                ]
            }
        ],
        "config" : {
            "chainid" : "0x01",
            "network" : "Shanghai"
        },
        "genesisBlockHeader" : {
            "baseFeePerGas" : "0x07",
            "bloom" : "0x00000000000000000000000000000000000000000000000000000000000000000000000000000000000000000000000000000000000000000000000000000000000000000000000000000000000000000000000000000000000000000000000000000000000000000000000000000000000000000000000000000000000000000000000000000000000000000000000000000000000000000000000000000000000000000000000000000000000000000000000000000000000000000000000000000000000000000000000000000000000000000000000000000000000000000000000000000000000000000000000000000000000000000000000000000000",
            "coinbase" : "0x0000000000000000000000000000000000000000",
            "difficulty" : "0x00",
            "extraData" : "0x00",
            "gasLimit" : "0x016345785d8a0000",
            "gasUsed" : "0x00",
            "hash" : "0xe4fa78a484e50eca953df999080f6c8621cd81e852067b1afc7059d88d2b313b",
            "mixHash" : "0x0000000000000000000000000000000000000000000000000000000000000000",
            "nonce" : "0x0000000000000000",
            "number" : "0x00",
            "parentHash" : "0x0000000000000000000000000000000000000000000000000000000000000000",
            "receiptTrie" : "0x56e81f171bcc55a6ff8345e692c0f86e5b48e01b996cadc001622fb5e363b421",
            "stateRoot" : "0x0058d20c794bb9cbf64c8737e53d735b2b34b3e8cee3e516ca350438ca4e9808",
            "timestamp" : "0x00",
            "transactionsTrie" : "0x56e81f171bcc55a6ff8345e692c0f86e5b48e01b996cadc001622fb5e363b421",
            "uncleHash" : "0x1dcc4de8dec75d7aab85b567b6ccd41ad312451b948a7413f0a142fd40d49347",
            "withdrawalsRoot" : "0x56e81f171bcc55a6ff8345e692c0f86e5b48e01b996cadc001622fb5e363b421"
        },
        "genesisRLP" : "0xf9021df90217a00000000000000000000000000000000000000000000000000000000000000000a01dcc4de8dec75d7aab85b567b6ccd41ad312451b948a7413f0a142fd40d49347940000000000000000000000000000000000000000a00058d20c794bb9cbf64c8737e53d735b2b34b3e8cee3e516ca350438ca4e9808a056e81f171bcc55a6ff8345e692c0f86e5b48e01b996cadc001622fb5e363b421a056e81f171bcc55a6ff8345e692c0f86e5b48e01b996cadc001622fb5e363b421b9010000000000000000000000000000000000000000000000000000000000000000000000000000000000000000000000000000000000000000000000000000000000000000000000000000000000000000000000000000000000000000000000000000000000000000000000000000000000000000000000000000000000000000000000000000000000000000000000000000000000000000000000000000000000000000000000000000000000000000000000000000000000000000000000000000000000000000000000000000000000000000000000000000000000000000000000000000000000000000000000000000000000000000000000000000000000808088016345785d8a0000808000a0000000000000000000000000000000000000000000000000000000000000000088000000000000000007a056e81f171bcc55a6ff8345e692c0f86e5b48e01b996cadc001622fb5e363b421c0c0c0",
        "lastblockhash" : "0x22b92be9d7015b63e809129b355534b6a0d7425d6e911478b2b54bf46170de19",
        "network" : "Shanghai",
        "postState" : {
            "0x0000000000000000000000000000000000001000" : {
                "balance" : "0x00",
                "code" : "0x600035314355",
                "nonce" : "0x01",
                "storage" : {
                    "0x01" : "0x3b9aca00",
                    "0x02" : "0x77359400"
                }
            },
            "0x2adc25665018aa1fe0e6bc666dac8fc2697ff9ba" : {
                "balance" : "0x0437e8",
                "code" : "0x",
                "nonce" : "0x00",
                "storage" : {
                }
            },
            "0x8a0a19589531694250d570040a0c4b74576919b8" : {
                "balance" : "0x77359400",
                "code" : "0x",
                "nonce" : "0x00",
                "storage" : {
                }
            },
            "0xa94f5374fce5edbc8e2a8697c15331677e6ebf0b" : {
                "balance" : "0x3635c9adc5de91f050",
                "code" : "0x",
                "nonce" : "0x02",
                "storage" : {
                }
            }
        },
        "pre" : {
            "0x0000000000000000000000000000000000001000" : {
                "balance" : "0x00",
                "code" : "0x600035314355",
                "nonce" : "0x01",
                "storage" : {
                }
            },
            "0x8a0a19589531694250d570040a0c4b74576919b8" : {
                "balance" : "0x3b9aca00",
                "code" : "0x",
                "nonce" : "0x00",
                "storage" : {
                }
            },
            "0xa94f5374fce5edbc8e2a8697c15331677e6ebf0b" : {
                "balance" : "0x3635c9adc5dea00000",
                "code" : "0x",
                "nonce" : "0x00",
                "storage" : {
                }
            }
        },
        "sealEngine" : "NoProof"
    }
}