{
    "src/GeneralStateTestsFiller/Pyspecs/shanghai/eip4895_withdrawals/test_withdrawals.py::test_large_amount[fork_Cancun-blockchain_test]" : {
        "_info" : {
            "comment" : "`execution-spec-tests` generated test",
            "description" : "Test function documentation:\n\n    Test Withdrawals that have a large gwei amount, so that (gwei * 1e9)\n    could overflow uint64 but not uint256.",
            "filling-rpc-server" : "ethereum-spec-evm 0.1.0 (Git commit: 0d5cdb0351ff34b8ef13c4c07d9fa19999c73f0b)",
            "filling-tool-version" : "retesteth-0.3.2-legacy+commit.3ee677f4.Linux.g++",
            "filling-transition-tool" : "ethereum-spec-evm-resolver 0.0.1",
            "fixture_format" : "blockchain_test",
            "generatedTestHash" : "3d79e24414c7b40b27e789c26723deda9bb05c78f8e6107af85673e3d511935f",
            "hash" : "0x3dec59c3f24b1776d73d2dffe4ca47ed965f79e063383832e4bd2f175142df67",
            "lllcversion" : "Version: 0.5.14-develop.2024.11.5+commit.b2b86751.mod.Linux.g++",
            "solidity" : "Version: 0.8.24+commit.e11b9ed9.Linux.g++",
            "source" : "src/GeneralStateTestsFiller/Pyspecs/shanghai/eip4895_withdrawals/test_withdrawals.py",
            "sourceHash" : "fb5f669c6f7b51b12e59893b6d93a78d05b20abbb01b75ee895fc5d8ea7bd4ed",
            "url" : "https://github.com/ethereum/execution-spec-tests/blob/0d5cdb0351ff34b8ef13c4c07d9fa19999c73f0b/tests/tmp/tmptest_49426fea_d781_42db_814e_0ead22d06002/test_withdrawals.py#L648"
        },
        "blocks" : [
            {
                "blockHeader" : {
                    "baseFeePerGas" : "0x07",
                    "blobGasUsed" : "0x00",
                    "bloom" : "0x00000000000000000000000000000000000000000000000000000000000000000000000000000000000000000000000000000000000000000000000000000000000000000000000000000000000000000000000000000000000000000000000000000000000000000000000000000000000000000000000000000000000000000000000000000000000000000000000000000000000000000000000000000000000000000000000000000000000000000000000000000000000000000000000000000000000000000000000000000000000000000000000000000000000000000000000000000000000000000000000000000000000000000000000000000000",
                    "coinbase" : "0x2adc25665018aa1fe0e6bc666dac8fc2697ff9ba",
                    "difficulty" : "0x00",
                    "excessBlobGas" : "0x00",
                    "extraData" : "0x",
                    "gasLimit" : "0x016345785d8a0000",
                    "gasUsed" : "0x00",
                    "hash" : "0xb4bea39353e03c27a0be6080fc989f0ae17228c24c8dae42e4f046a79429a23d",
                    "mixHash" : "0x0000000000000000000000000000000000000000000000000000000000000000",
                    "nonce" : "0x0000000000000000",
                    "number" : "0x01",
                    "parentBeaconBlockRoot" : "0x0000000000000000000000000000000000000000000000000000000000000000",
                    "parentHash" : "0x8ba38087683998a300783eac66c9fc8bd09163da324b10643e0d06bd128a9e97",
                    "receiptTrie" : "0x56e81f171bcc55a6ff8345e692c0f86e5b48e01b996cadc001622fb5e363b421",
                    "stateRoot" : "0x53911afecdb77b235ea20f1277f6d17b41a5914a45046d61a543590e9ca702f7",
                    "timestamp" : "0x0c",
                    "transactionsTrie" : "0x56e81f171bcc55a6ff8345e692c0f86e5b48e01b996cadc001622fb5e363b421",
                    "uncleHash" : "0x1dcc4de8dec75d7aab85b567b6ccd41ad312451b948a7413f0a142fd40d49347",
                    "withdrawalsRoot" : "0xe58bf36d26eb9a5c50ea3722168a532db9b7e1ae0786989b601981b22b45a0ef"
                },
                "blocknumber" : "1",
                "rlp" : "0xf902e3f9023aa08ba38087683998a300783eac66c9fc8bd09163da324b10643e0d06bd128a9e97a01dcc4de8dec75d7aab85b567b6ccd41ad312451b948a7413f0a142fd40d49347942adc25665018aa1fe0e6bc666dac8fc2697ff9baa053911afecdb77b235ea20f1277f6d17b41a5914a45046d61a543590e9ca702f7a056e81f171bcc55a6ff8345e692c0f86e5b48e01b996cadc001622fb5e363b421a056e81f171bcc55a6ff8345e692c0f86e5b48e01b996cadc001622fb5e363b421b9010000000000000000000000000000000000000000000000000000000000000000000000000000000000000000000000000000000000000000000000000000000000000000000000000000000000000000000000000000000000000000000000000000000000000000000000000000000000000000000000000000000000000000000000000000000000000000000000000000000000000000000000000000000000000000000000000000000000000000000000000000000000000000000000000000000000000000000000000000000000000000000000000000000000000000000000000000000000000000000000000000000000000000000000000000000000800188016345785d8a0000800c80a0000000000000000000000000000000000000000000000000000000000000000088000000000000000007a0e58bf36d26eb9a5c50ea3722168a532db9b7e1ae0786989b601981b22b45a0ef8080a00000000000000000000000000000000000000000000000000000000000000000c0c0f8a2dd808094a94f5374fce5edbc8e2a8697c15331677e6ebf0b850800000000e00101948a0a19589531694250d570040a0c4b74576919b888ffffffffffffffffe00202946389e7f33ce3b1e94e4325ef02829cd12297ef71888000000000000001e003039478cc42dd276339ef70b322674fd5dc7ea6ea9373888000000000000000e004049488f56cf5a1af87ddcfc4a55c29463500309c2ccc887fffffffffffffff",
                "transactions" : [
                ],
                "uncleHeaders" : [
                ],
                "withdrawals" : [
                    {
                        "address" : "0xa94f5374fce5edbc8e2a8697c15331677e6ebf0b",
                        "amount" : "0x0800000000",
                        "index" : "0x00",
                        "validatorIndex" : "0x00"
                    },
                    {
                        "address" : "0x8a0a19589531694250d570040a0c4b74576919b8",
                        "amount" : "0xffffffffffffffff",
                        "index" : "0x01",
                        "validatorIndex" : "0x01"
                    },
                    {
                        "address" : "0x6389e7f33ce3b1e94e4325ef02829cd12297ef71",
                        "amount" : "0x8000000000000001",
                        "index" : "0x02",
                        "validatorIndex" : "0x02"
                    },
                    {
                        "address" : "0x78cc42dd276339ef70b322674fd5dc7ea6ea9373",
                        "amount" : "0x8000000000000000",
                        "index" : "0x03",
                        "validatorIndex" : "0x03"
                    },
                    {
                        "address" : "0x88f56cf5a1af87ddcfc4a55c29463500309c2ccc",
                        "amount" : "0x7fffffffffffffff",
                        "index" : "0x04",
                        "validatorIndex" : "0x04"
                    }
                ]
            }
        ],
        "config" : {
            "blobSchedule" : {
                "Cancun" : {
                    "baseFeeUpdateFraction" : "0x32f0ed",
                    "max" : "0x06",
                    "target" : "0x03"
                }
            },
            "chainid" : "0x01",
            "network" : "Cancun"
        },
        "genesisBlockHeader" : {
            "baseFeePerGas" : "0x07",
            "blobGasUsed" : "0x00",
            "bloom" : "0x00000000000000000000000000000000000000000000000000000000000000000000000000000000000000000000000000000000000000000000000000000000000000000000000000000000000000000000000000000000000000000000000000000000000000000000000000000000000000000000000000000000000000000000000000000000000000000000000000000000000000000000000000000000000000000000000000000000000000000000000000000000000000000000000000000000000000000000000000000000000000000000000000000000000000000000000000000000000000000000000000000000000000000000000000000000",
            "coinbase" : "0x0000000000000000000000000000000000000000",
            "difficulty" : "0x00",
            "excessBlobGas" : "0x00",
            "extraData" : "0x00",
            "gasLimit" : "0x016345785d8a0000",
            "gasUsed" : "0x00",
            "hash" : "0x8ba38087683998a300783eac66c9fc8bd09163da324b10643e0d06bd128a9e97",
            "mixHash" : "0x0000000000000000000000000000000000000000000000000000000000000000",
            "nonce" : "0x0000000000000000",
            "number" : "0x00",
            "parentBeaconBlockRoot" : "0x0000000000000000000000000000000000000000000000000000000000000000",
            "parentHash" : "0x0000000000000000000000000000000000000000000000000000000000000000",
            "receiptTrie" : "0x56e81f171bcc55a6ff8345e692c0f86e5b48e01b996cadc001622fb5e363b421",
            "stateRoot" : "0x81b8dfb06a3603705c8658f845e7a37a3f81ec7822b807c2b00d159a3f3d9c41",
            "timestamp" : "0x00",
            "transactionsTrie" : "0x56e81f171bcc55a6ff8345e692c0f86e5b48e01b996cadc001622fb5e363b421",
            "uncleHash" : "0x1dcc4de8dec75d7aab85b567b6ccd41ad312451b948a7413f0a142fd40d49347",
            "withdrawalsRoot" : "0x56e81f171bcc55a6ff8345e692c0f86e5b48e01b996cadc001622fb5e363b421"
        },
        "genesisRLP" : "0xf90240f9023aa00000000000000000000000000000000000000000000000000000000000000000a01dcc4de8dec75d7aab85b567b6ccd41ad312451b948a7413f0a142fd40d49347940000000000000000000000000000000000000000a081b8dfb06a3603705c8658f845e7a37a3f81ec7822b807c2b00d159a3f3d9c41a056e81f171bcc55a6ff8345e692c0f86e5b48e01b996cadc001622fb5e363b421a056e81f171bcc55a6ff8345e692c0f86e5b48e01b996cadc001622fb5e363b421b9010000000000000000000000000000000000000000000000000000000000000000000000000000000000000000000000000000000000000000000000000000000000000000000000000000000000000000000000000000000000000000000000000000000000000000000000000000000000000000000000000000000000000000000000000000000000000000000000000000000000000000000000000000000000000000000000000000000000000000000000000000000000000000000000000000000000000000000000000000000000000000000000000000000000000000000000000000000000000000000000000000000000000000000000000000000000808088016345785d8a0000808000a0000000000000000000000000000000000000000000000000000000000000000088000000000000000007a056e81f171bcc55a6ff8345e692c0f86e5b48e01b996cadc001622fb5e363b4218080a00000000000000000000000000000000000000000000000000000000000000000c0c0c0",
        "lastblockhash" : "0xb4bea39353e03c27a0be6080fc989f0ae17228c24c8dae42e4f046a79429a23d",
        "network" : "Cancun",
        "postState" : {
            "0x000f3df6d732807ef1319fb7b8bb8522d0beac02" : {
                "balance" : "0x00",
                "code" : "0x3373fffffffffffffffffffffffffffffffffffffffe14604d57602036146024575f5ffd5b5f35801560495762001fff810690815414603c575f5ffd5b62001fff01545f5260205ff35b5f5ffd5b62001fff42064281555f359062001fff015500",
                "nonce" : "0x01",
                "storage" : {
                    "0x0c" : "0x0c"
                }
            },
            "0x6389e7f33ce3b1e94e4325ef02829cd12297ef71" : {
                "balance" : "0x1dcd6500000000003b9aca00",
                "code" : "0x",
                "nonce" : "0x00",
                "storage" : {
                }
            },
            "0x78cc42dd276339ef70b322674fd5dc7ea6ea9373" : {
                "balance" : "0x1dcd65000000000000000000",
                "code" : "0x",
                "nonce" : "0x00",
                "storage" : {
                }
            },
            "0x88f56cf5a1af87ddcfc4a55c29463500309c2ccc" : {
                "balance" : "0x1dcd64ffffffffffc4653600",
                "code" : "0x",
                "nonce" : "0x00",
                "storage" : {
                }
            },
            "0x8a0a19589531694250d570040a0c4b74576919b8" : {
                "balance" : "0x3b9ac9ffffffffffc4653600",
                "code" : "0x",
                "nonce" : "0x00",
                "storage" : {
                }
            },
            "0xa94f5374fce5edbc8e2a8697c15331677e6ebf0b" : {
                "balance" : "0x01dcd6500000000000",
                "code" : "0x",
                "nonce" : "0x00",
                "storage" : {
                }
            }
        },
        "pre" : {
            "0x000f3df6d732807ef1319fb7b8bb8522d0beac02" : {
                "balance" : "0x00",
                "code" : "0x3373fffffffffffffffffffffffffffffffffffffffe14604d57602036146024575f5ffd5b5f35801560495762001fff810690815414603c575f5ffd5b62001fff01545f5260205ff35b5f5ffd5b62001fff42064281555f359062001fff015500",
                "nonce" : "0x01",
                "storage" : {
                }
            }
        },
        "sealEngine" : "NoProof"
    },
    "src/GeneralStateTestsFiller/Pyspecs/shanghai/eip4895_withdrawals/test_withdrawals.py::test_large_amount[fork_Shanghai-blockchain_test]" : {
        "_info" : {
            "comment" : "`execution-spec-tests` generated test",
            "description" : "Test function documentation:\n\n    Test Withdrawals that have a large gwei amount, so that (gwei * 1e9)\n    could overflow uint64 but not uint256.",
            "filling-rpc-server" : "ethereum-spec-evm 0.1.0 (Git commit: 0d5cdb0351ff34b8ef13c4c07d9fa19999c73f0b)",
            "filling-tool-version" : "retesteth-0.3.2-legacy+commit.3ee677f4.Linux.g++",
            "filling-transition-tool" : "ethereum-spec-evm-resolver 0.0.1",
            "fixture_format" : "blockchain_test",
            "generatedTestHash" : "c125bee6698bfd0a02a5ccc66310d250b157bb15ae094445f875723eaf78b6bc",
            "hash" : "0x4ca7199015590c3bb089b786692a2b31d2cda50dca8052c2da3ef396b7016202",
            "lllcversion" : "Version: 0.5.14-develop.2024.11.5+commit.b2b86751.mod.Linux.g++",
            "solidity" : "Version: 0.8.24+commit.e11b9ed9.Linux.g++",
            "source" : "src/GeneralStateTestsFiller/Pyspecs/shanghai/eip4895_withdrawals/test_withdrawals.py",
            "sourceHash" : "fb5f669c6f7b51b12e59893b6d93a78d05b20abbb01b75ee895fc5d8ea7bd4ed",
            "url" : "https://github.com/ethereum/execution-spec-tests/blob/0d5cdb0351ff34b8ef13c4c07d9fa19999c73f0b/tests/tmp/tmptest_49426fea_d781_42db_814e_0ead22d06002/test_withdrawals.py#L648"
        },
        "blocks" : [
            {
                "blockHeader" : {
                    "baseFeePerGas" : "0x07",
                    "bloom" : "0x00000000000000000000000000000000000000000000000000000000000000000000000000000000000000000000000000000000000000000000000000000000000000000000000000000000000000000000000000000000000000000000000000000000000000000000000000000000000000000000000000000000000000000000000000000000000000000000000000000000000000000000000000000000000000000000000000000000000000000000000000000000000000000000000000000000000000000000000000000000000000000000000000000000000000000000000000000000000000000000000000000000000000000000000000000000",
                    "coinbase" : "0x2adc25665018aa1fe0e6bc666dac8fc2697ff9ba",
                    "difficulty" : "0x00",
                    "extraData" : "0x",
                    "gasLimit" : "0x016345785d8a0000",
                    "gasUsed" : "0x00",
                    "hash" : "0x39bb6f61edbc0e1bea8484f550785692f21930186b4c6577e4811b2517d53c2b",
                    "mixHash" : "0x0000000000000000000000000000000000000000000000000000000000000000",
                    "nonce" : "0x0000000000000000",
                    "number" : "0x01",
                    "parentHash" : "0x651666d6d8727a6478a750dc8406c1bda0be85abc99094dca694807fa772f83c",
                    "receiptTrie" : "0x56e81f171bcc55a6ff8345e692c0f86e5b48e01b996cadc001622fb5e363b421",
                    "stateRoot" : "0x348e759958955007f7ee96a0f82275baa94b4e8e6e6ff44aef96b96cc7c209d2",
                    "timestamp" : "0x0c",
                    "transactionsTrie" : "0x56e81f171bcc55a6ff8345e692c0f86e5b48e01b996cadc001622fb5e363b421",
                    "uncleHash" : "0x1dcc4de8dec75d7aab85b567b6ccd41ad312451b948a7413f0a142fd40d49347",
                    "withdrawalsRoot" : "0xe58bf36d26eb9a5c50ea3722168a532db9b7e1ae0786989b601981b22b45a0ef"
                },
                "blocknumber" : "1",
                "rlp" : "0xf902c0f90217a0651666d6d8727a6478a750dc8406c1bda0be85abc99094dca694807fa772f83ca01dcc4de8dec75d7aab85b567b6ccd41ad312451b948a7413f0a142fd40d49347942adc25665018aa1fe0e6bc666dac8fc2697ff9baa0348e759958955007f7ee96a0f82275baa94b4e8e6e6ff44aef96b96cc7c209d2a056e81f171bcc55a6ff8345e692c0f86e5b48e01b996cadc001622fb5e363b421a056e81f171bcc55a6ff8345e692c0f86e5b48e01b996cadc001622fb5e363b421b9010000000000000000000000000000000000000000000000000000000000000000000000000000000000000000000000000000000000000000000000000000000000000000000000000000000000000000000000000000000000000000000000000000000000000000000000000000000000000000000000000000000000000000000000000000000000000000000000000000000000000000000000000000000000000000000000000000000000000000000000000000000000000000000000000000000000000000000000000000000000000000000000000000000000000000000000000000000000000000000000000000000000000000000000000000000000800188016345785d8a0000800c80a0000000000000000000000000000000000000000000000000000000000000000088000000000000000007a0e58bf36d26eb9a5c50ea3722168a532db9b7e1ae0786989b601981b22b45a0efc0c0f8a2dd808094a94f5374fce5edbc8e2a8697c15331677e6ebf0b850800000000e00101948a0a19589531694250d570040a0c4b74576919b888ffffffffffffffffe00202946389e7f33ce3b1e94e4325ef02829cd12297ef71888000000000000001e003039478cc42dd276339ef70b322674fd5dc7ea6ea9373888000000000000000e004049488f56cf5a1af87ddcfc4a55c29463500309c2ccc887fffffffffffffff",
                "transactions" : [
                ],
                "uncleHeaders" : [
                ],
                "withdrawals" : [
                    {
                        "address" : "0xa94f5374fce5edbc8e2a8697c15331677e6ebf0b",
                        "amount" : "0x0800000000",
                        "index" : "0x00",
                        "validatorIndex" : "0x00"
                    },
                    {
                        "address" : "0x8a0a19589531694250d570040a0c4b74576919b8",
                        "amount" : "0xffffffffffffffff",
                        "index" : "0x01",
                        "validatorIndex" : "0x01"
                    },
                    {
                        "address" : "0x6389e7f33ce3b1e94e4325ef02829cd12297ef71",
                        "amount" : "0x8000000000000001",
                        "index" : "0x02",
                        "validatorIndex" : "0x02"
                    },
                    {
                        "address" : "0x78cc42dd276339ef70b322674fd5dc7ea6ea9373",
                        "amount" : "0x8000000000000000",
                        "index" : "0x03",
                        "validatorIndex" : "0x03"
                    },
                    {
                        "address" : "0x88f56cf5a1af87ddcfc4a55c29463500309c2ccc",
                        "amount" : "0x7fffffffffffffff",
                        "index" : "0x04",
                        "validatorIndex" : "0x04"
                    }
                ]
            }
        ],
        "config" : {
            "chainid" : "0x01",
            "network" : "Shanghai"
        },
        "genesisBlockHeader" : {
            "baseFeePerGas" : "0x07",
            "bloom" : "0x00000000000000000000000000000000000000000000000000000000000000000000000000000000000000000000000000000000000000000000000000000000000000000000000000000000000000000000000000000000000000000000000000000000000000000000000000000000000000000000000000000000000000000000000000000000000000000000000000000000000000000000000000000000000000000000000000000000000000000000000000000000000000000000000000000000000000000000000000000000000000000000000000000000000000000000000000000000000000000000000000000000000000000000000000000000",
            "coinbase" : "0x0000000000000000000000000000000000000000",
            "difficulty" : "0x00",
            "extraData" : "0x00",
            "gasLimit" : "0x016345785d8a0000",
            "gasUsed" : "0x00",
            "hash" : "0x651666d6d8727a6478a750dc8406c1bda0be85abc99094dca694807fa772f83c",
            "mixHash" : "0x0000000000000000000000000000000000000000000000000000000000000000",
            "nonce" : "0x0000000000000000",
            "number" : "0x00",
            "parentHash" : "0x0000000000000000000000000000000000000000000000000000000000000000",
            "receiptTrie" : "0x56e81f171bcc55a6ff8345e692c0f86e5b48e01b996cadc001622fb5e363b421",
            "stateRoot" : "0x56e81f171bcc55a6ff8345e692c0f86e5b48e01b996cadc001622fb5e363b421",
            "timestamp" : "0x00",
            "transactionsTrie" : "0x56e81f171bcc55a6ff8345e692c0f86e5b48e01b996cadc001622fb5e363b421",
            "uncleHash" : "0x1dcc4de8dec75d7aab85b567b6ccd41ad312451b948a7413f0a142fd40d49347",
            "withdrawalsRoot" : "0x56e81f171bcc55a6ff8345e692c0f86e5b48e01b996cadc001622fb5e363b421"
        },
        "genesisRLP" : "0xf9021df90217a00000000000000000000000000000000000000000000000000000000000000000a01dcc4de8dec75d7aab85b567b6ccd41ad312451b948a7413f0a142fd40d49347940000000000000000000000000000000000000000a056e81f171bcc55a6ff8345e692c0f86e5b48e01b996cadc001622fb5e363b421a056e81f171bcc55a6ff8345e692c0f86e5b48e01b996cadc001622fb5e363b421a056e81f171bcc55a6ff8345e692c0f86e5b48e01b996cadc001622fb5e363b421b9010000000000000000000000000000000000000000000000000000000000000000000000000000000000000000000000000000000000000000000000000000000000000000000000000000000000000000000000000000000000000000000000000000000000000000000000000000000000000000000000000000000000000000000000000000000000000000000000000000000000000000000000000000000000000000000000000000000000000000000000000000000000000000000000000000000000000000000000000000000000000000000000000000000000000000000000000000000000000000000000000000000000000000000000000000000000808088016345785d8a0000808000a0000000000000000000000000000000000000000000000000000000000000000088000000000000000007a056e81f171bcc55a6ff8345e692c0f86e5b48e01b996cadc001622fb5e363b421c0c0c0",
        "lastblockhash" : "0x39bb6f61edbc0e1bea8484f550785692f21930186b4c6577e4811b2517d53c2b",
        "network" : "Shanghai",
        "postState" : {
            "0x6389e7f33ce3b1e94e4325ef02829cd12297ef71" : {
                "balance" : "0x1dcd6500000000003b9aca00",
                "code" : "0x",
                "nonce" : "0x00",
                "storage" : {
                }
            },
            "0x78cc42dd276339ef70b322674fd5dc7ea6ea9373" : {
                "balance" : "0x1dcd65000000000000000000",
                "code" : "0x",
                "nonce" : "0x00",
                "storage" : {
                }
            },
            "0x88f56cf5a1af87ddcfc4a55c29463500309c2ccc" : {
                "balance" : "0x1dcd64ffffffffffc4653600",
                "code" : "0x",
                "nonce" : "0x00",
                "storage" : {
                }
            },
            "0x8a0a19589531694250d570040a0c4b74576919b8" : {
                "balance" : "0x3b9ac9ffffffffffc4653600",
                "code" : "0x",
                "nonce" : "0x00",
                "storage" : {
                }
            },
            "0xa94f5374fce5edbc8e2a8697c15331677e6ebf0b" : {
                "balance" : "0x01dcd6500000000000",
                "code" : "0x",
                "nonce" : "0x00",
                "storage" : {
                }
            }
        },
        "pre" : {
        },
        "sealEngine" : "NoProof"
    }
}