{
    "src/GeneralStateTestsFiller/Pyspecs/shanghai/eip4895_withdrawals/test_withdrawals.py::test_no_evm_execution[fork_Cancun-blockchain_test]" : {
        "_info" : {
            "comment" : "`execution-spec-tests` generated test",
            "description" : "Test function documentation:\nTest Withdrawals don't trigger EVM execution.",
            "filling-rpc-server" : "ethereum-spec-evm 0.1.0 (Git commit: 0d5cdb0351ff34b8ef13c4c07d9fa19999c73f0b)",
            "filling-tool-version" : "retesteth-0.3.2-legacy+commit.3ee677f4.Linux.g++",
            "filling-transition-tool" : "ethereum-spec-evm-resolver 0.0.1",
            "fixture_format" : "blockchain_test",
            "generatedTestHash" : "9a0046f057f056ad91217f991d8cfe3d85fc5ce16ad2d30906fd97da8d11a15d",
            "hash" : "0xab6000ded4888076527c22eda03b0a324a2647438f12d88613efb3495d722764",
            "lllcversion" : "Version: 0.5.14-develop.2024.11.5+commit.b2b86751.mod.Linux.g++",
            "solidity" : "Version: 0.8.24+commit.e11b9ed9.Linux.g++",
            "source" : "src/GeneralStateTestsFiller/Pyspecs/shanghai/eip4895_withdrawals/test_withdrawals.py",
            "sourceHash" : "fb5f669c6f7b51b12e59893b6d93a78d05b20abbb01b75ee895fc5d8ea7bd4ed",
            "url" : "https://github.com/ethereum/execution-spec-tests/blob/0d5cdb0351ff34b8ef13c4c07d9fa19999c73f0b/tests/tmp/tmptest_49426fea_d781_42db_814e_0ead22d06002/test_withdrawals.py#L456"
        },
        "blocks" : [
            {
                "blockHeader" : {
                    "baseFeePerGas" : "0x07",
                    "blobGasUsed" : "0x00",
                    "bloom" : "0x00000000000000000000000000000000000000000000000000000000000000000000000000000000000000000000000000000000000000000000000000000000000000000000000000000000000000000000000000000000000000000000000000000000000000000000000000000000000000000000000000000000000000000000000000000000000000000000000000000000000000000000000000000000000000000000000000000000000000000000000000000000000000000000000000000000000000000000000000000000000000000000000000000000000000000000000000000000000000000000000000000000000000000000000000000000",
                    "coinbase" : "0x2adc25665018aa1fe0e6bc666dac8fc2697ff9ba",
                    "difficulty" : "0x00",
                    "excessBlobGas" : "0x00",
                    "extraData" : "0x",
                    "gasLimit" : "0x016345785d8a0000",
                    "gasUsed" : "0x0150c2",
                    "hash" : "0x1f8aa53c1836461ab0760cc5506e8e26eea410cc59b8f34015ab6d5127636f48",
                    "mixHash" : "0x0000000000000000000000000000000000000000000000000000000000000000",
                    "nonce" : "0x0000000000000000",
                    "number" : "0x01",
                    "parentBeaconBlockRoot" : "0x0000000000000000000000000000000000000000000000000000000000000000",
                    "parentHash" : "0xc8a610e7a873c47c02883cdeea2be583937771b9affa9059fffc14c5dfbb025c",
                    "receiptTrie" : "0x565dbae32920fdc51f307a7eae972eed4f68bf2fa895f24169f0623ef1b6d66c",
                    "stateRoot" : "0xfb0285848c05ec2904034a6ed2adb5a7c9aec98ea777780901a16daeaf8e91ea",
                    "timestamp" : "0x0c",
                    "transactionsTrie" : "0x795173844b728a0e81b94edb12102be164c5172d8e128271fd926043344422ed",
                    "uncleHash" : "0x1dcc4de8dec75d7aab85b567b6ccd41ad312451b948a7413f0a142fd40d49347",
                    "withdrawalsRoot" : "0x23e387493a982bbd1022d502e2cecab24f6bb8159be25c06ac52d66e2e848ee5"
                },
                "blocknumber" : "1",
                "rlp" : "0xf9033af9023da0c8a610e7a873c47c02883cdeea2be583937771b9affa9059fffc14c5dfbb025ca01dcc4de8dec75d7aab85b567b6ccd41ad312451b948a7413f0a142fd40d49347942adc25665018aa1fe0e6bc666dac8fc2697ff9baa0fb0285848c05ec2904034a6ed2adb5a7c9aec98ea777780901a16daeaf8e91eaa0795173844b728a0e81b94edb12102be164c5172d8e128271fd926043344422eda0565dbae32920fdc51f307a7eae972eed4f68bf2fa895f24169f0623ef1b6d66cb9010000000000000000000000000000000000000000000000000000000000000000000000000000000000000000000000000000000000000000000000000000000000000000000000000000000000000000000000000000000000000000000000000000000000000000000000000000000000000000000000000000000000000000000000000000000000000000000000000000000000000000000000000000000000000000000000000000000000000000000000000000000000000000000000000000000000000000000000000000000000000000000000000000000000000000000000000000000000000000000000000000000000000000000000000000000000800188016345785d8a0000830150c20c80a0000000000000000000000000000000000000000000000000000000000000000088000000000000000007a023e387493a982bbd1022d502e2cecab24f6bb8159be25c06ac52d66e2e848ee58080a00000000000000000000000000000000000000000000000000000000000000000f8c4f860800a830186a0940000000000000000000000000000000000001200808025a08454b10108c1c7f87361698d7482111feedddf8503ef145ce8609b53aaa1287ca00167391b43827f547e1f7d65181864b6228a89e5a1f2f5311bfb64c697c57115f860010a830186a0940000000000000000000000000000000000001300808025a05c9ba43ada1ca2128575429c173be8655090b9cba475f76b8e601258b3268230a04b587e7e773d9997ba292093aa9b3c45c442fa463e54ebff4e3d41085650bc83c0f2d8808094000000000000000000000000000000000000100001d8010194000000000000000000000000000000000000110001",
                "transactions" : [
                    {
                        "chainId" : "0x01",
                        "data" : "0x",
                        "gasLimit" : "0x0186a0",
                        "gasPrice" : "0x0a",
                        "nonce" : "0x00",
                        "r" : "0x8454b10108c1c7f87361698d7482111feedddf8503ef145ce8609b53aaa1287c",
                        "s" : "0x0167391b43827f547e1f7d65181864b6228a89e5a1f2f5311bfb64c697c57115",
                        "sender" : "0xa94f5374fce5edbc8e2a8697c15331677e6ebf0b",
                        "to" : "0x0000000000000000000000000000000000001200",
                        "type" : "0x00",
                        "v" : "0x25",
                        "value" : "0x00"
                    },
                    {
                        "chainId" : "0x01",
                        "data" : "0x",
                        "gasLimit" : "0x0186a0",
                        "gasPrice" : "0x0a",
                        "nonce" : "0x01",
                        "r" : "0x5c9ba43ada1ca2128575429c173be8655090b9cba475f76b8e601258b3268230",
                        "s" : "0x4b587e7e773d9997ba292093aa9b3c45c442fa463e54ebff4e3d41085650bc83",
                        "sender" : "0xa94f5374fce5edbc8e2a8697c15331677e6ebf0b",
                        "to" : "0x0000000000000000000000000000000000001300",
                        "type" : "0x00",
                        "v" : "0x25",
                        "value" : "0x00"
                    }
                ],
                "uncleHeaders" : [
                ],
                "withdrawals" : [
                    {
                        "address" : "0x0000000000000000000000000000000000001000",
                        "amount" : "0x01",
                        "index" : "0x00",
                        "validatorIndex" : "0x00"
                    },
                    {
                        "address" : "0x0000000000000000000000000000000000001100",
                        "amount" : "0x01",
                        "index" : "0x01",
                        "validatorIndex" : "0x01"
                    }
                ]
            },
            {
                "blockHeader" : {
                    "baseFeePerGas" : "0x07",
                    "blobGasUsed" : "0x00",
                    "bloom" : "0x00000000000000000000000000000000000000000000000000000000000000000000000000000000000000000000000000000000000000000000000000000000000000000000000000000000000000000000000000000000000000000000000000000000000000000000000000000000000000000000000000000000000000000000000000000000000000000000000000000000000000000000000000000000000000000000000000000000000000000000000000000000000000000000000000000000000000000000000000000000000000000000000000000000000000000000000000000000000000000000000000000000000000000000000000000000",
                    "coinbase" : "0x2adc25665018aa1fe0e6bc666dac8fc2697ff9ba",
                    "difficulty" : "0x00",
                    "excessBlobGas" : "0x00",
                    "extraData" : "0x",
                    "gasLimit" : "0x016345785d8a0000",
                    "gasUsed" : "0x0150c2",
                    "hash" : "0xcf7f0447d0c35db4d17d83bcd7e85f508e1fc0c2bc19825ae0838b02dec7425d",
                    "mixHash" : "0x0000000000000000000000000000000000000000000000000000000000000000",
                    "nonce" : "0x0000000000000000",
                    "number" : "0x02",
                    "parentBeaconBlockRoot" : "0x0000000000000000000000000000000000000000000000000000000000000000",
                    "parentHash" : "0x1f8aa53c1836461ab0760cc5506e8e26eea410cc59b8f34015ab6d5127636f48",
                    "receiptTrie" : "0x565dbae32920fdc51f307a7eae972eed4f68bf2fa895f24169f0623ef1b6d66c",
                    "stateRoot" : "0x13fbfed5b4859e21307a984850f48ae91942aadbc378961b2a34d64a1c4efdba",
                    "timestamp" : "0x18",
                    "transactionsTrie" : "0x99f6c3de42c916ea84e51096ddcc3a0f3ebd497482be4b1efa9954ba61744850",
                    "uncleHash" : "0x1dcc4de8dec75d7aab85b567b6ccd41ad312451b948a7413f0a142fd40d49347",
                    "withdrawalsRoot" : "0x1f57cf256e3a54bebeb294433811b7fba82fe0cdc9b81f0b56ec472daa82efc7"
                },
                "blocknumber" : "2",
                "rlp" : "0xf9033af9023da01f8aa53c1836461ab0760cc5506e8e26eea410cc59b8f34015ab6d5127636f48a01dcc4de8dec75d7aab85b567b6ccd41ad312451b948a7413f0a142fd40d49347942adc25665018aa1fe0e6bc666dac8fc2697ff9baa013fbfed5b4859e21307a984850f48ae91942aadbc378961b2a34d64a1c4efdbaa099f6c3de42c916ea84e51096ddcc3a0f3ebd497482be4b1efa9954ba61744850a0565dbae32920fdc51f307a7eae972eed4f68bf2fa895f24169f0623ef1b6d66cb9010000000000000000000000000000000000000000000000000000000000000000000000000000000000000000000000000000000000000000000000000000000000000000000000000000000000000000000000000000000000000000000000000000000000000000000000000000000000000000000000000000000000000000000000000000000000000000000000000000000000000000000000000000000000000000000000000000000000000000000000000000000000000000000000000000000000000000000000000000000000000000000000000000000000000000000000000000000000000000000000000000000000000000000000000000000000800288016345785d8a0000830150c21880a0000000000000000000000000000000000000000000000000000000000000000088000000000000000007a01f57cf256e3a54bebeb294433811b7fba82fe0cdc9b81f0b56ec472daa82efc78080a00000000000000000000000000000000000000000000000000000000000000000f8c4f860020a830186a0940000000000000000000000000000000000001000808026a0a39f9b7a2a616f9f6c5f42b9f2652e3284bd9856529634790758642b85ba4b97a076af8d4918c7eda5823a88f64a8e4eebfc94aa2a4c4fe185e8439f2ff7ca47e9f860030a830186a0940000000000000000000000000000000000001100808026a09e54b048ee2a16b4ae2c7ba5ac267a4db04d12b30dffc138d1c84456bbf4ac6ea003b2bd883307c9b5ac883d8c7ba3027fdc3bc3e61e85191e4f21264928af6846c0f2d8808094000000000000000000000000000000000000120001d8010194000000000000000000000000000000000000130001",
                "transactions" : [
                    {
                        "chainId" : "0x01",
                        "data" : "0x",
                        "gasLimit" : "0x0186a0",
                        "gasPrice" : "0x0a",
                        "nonce" : "0x02",
                        "r" : "0xa39f9b7a2a616f9f6c5f42b9f2652e3284bd9856529634790758642b85ba4b97",
                        "s" : "0x76af8d4918c7eda5823a88f64a8e4eebfc94aa2a4c4fe185e8439f2ff7ca47e9",
                        "sender" : "0xa94f5374fce5edbc8e2a8697c15331677e6ebf0b",
                        "to" : "0x0000000000000000000000000000000000001000",
                        "type" : "0x00",
                        "v" : "0x26",
                        "value" : "0x00"
                    },
                    {
                        "chainId" : "0x01",
                        "data" : "0x",
                        "gasLimit" : "0x0186a0",
                        "gasPrice" : "0x0a",
                        "nonce" : "0x03",
                        "r" : "0x9e54b048ee2a16b4ae2c7ba5ac267a4db04d12b30dffc138d1c84456bbf4ac6e",
                        "s" : "0x03b2bd883307c9b5ac883d8c7ba3027fdc3bc3e61e85191e4f21264928af6846",
                        "sender" : "0xa94f5374fce5edbc8e2a8697c15331677e6ebf0b",
                        "to" : "0x0000000000000000000000000000000000001100",
                        "type" : "0x00",
                        "v" : "0x26",
                        "value" : "0x00"
                    }
                ],
                "uncleHeaders" : [
                ],
                "withdrawals" : [
                    {
                        "address" : "0x0000000000000000000000000000000000001200",
                        "amount" : "0x01",
                        "index" : "0x00",
                        "validatorIndex" : "0x00"
                    },
                    {
                        "address" : "0x0000000000000000000000000000000000001300",
                        "amount" : "0x01",
                        "index" : "0x01",
                        "validatorIndex" : "0x01"
                    }
                ]
            }
        ],
        "config" : {
            "blobSchedule" : {
                "Cancun" : {
                    "baseFeeUpdateFraction" : "0x32f0ed",
                    "max" : "0x06",
                    "target" : "0x03"
                }
            },
            "chainid" : "0x01",
            "network" : "Cancun"
        },
        "genesisBlockHeader" : {
            "baseFeePerGas" : "0x07",
            "blobGasUsed" : "0x00",
            "bloom" : "0x00000000000000000000000000000000000000000000000000000000000000000000000000000000000000000000000000000000000000000000000000000000000000000000000000000000000000000000000000000000000000000000000000000000000000000000000000000000000000000000000000000000000000000000000000000000000000000000000000000000000000000000000000000000000000000000000000000000000000000000000000000000000000000000000000000000000000000000000000000000000000000000000000000000000000000000000000000000000000000000000000000000000000000000000000000000",
            "coinbase" : "0x0000000000000000000000000000000000000000",
            "difficulty" : "0x00",
            "excessBlobGas" : "0x00",
            "extraData" : "0x00",
            "gasLimit" : "0x016345785d8a0000",
            "gasUsed" : "0x00",
            "hash" : "0xc8a610e7a873c47c02883cdeea2be583937771b9affa9059fffc14c5dfbb025c",
            "mixHash" : "0x0000000000000000000000000000000000000000000000000000000000000000",
            "nonce" : "0x0000000000000000",
            "number" : "0x00",
            "parentBeaconBlockRoot" : "0x0000000000000000000000000000000000000000000000000000000000000000",
            "parentHash" : "0x0000000000000000000000000000000000000000000000000000000000000000",
            "receiptTrie" : "0x56e81f171bcc55a6ff8345e692c0f86e5b48e01b996cadc001622fb5e363b421",
            "stateRoot" : "0xe9de5ed6c646417da5235a0dc8f06859cf847fe2a5e91dbe223238e1077990d3",
            "timestamp" : "0x00",
            "transactionsTrie" : "0x56e81f171bcc55a6ff8345e692c0f86e5b48e01b996cadc001622fb5e363b421",
            "uncleHash" : "0x1dcc4de8dec75d7aab85b567b6ccd41ad312451b948a7413f0a142fd40d49347",
            "withdrawalsRoot" : "0x56e81f171bcc55a6ff8345e692c0f86e5b48e01b996cadc001622fb5e363b421"
        },
        "genesisRLP" : "0xf90240f9023aa00000000000000000000000000000000000000000000000000000000000000000a01dcc4de8dec75d7aab85b567b6ccd41ad312451b948a7413f0a142fd40d49347940000000000000000000000000000000000000000a0e9de5ed6c646417da5235a0dc8f06859cf847fe2a5e91dbe223238e1077990d3a056e81f171bcc55a6ff8345e692c0f86e5b48e01b996cadc001622fb5e363b421a056e81f171bcc55a6ff8345e692c0f86e5b48e01b996cadc001622fb5e363b421b9010000000000000000000000000000000000000000000000000000000000000000000000000000000000000000000000000000000000000000000000000000000000000000000000000000000000000000000000000000000000000000000000000000000000000000000000000000000000000000000000000000000000000000000000000000000000000000000000000000000000000000000000000000000000000000000000000000000000000000000000000000000000000000000000000000000000000000000000000000000000000000000000000000000000000000000000000000000000000000000000000000000000000000000000000000000000808088016345785d8a0000808000a0000000000000000000000000000000000000000000000000000000000000000088000000000000000007a056e81f171bcc55a6ff8345e692c0f86e5b48e01b996cadc001622fb5e363b4218080a00000000000000000000000000000000000000000000000000000000000000000c0c0c0",
        "lastblockhash" : "0xcf7f0447d0c35db4d17d83bcd7e85f508e1fc0c2bc19825ae0838b02dec7425d",
        "network" : "Cancun",
        "postState" : {
            "0x0000000000000000000000000000000000001000" : {
                "balance" : "0x3b9aca00",
                "code" : "0x60014355",
                "nonce" : "0x01",
                "storage" : {
                    "0x02" : "0x01"
                }
            },
            "0x0000000000000000000000000000000000001100" : {
                "balance" : "0x3b9aca00",
                "code" : "0x60014355",
                "nonce" : "0x01",
                "storage" : {
                    "0x02" : "0x01"
                }
            },
            "0x0000000000000000000000000000000000001200" : {
                "balance" : "0x3b9aca00",
                "code" : "0x60014355",
                "nonce" : "0x01",
                "storage" : {
                    "0x01" : "0x01"
                }
            },
            "0x0000000000000000000000000000000000001300" : {
                "balance" : "0x3b9aca00",
                "code" : "0x60014355",
                "nonce" : "0x01",
                "storage" : {
                    "0x01" : "0x01"
                }
            },
            "0x000f3df6d732807ef1319fb7b8bb8522d0beac02" : {
                "balance" : "0x00",
                "code" : "0x3373fffffffffffffffffffffffffffffffffffffffe14604d57602036146024575f5ffd5b5f35801560495762001fff810690815414603c575f5ffd5b62001fff01545f5260205ff35b5f5ffd5b62001fff42064281555f359062001fff015500",
                "nonce" : "0x01",
                "storage" : {
                    "0x0c" : "0x0c",
                    "0x18" : "0x18"
                }
            },
            "0x2adc25665018aa1fe0e6bc666dac8fc2697ff9ba" : {
                "balance" : "0x07e48c",
                "code" : "0x",
                "nonce" : "0x00",
                "storage" : {
                }
            },
            "0xa94f5374fce5edbc8e2a8697c15331677e6ebf0b" : {
                "balance" : "0x3635c9adc5de85b0d8",
                "code" : "0x",
                "nonce" : "0x04",
                "storage" : {
                }
            }
        },
        "pre" : {
            "0x0000000000000000000000000000000000001000" : {
                "balance" : "0x00",
                "code" : "0x60014355",
                "nonce" : "0x01",
                "storage" : {
                }
            },
            "0x0000000000000000000000000000000000001100" : {
                "balance" : "0x00",
                "code" : "0x60014355",
                "nonce" : "0x01",
                "storage" : {
                }
            },
            "0x0000000000000000000000000000000000001200" : {
                "balance" : "0x00",
                "code" : "0x60014355",
                "nonce" : "0x01",
                "storage" : {
                }
            },
            "0x0000000000000000000000000000000000001300" : {
                "balance" : "0x00",
                "code" : "0x60014355",
                "nonce" : "0x01",
                "storage" : {
                }
            },
            "0x000f3df6d732807ef1319fb7b8bb8522d0beac02" : {
                "balance" : "0x00",
                "code" : "0x3373fffffffffffffffffffffffffffffffffffffffe14604d57602036146024575f5ffd5b5f35801560495762001fff810690815414603c575f5ffd5b62001fff01545f5260205ff35b5f5ffd5b62001fff42064281555f359062001fff015500",
                "nonce" : "0x01",
                "storage" : {
                }
            },
            "0xa94f5374fce5edbc8e2a8697c15331677e6ebf0b" : {
                "balance" : "0x3635c9adc5dea00000",
                "code" : "0x",
                "nonce" : "0x00",
                "storage" : {
                }
            }
        },
        "sealEngine" : "NoProof"
    },
    "src/GeneralStateTestsFiller/Pyspecs/shanghai/eip4895_withdrawals/test_withdrawals.py::test_no_evm_execution[fork_Shanghai-blockchain_test]" : {
        "_info" : {
            "comment" : "`execution-spec-tests` generated test",
            "description" : "Test function documentation:\nTest Withdrawals don't trigger EVM execution.",
            "filling-rpc-server" : "ethereum-spec-evm 0.1.0 (Git commit: 0d5cdb0351ff34b8ef13c4c07d9fa19999c73f0b)",
            "filling-tool-version" : "retesteth-0.3.2-legacy+commit.3ee677f4.Linux.g++",
            "filling-transition-tool" : "ethereum-spec-evm-resolver 0.0.1",
            "fixture_format" : "blockchain_test",
            "generatedTestHash" : "1c95ac22f01238b11b7bdc54dd483a61282a6109373555cdd6bb2334c59d6198",
            "hash" : "0xf8ceef38a71ea19f0e210d09c8c25ffe2531329fd51c3fc527db6931d91ff43e",
            "lllcversion" : "Version: 0.5.14-develop.2024.11.5+commit.b2b86751.mod.Linux.g++",
            "solidity" : "Version: 0.8.24+commit.e11b9ed9.Linux.g++",
            "source" : "src/GeneralStateTestsFiller/Pyspecs/shanghai/eip4895_withdrawals/test_withdrawals.py",
            "sourceHash" : "fb5f669c6f7b51b12e59893b6d93a78d05b20abbb01b75ee895fc5d8ea7bd4ed",
            "url" : "https://github.com/ethereum/execution-spec-tests/blob/0d5cdb0351ff34b8ef13c4c07d9fa19999c73f0b/tests/tmp/tmptest_49426fea_d781_42db_814e_0ead22d06002/test_withdrawals.py#L456"
        },
        "blocks" : [
            {
                "blockHeader" : {
                    "baseFeePerGas" : "0x07",
                    "bloom" : "0x00000000000000000000000000000000000000000000000000000000000000000000000000000000000000000000000000000000000000000000000000000000000000000000000000000000000000000000000000000000000000000000000000000000000000000000000000000000000000000000000000000000000000000000000000000000000000000000000000000000000000000000000000000000000000000000000000000000000000000000000000000000000000000000000000000000000000000000000000000000000000000000000000000000000000000000000000000000000000000000000000000000000000000000000000000000",
                    "coinbase" : "0x2adc25665018aa1fe0e6bc666dac8fc2697ff9ba",
                    "difficulty" : "0x00",
                    "extraData" : "0x",
                    "gasLimit" : "0x016345785d8a0000",
                    "gasUsed" : "0x0150c2",
                    "hash" : "0x192e847a278494e7459204873b7c887828ccbf420323ddacf0ccfb0158a22ca1",
                    "mixHash" : "0x0000000000000000000000000000000000000000000000000000000000000000",
                    "nonce" : "0x0000000000000000",
                    "number" : "0x01",
                    "parentHash" : "0xb9bef167c7916bbe9716b1473fa2323a592135f60c28be250e346f76c84c59f4",
                    "receiptTrie" : "0x565dbae32920fdc51f307a7eae972eed4f68bf2fa895f24169f0623ef1b6d66c",
                    "stateRoot" : "0x9069ec17a32083da01bed79a935cbedc10798be01eeabd492f7d626d81feec64",
                    "timestamp" : "0x0c",
                    "transactionsTrie" : "0x795173844b728a0e81b94edb12102be164c5172d8e128271fd926043344422ed",
                    "uncleHash" : "0x1dcc4de8dec75d7aab85b567b6ccd41ad312451b948a7413f0a142fd40d49347",
                    "withdrawalsRoot" : "0x23e387493a982bbd1022d502e2cecab24f6bb8159be25c06ac52d66e2e848ee5"
                },
                "blocknumber" : "1",
                "rlp" : "0xf90317f9021aa0b9bef167c7916bbe9716b1473fa2323a592135f60c28be250e346f76c84c59f4a01dcc4de8dec75d7aab85b567b6ccd41ad312451b948a7413f0a142fd40d49347942adc25665018aa1fe0e6bc666dac8fc2697ff9baa09069ec17a32083da01bed79a935cbedc10798be01eeabd492f7d626d81feec64a0795173844b728a0e81b94edb12102be164c5172d8e128271fd926043344422eda0565dbae32920fdc51f307a7eae972eed4f68bf2fa895f24169f0623ef1b6d66cb9010000000000000000000000000000000000000000000000000000000000000000000000000000000000000000000000000000000000000000000000000000000000000000000000000000000000000000000000000000000000000000000000000000000000000000000000000000000000000000000000000000000000000000000000000000000000000000000000000000000000000000000000000000000000000000000000000000000000000000000000000000000000000000000000000000000000000000000000000000000000000000000000000000000000000000000000000000000000000000000000000000000000000000000000000000000000800188016345785d8a0000830150c20c80a0000000000000000000000000000000000000000000000000000000000000000088000000000000000007a023e387493a982bbd1022d502e2cecab24f6bb8159be25c06ac52d66e2e848ee5f8c4f860800a830186a0940000000000000000000000000000000000001200808025a08454b10108c1c7f87361698d7482111feedddf8503ef145ce8609b53aaa1287ca00167391b43827f547e1f7d65181864b6228a89e5a1f2f5311bfb64c697c57115f860010a830186a0940000000000000000000000000000000000001300808025a05c9ba43ada1ca2128575429c173be8655090b9cba475f76b8e601258b3268230a04b587e7e773d9997ba292093aa9b3c45c442fa463e54ebff4e3d41085650bc83c0f2d8808094000000000000000000000000000000000000100001d8010194000000000000000000000000000000000000110001",
                "transactions" : [
                    {
                        "chainId" : "0x01",
                        "data" : "0x",
                        "gasLimit" : "0x0186a0",
                        "gasPrice" : "0x0a",
                        "nonce" : "0x00",
                        "r" : "0x8454b10108c1c7f87361698d7482111feedddf8503ef145ce8609b53aaa1287c",
                        "s" : "0x0167391b43827f547e1f7d65181864b6228a89e5a1f2f5311bfb64c697c57115",
                        "sender" : "0xa94f5374fce5edbc8e2a8697c15331677e6ebf0b",
                        "to" : "0x0000000000000000000000000000000000001200",
                        "type" : "0x00",
                        "v" : "0x25",
                        "value" : "0x00"
                    },
                    {
                        "chainId" : "0x01",
                        "data" : "0x",
                        "gasLimit" : "0x0186a0",
                        "gasPrice" : "0x0a",
                        "nonce" : "0x01",
                        "r" : "0x5c9ba43ada1ca2128575429c173be8655090b9cba475f76b8e601258b3268230",
                        "s" : "0x4b587e7e773d9997ba292093aa9b3c45c442fa463e54ebff4e3d41085650bc83",
                        "sender" : "0xa94f5374fce5edbc8e2a8697c15331677e6ebf0b",
                        "to" : "0x0000000000000000000000000000000000001300",
                        "type" : "0x00",
                        "v" : "0x25",
                        "value" : "0x00"
                    }
                ],
                "uncleHeaders" : [
                ],
                "withdrawals" : [
                    {
                        "address" : "0x0000000000000000000000000000000000001000",
                        "amount" : "0x01",
                        "index" : "0x00",
                        "validatorIndex" : "0x00"
                    },
                    {
                        "address" : "0x0000000000000000000000000000000000001100",
                        "amount" : "0x01",
                        "index" : "0x01",
                        "validatorIndex" : "0x01"
                    }
                ]
            },
            {
                "blockHeader" : {
                    "baseFeePerGas" : "0x07",
                    "bloom" : "0x00000000000000000000000000000000000000000000000000000000000000000000000000000000000000000000000000000000000000000000000000000000000000000000000000000000000000000000000000000000000000000000000000000000000000000000000000000000000000000000000000000000000000000000000000000000000000000000000000000000000000000000000000000000000000000000000000000000000000000000000000000000000000000000000000000000000000000000000000000000000000000000000000000000000000000000000000000000000000000000000000000000000000000000000000000000",
                    "coinbase" : "0x2adc25665018aa1fe0e6bc666dac8fc2697ff9ba",
                    "difficulty" : "0x00",
                    "extraData" : "0x",
                    "gasLimit" : "0x016345785d8a0000",
                    "gasUsed" : "0x0150c2",
                    "hash" : "0xf91b1dc4ffce661a1d0d4408c250dad872647ec9ea8bc4a1cbeeefea50821284",
                    "mixHash" : "0x0000000000000000000000000000000000000000000000000000000000000000",
                    "nonce" : "0x0000000000000000",
                    "number" : "0x02",
                    "parentHash" : "0x192e847a278494e7459204873b7c887828ccbf420323ddacf0ccfb0158a22ca1",
                    "receiptTrie" : "0x565dbae32920fdc51f307a7eae972eed4f68bf2fa895f24169f0623ef1b6d66c",
                    "stateRoot" : "0xe15dbc8ce011fa93935757783c5671c3d6f60c9368898fe037f5db4a2d880358",
                    "timestamp" : "0x18",
                    "transactionsTrie" : "0x99f6c3de42c916ea84e51096ddcc3a0f3ebd497482be4b1efa9954ba61744850",
                    "uncleHash" : "0x1dcc4de8dec75d7aab85b567b6ccd41ad312451b948a7413f0a142fd40d49347",
                    "withdrawalsRoot" : "0x1f57cf256e3a54bebeb294433811b7fba82fe0cdc9b81f0b56ec472daa82efc7"
                },
                "blocknumber" : "2",
                "rlp" : "0xf90317f9021aa0192e847a278494e7459204873b7c887828ccbf420323ddacf0ccfb0158a22ca1a01dcc4de8dec75d7aab85b567b6ccd41ad312451b948a7413f0a142fd40d49347942adc25665018aa1fe0e6bc666dac8fc2697ff9baa0e15dbc8ce011fa93935757783c5671c3d6f60c9368898fe037f5db4a2d880358a099f6c3de42c916ea84e51096ddcc3a0f3ebd497482be4b1efa9954ba61744850a0565dbae32920fdc51f307a7eae972eed4f68bf2fa895f24169f0623ef1b6d66cb9010000000000000000000000000000000000000000000000000000000000000000000000000000000000000000000000000000000000000000000000000000000000000000000000000000000000000000000000000000000000000000000000000000000000000000000000000000000000000000000000000000000000000000000000000000000000000000000000000000000000000000000000000000000000000000000000000000000000000000000000000000000000000000000000000000000000000000000000000000000000000000000000000000000000000000000000000000000000000000000000000000000000000000000000000000000000800288016345785d8a0000830150c21880a0000000000000000000000000000000000000000000000000000000000000000088000000000000000007a01f57cf256e3a54bebeb294433811b7fba82fe0cdc9b81f0b56ec472daa82efc7f8c4f860020a830186a0940000000000000000000000000000000000001000808026a0a39f9b7a2a616f9f6c5f42b9f2652e3284bd9856529634790758642b85ba4b97a076af8d4918c7eda5823a88f64a8e4eebfc94aa2a4c4fe185e8439f2ff7ca47e9f860030a830186a0940000000000000000000000000000000000001100808026a09e54b048ee2a16b4ae2c7ba5ac267a4db04d12b30dffc138d1c84456bbf4ac6ea003b2bd883307c9b5ac883d8c7ba3027fdc3bc3e61e85191e4f21264928af6846c0f2d8808094000000000000000000000000000000000000120001d8010194000000000000000000000000000000000000130001",
                "transactions" : [
                    {
                        "chainId" : "0x01",
                        "data" : "0x",
                        "gasLimit" : "0x0186a0",
                        "gasPrice" : "0x0a",
                        "nonce" : "0x02",
                        "r" : "0xa39f9b7a2a616f9f6c5f42b9f2652e3284bd9856529634790758642b85ba4b97",
                        "s" : "0x76af8d4918c7eda5823a88f64a8e4eebfc94aa2a4c4fe185e8439f2ff7ca47e9",
                        "sender" : "0xa94f5374fce5edbc8e2a8697c15331677e6ebf0b",
                        "to" : "0x0000000000000000000000000000000000001000",
                        "type" : "0x00",
                        "v" : "0x26",
                        "value" : "0x00"
                    },
                    {
                        "chainId" : "0x01",
                        "data" : "0x",
                        "gasLimit" : "0x0186a0",
                        "gasPrice" : "0x0a",
                        "nonce" : "0x03",
                        "r" : "0x9e54b048ee2a16b4ae2c7ba5ac267a4db04d12b30dffc138d1c84456bbf4ac6e",
                        "s" : "0x03b2bd883307c9b5ac883d8c7ba3027fdc3bc3e61e85191e4f21264928af6846",
                        "sender" : "0xa94f5374fce5edbc8e2a8697c15331677e6ebf0b",
                        "to" : "0x0000000000000000000000000000000000001100",
                        "type" : "0x00",
                        "v" : "0x26",
                        "value" : "0x00"
                    }
                ],
                "uncleHeaders" : [
                ],
                "withdrawals" : [
                    {
                        "address" : "0x0000000000000000000000000000000000001200",
                        "amount" : "0x01",
                        "index" : "0x00",
                        "validatorIndex" : "0x00"
                    },
                    {
                        "address" : "0x0000000000000000000000000000000000001300",
                        "amount" : "0x01",
                        "index" : "0x01",
                        "validatorIndex" : "0x01"
                    }
                ]
            }
        ],
        "config" : {
            "chainid" : "0x01",
            "network" : "Shanghai"
        },
        "genesisBlockHeader" : {
            "baseFeePerGas" : "0x07",
            "bloom" : "0x00000000000000000000000000000000000000000000000000000000000000000000000000000000000000000000000000000000000000000000000000000000000000000000000000000000000000000000000000000000000000000000000000000000000000000000000000000000000000000000000000000000000000000000000000000000000000000000000000000000000000000000000000000000000000000000000000000000000000000000000000000000000000000000000000000000000000000000000000000000000000000000000000000000000000000000000000000000000000000000000000000000000000000000000000000000",
            "coinbase" : "0x0000000000000000000000000000000000000000",
            "difficulty" : "0x00",
            "extraData" : "0x00",
            "gasLimit" : "0x016345785d8a0000",
            "gasUsed" : "0x00",
            "hash" : "0xb9bef167c7916bbe9716b1473fa2323a592135f60c28be250e346f76c84c59f4",
            "mixHash" : "0x0000000000000000000000000000000000000000000000000000000000000000",
            "nonce" : "0x0000000000000000",
            "number" : "0x00",
            "parentHash" : "0x0000000000000000000000000000000000000000000000000000000000000000",
            "receiptTrie" : "0x56e81f171bcc55a6ff8345e692c0f86e5b48e01b996cadc001622fb5e363b421",
            "stateRoot" : "0xf4ff78f82e7fc62b184212551fbb26c1f05658e2ed576476f699e73db628346b",
            "timestamp" : "0x00",
            "transactionsTrie" : "0x56e81f171bcc55a6ff8345e692c0f86e5b48e01b996cadc001622fb5e363b421",
            "uncleHash" : "0x1dcc4de8dec75d7aab85b567b6ccd41ad312451b948a7413f0a142fd40d49347",
            "withdrawalsRoot" : "0x56e81f171bcc55a6ff8345e692c0f86e5b48e01b996cadc001622fb5e363b421"
        },
        "genesisRLP" : "0xf9021df90217a00000000000000000000000000000000000000000000000000000000000000000a01dcc4de8dec75d7aab85b567b6ccd41ad312451b948a7413f0a142fd40d49347940000000000000000000000000000000000000000a0f4ff78f82e7fc62b184212551fbb26c1f05658e2ed576476f699e73db628346ba056e81f171bcc55a6ff8345e692c0f86e5b48e01b996cadc001622fb5e363b421a056e81f171bcc55a6ff8345e692c0f86e5b48e01b996cadc001622fb5e363b421b9010000000000000000000000000000000000000000000000000000000000000000000000000000000000000000000000000000000000000000000000000000000000000000000000000000000000000000000000000000000000000000000000000000000000000000000000000000000000000000000000000000000000000000000000000000000000000000000000000000000000000000000000000000000000000000000000000000000000000000000000000000000000000000000000000000000000000000000000000000000000000000000000000000000000000000000000000000000000000000000000000000000000000000000000000000000000808088016345785d8a0000808000a0000000000000000000000000000000000000000000000000000000000000000088000000000000000007a056e81f171bcc55a6ff8345e692c0f86e5b48e01b996cadc001622fb5e363b421c0c0c0",
        "lastblockhash" : "0xf91b1dc4ffce661a1d0d4408c250dad872647ec9ea8bc4a1cbeeefea50821284",
        "network" : "Shanghai",
        "postState" : {
            "0x0000000000000000000000000000000000001000" : {
                "balance" : "0x3b9aca00",
                "code" : "0x60014355",
                "nonce" : "0x01",
                "storage" : {
                    "0x02" : "0x01"
                }
            },
            "0x0000000000000000000000000000000000001100" : {
                "balance" : "0x3b9aca00",
                "code" : "0x60014355",
                "nonce" : "0x01",
                "storage" : {
                    "0x02" : "0x01"
                }
            },
            "0x0000000000000000000000000000000000001200" : {
                "balance" : "0x3b9aca00",
                "code" : "0x60014355",
                "nonce" : "0x01",
                "storage" : {
                    "0x01" : "0x01"
                }
            },
            "0x0000000000000000000000000000000000001300" : {
                "balance" : "0x3b9aca00",
                "code" : "0x60014355",
                "nonce" : "0x01",
                "storage" : {
                    "0x01" : "0x01"
                }
            },
            "0x2adc25665018aa1fe0e6bc666dac8fc2697ff9ba" : {
                "balance" : "0x07e48c",
                "code" : "0x",
                "nonce" : "0x00",
                "storage" : {
                }
            },
            "0xa94f5374fce5edbc8e2a8697c15331677e6ebf0b" : {
                "balance" : "0x3635c9adc5de85b0d8",
                "code" : "0x",
                "nonce" : "0x04",
                "storage" : {
                }
            }
        },
        "pre" : {
            "0x0000000000000000000000000000000000001000" : {
                "balance" : "0x00",
                "code" : "0x60014355",
                "nonce" : "0x01",
                "storage" : {
                }
            },
            "0x0000000000000000000000000000000000001100" : {
                "balance" : "0x00",
                "code" : "0x60014355",
                "nonce" : "0x01",
                "storage" : {
                }
            },
            "0x0000000000000000000000000000000000001200" : {
                "balance" : "0x00",
                "code" : "0x60014355",
                "nonce" : "0x01",
                "storage" : {
                }
            },
            "0x0000000000000000000000000000000000001300" : {
                "balance" : "0x00",
                "code" : "0x60014355",
                "nonce" : "0x01",
                "storage" : {
                }
            },
            "0xa94f5374fce5edbc8e2a8697c15331677e6ebf0b" : {
                "balance" : "0x3635c9adc5dea00000",
                "code" : "0x",
                "nonce" : "0x00",
                "storage" : {
                }
            }
        },
        "sealEngine" : "NoProof"
    }
}