{
    "log0_quadratic_logMemSize4097": {
        "_info": {
            "comment": "",
            "filling-rpc-server": "evm version 1.15.12-unstable-33c5031a-20250519",
            "filling-tool-version": "retesteth-0.3.2-legacy+commit.f30e58c2.Linux.g++",
            "fixture-format": "state_test",
            "hash": "0x4391bef312dc549f1e2e69803d9910aef6c3ac9fed795490a6fc6f975f378d5e",
            "lllcversion": "Version: 0.5.14-develop.2025.5.20+commit.b2b86751.Linux.g++",
            "repo": "ethereum/tests",
            "solidity": "Version: 0.8.21+commit.d9974bed.Linux.g++",
            "source": "/tests/src/GeneralStateTestsFiller/stLogTests/log0_quadratic_logMemSize4097Filler.json",
            "sourceHash": "0x1b74e4d1d65b3d047aa378237a69665ac8ebd2b904e9942f986c1a6b386bd245"
        },
        "env": {
            "currentBaseFee": "0x0a",
            "currentCoinbase": "0x2adc25665018aa1fe0e6bc666dac8fc2697ff9ba",
            "currentDifficulty": "0x020000",
            "currentExcessBlobGas": "0x00",
            "currentGasLimit": "0x02ba7def3000",
            "currentNumber": "0x01",
            "currentRandom": "0x0000000000000000000000000000000000000000000000000000000000020000",
            "currentTimestamp": "0x03e8"
        },
        "post": {
            "Cancun": [
                {
                    "hash": "0x8df8cd93ca7d66bb4dd9af6799e5ab96bc2fe9d2250301c0c29c082668f468ab",
                    "indexes": {
                        "data": 0,
                        "gas": 0,
                        "value": 0
                    },
                    "logs": "0x13b06d5a5d8bd11b1b4c6c4c20ae1966febb212a4f3b26d9d7cc137cb8f29c90",
                    "state": {
                        "0x095e7baea6a6c7c4c2dfeb977efac326af552d87": {
                            "balance": "0x0de0b6b3a7658689",
                            "code": "0x60006000600060006017730f572e5295c57f15886f9b263e2f6d2d6c7b5ec662989680f160005500",
                            "nonce": "0x00",
                            "storage": {
                                "0x00": "0x01"
                            }
                        },
                        "0x0f572e5295c57f15886f9b263e2f6d2d6c7b5ec6": {
                            "balance": "0x0de0b6b3a7640017",
                            "code": "0x7faabbffffffffffffffffffffffffffffffffffffffffffffffffffffffffccdd6000526110016000a000",
                            "nonce": "0x00",
                            "storage": {}
                        },
                        "0xa94f5374fce5edbc8e2a8697c15331677e6ebf0b": {
                            "balance": "0x0de0b6b3a75559ec",
                            "code": "0x",
                            "nonce": "0x01",
                            "storage": {}
                        }
                    },
                    "txbytes": "0xf866800a8601e8f1c1080094095e7baea6a6c7c4c2dfeb977efac326af552d87830186a0801ca0a0212eaaf38fd9fccb7485faa02fd794e05667f8b460256cdc626ab09f801502a07301b97caf050474c2802bb7c6e425f3d2f7cf0bca3a0e82e7fd025aa22aaadb"
                }
            ]
        },
        "pre": {
            "0x095e7baea6a6c7c4c2dfeb977efac326af552d87": {
                "balance": "0x0de0b6b3a7640000",
                "code": "0x60006000600060006017730f572e5295c57f15886f9b263e2f6d2d6c7b5ec662989680f160005500",
                "nonce": "0x00",
                "storage": {}
            },
            "0x0f572e5295c57f15886f9b263e2f6d2d6c7b5ec6": {
                "balance": "0x0de0b6b3a7640000",
                "code": "0x7faabbffffffffffffffffffffffffffffffffffffffffffffffffffffffffccdd6000526110016000a000",
                "nonce": "0x00",
                "storage": {}
            },
            "0xa94f5374fce5edbc8e2a8697c15331677e6ebf0b": {
                "balance": "0x0de0b6b3a7640000",
                "code": "0x",
                "nonce": "0x00",
                "storage": {}
            }
        },
        "transaction": {
            "data": [
                "0x"
            ],
            "gasLimit": [
                "0x01e8f1c10800"
            ],
            "gasPrice": "0x0a",
            "nonce": "0x00",
            "secretKey": "0x45a915e4d060149eb4365960e6a7a45f334393093061116b197e3240065ff2d8",
            "sender": "0xa94f5374fce5edbc8e2a8697c15331677e6ebf0b",
            "to": "0x095e7baea6a6c7c4c2dfeb977efac326af552d87",
            "value": [
                "0x0186a0"
            ]
        }
    }
}