{
    "src/GeneralStateTestsFiller/Pyspecs/berlin/eip2930_access_list/test_acl.py::test_access_list[fork_Berlin-state_test]" : {
        "_info" : {
            "comment" : "`execution-spec-tests` generated test",
            "description" : "Test function documentation:\nTest type 1 transaction.",
            "eels-resolution" : {
                "branch" : "master",
                "commit" : "9923823367b5586228e590537d47aa9cc4c6a206",
                "git-url" : "https://github.com/ethereum/execution-specs.git"
            },
            "filling-rpc-server" : "ethereum-spec-evm 0.1.0 (Git commit: ccb249c399785b631f10e607e51313dfdcf49702)",
            "filling-tool-version" : "retesteth-0.3.2-legacy+commit.1d528976.Linux.g++",
            "filling-transition-tool" : "ethereum-spec-evm-resolver 0.0.5",
            "fixture_format" : "state_test",
            "generatedTestHash" : "4391ee8879b7a6fa9157e5fab0874950a4a2e20b80f70fe9399d8f8e3408612a",
            "hash" : "0xe2c0b99633aa435d9f05a9ac7350c3dda881466cfc3554c2bbb3f8465183bb27",
            "lllcversion" : "Version: 0.5.14-develop.2024.11.5+commit.b2b86751.mod.Linux.g++",
            "solidity" : "Version: 0.8.24+commit.e11b9ed9.Linux.g++",
            "source" : "src/GeneralStateTestsFiller/Pyspecs/berlin/eip2930_access_list/test_acl.py",
            "sourceHash" : "e68f9af68f2cfa48b47ad6188a3efdf14e84baf8c45b8074b62d69c1fbe3053a",
            "url" : "https://github.com/ethereum/execution-spec-tests/blob/8397062390a2c27466e35cd32d7216b4144755e5/tests/tmp/tmptest_bb80eef5_a547_4652_9cc6_f0bda7f088b8/test_acl.py#L19"
        },
        "config" : {
            "chainid" : "0x01"
        },
        "env" : {
            "currentCoinbase" : "0x2adc25665018aa1fe0e6bc666dac8fc2697ff9ba",
            "currentDifficulty" : "0x020000",
            "currentGasLimit" : "0x016345785d8a0000",
            "currentNumber" : "0x01",
            "currentTimestamp" : "0x03e8"
        },
        "post" : {
            "Berlin" : [
                {
                    "hash" : "0xe37a129451ac1b95298605dede1c5f13b5935f5d43cf652cdd396b0f041b4c6f",
                    "indexes" : {
                        "data" : 0,
                        "gas" : 0,
                        "value" : 0
                    },
                    "logs" : "0x1dcc4de8dec75d7aab85b567b6ccd41ad312451b948a7413f0a142fd40d49347",
                    "state" : {
                        "0x0000000000000000000000000000000000001000" : {
                            "balance" : "0x04",
                            "code" : "0x5854505854",
                            "nonce" : "0x01",
                            "storage" : {
                            }
                        },
                        "0x2adc25665018aa1fe0e6bc666dac8fc2697ff9ba" : {
                            "balance" : "0x0326ce",
                            "code" : "0x",
                            "nonce" : "0x00",
                            "storage" : {
                            }
                        },
                        "0xa94f5374fce5edbc8e2a8697c15331677e6ebf0b" : {
                            "balance" : "0x2cd931",
                            "code" : "0x",
                            "nonce" : "0x01",
                            "storage" : {
                            }
                        }
                    },
                    "txbytes" : "0x01f89b0180078304ef009400000000000000000000000000000000000010000180f838f7940000000000000000000000000000000000000000e1a0000000000000000000000000000000000000000000000000000000000000000080a081a25ffdb3797e6428f854c642e1884ee7b7be0c4ccbb7e989b70039b87e4450a02d25e40f45271d5f77735d06550dff43bf328190de034157cefec446855513d6"
                }
            ]
        },
        "pre" : {
            "0x0000000000000000000000000000000000001000" : {
                "balance" : "0x03",
                "code" : "0x5854505854",
                "nonce" : "0x01",
                "storage" : {
                }
            },
            "0xa94f5374fce5edbc8e2a8697c15331677e6ebf0b" : {
                "balance" : "0x300000",
                "code" : "0x",
                "nonce" : "0x00",
                "storage" : {
                }
            }
        },
        "transaction" : {
            "accessLists" : [
                [
                    {
                        "address" : "0x0000000000000000000000000000000000000000",
                        "storageKeys" : [
                            "0x0000000000000000000000000000000000000000000000000000000000000000"
                        ]
                    }
                ]
            ],
            "data" : [
                "0x"
            ],
            "gasLimit" : [
                "0x04ef00"
            ],
            "gasPrice" : "0x07",
            "nonce" : "0x00",
            "secretKey" : "0x45a915e4d060149eb4365960e6a7a45f334393093061116b197e3240065ff2d8",
            "sender" : "0xa94f5374fce5edbc8e2a8697c15331677e6ebf0b",
            "to" : "0x0000000000000000000000000000000000001000",
            "value" : [
                "0x01"
            ]
        }
    },
    "src/GeneralStateTestsFiller/Pyspecs/berlin/eip2930_access_list/test_acl.py::test_access_list[fork_Cancun-state_test]" : {
        "_info" : {
            "comment" : "`execution-spec-tests` generated test",
            "description" : "Test function documentation:\nTest type 1 transaction.",
            "eels-resolution" : {
                "branch" : "master",
                "commit" : "9923823367b5586228e590537d47aa9cc4c6a206",
                "git-url" : "https://github.com/ethereum/execution-specs.git"
            },
            "filling-rpc-server" : "ethereum-spec-evm 0.1.0 (Git commit: ccb249c399785b631f10e607e51313dfdcf49702)",
            "filling-tool-version" : "retesteth-0.3.2-legacy+commit.1d528976.Linux.g++",
            "filling-transition-tool" : "ethereum-spec-evm-resolver 0.0.5",
            "fixture_format" : "state_test",
            "generatedTestHash" : "2584308f0b26d4541405275df90af4f78f1bd78149cc7b97f041d7140865c1cb",
            "hash" : "0x82b0a3c7953966e3ff0463cd44d51c4c71a3a8e4efb70680c406228295d9d42f",
            "lllcversion" : "Version: 0.5.14-develop.2024.11.5+commit.b2b86751.mod.Linux.g++",
            "solidity" : "Version: 0.8.24+commit.e11b9ed9.Linux.g++",
            "source" : "src/GeneralStateTestsFiller/Pyspecs/berlin/eip2930_access_list/test_acl.py",
            "sourceHash" : "e68f9af68f2cfa48b47ad6188a3efdf14e84baf8c45b8074b62d69c1fbe3053a",
            "url" : "https://github.com/ethereum/execution-spec-tests/blob/8397062390a2c27466e35cd32d7216b4144755e5/tests/tmp/tmptest_bb80eef5_a547_4652_9cc6_f0bda7f088b8/test_acl.py#L19"
        },
        "config" : {
            "blobSchedule" : {
                "Cancun" : {
                    "baseFeeUpdateFraction" : "0x32f0ed",
                    "max" : "0x06",
                    "target" : "0x03"
                }
            },
            "chainid" : "0x01"
        },
        "env" : {
            "currentBaseFee" : "0x07",
            "currentCoinbase" : "0x2adc25665018aa1fe0e6bc666dac8fc2697ff9ba",
            "currentDifficulty" : "0x00",
            "currentExcessBlobGas" : "0x00",
            "currentGasLimit" : "0x016345785d8a0000",
            "currentNumber" : "0x01",
            "currentRandom" : "0x0000000000000000000000000000000000000000000000000000000000000000",
            "currentTimestamp" : "0x03e8"
        },
        "post" : {
            "Cancun" : [
                {
                    "hash" : "0xbba7329a789fb21eec852df40d72d9cdfdc51c993c77183b610e962210c819f6",
                    "indexes" : {
                        "data" : 0,
                        "gas" : 0,
                        "value" : 0
                    },
                    "logs" : "0x1dcc4de8dec75d7aab85b567b6ccd41ad312451b948a7413f0a142fd40d49347",
                    "state" : {
                        "0x0000000000000000000000000000000000001000" : {
                            "balance" : "0x04",
                            "code" : "0x5854505854",
                            "nonce" : "0x01",
                            "storage" : {
                            }
                        },
                        "0xa94f5374fce5edbc8e2a8697c15331677e6ebf0b" : {
                            "balance" : "0x2cd931",
                            "code" : "0x",
                            "nonce" : "0x01",
                            "storage" : {
                            }
                        }
                    },
                    "txbytes" : "0x01f89b0180078304ef009400000000000000000000000000000000000010000180f838f7940000000000000000000000000000000000000000e1a0000000000000000000000000000000000000000000000000000000000000000080a081a25ffdb3797e6428f854c642e1884ee7b7be0c4ccbb7e989b70039b87e4450a02d25e40f45271d5f77735d06550dff43bf328190de034157cefec446855513d6"
                }
            ]
        },
        "pre" : {
            "0x0000000000000000000000000000000000001000" : {
                "balance" : "0x03",
                "code" : "0x5854505854",
                "nonce" : "0x01",
                "storage" : {
                }
            },
            "0xa94f5374fce5edbc8e2a8697c15331677e6ebf0b" : {
                "balance" : "0x300000",
                "code" : "0x",
                "nonce" : "0x00",
                "storage" : {
                }
            }
        },
        "transaction" : {
            "accessLists" : [
                [
                    {
                        "address" : "0x0000000000000000000000000000000000000000",
                        "storageKeys" : [
                            "0x0000000000000000000000000000000000000000000000000000000000000000"
                        ]
                    }
                ]
            ],
            "data" : [
                "0x"
            ],
            "gasLimit" : [
                "0x04ef00"
            ],
            "gasPrice" : "0x07",
            "nonce" : "0x00",
            "secretKey" : "0x45a915e4d060149eb4365960e6a7a45f334393093061116b197e3240065ff2d8",
            "sender" : "0xa94f5374fce5edbc8e2a8697c15331677e6ebf0b",
            "to" : "0x0000000000000000000000000000000000001000",
            "value" : [
                "0x01"
            ]
        }
    },
    "src/GeneralStateTestsFiller/Pyspecs/berlin/eip2930_access_list/test_acl.py::test_access_list[fork_London-state_test]" : {
        "_info" : {
            "comment" : "`execution-spec-tests` generated test",
            "description" : "Test function documentation:\nTest type 1 transaction.",
            "eels-resolution" : {
                "branch" : "master",
                "commit" : "9923823367b5586228e590537d47aa9cc4c6a206",
                "git-url" : "https://github.com/ethereum/execution-specs.git"
            },
            "filling-rpc-server" : "ethereum-spec-evm 0.1.0 (Git commit: ccb249c399785b631f10e607e51313dfdcf49702)",
            "filling-tool-version" : "retesteth-0.3.2-legacy+commit.1d528976.Linux.g++",
            "filling-transition-tool" : "ethereum-spec-evm-resolver 0.0.5",
            "fixture_format" : "state_test",
            "generatedTestHash" : "23e3c4a00cd0914703396ea757f4578df6a3ace4f064aab3eab727fd6cd6ef5d",
            "hash" : "0xffce517029b6358dd49018635c171ee72e915795a3043c0a94348689fada82a0",
            "lllcversion" : "Version: 0.5.14-develop.2024.11.5+commit.b2b86751.mod.Linux.g++",
            "solidity" : "Version: 0.8.24+commit.e11b9ed9.Linux.g++",
            "source" : "src/GeneralStateTestsFiller/Pyspecs/berlin/eip2930_access_list/test_acl.py",
            "sourceHash" : "e68f9af68f2cfa48b47ad6188a3efdf14e84baf8c45b8074b62d69c1fbe3053a",
            "url" : "https://github.com/ethereum/execution-spec-tests/blob/8397062390a2c27466e35cd32d7216b4144755e5/tests/tmp/tmptest_bb80eef5_a547_4652_9cc6_f0bda7f088b8/test_acl.py#L19"
        },
        "config" : {
            "chainid" : "0x01"
        },
        "env" : {
            "currentBaseFee" : "0x07",
            "currentCoinbase" : "0x2adc25665018aa1fe0e6bc666dac8fc2697ff9ba",
            "currentDifficulty" : "0x020000",
            "currentGasLimit" : "0x016345785d8a0000",
            "currentNumber" : "0x01",
            "currentTimestamp" : "0x03e8"
        },
        "post" : {
            "London" : [
                {
                    "hash" : "0xbba7329a789fb21eec852df40d72d9cdfdc51c993c77183b610e962210c819f6",
                    "indexes" : {
                        "data" : 0,
                        "gas" : 0,
                        "value" : 0
                    },
                    "logs" : "0x1dcc4de8dec75d7aab85b567b6ccd41ad312451b948a7413f0a142fd40d49347",
                    "state" : {
                        "0x0000000000000000000000000000000000001000" : {
                            "balance" : "0x04",
                            "code" : "0x5854505854",
                            "nonce" : "0x01",
                            "storage" : {
                            }
                        },
                        "0xa94f5374fce5edbc8e2a8697c15331677e6ebf0b" : {
                            "balance" : "0x2cd931",
                            "code" : "0x",
                            "nonce" : "0x01",
                            "storage" : {
                            }
                        }
                    },
                    "txbytes" : "0x01f89b0180078304ef009400000000000000000000000000000000000010000180f838f7940000000000000000000000000000000000000000e1a0000000000000000000000000000000000000000000000000000000000000000080a081a25ffdb3797e6428f854c642e1884ee7b7be0c4ccbb7e989b70039b87e4450a02d25e40f45271d5f77735d06550dff43bf328190de034157cefec446855513d6"
                }
            ]
        },
        "pre" : {
            "0x0000000000000000000000000000000000001000" : {
                "balance" : "0x03",
                "code" : "0x5854505854",
                "nonce" : "0x01",
                "storage" : {
                }
            },
            "0xa94f5374fce5edbc8e2a8697c15331677e6ebf0b" : {
                "balance" : "0x300000",
                "code" : "0x",
                "nonce" : "0x00",
                "storage" : {
                }
            }
        },
        "transaction" : {
            "accessLists" : [
                [
                    {
                        "address" : "0x0000000000000000000000000000000000000000",
                        "storageKeys" : [
                            "0x0000000000000000000000000000000000000000000000000000000000000000"
                        ]
                    }
                ]
            ],
            "data" : [
                "0x"
            ],
            "gasLimit" : [
                "0x04ef00"
            ],
            "gasPrice" : "0x07",
            "nonce" : "0x00",
            "secretKey" : "0x45a915e4d060149eb4365960e6a7a45f334393093061116b197e3240065ff2d8",
            "sender" : "0xa94f5374fce5edbc8e2a8697c15331677e6ebf0b",
            "to" : "0x0000000000000000000000000000000000001000",
            "value" : [
                "0x01"
            ]
        }
    },
    "src/GeneralStateTestsFiller/Pyspecs/berlin/eip2930_access_list/test_acl.py::test_access_list[fork_Paris-state_test]" : {
        "_info" : {
            "comment" : "`execution-spec-tests` generated test",
            "description" : "Test function documentation:\nTest type 1 transaction.",
            "eels-resolution" : {
                "branch" : "master",
                "commit" : "9923823367b5586228e590537d47aa9cc4c6a206",
                "git-url" : "https://github.com/ethereum/execution-specs.git"
            },
            "filling-rpc-server" : "ethereum-spec-evm 0.1.0 (Git commit: ccb249c399785b631f10e607e51313dfdcf49702)",
            "filling-tool-version" : "retesteth-0.3.2-legacy+commit.1d528976.Linux.g++",
            "filling-transition-tool" : "ethereum-spec-evm-resolver 0.0.5",
            "fixture_format" : "state_test",
            "generatedTestHash" : "c362028bee05b67963492d6222a0af5a75d17a5c5b0812266a7fb7361d97003c",
            "hash" : "0x3c3320d8d38a8ca84073c39cb4a9dfd6460a4f1888050d24ef63627549b786e4",
            "lllcversion" : "Version: 0.5.14-develop.2024.11.5+commit.b2b86751.mod.Linux.g++",
            "solidity" : "Version: 0.8.24+commit.e11b9ed9.Linux.g++",
            "source" : "src/GeneralStateTestsFiller/Pyspecs/berlin/eip2930_access_list/test_acl.py",
            "sourceHash" : "e68f9af68f2cfa48b47ad6188a3efdf14e84baf8c45b8074b62d69c1fbe3053a",
            "url" : "https://github.com/ethereum/execution-spec-tests/blob/8397062390a2c27466e35cd32d7216b4144755e5/tests/tmp/tmptest_bb80eef5_a547_4652_9cc6_f0bda7f088b8/test_acl.py#L19"
        },
        "config" : {
            "chainid" : "0x01"
        },
        "env" : {
            "currentBaseFee" : "0x07",
            "currentCoinbase" : "0x2adc25665018aa1fe0e6bc666dac8fc2697ff9ba",
            "currentDifficulty" : "0x00",
            "currentGasLimit" : "0x016345785d8a0000",
            "currentNumber" : "0x01",
            "currentRandom" : "0x0000000000000000000000000000000000000000000000000000000000000000",
            "currentTimestamp" : "0x03e8"
        },
        "post" : {
            "Paris" : [
                {
                    "hash" : "0xbba7329a789fb21eec852df40d72d9cdfdc51c993c77183b610e962210c819f6",
                    "indexes" : {
                        "data" : 0,
                        "gas" : 0,
                        "value" : 0
                    },
                    "logs" : "0x1dcc4de8dec75d7aab85b567b6ccd41ad312451b948a7413f0a142fd40d49347",
                    "state" : {
                        "0x0000000000000000000000000000000000001000" : {
                            "balance" : "0x04",
                            "code" : "0x5854505854",
                            "nonce" : "0x01",
                            "storage" : {
                            }
                        },
                        "0xa94f5374fce5edbc8e2a8697c15331677e6ebf0b" : {
                            "balance" : "0x2cd931",
                            "code" : "0x",
                            "nonce" : "0x01",
                            "storage" : {
                            }
                        }
                    },
                    "txbytes" : "0x01f89b0180078304ef009400000000000000000000000000000000000010000180f838f7940000000000000000000000000000000000000000e1a0000000000000000000000000000000000000000000000000000000000000000080a081a25ffdb3797e6428f854c642e1884ee7b7be0c4ccbb7e989b70039b87e4450a02d25e40f45271d5f77735d06550dff43bf328190de034157cefec446855513d6"
                }
            ]
        },
        "pre" : {
            "0x0000000000000000000000000000000000001000" : {
                "balance" : "0x03",
                "code" : "0x5854505854",
                "nonce" : "0x01",
                "storage" : {
                }
            },
            "0xa94f5374fce5edbc8e2a8697c15331677e6ebf0b" : {
                "balance" : "0x300000",
                "code" : "0x",
                "nonce" : "0x00",
                "storage" : {
                }
            }
        },
        "transaction" : {
            "accessLists" : [
                [
                    {
                        "address" : "0x0000000000000000000000000000000000000000",
                        "storageKeys" : [
                            "0x0000000000000000000000000000000000000000000000000000000000000000"
                        ]
                    }
                ]
            ],
            "data" : [
                "0x"
            ],
            "gasLimit" : [
                "0x04ef00"
            ],
            "gasPrice" : "0x07",
            "nonce" : "0x00",
            "secretKey" : "0x45a915e4d060149eb4365960e6a7a45f334393093061116b197e3240065ff2d8",
            "sender" : "0xa94f5374fce5edbc8e2a8697c15331677e6ebf0b",
            "to" : "0x0000000000000000000000000000000000001000",
            "value" : [
                "0x01"
            ]
        }
    },
    "src/GeneralStateTestsFiller/Pyspecs/berlin/eip2930_access_list/test_acl.py::test_access_list[fork_Prague-state_test]" : {
        "_info" : {
            "comment" : "`execution-spec-tests` generated test",
            "description" : "Test function documentation:\nTest type 1 transaction.",
            "eels-resolution" : {
                "branch" : "devnets/prague/6",
                "commit" : "a25a8ab3a2989b15baac19eb327325e442342a60",
                "git-url" : "https://github.com/ethereum/execution-specs.git"
            },
            "filling-rpc-server" : "ethereum-spec-evm 0.1.0 (Git commit: ccb249c399785b631f10e607e51313dfdcf49702)",
            "filling-tool-version" : "retesteth-0.3.2-legacy+commit.1d528976.Linux.g++",
            "filling-transition-tool" : "ethereum-spec-evm-resolver 0.0.5",
            "fixture_format" : "state_test",
            "generatedTestHash" : "368b89c652100773ff62ac66a4231cc173e56f45e4cbfb84dc30b0f5b12e90d6",
            "hash" : "0x6231a39b4c77f3ecec712dd0e124045ccf10e4ac2b9e8797a38b99341f47f1e9",
            "lllcversion" : "Version: 0.5.14-develop.2024.11.5+commit.b2b86751.mod.Linux.g++",
            "solidity" : "Version: 0.8.24+commit.e11b9ed9.Linux.g++",
            "source" : "src/GeneralStateTestsFiller/Pyspecs/berlin/eip2930_access_list/test_acl.py",
            "sourceHash" : "e68f9af68f2cfa48b47ad6188a3efdf14e84baf8c45b8074b62d69c1fbe3053a",
            "url" : "https://github.com/ethereum/execution-spec-tests/blob/8397062390a2c27466e35cd32d7216b4144755e5/tests/tmp/tmptest_bb80eef5_a547_4652_9cc6_f0bda7f088b8/test_acl.py#L19"
        },
        "config" : {
            "blobSchedule" : {
                "Cancun" : {
                    "baseFeeUpdateFraction" : "0x32f0ed",
                    "max" : "0x06",
                    "target" : "0x03"
                },
                "Prague" : {
                    "baseFeeUpdateFraction" : "0x4c6964",
                    "max" : "0x09",
                    "target" : "0x06"
                }
            },
            "chainid" : "0x01"
        },
        "env" : {
            "currentBaseFee" : "0x07",
            "currentCoinbase" : "0x2adc25665018aa1fe0e6bc666dac8fc2697ff9ba",
            "currentDifficulty" : "0x00",
            "currentExcessBlobGas" : "0x00",
            "currentGasLimit" : "0x016345785d8a0000",
            "currentNumber" : "0x01",
            "currentRandom" : "0x0000000000000000000000000000000000000000000000000000000000000000",
            "currentTimestamp" : "0x03e8"
        },
        "post" : {
            "Prague" : [
                {
                    "hash" : "0xbba7329a789fb21eec852df40d72d9cdfdc51c993c77183b610e962210c819f6",
                    "indexes" : {
                        "data" : 0,
                        "gas" : 0,
                        "value" : 0
                    },
                    "logs" : "0x1dcc4de8dec75d7aab85b567b6ccd41ad312451b948a7413f0a142fd40d49347",
                    "state" : {
                        "0x0000000000000000000000000000000000001000" : {
                            "balance" : "0x04",
                            "code" : "0x5854505854",
                            "nonce" : "0x01",
                            "storage" : {
                            }
                        },
                        "0xa94f5374fce5edbc8e2a8697c15331677e6ebf0b" : {
                            "balance" : "0x2cd931",
                            "code" : "0x",
                            "nonce" : "0x01",
                            "storage" : {
                            }
                        }
                    },
                    "txbytes" : "0x01f89b0180078304ef009400000000000000000000000000000000000010000180f838f7940000000000000000000000000000000000000000e1a0000000000000000000000000000000000000000000000000000000000000000080a081a25ffdb3797e6428f854c642e1884ee7b7be0c4ccbb7e989b70039b87e4450a02d25e40f45271d5f77735d06550dff43bf328190de034157cefec446855513d6"
                }
            ]
        },
        "pre" : {
            "0x0000000000000000000000000000000000001000" : {
                "balance" : "0x03",
                "code" : "0x5854505854",
                "nonce" : "0x01",
                "storage" : {
                }
            },
            "0xa94f5374fce5edbc8e2a8697c15331677e6ebf0b" : {
                "balance" : "0x300000",
                "code" : "0x",
                "nonce" : "0x00",
                "storage" : {
                }
            }
        },
        "transaction" : {
            "accessLists" : [
                [
                    {
                        "address" : "0x0000000000000000000000000000000000000000",
                        "storageKeys" : [
                            "0x0000000000000000000000000000000000000000000000000000000000000000"
                        ]
                    }
                ]
            ],
            "data" : [
                "0x"
            ],
            "gasLimit" : [
                "0x04ef00"
            ],
            "gasPrice" : "0x07",
            "nonce" : "0x00",
            "secretKey" : "0x45a915e4d060149eb4365960e6a7a45f334393093061116b197e3240065ff2d8",
            "sender" : "0xa94f5374fce5edbc8e2a8697c15331677e6ebf0b",
            "to" : "0x0000000000000000000000000000000000001000",
            "value" : [
                "0x01"
            ]
        }
    },
    "src/GeneralStateTestsFiller/Pyspecs/berlin/eip2930_access_list/test_acl.py::test_access_list[fork_Shanghai-state_test]" : {
        "_info" : {
            "comment" : "`execution-spec-tests` generated test",
            "description" : "Test function documentation:\nTest type 1 transaction.",
            "eels-resolution" : {
                "branch" : "master",
                "commit" : "9923823367b5586228e590537d47aa9cc4c6a206",
                "git-url" : "https://github.com/ethereum/execution-specs.git"
            },
            "filling-rpc-server" : "ethereum-spec-evm 0.1.0 (Git commit: ccb249c399785b631f10e607e51313dfdcf49702)",
            "filling-tool-version" : "retesteth-0.3.2-legacy+commit.1d528976.Linux.g++",
            "filling-transition-tool" : "ethereum-spec-evm-resolver 0.0.5",
            "fixture_format" : "state_test",
            "generatedTestHash" : "c12bd16a254c94f777418758d831a89e910df1195e3a2bbf0c7f7dfd191220bb",
            "hash" : "0x1ce39cda7f13fa6a5e9382199f7481f32555735df34d3671925bfe3a4314b65e",
            "lllcversion" : "Version: 0.5.14-develop.2024.11.5+commit.b2b86751.mod.Linux.g++",
            "solidity" : "Version: 0.8.24+commit.e11b9ed9.Linux.g++",
            "source" : "src/GeneralStateTestsFiller/Pyspecs/berlin/eip2930_access_list/test_acl.py",
            "sourceHash" : "e68f9af68f2cfa48b47ad6188a3efdf14e84baf8c45b8074b62d69c1fbe3053a",
            "url" : "https://github.com/ethereum/execution-spec-tests/blob/8397062390a2c27466e35cd32d7216b4144755e5/tests/tmp/tmptest_bb80eef5_a547_4652_9cc6_f0bda7f088b8/test_acl.py#L19"
        },
        "config" : {
            "chainid" : "0x01"
        },
        "env" : {
            "currentBaseFee" : "0x07",
            "currentCoinbase" : "0x2adc25665018aa1fe0e6bc666dac8fc2697ff9ba",
            "currentDifficulty" : "0x00",
            "currentGasLimit" : "0x016345785d8a0000",
            "currentNumber" : "0x01",
            "currentRandom" : "0x0000000000000000000000000000000000000000000000000000000000000000",
            "currentTimestamp" : "0x03e8"
        },
        "post" : {
            "Shanghai" : [
                {
                    "hash" : "0xbba7329a789fb21eec852df40d72d9cdfdc51c993c77183b610e962210c819f6",
                    "indexes" : {
                        "data" : 0,
                        "gas" : 0,
                        "value" : 0
                    },
                    "logs" : "0x1dcc4de8dec75d7aab85b567b6ccd41ad312451b948a7413f0a142fd40d49347",
                    "state" : {
                        "0x0000000000000000000000000000000000001000" : {
                            "balance" : "0x04",
                            "code" : "0x5854505854",
                            "nonce" : "0x01",
                            "storage" : {
                            }
                        },
                        "0xa94f5374fce5edbc8e2a8697c15331677e6ebf0b" : {
                            "balance" : "0x2cd931",
                            "code" : "0x",
                            "nonce" : "0x01",
                            "storage" : {
                            }
                        }
                    },
                    "txbytes" : "0x01f89b0180078304ef009400000000000000000000000000000000000010000180f838f7940000000000000000000000000000000000000000e1a0000000000000000000000000000000000000000000000000000000000000000080a081a25ffdb3797e6428f854c642e1884ee7b7be0c4ccbb7e989b70039b87e4450a02d25e40f45271d5f77735d06550dff43bf328190de034157cefec446855513d6"
                }
            ]
        },
        "pre" : {
            "0x0000000000000000000000000000000000001000" : {
                "balance" : "0x03",
                "code" : "0x5854505854",
                "nonce" : "0x01",
                "storage" : {
                }
            },
            "0xa94f5374fce5edbc8e2a8697c15331677e6ebf0b" : {
                "balance" : "0x300000",
                "code" : "0x",
                "nonce" : "0x00",
                "storage" : {
                }
            }
        },
        "transaction" : {
            "accessLists" : [
                [
                    {
                        "address" : "0x0000000000000000000000000000000000000000",
                        "storageKeys" : [
                            "0x0000000000000000000000000000000000000000000000000000000000000000"
                        ]
                    }
                ]
            ],
            "data" : [
                "0x"
            ],
            "gasLimit" : [
                "0x04ef00"
            ],
            "gasPrice" : "0x07",
            "nonce" : "0x00",
            "secretKey" : "0x45a915e4d060149eb4365960e6a7a45f334393093061116b197e3240065ff2d8",
            "sender" : "0xa94f5374fce5edbc8e2a8697c15331677e6ebf0b",
            "to" : "0x0000000000000000000000000000000000001000",
            "value" : [
                "0x01"
            ]
        }
    }
}